:020000040800F2
:10200000683A0020D9200008B58900080165000859
:1020100000000000000000000000000000000000C0
:102020000000000000000000000000006D8F0008AC
:102030000000000000000000B9890008718F00084E
:10204000EB200008EB200008798B0008EB2000084B
:10205000EB200008492B00081D2C0008EB2000088D
:10206000EB200008EB200008752A0008EB20000890
:1020700091290008EB200008EB200008EB20000865
:10208000EB200008EB200008EB2000080000000017
:10209000EB200008EB200008EB200008EB200008F4
:1020A000EB200008EB2000086B8F00089D930008D0
:1020B000EB20000899290008EB200008EB2000081D
:1020C0000448854600F04CFB00480047051801080D
:1020D000C046C046683A002004488047044800478C
:1020E000FEE7FEE7FEE7FEE7FEE7FEE7C190000839
:1020F000C120000830B50B460146002020220124F3
:1021000009E00D46D5409D4205D31D469540491B2B
:102110002546954040191546521E002DF1DC30BD74
:1021200070B500242546002801DA01244042002928
:1021300001DA01254942FFF7DDFFAC4200D0404201
:10214000002C00D0494270BDF0B51FB406460020F7
:1021500082B005464024019100901BE0019922467F
:102160000F46304600F0EAF8049A059B801A994120
:1021700010D310461946224600F0D0F8361A8F4187
:102180000197224601200021009F00F0C7F838186F
:102190004D4100902046641E0028DFDC019B009822
:1021A0002946324607B0F0BD00487047B4510108D7
:1021B00010B5431A934209D28318881803E0401ED1
:1021C00001785B1E1970521EF9D210BD03460B43F5
:1021D0009B0703D009E008C9121F08C0042AFAD2DD
:1021E00003E00B780370401C491C521EF9D210BD4D
:1021F000D2B201E00270401C491EFBD2704700229F
:10220000F6E710B513460A4604461946FFF7F0FFF5
:10221000204610BD30B505462A460B4610781C787E
:10222000521C5B1C002801D0A042F7D0002C03D028
:10223000002802D06D1CEFE7284630BD421C017813
:10224000401C0029FBD1801A704710B5002200E025
:10225000521C835C8C5CA34201D1002BF8D1D8B214
:10226000E1B2401A10BD30B504460020034600E03C
:102270005B1C934203D2E05CCD5C401BF8D030BDC8
:1022800003460A780270401C491C002AF9D11846FE
:102290007047000070B5104D002800D12868002458
:1022A00014E00A4602E09E4203D0521C1378002B31
:1022B000F9D1DAB2224307D0002B06D0002C04D08B
:1022C00000210170401C04E00446401C0678002EEA
:1022D000E7D12860204670BD740300200321001D53
:1022E000401E037812021A43491EF9D51046704762
:1022F000034603220870000A491C521EFAD51846EC
:10230000704770B5064607F08FFC046805460A2240
:102310000021304600F024F82C6070BD10B5202A52
:1023200004DB0146203A9140002010BD914020235B
:102330009C1A0346E3401943904010BD10B5202A73
:1023400004DB0846203AD040002110BD0B46D340A4
:10235000D0402024A21A91400843194610BD000025
:10236000F7B5009C0F4600262578641C002D05D08B
:10237000FFF71AFF0068405DC007F5D12B2D02D092
:102380002D2D18D0641E39462046029A00F00DFA11
:10239000002F04D03968A14201D10099396071053C
:1023A000022400290BDA4042002803DD07F03CFC40
:1023B0000460A007FEBD012080020643E3E7002879
:1023C000F8DA07F031FC04600048FEBDFFFFFF7F34
:1023D000F0B507460846584087B0C00F0490480043
:1023E0000E46590040084908BC1A884105D23846B3
:1023F00031461E4617460B46024658004008104319
:102400004DD0300D039040055900400D490D059009
:10241000401A0290402873DA18030121000B0905C5
:102420000843019004980092002806D01146019AB2
:1024300049420020904100910190029840210A1ADF
:1024400001990098FFF76AFF05460C466B4607CBDB
:1024500000F098F9C0197141039A0E0D0023D717A7
:1024600056401A467A40164344D0049A002A2DD08A
:10247000029A012A039A15DC1205C01A914101261D
:102480003605001C7141D20F059ED20700930192C0
:1024900002962A46234600F0E8F907B0F0BD384618
:1024A0003146FAE71605234A0F46B218C01AB7415B
:1024B00001210905001C4F4100187F4111461818E1
:1024C0007941E20F10436D19644113E0E2076D0892
:1024D00015436408C2071443039A01261205C01A63
:1024E00091413605001C7141CE0740083043490830
:1024F000C01851412A46234600F0AAF9CDE7FFE76C
:10250000049801224000C117121A00238B4104983D
:102510003146C417381AA141EEE730B40124E4076C
:10252000634030BC54E730B40124E407614030BC60
:102530004EE700000000E0FFF0B51FB488B00B9933
:102540000998002448400999C00F49004908099199
:10255000C0070B990090490049080B910999089808
:10256000A64608431CD00B990A98084318D009982E
:1025700001244000420D4800410D09982405000344
:10258000000B204309900B980003000B20430B9095
:1025900050181C494018002201901446104605E0CE
:1025A000002001460DB0F0BD032801DA034600E02B
:1025B00003239C46C11A0AAE0AE05F0008ADED5B3A
:1025C0004F00F75B7D430027AA187C41491C5B1E26
:1025D0006145F2DD410004AB5A522104120C0A435A
:1025E000240C401C0828DFDB0198029000997046FB
:1025F00001910090059B049A0799069800F035F91F
:10260000D0E700000DFCFFFFF0B50C465C4085B044
:10261000E40FE40703944C00002664085900944634
:10262000490802460296224321D062460A431ED040
:102630006200570D4A000E032303550D0124024684
:102640002C492405781B1B0B360B401823432643CB
:10265000614600901C46501AB44103D30098401CB8
:10266000009002E0921800985B41002803DA0020F5
:10267000014605B0F0BD0020012109050746864648
:1026800011E064461D46141BB54106D36546521B36
:10269000B341744607430C43A646CD07400849089A
:1026A000284392185B4105460D43EAD11046184372
:1026B00013D06046194650407140084306D060462A
:1026C000101AB34106D20122002306E000220123A2
:1026D000DB0702E00122D243531000987446010543
:1026E000381C6141029C039D0019694100F0B0F85B
:1026F000BFE70000FD0300004A0009030123090BA6
:102700001B0519430A4B10B5520D9A4202DA0020FC
:10271000014610BD064B34339A4203DC9A1AFFF788
:102720000DFE10BD034BD218FFF7F8FD10BD0000E1
:10273000FF030000CDFBFFFF10B5002904DB0124DF
:10274000E40740428C412146002B04DB1C46012358
:10275000DB075242A341994200D1904210BD0000D4
:10276000064C0125064E05E0E36807CC2B430C3CE4
:1027700098471034B442F7D3FFF7A6FC7854010809
:10278000A854010810B5202A06DBCB170846203ACA
:102790001041C1170B4306E00B461341D0402024E3
:1027A000A21A91400843194610BDF7B582B0029CA9
:1027B00000272078641C15460197302802D0002D90
:1027C00015D015E020780127641C782804D05828FB
:1027D00002D0002D09D00BE0002D01D0102D07D123
:1027E000002710252078641C02E0082500E00A2557
:1027F0000026009610E00099012769430818020C92
:10280000294680B2714300908E183804864201D365
:10281000012001902078641C294600F078F80028F7
:10282000E9DA0398002805D0002F01D0641E00E0EB
:10283000029C04600198002806D007F0F5F90221F7
:102840000160C81E05B0F0BD009930040843F9E7E7
:1028500010B5002B08DA0024401C614192185B413E
:102860001A4301D14008400010BDF0B51FB482B03A
:1028700005460C0003D0084607F01EF802E007F0FA
:102880001BF820300246009021462846FFF746FDFF
:10289000049B059A04460F4618431143084314D07D
:1028A000184610431BD0009840210A1A1846059973
:1028B000FFF744FD05460E46009A05990498FFF778
:1028C0002DFD084305D0012004E02046394607B01D
:1028D000F0BD0020C11705430E432C433743009938
:1028E0000E986305401A7905E40A00220C43FD0A9C
:1028F0000A3002D500200146E9E7010510196941B7
:102900000C9C0D9D00196941FFF7A2FFDFE73A28F3
:1029100000D23038202302469A43412A01D3104680
:102920003738884201D30020C043704770B58C18F7
:102930000578401C6B075B0F01D10378401C2A11FE
:1029400006D10278401C03E006780E70401C491C3A
:102950005B1EF9D12B0705D40023521E0DD40B703A
:10296000491CFAE70378401CCB1A921C03E01D783F
:102970000D70491C5B1C521EF9D5A142D8D3002012
:1029800070BD000003B40148019001BD8901002021
:1029900010B507F035FE10BD10B5274805F0E2F878
:1029A00000280AD025A008F01DF82348446A00BF7B
:1029B00008202749086200BF00BF00BF1E48C06949
:1029C000022108404008002808D022A008F00AF898
:1029D00000BF02201849086200BF00BF164805F07A
:1029E000BBF8002808D01FA007F0FCFF00BF0420A0
:1029F0001149086200BF00BF00BF0F48C069202115
:102A000008404009002804D00B49496AC8B20FF0B9
:102A1000E6FF094805F0B4F800280BD0064805F099
:102A200095F8002806D000BF10200349086200BFB7
:102A30000FF0D4FF10BD0000004800404C5055413D
:102A4000525431204F7665722072756E0D0A000067
:102A5000003801404672616D65206572726F720DBB
:102A60000A0000004E6F697365206572726F720D07
:102A70000A00000010B500BF294800682021084066
:102A8000400900280AD000BF20202549486000BF27
:102A9000012012F027F912F01BF90DE000BF2048C9
:102AA000006880210840C009002805D01DA007F05B
:102AB00099FF002012F016F900BF194800680121A3
:102AC00089020840800A002807D000BF0846144940
:102AD000486000BF012012F0B9F800BF104800683C
:102AE000012149020840400A002808D000BF4810D0
:102AF0000B49486000BF012012F0A8F80EE000BFAB
:102B0000074800680121C9020840C00A002805D012
:102B100009A007F067FF002012F098F810BD000030
:102B20000000024055534152543120544532206533
:102B300072726F720D0A0000555341525431204594
:102B400072726F720D0A000030B585B0012004F07A
:102B500009F900281CD0012004F01EF820202B4980
:102B6000886100BF05202A4908600CF089F8002818
:102B70000ED00FF0B1FC0EF037F911F0B5FB0446A2
:102B8000BD20005D04218843001DBD21085500BF04
:102B9000022004F0E7F8002836D0022003F0FCFF02
:102BA00011F0BAFB05461B48056000200090022189
:102BB000164804F001FA002801D0012000E00020AE
:102BC000029008210520000704F0F6F9002801D042
:102BD000012000E000200190012149030E4804F08B
:102BE000EBF903900020049068460FF0DFFC11F031
:102BF0007BFB0446BD34207802218843801C207072
:102C0000022003F0C9FF00BF05B030BD0004005032
:102C1000FC0100201C0200200008005000B585B017
:102C200017A007F0DFFE082004F09CF8002825D04C
:102C3000082003F0B1FF002000900221144804F0A6
:102C4000BBF9002801D0012000E0002002900821FB
:102C50000520000704F0B0F9002801D0012000E0B1
:102C600000200190012149030A4804F0A5F90390CE
:102C70000120049068460FF099FC00BF05B000BD2C
:102C8000455854322D33206972710D0A000000003E
:102C9000000400500008005011F03EFB044603A25F
:102CA000214607A007F0DAFE06F0A4FF2E2E2F43E0
:102CB0006F72652F5372632F6D61696E2E63000012
:102CC0001B5B323B33316D3C25753E205B455D20FF
:102CD0002573203A204572726F722068616E646CB1
:102CE000650D0A1B5B306D00F0B5069C0D46154066
:102CF0001E468E433543059EAE19079D751928184B
:102D00000546A5402026361B0746F7403D4328468A
:102D10004018F0BD00210A4A51610A494968012260
:102D200052021143074A5160114649680822114373
:102D3000044A51600021C209D201116070470000AD
:102D4000D81F002000200240002039498969FF2255
:102D500001321140914208D136494969022211439A
:102D6000344A5161FF210131084331498969012207
:102D700052021140914208D12E4949690122114362
:102D80002C4A5161012149020843294989690122DC
:102D900092021140914208D1264949690822114303
:102DA000244A51610121890208432149896901228C
:102DB000D2021140914208D11E49496904221143AF
:102DC0001C4A51610121C90208431949896901223C
:102DD00052031140914208D116494969102211430A
:102DE000144A5161012149030843114989690122AB
:102DF00052041140914207D10E49496920221143E2
:102E00000C4A5161202108430949896901221204B1
:102E10001140914208D10749496940221143054AAE
:102E2000516101210904084301498861704700008C
:102E300000200240D81F002070B5044600F0FEFBC1
:102E400005460BE0601C002808D0002C04D000F0E0
:102E5000F5FB401BA04201D9032070BD1F488069CB
:102E6000C007C00F0028EDD11C488069022108402E
:102E7000022801D11949886118488069FF21013170
:102E80000840884223D0154880694900084088429C
:102E90001DD01248806949000840884217D00F4869
:102EA000806949000840884211D00C488069890037
:102EB000084088420BD009488069090108408842CF
:102EC00005D00648806949100840884203D1FFF7C1
:102ED0003BFF0120C1E70020BFE7000000200240C7
:102EE000F0B5069C0D461D4016469E433543059E93
:102EF000AE19079D751928180546A5402026361BD2
:102F00000746F7403D4328464018F0BD0348406857
:102F10000121084301494860002070470020024019
:102F2000F8B504460D461646012700BF2148007C2F
:102F3000012801D10220F8BD01201E49087400BFFC
:102F4000002C03D0012C01D0022C00D104E0B721C9
:102F5000890019A009F016FB2748854203D32748AA
:102F6000854200D803E0264913A009F00BFB254851
:102F7000FFF762FF0746002F14D10E494861022C6B
:102F800001D12E6008E0012C01D12E8004E0002C3C
:102F900001D12E7000E00127002F03D01948FFF760
:102FA0004BFF074600BF00200249087400BF3846A7
:102FB000C1E70000D81F00202E2E2F4472697665CD
:102FC00072732F53544D33324C3078785F48414CF4
:102FD0005F4472697665722F5372632F73746D3319
:102FE000326C3078785F68616C5F666C6173685FC3
:102FF00065782E630000000000000808FF1708082D
:10300000DD02000050C300000F484068C007C00F39
:10301000002816D000BFEFF31080014600BF72B643
:103020000A48094AD0600A48D06000BF81F310887E
:1030300000BF10464068C007C00F002801D0012023
:1030400070470020FCE7000000200240EFCDAB8974
:1030500005040302F8B504460E460127002500BF0B
:103060004248007C012801D10220F8BD01203F49DF
:10307000087400BF3E48FFF7DFFE0746002F6DD102
:10308000401E3060A068002807D03A49898F0904A3
:10309000490BA068884200D803E0BC2136A009F0A3
:1030A00071FA2068002800D103E0BD2132A009F0A8
:1030B00069FA0121C906606888420AD32D49898FBF
:1030C000090489090122D20689186068884200D261
:1030D00003E0BE2128A009F055FA6068C009C001CC
:1030E000A168C9014018401E0121C906884210D3B9
:1030F0006068C009C001A168C9014018401E1D498F
:10310000898F090489090122D2068918884200D2D0
:1031100003E0BF2118A009F035FA656817E02846DA
:10312000FFF7F8FD1248FFF787FE07462248406880
:10313000082188432049486008464068491588436B
:103140001D494860002F01D0356006E08035A06839
:10315000C00161684018A842E1D800BF00BF00204C
:103160000249087400BF38467FE70000D81F0020DE
:1031700050C300004000F81F2E2E2F447269766560
:1031800072732F53544D33324C3078785F48414C32
:103190005F4472697665722F5372632F73746D3357
:1031A000326C3078785F68616C5F666C6173685F01
:1031B00065782E6300000000002002400648406849
:1031C0000221084304494860084640680121084339
:1031D0000149486000207047002002401D484068B7
:1031E000C007C00F002816D000BFEFF310800146C3
:1031F00000BF72B61848174AD0601848D06000BFA8
:1032000081F3108800BF10464068C007C00F002837
:1032100001D0012070470F48406802221040022868
:1032200015D100BFEFF31080014672B60C48094A71
:1032300010610C481061084680F3108800BF1046EA
:10324000406802221040022801D10120E2E700205C
:10325000E0E7000000200240EFCDAB890504030247
:10326000BFAE9D8C16151413F8B506460C46002704
:103270000020009000256068002826D060680128A2
:1032800023D06068112820D0606802281DD06068B3
:1032900012281AD0CA496068884216D0C9496068A5
:1032A000884212D0C849606888420ED0C749606819
:1032B00088420AD0C6496068884206D0C54960681D
:1032C000884202D06068032800D103E0AE21C2A08A
:1032D00009F058F9A068002805D0A068012802D09C
:1032E000A068022800D103E0AF21BBA009F04AF991
:1032F00005200007864208D1208880B2002804D02B
:10330000C4492068084388423BD0C348864208D15C
:10331000208880B2002804D0BE4920680843884233
:103320002FD0BE48864208D1208880B2002804D021
:10333000B84920680843884223D0B948864208D15A
:10334000208880B2002804D0B2492068084388420F
:1033500017D0B448864208D1208880B2002804D013
:10336000AC492068084388420BD0AF48864209D157
:10337000AE4920680840002804D0206808438842ED
:1033800000D103E0B02194A009F0FCF812E1012182
:10339000B940206808400090009800287ED06068FE
:1033A000012808D06068022805D06068112802D082
:1033B0006068122829D1E068002808D0E068012858
:1033C00005D0E068022802D0E068032800D103E0BD
:1033D000C02181A009F0D6F8B568790003208840A3
:1033E000294681430D467900E06888400543B56071
:1033F00075680120B840294681430D461021606858
:1034000008400009B84005437560F568790003205D
:103410008840294681430D467900A06888400543CD
:10342000F5606068022802D06068122835D1052056
:10343000000786420ED0784886420BD077488642F5
:1034400008D07748864205D07648864202D0764832
:10345000864200D103E0D8215FA009F093F82069EB
:10346000072800D803E0D9215BA009F08BF8F80801
:1034700081003046203045587807C10E0F20884023
:10348000294681430D467907C90E206988400543C6
:10349000F808810030462030455000E089E035686A
:1034A000790003208840294681430D462079800712
:1034B000800F790088400543356001210907606865
:1034C0000840884275D15A48406B01210843584949
:1034D00048635848B90889004558B807010F0F20BC
:1034E0008840294681430D4605200007864201D1C8
:1034F000002019E04848864201D1012014E04748E5
:10350000864201D102200FE04548864201D10320C6
:103510000AE04448864201D1042005E04248864240
:1035200001D1052000E00620B907090F88400543B6
:103530004048B908890045503F4805682946009829
:1035400081430D460121090460680840884201D189
:10355000009805433848056045682946009881432E
:103560000D460121490460680840884201D1009855
:1035700005433148456085682946009881430D46DA
:103580000121090560680840884201D1009805437F
:1035900029488560C5682946009881430D46012168
:1035A000490560680840884201D1009805432248D7
:1035B000C5607F1C2068F840002800D0E7E6F8BD11
:1035C0000000111000002110000031100000121046
:1035D00000002210000032102E2E2F4472697665F2
:1035E00072732F53544D33324C3078785F48414CCE
:1035F0005F4472697665722F5372632F73746D33F3
:10360000326C3078785F68616C5F6770696F2E63C9
:1036100000000000FFFF0000000400500008005000
:10362000000C005000100050001C00500306000069
:1036300000100240080001400004014001480068F9
:1036400070470000240200200348006803490978FD
:103650004018014908607047240200202C02002015
:1036600010B5002408480068402108430649086056
:10367000002000F00BF8002801D0012401E000F048
:103680002FF8204610BD00000020024070B504460F
:10369000104801787D20C000FEF72CFD064631461B
:1036A0000D480068FEF726FD054601F0EDFF0028F5
:1036B00001D0012070BD042C07D200222146501EEB
:1036C00000F052F80548046001E00120F2E7002014
:1036D000F0E700002C020020300200202802002029
:1036E0000648406B01210843044948630846806B43
:1036F0000904084301498863704700000010024034
:1037000010B50446002C00DB03E0972106A008F06A
:1037100039FF2046002805DBC206D20E0121914068
:10372000104A116000BF10BD2E2E2F4472697665BD
:1037300072732F53544D33324C3078785F48414C7C
:103740005F4472697665722F5372632F73746D33A1
:10375000326C3078785F68616C5F636F7274657823
:103760002E63000000E100E070B505460C461646E9
:10377000102C00D203E0872103A008F003FF2146AC
:10378000284606F0FBF970BD2E2E2F44726976652F
:1037900072732F53544D33324C3078785F48414C1C
:1037A0005F4472697665722F5372632F73746D3341
:1037B000326C3078785F68616C5F636F72746578C3
:1037C0002E63000003480068012189020843014973
:1037D00008607047007000400348006801214902FA
:1037E00008430149086070470070004003480068C2
:1037F000FF21013108430149086070470070004013
:10380000F8B504460D460026002C01D0012C00D14D
:1038100004E04521C90024A008F0B4FE012D01D028
:10382000022D00D103E02E491FA008F0ABFE2D4869
:10383000076841150F402C48006AC007C00F009070
:10384000002F07D00098002804D02648006888433D
:103850002449086023480668B608B600304620436D
:1038600006462048066021480069042108431F4994
:103870000861012D01D130BF02E040BF20BF20BF51
:103880001A4800690421884318490861002F09D0AB
:103890000098002806D01348006801214902084317
:1038A00010490860F8BD00002E2E2F44726976651D
:1038B00072732F53544D33324C3078785F48414CFB
:1038C0005F4472697665722F5372632F73746D3320
:1038D000326C3078785F68616C5F7077722E63004D
:1038E00029020000007000400000014000ED00E0EF
:1038F000F8B504460027FE492068884200D803E056
:103900006821FCA008F03EFE202120680840202805
:1039100004D089012068084088426FD120212068A6
:103920000840202823D1606800281BD0C9026068A5
:10393000884217D049006068884213D003210904E7
:10394000606888420ED0132109046068884209D05B
:10395000232109046068884204D033210904606887
:10396000884200D103E07421E2A008F00BFE01219F
:10397000C90220680840884223D1A06800281BD0D3
:103980004901A068884217D04900A068884213D036
:1039900003210904A06888420ED013210904A068FD
:1039A000884209D023210904A068884204D0332129
:1039B0000904A068884200D103E07A21CDA008F074
:1039C000E1FDDB48806B012109070840002805D193
:1039D000D748806B0843D64988630127D5480068DB
:1039E000FF2101310840002817D1D2480068084360
:1039F000D0490860FFF722FE064607E0A3E0FFF784
:103A00001DFE801B642801D90320F8BDC948006849
:103A1000FF21013108400028F1D0C5480568032185
:103A200009050D4060680840A84203D1A06808401D
:103A3000A8420ED00321090460680840884208D1DA
:103A4000BB480068012149040840884201D1012097
:103A5000DBE7B74840300069032109040840054608
:103A6000002D48D060680840A84204D0202120687A
:103A7000084020280BD003210904A0680840A84270
:103A800039D00121C90220680840884233D1A848B2
:103A9000403000690321090488430546A4484030AA
:103AA00000690121C9040843A14940310861084661
:103AB00000690121C90488439D49403108610846D5
:103AC0000561801528408915884214D1FFF7B6FD9D
:103AD000064607E0FFF7B2FD801B9749884201D9EF
:103AE000032092E7924840300069012149020840D2
:103AF000400A0028EED000BF00BF0321090460681F
:103B0000084088420AD18A48006809018843032294
:103B100012056168114008438549086000BF844868
:103B20004030006903221204616811400843804953
:103B30004031086100BF012F05D17D48806B8905A8
:103B400088437B4988632078C007C00F00281AD0BB
:103B5000E068002808D0E068012805D0E068032864
:103B600002D0E068022800D103E0DD2161A008F066
:103B700009FD6F484030C06880088000E168084354
:103B80006B494031C86002212068084002281AD1E0
:103B90002069002808D02069042805D020690C2855
:103BA00002D02069082800D103E0E82151A008F0E4
:103BB000E9FC5F484030C0680C2188432169084314
:103BC0005B494031C860042120680840042820D1A6
:103BD000606900280DD009026069884209D003217C
:103BE00089026069884204D00121C9026069884263
:103BF00000D103E0F2213FA008F0C4FC4C48403063
:103C0000C0680321890288436169084348494031FB
:103C1000C86008212068084008281AD1A069002837
:103C200007D04902A069884203D04900A0698842B0
:103C300000D103E0FC212FA008F0A4FC3C48403058
:103C4000C068032109038843A1690843384940310A
:103C5000C860FF2101312068084088421BD1E0691B
:103C6000002807D00902E069884203D04900E069D2
:103C7000884200D104E0FF2108311EA008F082FC38
:103C80002B484030C068032109048843E169084398
:103C900027494031C860402120680840402817D19A
:103CA0000905606A884202D0606A002800D104E0F9
:103CB000FF2113310FA008F065FC1D484030C0689B
:103CC000012189068843616A084319494031C86067
:103CD000802120680840802845D1206A002833D000
:103CE000C902206A88422FD04900206A884225E014
:103CF000FF0900002E2E2F447269766572732F53D0
:103D0000544D33324C3078785F48414C5F4472698F
:103D10007665722F5372632F73746D33326C307803
:103D2000785F68616C5F7263635F65782E63000023
:103D300000100240007000408813000004D00321EE
:103D40008904206A884200D104E0FF211B31074822
:103D500008F018FC0648C068032189048843216ADA
:103D600008430349C86000204FE60000F43C000807
:103D700040100240F8B504460D46002C01D1012048
:103D8000F8BD2078C007C00F00280ED1022120689E
:103D90000840022809D0042120680840042804D0E3
:103DA000082120680840082800D103E0BF49C0A0CE
:103DB00008F0E8FB002D01D0012D00D104E06D21B9
:103DC000C900BBA008F0DEFBC7480068C007C00FF1
:103DD000A84218D2C4480068400840002843C2499D
:103DE0000860FFF72BFC064607E0FFF727FC801B67
:103DF000BE49884201D90320C2E7BB480068C0071A
:103E0000C00FA842F1D1022120680840022828D121
:103E1000A068002817D0A068802814D0A068902837
:103E200011D0A068A0280ED0A068B0280BD0A06840
:103E3000C02808D0A068D02805D0A068E02802D00B
:103E4000A068F02800D104E0E121890098A008F0E2
:103E500099FBA748C068F0218843A1680843A4499A
:103E6000C8602078C007C00F00285ED060680028B6
:103E700008D06068012805D06068022802D0606818
:103E8000032800D104E08949243189A008F07AFB95
:103E90006068022809D19648006801214904084059
:103EA000400C002824D101206AE76068032809D16A
:103EB0008F480068012149060840400E002817D1AC
:103EC00001205DE76068012808D189480068042165
:103ED0000840800800280BD1012051E78448006881
:103EE000012149020840400A002801D1012047E78A
:103EF0007F48C06880088000616808437C49C860CA
:103F0000FFF79CFB0646606802280FD107E0FFF729
:103F100095FB801B7549884201D9032030E774481E
:103F2000C0680C2108400828F1D134E060680328FB
:103F30000FD107E0FFF782FB801B6C49884201D953
:103F400003201DE76A48C0680C2108400C28F1D105
:103F500021E0606801280FD107E0FFF76FFB801BAD
:103F60006249884201D903200AE76148C0680C21F0
:103F700008400428F1D10EE007E0FFF75FFB801B4B
:103F80005A49884201D90320FAE65948C0680C21F1
:103F900008400028F1D154480068C007C00FA8426B
:103FA00018D9514800684008400028434E4908602D
:103FB000FFF744FB064607E0FFF740FB801B4B4939
:103FC000884201D90320DBE647480068C007C00FDC
:103FD000A842F1D1042120680840042824D1E068D7
:103FE000002812D00902E06888420ED0052109029B
:103FF000E068884209D003214902E068884204D081
:1040000007210902E068884200D104E027498E3187
:1040100027A008F0B7FA3648C0680721090288438C
:10402000E16808433249C860082120680840082830
:1040300025D12069002812D0C901206988420ED0FC
:10404000052109022069884209D00321490220691B
:10405000884204D0072109022069884200D104E087
:10406000FF21890012A008F08DFA2148C0680721BD
:10407000C90288432169C90008431D49C86000F08E
:104080003FF81B49C968F02211400909194A515CDF
:10409000C8401949086019480068FFF7F7FA074651
:1040A000002F01D038466BE6002069E66703000068
:1040B0002E2E2F447269766572732F53544D33320E
:1040C0004C3078785F48414C5F4472697665722F56
:1040D0005372632F73746D33326C3078785F68611C
:1040E0006C5F7263632E630000200240881300003F
:1040F00000100240574F0108300200202802002023
:10410000F0B585B03548C06803900C21039808408D
:10411000002852D0042804D008280CD00C284BD1F9
:104120000BE02E48006810210840002801D02C4DDB
:1041300000E02C4D4EE02C4D4CE00F2189040398FB
:104140000840800C29490F5C032189050398084029
:10415000800D441C2148C068012109040840002842
:104160000BD02148394605F0BEFB224600230191C1
:104170000090FDF7E9FF06461CE018480068102192
:10418000084000280BD01648394605F0ACFB224603
:10419000002301910090FDF7D7FF06460AE0114881
:1041A000394605F0A0FB2246002301910090FDF75F
:1041B000CBFF064635460DE000BF084840680721A2
:1041C00049030840400B02900298401C01218140A5
:1041D000CD0300BF00BF284605B0F0BD001002406F
:1041E00000093D000024F40000127A006F4F01081E
:1041F000FEB50446002C01D10120FEBD2068002838
:104200001DD02078C007C00F002818D102212068D7
:104210000840022813D020212068084020280ED012
:10422000082120680840082809D004212068084097
:10423000042804D0102120680840102800D104E090
:10424000FF216131EFA008F09DF9FC48C7680C21FF
:104250000F40C06801210904084001902078C00780
:10426000C00F002871D06068002807D060688842BD
:1042700004D0052109046068884200D104E0FF21D0
:104280006A31E0A008F07EF9082F06D00C2F11D17A
:1042900001210904019888420CD1E84800680121F5
:1042A00049040840400C002863D06068002860D1B1
:1042B0000120A2E700BF012109046068884205D1FE
:1042C000DE4800680843DD49086027E0052109044D
:1042D000606888420ED1D9480068012189040843EA
:1042E000D649086008460068012109040843D349FB
:1042F000086013E0D1480068012109048843CF49D0
:10430000086008460068012109040840009000BFC9
:10431000CA48006889008843C849086000BF6068CF
:10432000002813D0FFF78AF9054606E0FFF786F963
:10433000401B642801D903205FE7C04800680121C1
:1043400049040840400C0028F0D012E0FFF776F94D
:10435000054606E0FFF772F9401B642801D90320E7
:104360004BE7B6480068012149040840400C00288A
:10437000F0D1022120680840022875D1E0680028A9
:104380000ED0E06801280BD0E068092808D0E0686A
:10439000202805D0E068212802D0E068292800D133
:1043A00004E0FF219D3197A008F0ECF820691F2858
:1043B00000D804E0FF219E3192A008F0E3F8E668FF
:1043C00020203040002809D09C4800682021084364
:1043D0009A4908602021304688430646042F04D0BD
:1043E0000C2F34D10198002831D194480068042161
:1043F00008408008002803D0002E01D10120FCE6EF
:104400008E4840681F210902884321690902084338
:104410008A49486008460068092188433043874933
:104420000860FFF76DFE8549C968F022114009094F
:10443000834A515CC8408349086083480068FFF79D
:1044400025F902900298002840D00298D5E6002E67
:1044500024D07A48006809218843304377490860AE
:10446000FFF7ECF8054607E030E0FFF7E7F8401B00
:10447000022801D90320C0E67048006804210840E2
:1044800080080028F1D06D4840681F210902884348
:104490002169090208436949486017E067480068D4
:1044A0004008400065490860FFF7C8F8054606E087
:1044B000FFF7C4F8401B022801D903209DE65F489E
:1044C00000680421084080080028F1D110212068EC
:1044D000084010287ED1002F65D158480068490156
:1044E0000840400A002804D0E069002801D10120DA
:1044F00083E6206AFF2800D804E00121490241A098
:1045000008F040F8606A00281CD001214903606A65
:10451000884217D04900606A884213D003214903BA
:10452000606A88420ED00121C903606A884209D0BE
:1045300005214903606A884204D003218903606A27
:10454000884200D103E041492EA008F01BF83B4807
:104550004068072149038843616A08433749486036
:10456000084640680002000A218C090608433349C6
:104570004860606A400B401C01218140C8032F49FC
:10458000C968F022114009092D4A515CC8402D49E3
:1045900008602D480068FFF779F80290029800281B
:1045A00018D0029829E6E069002802D0E0690128C5
:1045B00000D104E04321C90012A007F0E3FFE06945
:1045C00000287DD01D480068FF21013108431B49A8
:1045D000086000E095E0FFF731F8054606E0FFF7D8
:1045E0002DF8401B022801D9032006E61348006875
:1045F000012149020840400A0028F0D0206AFF2823
:1046000026D82AE02E2E2F447269766572732F53B6
:10461000544D33324C3078785F48414C5F44726976
:104620007665722F5372632F73746D33326C3078EA
:10463000785F68616C5F7263632E630000100240F4
:10464000574F01083002002028020020010200001C
:104650008B218900FE4807F095FF606A00281CD076
:1046600001214903606A884217D04900606A884284
:1046700013D003214903606A88420ED00121C90387
:10468000606A884209D005214903606A884204D0E3
:1046900003218903606A884200D103E0ED49EC48B8
:1046A00007F070FFEC484068072149038843616ABE
:1046B0000843E9494860084640680002000A00E0F3
:1046C00005E0218C09060843E349486019E0E24807
:1046D0000068FF2101318843DF490860FEF7AEFF23
:1046E000054606E0FEF7AAFF401B022801D9032079
:1046F00083E5D9480068012149020840400A0028A2
:10470000F0D1082120680840082845D160690028B8
:1047100002D06069012800D104E0CE491E31CC48A6
:1047200007F030FF606900281BD0CB48403000699B
:1047300001210843C84940310861FEF77FFF054663
:1047400006E0FEF77BFF401B022801D9032054E559
:10475000C148403000690221084040080028F0D0DC
:104760001AE0BD484030006940084000BA49403175
:104770000861FEF763FF054606E0FEF75FFF401B9A
:10478000022801D9032038E5B348403000690221EE
:10479000084040080028F0D104212068084004287F
:1047A00077D100200090A068002808D08901A06877
:1047B000884204D005210902A068884200D104E0A3
:1047C000A4494A31A24807F0DDFEA348806B0121CD
:1047D00009070840002806D19F48806B08439E497E
:1047E0008863012000909D480068FF210131084046
:1047F000002816D199480068084398490860FEF7D8
:104800001DFF054606E0FEF719FF401B642801D98D
:104810000320F2E491480068FF210131084000289C
:10482000F1D000BFFF210131A068884207D18A483A
:104830004030006908438849403108613AE0A06887
:10484000002810D1844840300069FF21013188439D
:1048500081494031086108460069091588437E494D
:104860004031086126E005210902A068884211D183
:104870007948403000690121890208437649403176
:104880000861084600698915084373494031086189
:1048900010E049E0704840300069FF210131884351
:1048A0006D494031086108460069091588436A4925
:1048B0004031086100BFA068002815D0FEF7BEFE99
:1048C000054607E0FEF7BAFE401B6549884201D95C
:1048D000032092E460484030006901214902084009
:1048E000400A0028EED014E0FEF7A8FE054607E0D7
:1048F000FEF7A4FE401B5A49884201D903207CE4FC
:10490000554840300069012149020840400A00280A
:10491000EED10098012806D14F48806B012109078C
:1049200088434D49886300BF202120680840202823
:1049300057D1A069002802D0A069012800D104E065
:1049400044499231424807F01DFEA069002827D053
:1049500000BF41488068012108433F4988600846FC
:10496000406B012108433C4948633E48006A0121ED
:10497000490308433B49086200BFFEF75FFE054656
:1049800006E0FEF75BFE401B022801D9032034E459
:10499000314880680221084040080028F1D020E01A
:1049A00000BF2D488068400840002B4988602D4892
:1049B000006A0121490388432A49086200BFFEF7C3
:1049C0003DFE054606E0FEF739FE401B022801D9F0
:1049D000032012E420488068022108404008002893
:1049E000F1D1A06A002805D0A06A012802D0A06AEF
:1049F000022800D104E01749BC31154807F0C2FD78
:104A0000A06A002874D00C2F73D0A06A022871D13C
:104A1000E06A002804D001210904E06A884200D13C
:104A200004E00C49C5310A4807F0ACFD206B0028B2
:104A300033D001218904206B88422ED04900206B9D
:104A400088422AD003218904206B884225D00BE0BC
:104A5000044600082D0200000010024000700040D3
:104A6000881300000000014001210905206B8842E5
:104A700013D005218904206B88420ED00321C9047C
:104A8000206B884209D007218904206B884204D01A
:104A900001214905206B884200D103E04B494C4875
:104AA00007F070FD01218905606B884208D049003C
:104AB000606B884204D003218905606B884200D175
:104AC00004E0BD218900424807F05CFD41480068D0
:104AD0000121090688433F490860FEF7AFFD0546FE
:104AE00009E0FEF7ABFD401B022804D9032023E4B4
:104AF0006AE04BE02FE03748006801214906084092
:104B0000400E0028EDD1216BE06A0843616B084339
:104B10003049C968FD221204914308432D49C860F9
:104B2000084600680121090608432A490860FEF783
:104B300085FD054606E0FEF781FD401B022801D9F0
:104B400003200DE423480068012149060840400E77
:104B50000028F0D038E01F4800680121090688438A
:104B60001C490860FEF76AFD054606E0FEF766FD93
:104B7000401B022801D9032041E4164800680121A6
:104B800049060840400E0028F0D11DE0A06A012827
:104B900000D134E40F48C068019001210904019854
:104BA0000840E16A88420DD10F218904019808402C
:104BB000216B884206D10321890501980840616B69
:104BC000884201D001201AE4002018E4F30200001A
:104BD000044600080010024070B5044600BF2020C3
:104BE000005D012801D1022070BD01212020015566
:104BF00000BF02212120015500BFCA202168486260
:104C000053202168486200BF206880680121890222
:104C1000884321688860206880680121890388436F
:104C200021688860FEF70AFD054615E0FEF706FDDF
:104C3000401B7D21C90088420ED900BFFF2021689A
:104C4000486200BF03212120015500BF0021202020
:104C5000015500BF0320C7E72068C0680421084051
:104C600080080028E2D000BFFF202168486200BF12
:104C700001212120015500BF00212020015500BF46
:104C80000020B1E7F8B504460F461546002D09D0BF
:104C9000012D07D0022D05D0032D03D0042D01D006
:104CA000062D00D103E0594959A007F06BFC674875
:104CB000874200D804E05549491C55A007F062FC22
:104CC00000BF2020005D012801D10220F8BD012194
:104CD0002020015500BF02212120015500BFCA201C
:104CE0002168486253202168486200BF20688068BC
:104CF000012189020840002820D0FEF79FFC0646CB
:104D000015E0FEF79BFC801B7D21C90088420ED96F
:104D100000BFFF202168486200BF03212120015508
:104D200000BF00212020015500BF0320CEE72068EE
:104D3000C0680421084080080028E2D1206880680B
:104D4000012189028843216888602068C068802129
:104D500008403F4908432168C860FEF76FFC0646DB
:104D600015E0FEF76BFC801B7D21C90088420ED93F
:104D700000BFFF202168486200BF032121200155A8
:104D800000BF00212020015500BF03209EE72068BE
:104D9000C0680421084080080028E2D020684761EC
:104DA00020688068C008C00021688860206880682A
:104DB00028432168886027480068012109050843C5
:104DC00024490860084680680121090508432149F3
:104DD0008860206880680121890308432168886011
:104DE000206880680121890208432168886000BF2B
:104DF000FF202168486200BF01212120015500BF2A
:104E000000212020015500BF00205FE711040000B1
:104E10002E2E2F447269766572732F53544D3332A0
:104E20004C3078785F48414C5F4472697665722FE8
:104E30005372632F73746D33326C3078785F6861AE
:104E40006C5F7274635F65782E630000FFFF000083
:104E50007FFBFFFF0004014070B5054600200849B4
:104E600008700FF059FA044606A221460AA005F080
:104E7000F5FD17480068042108431549086070BD16
:104E8000000200202E2E2F436F72652F5372632F66
:104E90006D61696E2E6300001B5B323B33326D3CEB
:104EA00025753E205B495D202573203A2057616BB4
:104EB0006575702074696D6572206576656E742005
:104EC00063616C6C6261636B0D0A1B5B306D00008B
:104ED0000070004010B504462068C06801218902B6
:104EE0000840800A00280AD02046FFF7B5FF206856
:104EF000C06880210840064908432168C860012035
:104F000000050449486101212120015510BD000020
:104F10007FFBFFFF0004014010B50446002C01D1C7
:104F2000012010BD69492068884200D103E0F021CA
:104F300067A007F027FB6068402802D0606800285F
:104F400000D103E0F12162A007F01CFBA0687F28DC
:104F500000D803E0F2215EA007F014FB6A49E06884
:104F6000884200D803E0F32159A007F00BFB206929
:104F700000280DD0012149052069884208D0490048
:104F80002069884204D0032149052069884200D164
:104F900003E0F4214EA007F0F5FA6069002802D082
:104FA0006069022800D103E0F52149A007F0EAFA80
:104FB000A069002804D001210905A069884200D118
:104FC00003E0F62142A007F0DDFAE069002802D0F4
:104FD000E069012800D103E0F7213DA007F0D2FAF3
:104FE0002120005D002805D1002120200155204608
:104FF00000F08EF802212120015500BFCA2021684F
:10500000486253202168486200BF204603F094FDA7
:10501000002809D000BFFF202168486200BF04219A
:105020002120015501207CE720688068374908402D
:1050300021688860216960680843A1690843216884
:1050400089680843216888602168E06808612068F1
:105050000069218909040843216808612068C06843
:10506000802188432168C8602068C06C8008800067
:105070002168C8646169E06908432168C96C084314
:105080002168C8642068806820210840002813D166
:10509000204600F0D1FA00280ED000BFFF20216882
:1050A000486200BF04212120015500BF00212020BB
:1050B000015500BF012034E700BFFF20216848628E
:1050C00000BF01212120015500202AE700280040CF
:1050D0002E2E2F447269766572732F53544D3332DE
:1050E0004C3078785F48414C5F4472697665722F26
:1050F0005372632F73746D33326C3078785F6861EC
:105100006C5F7274632E6300FF7F0000BFFF8FFF30
:1051100010B504460949206888420ED10848006944
:105120000121890408430649086100221146022032
:10513000FEF71AFB0220FEF7E3FA10BD002800403C
:1051400040100240F8B505460C461646002E01D028
:10515000012E00D103E07A497AA007F013FA00BFCC
:105160002020405D012801D10220F8BD012120202E
:10517000415500BF022121204155002E09D1607800
:1051800010210840102804D16078EF2108400A302F
:1051900060702078012811D0207802280ED0207865
:1051A00003280BD02078042808D02078052805D0C3
:1051B0002078062802D02078072800D104E0604932
:1051C0000C3160A007F0DEF9002E32D1E0786328C0
:1051D00000D804E05A4910315AA007F0D3F960789A
:1051E000002803D060780C2800D804E0E921890069
:1051F00054A007F0C7F9A078002803D0A0781F2892
:1052000000D804E04E4912314EA007F0BBF9E07817
:1052100003F084FC0704607803F080FC000207437D
:10522000A07803F07BFC07432078400307430097F6
:1052300035E0E07803F066FC632800D804E04049DC
:105240001B3140A007F09EF9607803F05BFC00285A
:1052500005D0607803F056FC0C2800D804E03849EB
:105260001C3138A007F08EF9A07803F04BFC002821
:1052700005D0A07803F046FC1F2800D804E03B21AD
:10528000090130A007F07EF9E07800046178090296
:105290000843A1780843217849030843009000BFE0
:1052A000CA202968486253202968486200BF2846FE
:1052B00003F042FC00280ED000BFFF20296848629E
:1052C00000BF04212120415500BF0021202041556D
:1052D00000BF012049E72949009808402968486033
:1052E0002868C068802188432968C8602868806869
:1052F00020210840002813D1284600F09DF90028FD
:105300000ED000BFFF202968486200BF0421212081
:10531000415500BF00212020415500BF012024E756
:1053200000BFFF202968486200BF012121204155AC
:1053300000BF00212020415500BF002015E70000DC
:10534000930300002E2E2F447269766572732F53DB
:10535000544D33324C3078785F48414C5F44726929
:105360007665722F5372632F73746D33326C30789D
:10537000785F68616C5F7274632E63003FFFFF00AB
:10538000F8B505460C461646002E01D0012E00D178
:1053900003E0994999A007F0F5F801214904E06874
:1053A000884206D04910E068884202D0E0680028B0
:1053B00000D104E09049491C90A007F0E3F820696F
:1053C000002804D0012189042069884200D104E02A
:1053D0008949891C89A007F0D5F800BF2020405DCD
:1053E000012801D10220F8BD01212020415500BF34
:1053F000022121204155002E4DD12868806840218E
:105400000840002818D02078002803D020780C28E5
:1054100000D804E078490D3178A007F0B3F8E078BF
:10542000002802D0E078402800D110E072490E3107
:1054300072A007F0A7F80AE00020E0702078172893
:1054400000D804E0BD2189006CA007F09BF86078CB
:105450003B2800D804E06849153168A007F092F8AD
:10546000A0783B2800D804E06349163163A007F018
:1054700089F8207803F052FB0704607803F04EFBB4
:1054800000020743A07803F049FB0743E0780004DB
:105490000743009750E028688068402108400028B2
:1054A0001CD0207803F02EFB002805D0207803F0D4
:1054B00029FB0C2800D804E04F4921314FA007F008
:1054C00061F8E078002802D0E078402800D112E0AE
:1054D0004949223149A007F055F80CE00020E0705E
:1054E000207803F00FFB172800D804E06121C900E1
:1054F00042A007F047F8607803F004FB3B2800D88F
:1055000004E03D4929313DA007F03CF8A07803F0C4
:10551000F9FA3B2800D804E037492A3137A007F0D0
:1055200031F820780004617809020843A178084323
:10553000E17809040843009000BFCA202968486246
:1055400053202968486200BF284603F0F5FA002876
:105550000ED000BFFF202968486200BF042121202F
:10556000415500BF00212020415500BF01203AE7EE
:10557000304900980840296808602868806801213F
:1055800089048843296888602169E068084329689C
:1055900089680843296888602868C0688021884332
:1055A0002968C8602868806820210840002813D135
:1055B000284600F041F800280ED000BFFF202968DF
:1055C000486200BF04212120415500BF0021202056
:1055D000415500BF012006E700BFFF20296848624F
:1055E00000BF01212120415500BF0021202041554D
:1055F00000BF0020F7E60000E10200002E2E2F443D
:105600007269766572732F53544D33324C3078780B
:105610005F48414C5F4472697665722F5372632F05
:1056200073746D33326C3078785F68616C5F72745C
:10563000632E63007F7F7F0070B504462068C068DA
:10564000A02188432168C860FDF7F8FF054608E0FF
:10565000FDF7F4FF401B7D21C900884201D90320DA
:1056600070BD2068C068202108400028F0D00020CC
:10567000F6E7000003480069022108430149086178
:105680007047000000E000E070B504462546681E43
:105690000949884201D901200CE0681E0749486188
:1056A0000321081F04F06AFA0020044988610720DA
:1056B0000861002070BD0000FFFFFF0000E000E077
:1056C00003480069022188430149086170470000CE
:1056D00000E000E0F8B504460D4601218907206886
:1056E000884213D03E49206888420FD03D49206847
:1056F00088420BD03C492068884207D03B4920684B
:10570000884203D03A492068884200D103E05921F9
:1057100038A006F037FF2868002814D02868102821
:1057200011D0286820280ED0286830280BD028688F
:10573000402808D02868502805D02868602802D062
:105740002868702800D103E05A212AA006F01AFF29
:105750006868802802D06868002800D103E05B21D7
:1057600024A006F00FFF00BF3820005D012801D102
:105770000220F8BD01213820015500BF0221392047
:10578000015520684768206886687021384688433C
:105790000746286807432068476001218907206879
:1057A00088420BD00E492068884207D00F492068F4
:1057B000884203D00E492068884207D180213046B4
:1057C00088430646686806432068866001213920C0
:1057D000015500BF00213820015500BF0020C8E757
:1057E0000004004000100040001400400008014088
:1057F000001401402E2E2F447269766572732F5368
:10580000544D33324C3078785F48414C5F44726974
:105810007665722F5372632F73746D33326C3078E8
:10582000785F68616C5F74696D5F65782E630000F6
:1058300010B50446002C01D1012010BD01218907BB
:105840002068884213D04149206888420FD04049DF
:10585000206888420BD03F492068884207D03E49E3
:105860002068884203D03D492068884200D104E086
:10587000FF2117313AA006F085FEA06800280BD062
:10588000A068102808D0A068202805D0A06840286B
:1058900002D0A068602800D104E0FF21183130A0B8
:1058A00006F070FE2069002808D0FF210131206930
:1058B000884203D049002069884200D104E0FF21DA
:1058C000193127A006F05EFE3349E068884200D80F
:1058D00004E0FF211A3122A006F054FE2E49606830
:1058E000884200D804E0FF211B311DA006F04AFECB
:1058F0006069002802D06069802800D104E0FF219F
:105900001C3117A006F03EFE3920005D002805D1AD
:10591000002138200155204600F064F8022139208A
:105920000155211D206803F0D3FB01213E200155C4
:1059300000BF3A2001553B2001553C2001553D2038
:10594000015500BF39200155002076E700040040D2
:105950000010004000140040000801400014014005
:105960002E2E2F447269766572732F53544D333245
:105970004C3078785F48414C5F4472697665722F8D
:105980005372632F73746D33326C3078785F686153
:105990006C5F74696D2E6300FFFF000010B586B068
:1059A0000446012189072068884216D10C48806B83
:1059B000400840000A498863142101A8FCF71FFC35
:1059C000202001900320029000200390049001A960
:1059D00005200007FDF748FC00BF06B010BD000021
:1059E00000100240012292070168914205D103494B
:1059F000896B01221143014A9163704700100240F4
:105A0000F8B505460C4600BF3820405D012801D19D
:105A10000220F8BD01213820415500BF0221392064
:105A20004155C902206888421BD04900206888423D
:105A300017D02068002814D02068102811D02068C2
:105A400020280ED0206830280BD02068402808D0AD
:105A50002068502805D02068602802D0206870286F
:105A600000D103E0F349F4A006F08CFD28688668B5
:105A70007721304688430646FF2109023046884395
:105A80000646286886602068502874D00CDC2028E0
:105A900072D004DC002870D010286FD1A0E130282B
:105AA0006DD04028F9D15DE1602869D0702826D0FA
:105AB00001210903401A02D0401AEED17CE00121F5
:105AC00089072868884213D0E949286888420FD09E
:105AD000E849286888420BD0E7492868884207D0FF
:105AE000E6492868884203D0E5492868884200D101
:105AF00004E0D0490C31D0A006F044FD8FE1012133
:105B000089072868884207D0D9492868884203D085
:105B1000DA492868884200D104E0C6491331C6A09A
:105B200006F030FDA06800280DD001210903A0680F
:105B3000884208D04900A068884204D003210903A4
:105B4000A068884200D104E0BA491631BAA006F034
:105B500019FD0121C903606888420BD060680028E4
:105B600008D06068002805D06068022802D060680C
:105B70000A2806D10AE07BE033E130E14EE131E171
:105B8000B3E0AC491731ACA006F0FCFCE0680F288C
:105B900000D804E0A7491831A7A006F0F3FCE36899
:105BA0006268A168286803F02BFB28688668772064
:105BB00006432868866032E1012189072868884207
:105BC0000BD0AB492868884207D0AC492868884286
:105BD00003D0AB492868884200D104E095492B31B5
:105BE00095A006F0CFFCA06800280DD00121090384
:105BF000A068884208D04900A068884204D00321E8
:105C00000903A068884200D104E08A492E318AA0A5
:105C100006F0B8FC0121C903606888420BD06068B7
:105C2000002808D06068002805D06068022802D0EB
:105C300060680A2800D104E07E492F317EA006F07A
:105C4000A1FCE0680F2800D804E07A4930317AA03E
:105C500006F098FCE3686268A168286803F0D0FA4F
:105C60002868806801218903084329688860D6E094
:105C7000012189072868884207D07D492868884221
:105C800003D07E492868884200D104E069493F3149
:105C900069A006F077FC0121C903606888420BD037
:105CA0006068002808D06068002805D06068022875
:105CB00002D060680A2800D104E05E4942315EA04B
:105CC00006F060FCE0680F2800D804E05949433131
:105CD00059A006F057FCE2686168286803F02BFBC6
:105CE0005021286803F09AFA99E001218907286871
:105CF000884207D05E492868884203D05F492868F7
:105D0000884200D104E04B494F314BA006F03AFCE9
:105D10000121C903606888420BD06068002808D060
:105D20006068002805D06068022802D060680A28F0
:105D300000D104E03F4952313FA006F023FCE06867
:105D40000F2800D804E03B4953313BA006F01AFC71
:105D5000E2686168286803F007FB6021286803F0A7
:105D60005DFA5CE0012189072868884207D0404934
:105D70002868884203D041492868884200D104E05D
:105D80002C495F312CA006F0FDFB0121C90360689E
:105D900088420BD06068002808D06068002805D0D1
:105DA0006068022802D060680A2800D104E0214916
:105DB000623121A006F0E6FBE0680F2800D804E07D
:105DC0001C4963311CA006F0DDFBE26861682868AD
:105DD00003F0B1FA4021286803F020FA1FE000BF69
:105DE00000BF00BF01218907286888420BD02049E5
:105DF0002868884207D021492868884203D0204972
:105E00002868884200D104E00A4972310AA006F0ED
:105E1000B9FB2168286803F001FA00E000BF00BF69
:105E200001213920415500BF00213820415500BFD4
:105E30000020EEE51C1300002E2E2F4472697665BB
:105E400072732F53544D33324C3078785F48414C45
:105E50005F4472697665722F5372632F73746D336A
:105E6000326C3078785F68616C5F74696D2E6300A6
:105E700000040040001000400014004000080140F1
:105E80000014014010B586B00446142101A8FCF7A7
:105E9000B6F901218907206888421AD100BF0E484F
:105EA000C06A012108430C49C8620846C06AC0079D
:105EB000C00F009000BF00BF202001900220029080
:105EC0000020039004900520059001A90007FDF72C
:105ED000CBF906B010BD00000010024070B50446BA
:105EE0000D461646002E07D0042E05D0082E03D0EE
:105EF0000C2E01D03C2E00D103E07A497AA006F0A6
:105F000041FB2868602802D02868702800D104E08E
:105F1000F521090174A006F035FBA868002802D01D
:105F2000A868022800D104E06E49891C6EA006F022
:105F300029FBE868002802D0E868042800D104E0C2
:105F40006849C91C68A006F01DFB00BF3820005D31
:105F5000012801D1022070BD01213820015500BF68
:105F6000002E06D0042E32D0082E61D00C2E7DD10A
:105F700086E001218907206888420BD068492068A3
:105F8000884207D067492068884203D06649206864
:105F9000884200D104E053490D3153A006F0F2FAD3
:105FA0002946206803F046F92068806908210843E3
:105FB000216888612068806904218843216888619C
:105FC00020688069E96808432168886182E00121CE
:105FD0008907206888420BD051492068884207D041
:105FE00050492068884203D04F492068884200D138
:105FF00004E03C491E313CA006F0C4FA2946206862
:1060000003F034F9206880690121C902084321683E
:10601000886120688069012189028843216888613C
:1060200020688069E968090208432168886151E0B5
:10603000012189072068884203D0394920688842B5
:1060400000D104E027492F3127A006F09BFA29460A
:10605000206803F02DF92068C069082108432168F1
:10606000C8612068C0690421884300E031E02168EC
:10607000C8612068C069E96808432168C86129E0EF
:10608000012189072068884203D025492068884279
:1060900000D104E01349403113A006F073FA2946F9
:1060A000206803F024F92068C0690121C90208436F
:1060B0002168C8612068C06901218902884321687C
:1060C000C8612068C069E968090208432168C8619D
:1060D00000E000BF00BF00BF00213820015500BF15
:1060E000002038E74F0F00002E2E2F44726976658E
:1060F00072732F53544D33324C3078785F48414C93
:106100005F4472697665722F5372632F73746D33B7
:10611000326C3078785F68616C5F74696D2E6300F3
:1061200000040040000801400014014010B504467E
:10613000002C01D1012010BD01218907206888426F
:1061400013D04149206888420FD0404920688842D6
:106150000BD03F492068884207D03E4920688842DA
:1061600003D03D492068884200D103E03B493CA070
:1061700006F008FAA06800280BD0A068102808D004
:10618000A068202805D0A068402802D0A068602818
:1061900000D104E03149491C31A006F0F3F920692F
:1061A000002808D0FF2101312069884203D049002E
:1061B0002069884200D104E02849891C28A006F003
:1061C000E1F93549E068884200D804E04F2109012F
:1061D00023A006F0D7F930496068884200D804E06F
:1061E0001E49091D1EA006F0CDF96069002802D0E5
:1061F0006069802800D104E01849491D18A006F004
:10620000C1F93920005D002805D100213820015551
:10621000204600F044F8022139200155211D206854
:1062200002F056FF01213E20015500BF3A200155E2
:106230003B2001553C2001553D20015500BF392030
:106240000155002077E700000004004000100040E6
:10625000001400400008014000140140ED0400005B
:106260002E2E2F447269766572732F53544D33323C
:106270004C3078785F48414C5F4472697665722F84
:106280005372632F73746D33326C3078785F68614A
:106290006C5F74696D2E6300FFFF000070477047EC
:1062A00070B504460D46012189072068884203D055
:1062B0003A492068884207D1002D15D0042D13D00B
:1062C000082D11D00C2D0FD035492068884203D1FC
:1062D000002D09D0042D07D032492068884204D10E
:1062E000002D01D0042D00D103E02F492FA006F08E
:1062F00049F9002D02D13A20005D0BE0042D02D1B6
:106300003B20005D06E0082D02D13C20005D01E04D
:106310003D20005D012801D0012070BD002D03D17A
:1063200002213A2001550EE0042D03D102213B2029
:10633000015508E0082D03D102213C20015502E05F
:1063400002213D20015501222946206802F0FEFE6F
:1063500001218907206888420BD0104920688842B3
:1063600007D00F492068884203D00E492068884230
:106370000CD1206880684607760F062E0CD0206866
:106380000068012108432168086005E02068006872
:1063900001210843216808600020BEE70004004096
:1063A0000008014000140140730500002E2E2F4408
:1063B0007269766572732F53544D33324C3078784E
:1063C0005F48414C5F4472697665722F5372632F48
:1063D00073746D33326C3078785F68616C5F7469A8
:1063E0006D2E630070B504460D46012189072068B3
:1063F000884203D025492068884207D1002D15D056
:10640000042D13D0082D11D00C2D0FD02049206859
:10641000884203D1002D09D0042D07D01D492068E2
:10642000884204D1002D01D0042D00D103E01A4987
:106430001AA006F0A7F800222946206802F086FE7E
:1064400000BF2068006A23490840002805D1206861
:106450000068400840002168086000BF002D03D19B
:1064600001213A2001550EE0042D03D101213B20EA
:10647000015508E0082D03D101213C20015502E01F
:1064800001213D200155002070BD000000040040A6
:106490000008014000140140A10500002E2E2F44E9
:1064A0007269766572732F53544D33324C3078785D
:1064B0005F48414C5F4472697665722F5372632F57
:1064C00073746D33326C3078785F68616C5F7469B7
:1064D0006D2E630011110000F0B5069C0D4655406D
:1064E0005D40059EAE19079D751928180546A54003
:1064F0002026361B0746F7403D4328464018F0BD8E
:1065000002A004F06FFA00BFFEE700004861726469
:106510006661756C740D0A00F0B5069CDD430D4391
:106520005540059EAE19079D751928180546A540CA
:106530002026361B0746F7403D4328464018F0BD4D
:1065400038B504460025002000904148844200D11F
:1065500004E0FF2135313FA006F014F8204600F09A
:1065600031F9012842D10020E1683722920191439C
:106570000143E16000BF00BFA0680421084080081B
:1065800000280CD0204600F0E7F9002807D100BF12
:10659000A0683E4908401030A06000BF00BF012045
:1065A000C003009005E00098411E0091002800D132
:1065B0000125204600F0D0F90128F4D000BFA068E2
:1065C00032490840801CA06000BF0120C003009039
:1065D00005E00098411E0091002800D1012500BF70
:1065E000A0680221084040080028F2D1A0681721C5
:1065F0000840002828D160689F2188436060206897
:1066000008432060A068012109078843A060E06872
:106610001F490840E06020691E4908402061606908
:10662000C008C0006061206A1B4908401B4940182F
:106630002062A06AC00CC004A062B4200059C10945
:10664000C901B420015100E00125284638BD0000F1
:10665000002401402E2E2F447269766572732F53E9
:10666000544D33324C3078785F48414C5F44726906
:106670007665722F5372632F73746D33326C30787A
:10668000785F6C6C5F6164632E630000E8FFFF7FDE
:1066900000023E8302FCFF3F00F000F00000FF0F0D
:1066A00070B505460C4600263648854200D104E008
:1066B000FF21E63134A005F065FF0121C9072068FC
:1066C00088420AD049082068884206D0494220689A
:1066D000884202D02068002800D104E0FF21E83180
:1066E00029A005F04FFF6068002808D060680828DE
:1066F00005D06068102802D06068182800D104E036
:10670000FF21E93120A005F03DFFA068002802D05C
:10671000A068202800D104E0FF21EA311AA005F08A
:1067200031FFE06800280DD001218903E06888422C
:1067300008D04900E068884204D003218903E0685A
:10674000884200D104E0FF21EB310FA005F01AFFD1
:10675000284600F037F8002810D1A1686068084387
:10676000E1680843E968164A11400843E86028696F
:106770008000800821680843286100E00126304637
:1067800070BD0000002401402E2E2F4472697665F2
:1067900072732F53544D33324C3078785F48414CEC
:1067A0005F4472697665722F5372632F73746D3311
:1067B000326C3078785F6C6C5F6164632E630000CC
:1067C000C73FFFFF01468868C007C00F0122504045
:1067D0005040704770B505460C4600264A48854231
:1067E00000D104E09121890048A005F0CBFE20688B
:1067F000002827D0012189022068884222D0112157
:106800008901206888421DD00921C9012068884279
:1068100018D0132189012068884213D0052109026C
:10682000206888420ED0152189012068884209D04D
:106830000B21C9012068884204D0172189012068F2
:10684000884200D103E03F4930A005F09BFE60681C
:10685000002804D0012109046068884200D104E0C6
:106860003849491C29A005F08DFEA068002804D0F5
:1068700001214903A068884200D104E03149891C04
:1068800022A005F07FFEE068002805D0E06801281E
:1068900002D0E068032800D104E04921C9001BA010
:1068A00005F070FE2069002804D001210903206949
:1068B000884200D104E02349091D14A005F062FEBE
:1068C000A068002802D06068002800D104E01D49BB
:1068D00008310EA005F056FE2846FFF773FF00288A
:1068E0000ED1616820680843A1680843E168084345
:1068F00021690843E968144A11400843E86000E050
:106900000126304670BD0000002401402E2E2F4489
:106910007269766572732F53544D33324C307878E8
:106920005F48414C5F4472697665722F5372632FE2
:1069300073746D33326C3078785F6C6C5F61646354
:106940002E630000450200003CC2FEFF014688683D
:1069500004221040800870470146886810221040C9
:1069600000097047826A4B035B0B1A4382627047CF
:106970004A03520B8262704702680F239B049A43BA
:106980000A4302607047026807239B059A430A4343
:106990000260704770B5049C102C09D14D1E094E41
:1069A000755D2D18EA604D1E755D2D18AB6008E011
:1069B0004D1E044E755D2D18AA604D1E755D2D1877
:1069C000EB6070BD384F010810B54A1E044B9A5C4D
:1069D000825853085B004A1E014CA25C835010BDD4
:1069E000384F010810B54A1E044B9A5C82580223A6
:1069F0009A434B1E014CE35CC25010BD384F010856
:106A000010B54A1E044B9A5C825808239A434B1EC9
:106A1000014CE35CC25010BD384F010810B54A1E4E
:106A2000044B9A5C825801231A434B1E014CE35CD1
:106A3000C25010BD384F010810B54A1E044B9A5C75
:106A4000825802231A434B1E014CE35CC25010BD16
:106A5000384F010810B54A1E044B9A5C825808232F
:106A60001A434B1E014CE35CC25010BD384F010865
:106A700030B54B1E054CE35CC35803242403A343E9
:106A800013434C1E014D2C5D035130BD384F01089E
:106A900030B54B1E064CE35C1B185B681B0C1B04DB
:106AA00013434C1E024D2C5D2418636030BD000062
:106AB000384F010830B54B1E054CE35CC358054CFC
:106AC000234013434C1E024D2C5D035130BD00008A
:106AD000384F0108EFBFFFFF30B54B1E054CE35C9C
:106AE000C3588024A34313434C1E024D2C5D035115
:106AF00030BD0000384F010830B54B1E054CE35C3B
:106B0000C3580324A402A34313434C1E014D2C5D20
:106B1000035130BD384F010830B54B1E054CE35CC6
:106B2000C3582024A34313434C1E024D2C5D035134
:106B300030BD0000384F010830B54B1E054CE35CFA
:106B4000C3584024A34313434C1E024D2C5D0351F4
:106B500030BD0000384F010830B5A8231B584C1E2B
:106B6000A5000F24AC40A3434C1EA5001446AC4026
:106B70002343A824235030BD30B54B1E054CE35CA5
:106B8000C35803242402A34313434C1E014D2C5D20
:106B9000035130BD384F010801494861704700007A
:106BA00000040140024949688143014A516070472D
:106BB00000040140024909688143014A116070479D
:106BC00000040140024949680143014A516070478D
:106BD000000401400249C9680143014AD16070477D
:106BE00000040140024909680143014A11607047ED
:106BF00000040140024989680143014A91607047DD
:106C00000004014070B5044600251921C90620681A
:106C10000840002800D103E06D2143A005F0B2FC3C
:106C20002079002802D02079012800D103E06E21CC
:106C30003DA005F0A7FC6079002805D06079012807
:106C400002D06079022800D103E06F2136A005F060
:106C500099FC207900285ED0A079002808D0A0797E
:106C6000012805D0A079022802D0A079032800D1FC
:106C700003E074212CA005F085FC2068002850D08A
:106C80006079002804D0012809D0022815D10DE030
:106C90002068FFF787FF2068FFF7A4FF0FE0206858
:106CA000FFF788FF2068FFF78DFF08E02068FFF7F7
:106CB00099FF2068FFF786FF01E0012500BF00BFB4
:106CC000A07900282DD0A079012804D002280DD069
:106CD00003281DD115E020682149C9688143204A55
:106CE000D16000BF2068FFF785FF13E020681C49D2
:106CF000896881431A4A916000BF2068FFF76AFFE4
:106D000008E02068FFF776FF2068FFF763FF01E0E7
:106D1000012500BF05E02068FFF74CFF2068FFF762
:106D200041FF284670BD00002E2E2F447269766503
:106D300072732F53544D33324C3078785F48414C46
:106D40005F4472697665722F5372632F73746D336B
:106D5000326C3078785F6C6C5F657874692E630094
:106D6000000401400146044840690840884201D1BE
:106D7000012070470020FCE700040140F8B50646FA
:106D80000C46002700250520000786420ED07648D5
:106D900086420BD07548864208D07548864205D099
:106DA0007448864202D07448864200D103E0A32191
:106DB00072A005F0E7FB2068002804D97D4920680F
:106DC000884200D803E0A4216CA005F0DBFB6068DA
:106DD000002808D06068012805D06068022802D029
:106DE0006068032800D103E0A52164A005F0CAFB78
:106DF0002069002805D02069012802D020690228D6
:106E000000D103E0A6215DA005F0BCFBA6E00121B6
:106E1000B940206808400546002D79D060680128F7
:106E200002D06068022832D1A068002808D0A0688B
:106E3000012805D0A068022802D0A068032800D14C
:106E400003E0B7214DA005F09DFBA068B1682A467C
:106E50006A435300D21891432A466A43424311437E
:106E6000B16000BFE068002802D0E068012800D1CE
:106E700003E0BD2141A005F085FBE1682068726850
:106E8000824303464B431A43726000BF00BF206930
:106E9000F1682A466A435300D21891432A466A434E
:106EA00042431143F16000BF6068022847D1606926
:106EB000002814D06069012811D0606902280ED022
:106EC000606903280BD06069042808D06069052830
:106ED00005D06069062802D06069072800D103E068
:106EE000C92126A005F04EFBFF2D12D86069316A3A
:106EF0002A466A436A436A4313019A1A91432A460F
:106F00006A436A436A4342431143316200BF16E059
:106F100023E06369280A4043290A4843290A484371
:106F20000101091A706A8843290A49432A0A514310
:106F30002A0A514359430843706200BF00BF60688A
:106F400031682A466A435300D21891432A466A435D
:106F500042431143316000BF00BF7F1C2068F840EE
:106F6000002800D053E7F8BD00040050000800508E
:106F7000000C005000100050001C00502E2E2F441A
:106F80007269766572732F53544D33324C30787872
:106F90005F48414C5F4472697665722F5372632F6C
:106FA00073746D33326C3078785F6C6C5F677069C6
:106FB0006F2E6300FFFF0000024610690840884200
:106FC00001D1012070470020FCE781627047816297
:106FD0007047816270478162704781627047816249
:106FE000704781617047816170478161704781613D
:106FF0007047816170478161704730B503680C4606
:107000004C4365006419A3430C464C43544323434B
:10701000036030BD30B5C3680C464C43650064194D
:10702000A3430C464C4354432343C36030BD00008C
:107030000249C96A8143014AD16270470010024087
:1070400008B50549C96A0143034AD1621146C96AB4
:107050000140009100BF08BD0010024008B505497D
:10706000C96A0143034AD1621146C96A01400091CD
:1070700000BF08BD0010024008B50549C96A0143B8
:10708000034AD1621146C96A0140009100BF08BDA0
:107090000010024008B50549C96A0143034AD1629C
:1070A0001146C96A0140009100BF08BD00100240AE
:1070B00008B50549C96A0143034AD1621146C96A44
:1070C0000140009100BF08BD00100240014901606D
:1070D00070470000AAAA0000F0B585B005460C462E
:1070E000012003906148854200D103E0A12160A006
:1070F00005F048FA6D492068884203D820680828BE
:1071000000D303E0A2215AA005F03CFA01210907AF
:107110006068884206D06068002803D0091460685F
:10712000884200D103E0A32151A005F02BFAA0680A
:10713000002804D001214903A068884200D103E05F
:10714000A4214BA005F01EFAE068002809D0012117
:107150008902E068884204D003214902E06888423D
:1071600000D103E0A52142A005F00CFA2069002817
:1071700008D02069042805D02069082802D0206999
:107180000C2800D103E0A62139A005F0FBF96069C5
:1071900000280DD0FF2101316069884208D04900E4
:1071A0006069884204D0032109026069884200D1E5
:1071B00003E0A7212EA005F0E5F900BF2868C0076D
:1071C000C00F01214840484000284CD1E168606868
:1071D0000843216908432968354A1140084328605B
:1071E000A06869680322120391430143696000BFEC
:1071F0006069A968121191430143A96000BF900022
:1072000000F05AF80746002F2DD0206800282AD019
:107210000020039002972668002E10D0FF21013134
:10722000029802F060FB7208002380185941324630
:1072300001910090FAF788FF1E490840E86000BFFE
:10724000E86803210902884200D303E0D62108A0A0
:1072500005F098F9E8681749884200D803E0D92179
:1072600003A005F08FF9039805B0F0BD0048004079
:107270002E2E2F447269766572732F53544D33321C
:107280004C3078785F48414C5F4472697665722F64
:107290005372632F73746D33326C3078785F6C6C1B
:1072A0005F6C70756172742E6300000040BEA100B7
:1072B000F3E9FFEFFFFF0F00F8B5044600250320B8
:1072C0008002844200D104E0FF21AD311BA005F013
:1072D00059F900BF2748C0682040002820D001216C
:1072E0008902401A04D0401A06D0401A17D10FE084
:1072F00001F09AFB05461DE000F0F0F8002806D0EA
:1073000000F0F4F8002801D01B4D00E01B4D11E007
:1073100000F0F4F8002801D00125ED030AE000BFD9
:1073200001F082FB074601F049FB064601F058FBDD
:10733000054600BF00BF2846F8BD00002E2E2F4492
:107340007269766572732F53544D33324C307878AE
:107350005F48414C5F4472697665722F5372632FA8
:1073600073746D33326C3078785F6C6C5F7263630A
:107370002E6300004010024000093D000024F4008C
:1073800010B5044601F050FB2060206801F016FBA8
:107390006060606801F024FBA060606801F032FB6F
:1073A000E06010BDF8B504460025032C01D00C2C7C
:1073B00000D103E0FC2134A005F0E4F8032C2FD128
:1073C000204600F081F82104401A1ED0012804D084
:1073D000022806D0032817D10FE001F025FB05464F
:1073E0001DE000F07BF8002806D000F07FF80028B0
:1073F00001D0334D00E0334D11E000F07FF800285C
:1074000001D00125ED030AE000BF01F00DFB0746A6
:1074100001F0D4FA064601F0F5FA054600BF00BFB8
:107420000C2C2FD1204600F04FF82104401A1ED01A
:10743000042804D0082806D00C2817D10FE001F04A
:10744000F3FA05461DE000F049F8002806D000F0E8
:107450004DF8002801D01A4D00E01A4D11E000F05F
:107460004DF8002801D00125ED030AE000BF01F02E
:10747000DBFA074601F0A2FA064601F0B1FA05462A
:1074800000BF00BF2846F8BD2E2E2F4472697665D6
:1074900072732F53544D33324C3078785F48414CDF
:1074A0005F4472697665722F5372632F73746D3304
:1074B000326C3078785F6C6C5F7263632E630000AF
:1074C00000093D000024F40001460348C06808405C
:1074D0000A04104370470000401002400248006850
:1074E00004210840800870470010024002480068EC
:1074F000102108400009704700100240034800694D
:10750000012149020840400A704700004010024033
:1075100002484068072149030840704700100240B4
:1075200010B502468C00104650302318186810BD64
:1075300030B58D00044650342B191A6030BD000060
:1075400010B502465068144B1840014630200840E0
:10755000000900010B071B0F1843000407235B03FE
:107560000B405B0B1B06184301231B030B401B0B3B
:107570001B010F2424020C40240A23431B0218433E
:107580000F231B050B401B0D1B010F2424040C4073
:10759000240C2343184310BD3FFFFF0010B50246E3
:1075A0001068114B18400146032000050840000DEB
:1075B00000010F231B040B401B0C1843000407237E
:1075C0001B030B401B0B1B010F2424020C40240A3D
:1075D00023431B02184370230B401B091B010C079C
:1075E000240F2343184310BD7F7F3F0070B504462E
:1075F00001251748844202D01648844200D103E096
:10760000802115A004F0BEFF114884420DD18014E2
:107610001F49496A01431E4A516200BF00BF11461B
:10762000496A8143516200BF00250A4884420DD156
:1076300000141749896A0143154A916200BF00BFCF
:107640001146896A8143916200BF0025284670BDBA
:1076500000300140003800402E2E2F4472697665BC
:1076600072732F53544D33324C3078785F48414C0D
:107670005F4472697665722F5372632F73746D3332
:10768000326C3078785F6C6C5F7370692E630000C9
:107690000010024070B505460C4601266A48854236
:1076A00002D06A48854200D103E0AB2168A004F013
:1076B00069FF206800280DD00121890220688842D6
:1076C00008D049012068884204D00321890320683A
:1076D000884200D103E0AE215DA004F053FFFF21FA
:1076E00005316068884202D06068002800D103E05C
:1076F000AF2157A004F046FFA068002804D0012164
:10770000C902A068884200D103E0B02150A004F073
:1077100039FFE068002802D0E068022800D103E0C9
:10772000B1214BA004F02EFF2069002802D020696F
:10773000012800D103E0B22145A004F023FF01217C
:1077400049026069884206D06069002803D0490276
:107750006069884200D103E0B3213DA004F012FF2C
:10776000A069002814D0A069082811D0A0691028A9
:107770000ED0A06918280BD0A069202808D0A069D5
:10778000282805D0A069302802D0A069382800D167
:1077900003E0B4212EA004F0F5FEE069802802D0B9
:1077A000E069002800D103E0B52129A004F0EAFE39
:1077B00001214903206A884202D0206A002800D1B2
:1077C00003E0B62122A004F0DDFE00BF28684021BE
:1077D0000840800900282FD1616820680843A1680B
:1077E0000843E16808432169084361690843A169C6
:1077F0000843E1690843216A08432968224A114085
:10780000084328606868042188436169090C0843BB
:10781000686001214903206A88420CD1606A00280F
:1078200000D003E0D9210AA004F0ACFE606A81B266
:10783000296100BF00BF0026E8690121C902884311
:10784000E861304670BD0000003001400038004063
:107850002E2E2F447269766572732F53544D333236
:107860004C3078785F48414C5F4472697665722F7E
:107870005372632F73746D33326C3078785F6C6C35
:107880005F7370692E6300004000FFFF10B5084A67
:107890000B069B0DD2580C0C0F23A3409A430C0CE3
:1078A0000346A3401A43024B0C06A40D1A5110BD07
:1078B00008000140016849084900016070470168FB
:1078C0000122114301607047F0B589B005460C46AE
:1078D00001200890002007908648854208D08648FD
:1078E000854205D08548854202D08548854200D131
:1078F00003E0C72183A004F045FE91492068884237
:1079000000D803E0C8217FA004F03CFE0121090754
:107910006068884206D06068002803D00914606857
:10792000884200D103E0C92176A004F02BFE01219A
:107930000903A06888420CD0A068002809D0032160
:107940000903A068884204D001214903A068884245
:1079500000D103E0CA216BA004F014FEE068002807
:1079600009D001218902E068884204D0032149023C
:10797000E068884200D103E0CB2162A004F002FE5F
:107980002069002808D02069042805D0206908282B
:1079900002D020690C2800D103E0CC2159A004F0CA
:1079A000F1FD606900280DD0FF2101316069884236
:1079B00008D049006069884204D003210902606947
:1079C000884200D103E0CD214EA004F0DBFDA06988
:1079D000002804D00121C903A069884200D103E036
:1079E000CE2148A004F0CEFD284600F0C1F80028C2
:1079F0007DD1E1686068084321690843A1690843B3
:107A00002968504A114008432860A0686968032229
:107A1000120391430143696000BF6069A9681211B4
:107A200091430143A96000BF3248854204D103203D
:107A3000FFF7B8FC079018E02F48854204D10C20CE
:107A4000FFF7B0FC079010E02C48854205D103A851
:107A5000FFF796FC0598079007E02948854204D176
:107A600003A8FFF78DFC05980790079800283ED0E3
:107A7000206800283BD000200890079FA069029052
:107A800026680121C9030298884214D1790072083E
:107A900088183146FAF72EFB80B201902A490198E6
:107AA0000840009001980007400F0099084300909B
:107AB0000098E86006E07108C8193146FAF71AFB29
:107AC00080B2E86000BFE868102800D304E0FF211E
:107AD00024310CA004F056FDE8681B490F318842A0
