:020000040800F2
:10800000C0470020998200084DF3000881D5000880
:108010000000000000000000000000000000000060
:1080200000000000000000000000000025F700082C
:108030000000000000000000A3F4000829F7000879
:10804000AB820008AB82000849F60008AB8200084A
:10805000AB820008E5BB0008AB8200084DBC0008FD
:1080600000000000AB82000811BB0008AB820008D2
:10807000AB820008AB820008AB820008AB8200082C
:10808000AB820008AB820008AB8200080000000051
:10809000AB820008AB820008AB820008AB8200080C
:1080A000AB820008AB820008AB8200089DF9000893
:1080B000AB82000871E3000800000000000000002F
:1080C00000F002F800F0BDF80CA030C80838241801
:1080D0002D18A246671EAB4654465D46AC4201D100
:1080E00000F0AFF87E460F3E0FCCB6460126334275
:1080F00000D0FB1AA246AB4633431847F4A2010056
:1081000024A30100103A02D378C878C1FAD85207E4
:1081100001D330C830C101D504680C60704700003D
:108120000023002400250026103A01D378C1FBD893
:10813000520700D330C100D50B60704710B56E29CF
:1081400002D101F0B5FC10BD702902D101F0E1FFB0
:1081500010BD662902D119F019FF10BD652902D1A1
:1081600019F014FF10BD672902D119F00FFF10BDDF
:10817000612902D119F012FF10BD03681B0A01D357
:1081800080231943692902D100F0E4F910BD642964
:1081900002D100F0DFF910BD752902D100F0DAF943
:1081A00010BD6F2902D101F05FFF10BD782902D107
:1081B00001F09CFF10BDE92902D100F001FA10BDC9
:1081C000E42902D100F0FCF910BDF52902D100F03C
:1081D000F7F910BDEF2902D101F052FF10BDF829C7
:1081E00002D101F091FF10BD0368DB0901D38023A8
:1081F0001943632902D101F0ABFE10BD732902D1EE
:1082000001F0AEFE10BDE32902D102F0ACFA10BDC0
:10821000F32902D102F0AFFA10BD002010BD1FB546
:1082200001F08CFB04000020002119F097FC401C99
:1082300060600020002119F0A7FCE0601FBD10B5B0
:1082400010BD02F0E5FE1146FFF7E9FF12F02CFA2F
:1082500003F09CF903B4FFF7F2FF03BC03F0D8F975
:1082600070B505460C46164602E00FCC0FC5103E11
:10827000102EFAD2082E02D303CC03C5083E042EDA
:1082800007D301CC01C5361F03E021782970641C97
:108290006D1C761EF9D270BD07488047074800471D
:1082A000FEE7FEE7FEE7FEE7FEE7FEE704480549D6
:1082B000054A064B704700008DF90008C180000890
:1082C000C0410020C0470020C0430020C043002020
:1082D00010B501F033FB001D10BD00BF81980100F7
:1082E0004343514330B55C18010C130C0D4692B258
:1082F0005D4380B251432C19054655430A0C0904CD
:108300004D1962415843010C00044019514130BDE0
:10831000FEB5054610460C46184373D0AE468C4653
:108320000020AD1A01469C4167D366460027012410
:108330003D46B61A9D4102D313463A46212465466E
:1083400076462F04360C3E432D0CB61A9D4104D3BD
:10835000150C1B042B4312041034654676462F0679
:10836000360A3E432D0AB61A9D4104D3150E1B0250
:108370002B4312020834654676462F0736093E43E2
:108380002D09B61A9D4104D3150F1B012B43120171
:10839000241D65467646AF07B6083E43AD08B61ABB
:1083A0009D4104D3950F9B002B439200A41C65466E
:1083B0007646EF0776083E436D08B61A9D411AD3FC
:1083C00092185B41641C16E00018764665464941E8
:1083D000B71A9D410191009009D36046B11A9841A6
:1083E0008E468446009801990025401C6941DD07AE
:1083F00052082A435B08641EE6D57246634603B002
:10840000F0BDFFE700200146C046C0462A4623468D
:10841000F5E700007CB51D4616460C00009001D023
:108420000019401E084B7B442A466946019030469D
:1084300001F063FD002C054603D06946002001F0E1
:108440006FFD28467CBD0000011B00000FB41CB569
:10845000084B06AA7B4469460090059801F04DFD43
:1084600004460020694601F05BFD20461CBC08BCA8
:1084700004B01847C91A00000FB47CB50C0009AA53
:10848000009001D00019401E094B7B4469460190C1
:10849000089801F032FD002C054603D06946002003
:1084A00001F03EFD28467CBC08BC04B01847000023
:1084B0009D1A000070B5044685690068C10601D5A3
:1084C000302600E02026C00707D070BD6268304625
:1084D000A1689047206A401C20626D1EF6D570BDD1
:1084E00070B5044685690078C00707D170BD626821
:1084F000A16820209047206A401C20626D1EF6D59E
:1085000070BD70B50C460546012A05D02878800656
:1085100000D5EA69002302E0012305E05B1C9342D9
:1085200002D2E05C0028F9D1A869E618C01AA86157
:10853000286AC01828622846FFF7BCFF04E06A6872
:108540002078A968641C9047B442F8D32846FFF706
:10855000C7FF70BDF7B5002575291068009914A6EE
:1085600011D001F03BFA002802DA404211A608E0DF
:10857000009909688A0701D50FA602E0490704D5CA
:108580000EA6012501E001F032FA009F00242437F5
:1085900004E001F07DFE30313955641C0028F8D12B
:1085A0002B4632462146009801F02AFAFEBD000013
:1085B000000000002D0000002B0000002000000043
:1085C000F7B5D21D0025D20815A6D200F52905CA97
:1085D00011D0002A05DA00214042914111A60A4635
:1085E00008E0009909688B0701D50FA602E049074A
:1085F00001D50EA601251146009F0024243704E072
:1086000001F0A4F930323A55641C02460A43F7D10E
:108610002B4632462146009801F0F2F9FEBD0000DB
:10862000000000002D0000002B00000020000000D2
:10863000F3B50446002081B020622046E1688847F7
:10864000002872D0252802D06268A168ABE0594F9B
:1086500000267F442046E16888472028054608DB3D
:10866000312D06D2781920380078002801D0064331
:10867000F0E7B00701D5042086430020E0610746FB
:10868000A0612A2D0AD0284607F05FFD002827D0D8
:10869000B8000019303D0090856119E00298BA00D9
:1086A000121902C8916102902046E1688847012FA3
:1086B000054617D1E06900281FDA202086431CE018
:1086C00000980A2180694843009940193038886130
:1086D0002046E1688847054607F037FD0028EFD1BE
:1086E000012F0AD02E2D08D12046E1688847054683
:1086F000202006437F1C022FC3DBA069002803DA79
:108700004042A06101200643F00701D010208643BB
:108710006C2D0BD0682D09D04C2D3CD06A2D38D053
:10872000742D38D07A2D36D016E040E0E1682F461F
:1087300020468847B842054609D16C2F29D0012030
:108740008002E168064320468847054604E06C2F16
:108750001DD0FF2001300643002D28D02846413887
:10876000192803D80120C002064320352046266080
:108770002946029A1646FFF7E1FC002810D001288E
:108780000BD0F61DF008C0000830029055E74020DD
:10879000E1E78020D5E70020D3E7361D02964CE7BD
:1087A00062682846A1689047206A401C44E7206A16
:1087B000FEBD00004C9B010070B5064601F0C2F8FA
:1087C0000468054630460A22002101F005FD2C60B0
:1087D00070BD000010B5024A01F036FD10BD00006A
:1087E000B803002030B505460B462A461C781078A1
:1087F000521C5B1C002801D0A042F7D0002C03D0F3
:10880000002802D06D1CEFE7284630BD034610B5A6
:108810000B439B070FD1042A0DD308C810C9121FA0
:10882000A342F8D018BA21BA884201D9012010BD5C
:108830000020C04310BD002A03D0D30703D0521C30
:1088400007E0002010BD03780C78401C491C1B1B5E
:1088500007D103780C78401C491C1B1B01D1921EC8
:10886000F1D1184610BD0000034670B502460B4317
:108870009B070FD10E4CE60100E008C208C91D1B82
:108880009D433542F9D0D9B21170521C00290DD048
:108890001B0AF8E70B78491C1370521C002B05D0FB
:1088A0000B78491C1370521C002BF3D170BD0000D3
:1088B0000101010130B5441C03E00178401C00298E
:1088C0000DD08107F9D10B4BDD0104C8D11A9143BA
:1088D0002940FAD0001B0A0603D0C01E30BD001B81
:1088E00030BD0A0401D0801E30BD0902FCD0401EFC
:1088F00030BD000001010101F8B5042A2CD3830723
:1089000012D00B78491C0370401C521E83070BD0F9
:108910000B78491C0370401C521E830704D00B784F
:10892000491C0370401C521E8B079B0F05D0C91AAF
:10893000DF002023DE1B08C90AE0FFF791FCF8BD29
:108940001D4608C9FD401C46B4402C4310C0121FF0
:10895000042AF5D2F308C91A521EF0D40B78491C28
:108960000370401C521EEAD40B78491C0370401C53
:10897000012AE4D409780170F8BDD2B210B513020F
:108980009A1813049A1800F00EF810BD01E004C004
:10899000091F0429FBD28B0701D50280801CC9075F
:1089A00000D00270704700290BD0C30702D00270BC
:1089B000401C491E022904D3830702D50280801C73
:1089C000891EE3E70022EEE70022DFE7F8B507465D
:1089D0000B4639461943890713D1164CE601042A80
:1089E0000FD302CB0D1B8D43354202D102C0121FA3
:1089F000F5E7CBB20370401C521E002B13D0090ABE
:108A0000F7E7002A14D01978521E5B1C0170401C35
:108A1000002908D0002A0BD01978521E5B1C017067
:108A2000401C0029EDD1002A02D01146FFF7CAFFF1
:108A30003846F8BD01010101024670B50A439207AC
:108A40002AD11E4DEE0104C808C9541B944334407A
:108A500017D0D0B2D9B2401A2106014310D190B23A
:108A600099B2401A210401430AD110021902000AE6
:108A7000090A401A2102014302D1100E190E401AB0
:108A800070BD9A42DFD010BA19BA884201D90120CC
:108A900070BD0020C04370BD02780B78401C491C9B
:108AA000002A09D09A4207D102780B78401C491C51
:108AB000002A01D09A42EFD0D01A70BD0101010105
:108AC0008178C278037809041206114342781002B3
:108AD000184308437047020A08704A70020C8A70F3
:108AE000020ECA707047002203098B422CD3030A7E
:108AF0008B4211D300239C464EE003460B433CD4EB
:108B0000002243088B4231D303098B421CD3030A52
:108B10008B4201D394463FE0C3098B4201D3CB0182
:108B2000C01A524183098B4201D38B01C01A5241B2
:108B300043098B4201D34B01C01A524103098B42B6
:108B400001D30B01C01A5241C3088B4201D3CB00A1
:108B5000C01A524183088B4201D38B00C01A524184
:108B600043088B4201D34B00C01A5241411A00D234
:108B700001465241104670475DE0CA0F00D049429D
:108B8000031000D34042534000229C4603098B420D
:108B90002DD3030A8B4212D3FC22890112BA030A95
:108BA0008B420CD3890192118B4208D38901921117
:108BB0008B4204D389013AD0921100E08909C3099C
:108BC0008B4201D3CB01C01A524183098B4201D39E
:108BD0008B01C01A524143098B4201D34B01C01A89
:108BE000524103098B4201D30B01C01A5241C30801
:108BF0008B4201D3CB00C01A524183088B4201D370
:108C00008B00C01A5241D9D243088B4201D34B008A
:108C1000C01A5241411A00D20146634652415B10CC
:108C2000104601D34042002B00D5494270476346AD
:108C30005B1000D3404201B50020C046C04602BDD3
:108C400070477047704700000246C80FC007814355
:108C50004B0030B54B405B009B0D20D01923DB0649
:108C6000C91801231B05994220DB0324A40704250E
:108C70001346AB400BD3002B04D1EB0613409B00F3
:108C8000E34204D401246407002312195941FF234D
:108C90001B0599420BD2C9000143500F09E0CB02DA
:108CA00004D501430803024305D0054830BDFF2128
:108CB000C905084330BD084607210905884330BD72
:108CC0000000C07FF0B50C46871A9C410D46861AFD
:108CD0009D4103D2C01BA141D21963410D0D1F0D4F
:108CE000C94EEC1BAE435CD07F057F0D0026002FE4
:108CF00051D02D05AC46A943DD020123ED0A1B0529
:108D00001D4320231B1B24D41746E740381871410C
:108D10002F46E740CC199D402818314661410C0D83
:108D200027D161449A4013D50023401C5941520079
:108D30000ED14008400001224B005205D34207D318
:108D400005204007C14201D5B04900E0B049304696
:108D5000F0BD6B00002A00D001229A181F23203C8E
:108D60001B1B01D5002302E0E540281871410C0DC2
:108D7000D7D0012424050919C407CD0740084908A4
:108D8000E40F28436144002CD5D00024401C6141ED
:108D90009A40D0D1CDE76A05520DD9D1C90FC90784
:108DA000D5E79C4D4E00002801D0012400E00024AE
:108DB00034195F00002A01D0012600E00026BE1908
:108DC000954FAC420CD8AE420AD8B44206D0012529
:108DD0006D05EC42BCD010461946F0BD9942FCD05E
:108DE00000203946F0BDF0B51FB40C460F46811A7D
:108DF0009F412546861A9D4106D20125ED076F4009
:108E0000401ABC4152187B41210D1E0D8D1BAC46F2
:108E10007D4D8D437ED075056D0D7CD00D05AE4624
:108E2000AC431B031B0B794D52429D4120236646E8
:108E30009B1B14D31746F740381800260090744146
:108E400060462F460741E41900989D402818664166
:108E500016D4714671189A4025D5012320E0931845
:108E60002A466A415200002B00D0521C1E23203E8D
:108E70009B1B002B61DD3541EE1728186641E8D5B4
:108E8000001876415B1C9A4000D3401C4B05F31838
:108E90001524E34010D3002B52D071467118D30F24
:108EA000C01802D3491C05B0F0BD0123DB079A426C
:108EB000F9D140084000F6E701225205B21801D16D
:108EC000002853D00123CC0ADB029943891E002AD3
:108ED00008D1020C03D0020C0004103902E0024653
:108EE000002020390023550B05D112020823550B11
:108EF00001D152010D23550C01D112011B1DD50CBE
:108F000001D192009B1C150D01D152005B1C202544
:108F1000EE1A01E02CE022E00546F54015439840AA
:108F2000CA1AE10769181305C918002ABBDA032019
:108F300040070818C10FC9070FE071466118B2E772
:108F4000F10740080843711071444A000CD0012316
:108F50005B059A42A7D2C90FC9070020A3E74905BC
:108F6000490D26D1002001E00028F4D100219AE724
:108F7000284D6600002801D0012100E00021711871
:108F80005F00002A01D0012600E00026BE19224F12
:108F9000A94210D8AE420ED8B14208D001256D05C5
:108FA000E94206D01946A802414010467BE79C42A0
:108FB00001D0214677E70020394674E710B50C460A
:108FC0005C4005D50124E4076340FFF70CFF10BDAA
:108FD000FFF778FE10BD30B40C465C4004D5012488
:108FE000E407634030BC6DE630BCFCE670B501249C
:108FF000E40761400D465D4002D4FFF763FE70BD9B
:109000006340FFF7F0FE70BDFF0700000000F0FFB7
:109010000000F07F0000E0FF0000F87FF0B5F94DA0
:109020000C091E092C402E402F468BB0A7437DD043
:10903000B543FCD0002E7AD0002CFCD00D465D400C
:10904000ED0F2543AC1BFF25AD0464190894C50240
:10905000440DC9022143500DDC0204430120C00726
:1090600001430443D2020191200C110C00958C465F
:10907000010423468B430A9161460904E24D8A4369
:109080000991010A7D4449198039097805464D4303
:1090900001266D18F605751B6943C90C640B891C04
:1090A0004C436418B5012C1B250C2E04B4434C43CF
:1090B0004D43210C691889090591009DE90701D0EC
:1090C0000121C90704912C4601996708CD072F4358
:1090D0004C08059DE10B4D432D0C29466646754312
:1090E00002950D4645432E46029D7D1BB4410095D9
:1090F0000D465D4301942C0C2F040D465543AE469E
:109100002D0C3D43029503947546049C2D04641B6D
:10911000049406D2029C039D641C002675410395AD
:10912000029401AC70CC009F7D1B01E03EE162E146
:10913000B44109040095079101940599A40861437D
:10914000090C0C464443650BE7040C466646744321
:10915000A646640B3C43039502947446049DE404C4
:109160002C1B049406D2029C039D641C00267541AE
:109170000395029401AC70CC009F7D1BB441019417
:109180000C465C430095650FE7000C465443A64629
:10919000640F3C43039502947446049DE4002C1B29
:1091A000049406D2029C039D641C0026754103951D
:1091B000029401AC70CC009F7D1BB441AE09AF0698
:1091C000049DC900AD092F43049DA406AD06049576
:1091D000079D344369180791059DE10B4D432D0C04
:1091E00029466646754302950D4645432E46029D27
:1091F0007D1BB44100950D465D4301942C0C2F045A
:109200000D465543AE462D0C3D43029503947546DD
:10921000049C2D04641B049406D2029C039D641CD0
:10922000002675410395029401AC70CC009F7D1B14
:10923000B44101948C050694079C890A6118009535
:109240000791019C0599A4086143090C0D4645430B
:10925000680BEF040D46644665436C0B3C43049F6A
:10926000ED047D1BAC4602D20025641C6841009EC3
:10927000019D371B85410846584301950C46460F12
:10928000C5005443600F28436546E4002C1B02D2FE
:109290000025401C6E41019D3F1AB5412846BD097D
:1092A000800628438446A009BF064E020699A406FC
:1092B00076180743079D002068410A9907901943D3
:1092C0000020099B00906046FF1913434041E20FC4
:1092D00064003A43A4460446D71A8C41A04203D9FD
:1092E0000120009020463A46C70F9418404162463C
:1092F000D20F2243644664000494009CBE4664007E
:10930000D71AA446044602978C417746002F01D114
:10931000A04204D96046401C8446029A2046C40FED
:10932000A64694184041049A0546D20F224364464B
:109330006400D31A8D417146002901D1A84202D997
:1093400028461A46641C10430122002800D0164308
:1093500061020020079B891904465C410223002C0E
:1093600002DB491813466441089DCE0A2D145D198D
:109370004B056705E10A2C050D1908993E43C907FD
:109380006940002B08D0934006D30022761C51413F
:10939000002B01D1760876001C4A002D43DB1542D4
:1093A00041D0AA433FD030460BB0F0BD06180D4661
:1093B0004D41174C7642AC411AD395181C465C417E
:1093C000134A6D42A24113D3012252054C00D442EC
:1093D0000AD15C00D4420BD04B4002D5920211431B
:1093E000E2E749004908DFE75940C90FC90718E01B
:1093F00000200849D8E7054801420DD10342F7D0C3
:10940000F2E700000000FF072B9101000000F07F51
:109410000000E0FF0000F87F114859400143C012EE
:1094200041400020C0E70123089A9B069A4205DCD0
:10943000032252078918C90FC907B5E70522520749
:109440008918074A1143D2125140ADE770B515464D
:109450001C4602460B4628462146FFF7DFFD70BD3D
:10946000FFFFFF7FF0B58B4C0F09254689B0BD4348
:109470007BD01D092646AE43FAD00E465E402740FB
:10948000F60F3E43254071D024012142FBD0FF243A
:10949000AD19A4042D1B039501252D05DB02DB0A64
:1094A000C9022B43C90A29431E010901040F130FE6
:1094B000050121431701880B820391432D098C4636
:1094C000A90B1E438A039543B30B9A0396433F09A6
:1094D000BA0B9403A74302962E467E430497B646E2
:1094E0004E19D7190C460196544305977E43371BF6
:1094F0007646BF1B3601B646BE0B36190096764639
:10950000BC043719009C01D3641C00946400002F34
:1095100001D001263443029E049F754366467E4374
:109520000496760034196E0034190094029C019E52
:109530001C196643751BAE46069465464519059C85
:1095400005956C43594375460891691A0191049E2B
:1095500001465143A41B0491611A009C0791E10646
:1095600005D061090122114302E072E06EE0610959
:10957000089D00272C0A2D066918049D7C412A0AA3
:109580002D066918019D6241AC0DAD026D18544164
:10959000079A910D920255196141029A6446584307
:1095A0005443069B059A5A43121A131B9A0E9B01A9
:1095B0005B187A41010B0005C3185141220A2006AD
:1095C00044195A419A4200D2491C0120400281426A
:1095D00003D315230226F64302E014230326F643A1
:1095E0002020C51AA9401746AF40DA400A4320465A
:1095F0000399D8400914731819055118039A384370
:10960000D2075140AC4009D00122944006D3002239
:10961000401C5141002C01D1400840001E4A934299
:1096200012D3012203989206904207DB05204007DF
:1096300009181A480143C012414004E003204007C2
:109640000818C10FC907002009B0F0BD0020F107BC
:10965000FAE705180C464C4111486D42A04115D35C
:1096600094181A465A410E48644290410ED3012084
:109670004A004005824209D35A00824206D359402B
:10968000C90F084AC90700201143DDE70020064939
:10969000DAE700000000FF07FE070000FFFFFF7F82
:1096A0000000E0FF0000F07F0000F87F0121C90505
:1096B0000123411842001B06D3185B0E0AD0C110CB
:1096C0000722D206891840075242D14201D55200E2
:1096D00089187047090208D50146002A03D0C10F36
:1096E000C9070020704710467047420202D0002090
:1096F00002497047072109050143F4E70000F87F9C
:10970000F0B5FF252D04C609C209FF2704462E40E7
:109710000137CB093E4348402A402B400746002AE8
:109720006BD0002B69D0AA4267D0AB4265D000282D
:1097300000DA32460125ED0529432C4309022002B7
:10974000090AD21A4B0C7F24E31A434C000A7C44CA
:10975000E35C7D242404121914145B00A2188842CF
:1097600001D3521C00E0400049420C465C432411E6
:109770005C43DB016415E318040A5C43C502200D59
:109780000C4644436419250A5D432303EC0C0D4643
:10979000654300030019EB184C42A34201D35B1848
:1097A000401CD4052018002B07D05B00C91804D337
:1097B000401C002901D1400840003F2189048A4211
:1097C00009D3002A08DC1106090F04D00321490738
:1097D0004018C00FC007F0BD0122410012068918D1
:1097E0007F2252069142F6D205214907C84201D58F
:1097F0009010F0BDFF20C005F0BD002F00DA32460A
:109800001648AA4207D2AB4205D21902090E17D058
:10981000F80FC007F0BDFF2563002D06AB42F9D855
:109820004900A942F6D8AB4201D1A942F2D0A942DF
:1098300001D1002101E061004908D0050843F0BDD5
:109840001102090EFBD0FF200243D005F0BD0A46ED
:109850000146104654E70000E18A01000000C07F85
:1098600010B501469E240002CA15A307002A02D0A3
:109870001843002A04DBA21A002A0CDDD04010BDD8
:109880001206120E01D140004008A21A03D4D040A3
:1098900040420028F3DDFF2248001206904201D921
:1098A000002010BDC817C043584010BD0102C215AA
:1098B00004D00123DB071943002A0ADB9E239A1AEE
:1098C00002D40846D0407047FF2241001206914260
:1098D00001D900207047C017C04370471F22030CF6
:1098E00002D10F2200041CD0030E01D10002083A5D
:1098F000030F01D10001121F830F01D18000921EBE
:10990000002801DB4000521ED205511802125118E6
:109910001922904004D3491C002801D1490849006C
:1099200008467047C10FC90700D040420122920784
:109930001143D3E701218907D0E7000000487047B1
:109940008041002000487047604100200B4670B500
:10995000024689078008084319469D08141AA94140
:1099600025090807054308092C194841250A01065D
:109970000D43010A2C194141200C0D0428430D0C04
:1099800000194D41002140194D41C00869070843A5
:10999000E908840F8D002543840024184D412419C3
:1099A0006D41121BAB4107E00925ED432C11521903
:1099B00063410024401C61411C460A250026551BBA
:1099C000B441F1D270BD10B5FFF7BCFF006810BD07
:1099D00010B50446FFF7B6FF046010BD09684A05DC
:1099E00001D540B27047C905FCD500B2704709687F
:1099F0004A0501D5C0B27047C905FCD580B2704791
:109A0000FFB504460D4681B02430009021688806D9
:109A100004D51022E0699143216000E00120A842B2
:109A200001DD471B00E000270498A1697A1910188E
:109A3000081AA0612078C00602D42046FEF73AFD3D
:109A4000002608E003986268A168805D9047206A5C
:109A5000401C761C206204988642F3DB2078C00606
:109A60000AD52046FEF726FD06E06268A168302090
:109A70009047206A401C206238467F1E0028F4DC94
:109A800007E000986268A168405D9047206A401C2A
:109A9000206228466D1E0028F3DC2046FEF720FDDC
:109AA0002078000602D5022005B0F0BD0120FBE7BA
:109AB00011680268006A530501D5087009E0D305F2
:109AC00001D5088005E0130602D5C21705C100E0E4
:109AD00008600120704700007047FFB50C461E4625
:109AE0008FB003CA089009914F007D0D00D16D1E03
:109AF000002108460020C0460321099A8905084034
:109B0000002A03DA8200801840080840800D0128EE
:109B10000A9002DD0020C0430A90089807430DD048
:109B2000F048F149281848430714189800281DD018
:109B30007542291E1DDD0A9842421BE01898012833
:109B400002D00020302104E00020F24305E021543F
:109B5000401CB042FBDB30460022189B0021215400
:109B60000F998B600A60486013B0F0BDBD1B6D1C7F
:109B7000DFE70A9A002900DA69420BA800F074FEB8
:109B80000BAB07CB03AB07C30899099800F0D8FECD
:109B90006B4607C30146D5480918002D00910BDD1F
:109BA000D24903980A9A49424018002303A9039016
:109BB000684601F035F908E003990A9A002308186D
:109BC00003A90390684601F0D5F86B4607C300046B
:109BD000000C03D00020C043410800E01046189A52
:109BE000002A03D00022009215461EE0751E05D4FF
:109BF000FFF7ACFE303262556D1EF9D501220843E5
:109C0000079602D000227F1C04E02078302801D182
:109C100000227F1E002A069787D01EE0112D07DA4A
:109C2000FFF794FE303262556D1C02460A43F5D1AF
:109C3000084303D00098002819D00EE00021681EC8
:109C400005E0235C625C63542254401E491C81423F
:109C5000F7DBA81B401E07950690079A189900206D
:109C6000A0540F98079B069A81600CC07CE71126D0
:109C70000020189059E7D21DF0B50D460446D108D2
:109C800093B0C90003C90C900D9105F0F1FF024695
:109C90000D98C00F01D02D2007E02068810701D565
:109CA0002B2002E04007C00F4001032A0F9001D093
:109CB000072A05DB03462946204600F005FD0EE194
:109CC0002078800601D5E76900E006272846652D43
:109CD00004D0662814D0672D69D12DE00020112F03
:109CE000009001DB112300E07B1C0CAA03A910A843
:109CF000FFF7F3FE1199002610987D1C0E9142E0AB
:109D000001203B460CAAC0070B900120009003A93C
:109D100010A8FFF7E2FE119D129810990026002866
:109D20000E9501D1781C0D18781B02D446427D1C7B
:109D3000761EE81B00903AE0012F00DA0127002090
:109D4000112F009001DD112300E03B460CAA03A96E
:109D500010A8FFF7C2FE11993D46109800260E91FB
:109D6000217809070BD40E99A94200DA0D4603A900
:109D7000012D04DD4A19203AD27F302A06D0B8429C
:109D800001DA011D04DA012100910FE06D1EEFE7F9
:109D9000002802DC86192D1A03E0411CA94200DDCF
:109DA0000D46801B401C00900120C0070B902078BE
:109DB000000705D40098A84202DB0020C0430090B1
:109DC00069460020C8720B98012102AF0337C9070A
:109DD000884225D0022010902B2011900B9800284B
:109DE0000BDA40420B902D20119006E00B9800F00A
:109DF0004FFA30317F1E0B9039701099481E0029A0
:109E00001090F3DC0B980028F0D111987F1E387069
:109E10002088000501D5452000E065207F1E3870B0
:109E200001A8C01BC01D0B900F98002800D0012076
:109E300041190098C01709180B980818A169081A49
:109E4000401EA0612078C00602D42046FEF732FBF7
:109E50000F98002805D06268A1689047206A401CCE
:109E600020622078C00625D52046FEF723FB21E09E
:109E7000002E07DB0E98B04204DD03A86268805D07
:109E8000A16802E06268A16830209047206A761CD1
:109E9000401C20620098401E002800900AD1FFF765
:109EA0004DFDC06862680168405CA1689047206A07
:109EB000401C206228466D1E0028D9DC07E062683D
:109EC0003878A1687F1C9047206A401C20620B995B
:109ED000481E00290B90F2DC2046FEF701FB032010
:109EE00042E6000001FCFFFF104D0000E1DFFFFF34
:109EF00001694A1C02610878704700B58FB0029171
:109F0000002105910549019379440391114604907C
:109F10006846FEF78DFB0FB000BD0000E5FFFFFFB8
:109F20000A681070521C0A6070470CC908399A42BE
:109F300002D2531C0B601070704710B54369002BA0
:109F400002D0C046C04601E0FEF7DBFA012010BD9A
:109F50001278014624310A7000224A700122ECE78F
:109F600011680022D243E8E7F7B50446154686B0EB
:109F70002B487844002703C83E460090019111E029
:109F800007986A467100415A02A800F099FF411CE7
:109F900007D02178890603D5E269391891420ED895
:109FA0003F18761C2078800602D5E069B84206DDAD
:109FB000AE42E5DB07987100405A0028E0D1A06965
:109FC000C01BA0612046FEF775FA154878445A3840
:109FD00003C800900020019116E041006A460798EE
:109FE000415A02A800F06CFF0590401C0AD00025E1
:109FF00005E0626802A8A168405D90476D1C059865
:10A000008542F6D30498401CB0420490E5DB206AF8
:10A01000C01920622046FEF763FA09B0F0BD0000C7
:10A020003A83010070B504460021243408E0550746
:10A03000D2086D0F303565545D072A43DB08491C93
:10A0400015461D43F3D10468002310A2250708D547
:10A05000A40601D4002904D0C46901230CA2641E03
:10A06000C461FFF7CDFC70BD10B5044621461068F1
:10A07000FFF7BDFC002302462046FFF7D3FF10BDCB
:10A08000D21DD108C9000CC9CCE7000000000000B7
:10A0900030000000F8B50F460188090502D5224CB2
:10A0A0007C4402E0204C7C440E34054600212435DB
:10A0B00008E016071209360FA65D6E541E073243DC
:10A0C0001B09491C16461E43F3D12246047800237F
:10A0D000240705D5702F06D0002901D002231132A4
:10A0E000FFF78EFCF8BD01231032F9E770B5044686
:10A0F0000D4621461068FFF77AFC002302462946E8
:10A100002046FFF7C7FF70BDD21DD308DB000CCB84
:10A11000C0E730B403682024126823430360082397
:10A12000C36130BC0023B5E7148201000FB40023E3
:10A1300000B589B00CA900910B99CB60224B7B44F0
:10A14000224A7A440792042206930192204A0292FC
:10A15000204A7A446B4608920246002017F026FFF8
:10A1600009B008BC04B0184770B5064615460C4641
:10A17000324686B00020C04301900020049004A81D
:10A18000009102916946FFF7D1FF02460498211819
:10A19000002D05D0002801D0084600E020462860A8
:10A1A000049800280DD0002A02DD0098884208D0CB
:10A1B0003246081B6946019004A800940294FFF7F8
:10A1C000B5FF06B070BD00003D0600005906000056
:10A1D000FFFFFF7F87020000F7B50F460026009CB7
:10A1E0002578641C002D05D0FEF772F80068405DEC
:10A1F000C007F5D12B2D02D02D2D18D0641E394665
:10A20000029A204600F0DDFA002F04D03968A142FE
:10A2100001D1009939607105022400290BDA40420E
:10A22000002803DDFFF78EFB0460A007FEBD0120C0
:10A2300080020643E3E70028F8DAFFF783FB0460B7
:10A240000048FEBDFFFFFF7FF8B515460E4604002F
:10A2500003D12C68002C00D10CA4204600F061FE34
:10A260000419207800280ED027463146384600F0E1
:10A2700047FE04192078002802D000202070641CBA
:10A2800038462C60F8BD0027FAE700000000000007
:10A2900001468008081A02091018020A1018020C58
:10A2A0001018C008820012185200891A01E0401CE0
:10A2B0000A390A29FBD270471F22030C02D10F2250
:10A2C000000402D0030E03D004E0002001467047D2
:10A2D0000002083A030F01D10001121F830F01D1C0
:10A2E0008000921E002801DB4000521E120551180A
:10A2F0004205C012411810467047C10FC90700D06F
:10A300004042012292071143D6E701218907D3E792
:10A3100070B505464800440D124B0020002C0AD0B1
:10A32000634008D09A4206DA6642B24203DD120563
:10A330004019514170BD002C08D0002B09D0C90F25
:10A34000C907002AF6DB084A114370BDC90FC907C7
:10A3500070BD28460A03104302D00020034970BD97
:10A36000284670BDFF0700000000F07F0000F87F66
:10A3700010B5FF231B0644009C421DD84C009C4294
:10A380001AD80346124A0B4307D4401A02D3EFF3FC
:10A39000008010BDEFF3008010BD081A06D2EFF365
:10A3A000008001219043C907084302E0EFF30080D9
:10A3B000904380F3008810BD0D231B041A4204D083
:10A3C0001146002000F0BDFD10BD00F019FE10BDCB
:10A3D00000000090004870476041002010B504461E
:10A3E000FDF776FF0068005DC007C00F10BD0000DC
:10A3F000D21DF0B504460D46D0088DB0C0004668A9
:10A4000007683146384605F033FC0246F00F01D0AC
:10A410002D2307E02068810701D52B2302E04007A8
:10A42000C00F43016846002B037001D0012000E0FB
:10A430000020032A0A9001D0072A04DB294620467F
:10A4400000F042F92DE12078800601D40D2500E0CE
:10A45000E5697000400D0D2D01904BDA300D0021A3
:10A460000B9008460020C046032189050840002EB5
:10A4700005DA82008018C20F1018401008408015BD
:10A48000012801DD0020C043A9000023182906D3BC
:10A490009C460A460123183A1B07D34003E00122D9
:10A4A0001205CA4094460C31202902D33A4620397D
:10A4B00000E032468A40002802DD002A06D119E079
:10A4C000002817D10121C9078A4213D319466346D0
:10A4D0007F185E41002806D10120C007824202D1C8
:10A4E000084687439E430B98310D814202D0019864
:10A4F000401C01902088000502D57149794402E092
:10A500006F49794419396B460A9830221A540A98CF
:10A510000A7C401C1A54401C0A900198002801DC57
:10A52000302000E031201872019A0120002A02D068
:10A53000644BD21804E072003A4302D0614A521CC4
:10A540000192002D02DC2278120703D56A462E20E4
:10A55000507202200022864694460CE032033601F7
:10A56000120F6D1E8B5C02AA13546246521C401CD3
:10A570009446052A01DA002DF0DC002202AE08E044
:10A580003B0F3F01CB5C521C6D1E3354401C082A0C
:10A5900001DA002DF4DC23689A0601D511E0401E93
:10A5A000704504DD3218203AD27F302AF7D00028D7
:10A5B00007DD3218203AD27F2E2A02D11A0700D4A2
:10A5C000401E002D03DD3E223254401C6D1E497C8E
:10A5D00031540199401C002906DA2D21471C3154C1
:10A5E00001984042019003E02B21471C315401980F
:10A5F0007D21C900884206DBFEF77FFA3030F05536
:10A600007F1C019101E0642808DB01986421FEF7BA
:10A6100074FA3030F0557F1C019101E00A2806DB06
:10A6200001980A21FEF769FA3030F0557F1C019835
:10A630000A21FEF762FA3031F1550A98A1697F1CB0
:10A640007A191018081AA0612078C00602D4204692
:10A65000FDF730FF216A6E460A980818206204E070
:10A6600062683078A168761C90470A98401E0A906C
:10A67000401CF5D12078C00602D52046FDF71AFF10
:10A6800002AE09E03078761C3E280DD06268A168E1
:10A690009047206A401C20627F1EF3D22046FDF7BF
:10A6A0001FFF0DB00320F0BD206A4019206203E0B7
:10A6B0006268A168302090476D1EEDD3F8E7000076
:10A6C000FB7D010001FCFFFFF8B51F460446012396
:10A6D0000068DB02032601461840072A05DB002834
:10A6E00001D017A506E017A504E0002801D016A5A3
:10A6F00000E016A5102081432160A069C01E002F34
:10A70000A06101D0401EA0612046FDF7D3FE002FBE
:10A7100009D038466268A1689047206A401C2062D0
:10A72000C01C206206E0206AFAE762682878A16807
:10A730006D1C9047761EF8D22046FDF7D1FEF8BD7D
:10A740004E414E006E616E00494E4600696E6600D5
:10A7500010B54369002B02D0C046C04601E0FFF7A8
:10A7600003FC012010BD128801462431828400229E
:10A77000C2840122ECE711680022D243E8E7426874
:10A78000002A08D001680B78491C002B03D0521E08
:10A7900006C0184670470121C160881E7047426894
:10A7A000002A0BD0C3680168002B07D183688B4255
:10A7B00004D0491E521C06C0002070470020C04330
:10A7C0007047F7B5154682B00027029C2078641CBC
:10A7D0000197302802D0002D15D015E020780127F0
:10A7E000641C782804D0582802D0002D09D00BE032
:10A7F000002D01D0102D07D1207800271025641CD2
:10A8000002E0082500E00A250026009610E00099E5
:10A8100001276943081829467143020C80B2009051
:10A820008E183804864201D3012001902078641CE0
:10A83000294600F00CFC0028E9DA0398002805D02E
:10A84000002F01D0641E00E0029C046001980028E3
:10A8500006D0FFF777F802210160C81E05B0F0BDF1
:10A86000009930040843F9E7F7B516468AB0334833
:10A8700078446C4603467C33C06F5A689B680DC4AD
:10A880002E487844763003AC0DC80DC43720C00183
:10A89000081837211B30FEF730F905460C46803D7D
:10A8A0001B3C02D56442012000E0002000270990F3
:10A8B00010E0E0070CD00C20204978437944324660
:10A8C0004C3941186846012300F054FA6B4607C31F
:10A8D00064107F1C002CECD1184F7F442E3F16E0F3
:10A8E000E80712D02001C0190EC8069108930792FC
:10A8F0000068F04201D1981908903246012306A958
:10A9000003A800F037FA03AB07C36D10641C002DD9
:10A91000E6D10998002806D032466946012303A8EB
:10A9200000F07EFA05E001233246694603A800F0F4
:10A9300021FA0A9B07C30DB0F0BD00009C7A01000C
:10A94000034640000A4610B5400D0BD00121C9074F
:10A950000F24A40200191C0364082143540D214351
:10A96000D20207E000210120F2E7D40F4900214381
:10A970005200401E0029F8DADB0FDB07184310BD38
:10A98000FFB50D46144685B04868516805F04AF990
:10A9900000910190A868A16805F044F90291039024
:10A9A000A868616805F03EF9029A12188242029284
:10A9B00001D2012000E00020019A0B18D2180028D3
:10A9C000019202D08A4202D903E08A4201D20120D8
:10A9D00000E000200099081800906868A16805F060
:10A9E00021F9029A12188242029201D2012000E05B
:10A9F0000020019A0B18D2180028019202D08A4236
:10AA000002D903E08A4201D2012000E0002000992F
:10AA1000081800902868216840004900400849084B
:10AA20004018FA49471814E001994000C90F08433B
:10AA30000090019802994000C90F084301900298C4
:10AA400003994000C90F08430290039840007F1EFD
:10AA5000039000980028E7DA0898002801D0EC4E0F
:10AA600000E00026B74201DA012000E000200028C3
:10AA700004902AD0F71BF806C00E15D0029B2021A7
:10AA8000091A039A8B401A430392029A019BC2400F
:10AA90008B401A430292019A009BC2408B4000995E
:10AAA0001A430192C14000917B110DD06F460320E3
:10AAB000C11A03D500218200B95003E08A00810049
:10AAC000BA587A50401EF3D53746039802990028A9
:10AAD00000D00120014308980291002808460CD0BC
:10AAE000002800D001200199019A4905084301215D
:10AAF000D20AC902D202019200E001210E9B01227A
:10AB0000D207012B02D0002B03D013E0002807D17D
:10AB100020E0904204D890420CD1019B0B4209D016
:10AB2000019B5918019105D10099491C009101D14F
:10AB30007F1C009200280DD0102108460020C0463E
:10AB40000498002806D00F98002803D00821084652
:10AB50000020C04628682168019B009A4840C10F28
:10AB60000598C90739430EC009B0F0BDFFB587B0DD
:10AB7000099A0898089953689268406889689646C7
:10AB80000022039317469446089A12685300099AC4
:10AB90005B081268520052089A1A9E4BD4180A9AFF
:10ABA000002A01D0352200E0402206920022012333
:10ABB00015460492DB07059324E0002D05D1754668
:10ABC0000346039E4D1BB34109D375466646039B5E
:10ABD000491B049D9841059B7519AC465F4163462E
:10ABE0003B4308D0059B049EDD0776082E435B0897
:10ABF0000496059301E0521E641EC50FED07491827
:10AC00004041521C069B9A42D7DB002D04D1754669
:10AC1000039A6B1A824101D203200CE0039A0B467F
:10AC20006B404240134303D0014303D0012002E0B4
:10AC3000022000E00020614601910021009702916E
:10AC40000A99002905D0614640020143704B0191E9
:10AC500002E08007002302909C4201DA012000E01C
:10AC6000002007003AD01A1BD006C00E15D0029D56
:10AC70002021019C091AC5408C402543029C8C4030
:10AC800000D001242543019C0295009DC4408D40C5
:10AC900000992C430194C140009154111DD06D4680
:10ACA0000221002202290CD10320001B07E000280A
:10ACB00004DB8600AE59002E00D00122401C032880
:10ACC000F5DB081B02D588002A5004E080002858D4
:10ACD00010438A00A850491EE3D51C460A98002854
:10ACE00002980CD0002800D001200199019A490552
:10ACF00008430121D20AC902D202019200E00121D7
:10AD0000109B0122D207012B02D0002B03D013E0AD
:10AD1000002807D11FE0904204D890420CD1019B3B
:10AD20000B4209D0019B5918019105D10099491C8A
:10AD3000009101D1641C009200280CD0102108461B
:10AD40000020C046002F06D01198002803D008210B
:10AD500008460020C04608980999019A009B00689F
:10AD600009684840C10F0798C907214382600AC09B
:10AD70000BB0F0BD00B585B0019300920A460146C4
:10AD8000002302A8FFF7FCFD02A807C805B000BD1C
:10AD9000FFB50A461F4685B007990193012300912C
:10ADA000014602A8FFF7ECFD02990398049ECA0F22
:10ADB0004900D20700920F22490892028C1A002102
:10ADC000002800DB0C46450013486D08844214D36C
:10ADD000079A002A04DA441E0026104DF64302E0CA
:10ADE00004460D460E46102108460020C046002F9E
:10ADF00003D0042108460020C0462005E90A084384
:10AE0000009908436905F20A1143ADE602C0FFFF4D
:10AE1000013C0000FF3F0000FF070000FFFFFF7F35
:10AE200000B585B0019300920A460146002302A8AE
:10AE3000FFF79CFE02A807C8A8E7FFB50A461F4611
:10AE400085B00799019301230091014602A8FFF7FD
:10AE50008DFE02990398049ECA0F4900D207009202
:10AE60000F22490892028C1A0021002800DB0C46B0
:10AE7000450011486D08844214D3079A002A04DA69
:10AE8000441E00260D4DF64302E004460D460E46D4
:10AE9000102108460020C046002F03D00421084698
:10AEA0000020C0462005E90A0843009908436905C7
:10AEB000F20A114358E60000FF070000FFFFFF7F82
:10AEC00070B516460C460546FDF702FA0368FF20EA
:10AED0000230C05C012807D0FF2C0ED8185D002876
:10AEE0000BD001202C7070BDFF3332462146083351
:10AEF0001868C3182846984770BD0020C04370BD2D
:10AF000030B503461D78002D03D00A4603E0AC425D
:10AF100001D1181A30BD1478521C002CF7D15B1CDB
:10AF2000F0E730B503461D78002D08D00A461478A6
:10AF3000521C002C03D0AC42F9D15B1CF3E7181A69
:10AF400030BDC80212D54803400F002804D0C80302
:10AF5000C043012188407047EFF3008000010009E1
:10AF600003210907084380F30088704700207047D9
:10AF7000F8B5224C4E00069DA6420AD8A64201D141
:10AF8000002806D15E00A64203D8A6420AD1002AB4
:10AF900008D00D24240425422CD029460020FFF798
:10AFA000D0FFF8BD0C461C430CD4994202D0EFF3FD
:10AFB0000080F8BD904202D0EFF30080F8BDEFF3BF
:10AFC0000080F8BD09242407E5008B4206D0EFF38A
:10AFD0000080A043591A06D2284304E0101A05D372
:10AFE000EFF30080A04380F30088F8BDEFF300800A
:10AFF000A043F1E7009500F0D1FAF8BD0000E0FFB2
:10B0000010B5024800F0D4FA10BD00000000C07F67
:10B010007546FFF7DFF9AE46050069465346C0089E
:10B02000C000854618B020B5FDF740F960BC002788
:10B030004908B6460026C0C5C0C5C0C5C0C5C0C504
:10B04000C0C5C0C5C0C5403D49008D4670473A28BF
:10B0500000D23038202302469A43412A01D31046B9
:10B060003738884201D30020C0437047FFB58BB00A
:10B070000878FF2806D0491C2D2805D00023002081
:10B08000009009E000200EE00123F8E7009A0A246E
:10B0900062438018491C00900878FF28F6D1002BE5
:10B0A00002D0009840420090002503952C460D9850
:10B0B00000782D2801D02B2815D10D99491C2D2859
:10B0C0000D9102D0002003900DE00120FBE7401C11
:10B0D000214600270A223B460D902846FDF700F93D
:10B0E00035183C464C410D980678FF2EEFD10021D3
:10B0F00008460020C0460399002902D0810040186C
:10B1000040080002860F012E01DD0026F6430E994D
:10B1100000984718284620430BD0FF20F530C7423F
:10B120001ADA0398C1070B98002E41600ADD01204E
:10B1300009E00398C1070B9841600B990020086053
:10B140000FB0F0BD00200B990860FEF7FBFB022159
:10B150000160182108461AE0FF20F530874219DD0A
:10B16000002E02DAFC48784401E0FC48784406C826
:10B170000B9806C00B9803994068C90708430B99C0
:10B180004860FEF7DFFB0221016014210846002021
:10B19000C046D5E7002108460020C04639000A9085
:10B1A00001D5724200E03246002900DA794207A850
:10B1B000FFF75AFB07AB07CB04AB07C3E848009087
:10B1C00000200146214304D12C460546E44920399C
:10B1D0000091210C0904014306D1290C24040C43DD
:10B1E00000992D0410390091210E0906014306D162
:10B1F000290E24020C4300992D0208390091210FD9
:10B200000907014306D1290F24010C4300992D01A0
:10B21000091F0091A10F8907014306D1A90FA400BE
:10B220000C430099AD00891E0091E10FC907084346
:10B2300004D100986D196441401E0090002F0295C2
:10B24000019406DD32466846012304A9FFF7A0FDFC
:10B2500005E001233246684604A9FFF7EEFD0446E7
:10B2600003980D46002802D00120C0074440002169
:10B2700008460020C0460A99BA4E48400007800F91
:10B2800007D160004008284303D06000400DB04261
:10B2900014D1FEF757FB022101606000400DB0425F
:10B2A0000CD1B148784406C80B9806C00B98E10F42
:10B2B000C907406808430B99486041E70B98446010
:10B2C0000B9805603CE7FFB51F4695B000200025B0
:10B2D0000C909E685C68ED431390FEF72FFBC068EE
:10B2E0000168405C1490B96916986D1C88470A90F3
:10B2F000396A88470028F6D10A98401C0AD00D20E8
:10B30000C0018443002E12DD0A982B2809D02D2875
:10B310000DD103E00020C04319B0F0BD0120800230
:10B320000443B96916986D1C8847761E0A9060051B
:10B3300004A901D52D2000E02B206A46491C107479
:10B3400010A8002E0D910B903BDD0A98692805D0BE
:10B35000492803D06E2801D04E281DD13B460390CA
:10B3600002200296179A1699C0430095019416F090
:10B370002DFEC11CD0D10FE0B96916986D1C88470D
:10B380000A900120761E4002044317980560139826
:10B39000401C002E139014DD0A983028ECD0782839
:10B3A00001D058280DD1139801280AD13B460296A6
:10B3B000179A1699001F0095019416F0FFFDC11C05
:10B3C000AAD114990A98884246D18020044308E003
:10B3D0000C981799401E0C90012040020443681CF1
:10B3E0000860B9696D1C1698761E884730280A9047
:10B3F000EED031E01499884205D1200603D4802094
:10B400000443761E1EE00A9804F09FFE002826D012
:10B41000012008A9400204430D980331761E88429A
:10B420000BD20A980D99303808700D98401C0D9079
:10B43000200607D50C98401E03E0200602D40C9885
:10B44000401C0C90A00502D51799681C0860B969CA
:10B4500016986D1C88470A90002ECBDC59E0002E10
:10B4600057DD0A98652801D0452852D1A00550D54E
:10B470000320B969000284436D1C1698761E884724
:10B48000002E0A900CDD2B2804D02D2808D1FF2097
:10B4900001300443B96916986D1C8847761E0A90DE
:10B4A000E00501D52D2100E02B210B9801700B98B0
:10B4B000401C0B90009025E0012012A9400204439B
:10B4C0000B980131761E88420ED20A980B993038BB
:10B4D0000006000E087003D100990B9888420AD923
:10B4E0000B98401C0B9006E0E00501D51F4801E0D9
:10B4F0001E4840420C90B96916986D1C88470A9006
:10B5000017980560002E04DD0A9804F01EFE00283E
:10B51000D2D1F969169888470D99FF2004AA0870BE
:10B520000B99087000200E900F900C9B10A90EA88C
:10B53000FFF79CFDA00502D40120C043ECE62420C7
:10B54000044215D0E0071FD138680F9A0E99031DE9
:10B550003B60006806C017E0BE720100B0720100D7
:10B560003E400000FF07000078710100F1D8FFFFA6
:10B570000EA9684604F070FDE00705D13868009A0E
:10B58000011D3960006802602846C5E610B5044612
:10B59000C046C0462046FCF75DFE10BD10B5002039
:10B5A0000249029A00F004F810BD00000000F87F84
:10B5B00010B50C461107090F092904D00A290AD031
:10B5C00008290CD104E011460820FFF7BAFC06E078
:10B5D000510606D501E0510601D50120C0072146DC
:10B5E00010BDD10607D501010909CC084907000E95
:10B5F0000006044309E0410F20024907000A014305
:10B60000200E00061D22D14101430846E7E7000055
:10B6100001491820ABBEFEE726000200FFB51F4619
:10B6200089B0139812994005C00FC00705900020FB
:10B63000079005460446461E049002903C20491C93
:10B6400012910690B9690A98884703901498401E91
:10B6500014901498002841DD03982E2816D010214C
:10B66000FFF7F5FC002834DB012104910799014321
:10B670001AD0069900290CDB069AC11700F007FAC8
:10B68000054306980C43001F069006E00120029037
:10B690000EE0002801D00120054301200790029808
:10B6A000002805D1361D03E00298002800D0361F7F
:10B6B0001298401C1290B9690A9888470390149810
:10B6C000401E149004980028C3D00B99129808606B
:10B6D000BFE70398702808D0502806D0F9690A9867
:10B6E00088470498002815D051E0002003900120DD
:10B6F0000290049800280AD01298401C1290B96950
:10B700000A9888471499491E0029149106DCF969A2
:10B710000A9888470120C0430DB0F0BD2B2804D003
:10B720002D280DD10020C04302901298401C129089
:10B73000B9690A9888471499491E00291491E6DDD1
:10B74000411CE4D00A21FFF782FC0028DFDB0399CB
:10B750000A225143081803901298401C1290B969AC
:10B760000A9888470A21FFF772FC14990B9A491E20
:10B770001491129911601499002901DD0028E6DA6C
:10B78000F9690A98884702990398484386191398DB
:10B790002421084004902846204304D0A10F8907A3
:10B7A000090002D006E005989BE0A90FA4000C4315
:10B7B000AD00B61EE10FC907080002D16D19644142
:10B7C000761E0498002803D00B2002905D4803E009
:10B7D000282002907D20C0438642039007DA811B17
:10B7E000029808184128029001DD41200290029A37
:10B7F00001200021521E00F04AF9024628400B4663
:10B800002140084301D0012000E0002007900020E3
:10B81000521EC04343412A4023401A4301D0012015
:10B8200000E0002007990690014352D0002108460D
:10B830000020C0460321059A89050840002A05D04A
:10B8400082008018C20F101840100840801501288F
:10B8500002DD0020C04301E0012815D0401C38D093
:10B860000798002835D0069800280DD1029A0120AB
:10B87000002100F00CF928402140084301D00120AC
:10B8800000E00020002824D0029A0120002100F0CE
:10B89000FEF8034640198C4661412A1A8C410FD3A9
:10B8A0000298402807DD0498039E002801D0343E0A
:10B8B00002E0173E00E0761C01240025E40708E0C2
:10B8C0005B1E62460024E4436241DD43D4430540ED
:10B8D0000C4003980121081AB04206DA1A4905986B
:10B8E00008430190002000900EE060006205010B0B
:10B8F000E80A1043059A009068460A4313490A4330
:10B900003146019204F017FC049800280AD01398DD
:10B91000C00714D13868019A0099031D3B60006884
:10B9200006C00CE002A8694604F096FB1398C00715
:10B9300005D13868029A011D3960006802601298CA
:10B94000EAE6000002FCFFFF0000F07F0000F03F8D
:10B95000FFB51D4687B01198484A109C129E4005BD
:10B960001399C00F761EC007024301920022009275
:10B97000FF22D2051043202291434929059003D08C
:10B9800017464E2928D04FE03DA002AA0BC8012738
:10B990000BC2A9690898641C8847761E014607D423
:10B9A00002A8C05D002803D02022914381420AD022
:10B9B000E96908988847032F36D0082F34D0012032
:10B9C000C0430BB0F0BD7F1C032F01D0082FE0D186
:10B9D0000999601C0860DCE7A9690898641C88471D
:10B9E000761E2DD4B84341282AD1A9690898641C31
:10B9F0008847761E24D4B8434E2821D1A9690898D7
:10BA0000641C884701990122D204114301910599D0
:10BA1000D200114305910999761E0C6001D42828A3
:10BA200006D0E969089888471198C00712D023E02A
:10BA3000A9690898641C8847761E01D4002803DA97
:10BA4000E96908988847BAE72928F1D10998641C60
:10BA50000460E9E711982421084207D02868019A78
:10BA60000099031D2B60006806C005E02868059951
:10BA7000021D2A60006801602046A2E70000F07FF6
:10BA8000494E46494E49545900000000704710B5D0
:10BA9000202A04DB0146203A9140002010BD91404D
:10BAA00020239C1A0346E3401943904010BD70B513
:10BAB0008C180578401C6B075B0F01D10378401C84
:10BAC0002A1106D10278401C03E00678401C0E7053
:10BAD000491C5B1EF9D12B0705D40023521E0DD43F
:10BAE0000B70491CFAE70378401CCB1A921C03E048
:10BAF0001D780D70491C5B1C521EF9D5A142D8D38C
:10BB0000002070BD03B40148019001BD89010020EF
:10BB100010B500BF294800682021084040090028CE
:10BB20000AD000BF20202549486000BF012015F041
:10BB3000E3FE15F0D7FE0DE000BF2048006880212D
:10BB40000840C009002805D01DA004F043FE0020D5
:10BB500015F0D2FE00BF1948006801218902084093
:10BB6000800A002807D000BF08461449486000BF7B
:10BB7000012015F075FE00BF104800680121490240
:10BB80000840400A002808D000BF48100B49486010
:10BB900000BF012015F064FE0EE000BF07480068FA
:10BBA0000121C9020840C00A002805D009A004F0FC
:10BBB00011FE002015F054FE10BD000000000240F0
:10BBC00055534152543120544532206572726F7280
:10BBD0000D0A0000555341525431204572726F7264
:10BBE0000D0A000010B5012001F040FF002824D00C
:10BBF000012001F0A7FE2021104801F0FDFF0520E3
:10BC00000F49086015F066FC0E49803001650AF0A6
:10BC1000FBFE002811D000200B4908600FF0BCFD8E
:10BC20000DF082FD15F056FC0446E220005D042173
:10BC30008843001DE221085500BF10BD00040050DC
:10BC4000FC010020983A00000002002010B580207E
:10BC500001F00CFF002808D0802001F073FE1C4882
:10BC600000681C49086001204860FF20013001F095
:10BC7000FDFE00280AD0FF20013001F063FE1448C9
:10BC800000681449886000211248C1600120400208
:10BC900001F0ECFE00280AD00120400201F052FE23
:10BCA0000B4800680B49886001210A48C1600120E7
:10BCB000800301F0DBFE002809D00120800301F0A1
:10BCC00041FE03480068034908600020486010BD39
:10BCD0007C030020BC03002072B600BF00BF00BF81
:10BCE00000BF00BFBFF34F8F00BF00BF00BF0748BA
:10BCF0000749C86000BF00BF00BFBFF34F8F00BF40
:10BD000000BF00BF00BF00BFFDE700000400FA0550
:10BD100000ED00E000210A4A51610A494968012208
:10BD200052021143074A51601146496808221143E3
:10BD3000044A51600021C209D2011160704700001D
:10BD40008C08002000200240002039498969FF2228
:10BD500001321140914208D136494969022211430A
:10BD6000344A5161FF210131084331498969012277
:10BD700052021140914208D12E49496901221143D2
:10BD80002C4A51610121490208432949896901224C
:10BD900092021140914208D1264949690822114373
:10BDA000244A5161012189020843214989690122FC
:10BDB000D2021140914208D11E494969042211431F
:10BDC0001C4A51610121C9020843194989690122AC
:10BDD00052031140914208D116494969102211437A
:10BDE000144A51610121490308431149896901221B
:10BDF00052041140914207D10E4949692022114352
:10BE00000C4A516120210843094989690122120421
:10BE10001140914208D10749496940221143054A1E
:10BE200051610121090408430149886170470000FC
:10BE3000002002408C08002070B5044600F068F92C
:10BE400005460BE0601C002808D0002C04D000F050
:10BE50005FF9401BA04201D9032070BD1F488069D3
:10BE6000C007C00F0028EDD11C488069022108409E
:10BE7000022801D11949886118488069FF210131E0
:10BE80000840884223D0154880694900084088420C
:10BE90001DD01248806949000840884217D00F48D9
:10BEA000806949000840884211D00C4880698900A7
:10BEB000084088420BD0094880690901084088423F
:10BEC00005D00648806949100840884203D1FFF731
:10BED0003BFF0120C1E70020BFE700000020024037
:10BEE00070B5044600250748FFF7A6FF0546002D5C
:10BEF00006D10549486120600248FFF79DFF0546CD
:10BF0000284670BD50C300008C08002003484068DC
:10BF10000121084301494860002070470020024089
:10BF2000F8B504460D461646012700BF1548007CAB
:10BF3000012801D10220F8BD01201249087400BF78
:10BF40001148FFF779FF0746002F14D10D494861CA
:10BF5000022C01D12E6008E0012C01D12E8004E0DA
:10BF6000002C01D12E7000E00127002F03D00648DD
:10BF7000FFF762FF074600BF00200249087400BFB8
:10BF80003846D8E78C08002050C300000F484068AE
:10BF9000C007C00F002816D000BFEFF31080014685
:10BFA00000BF72B60A48094AD0600A48D06000BF94
:10BFB00081F3108800BF10464068C007C00F0028FA
:10BFC00001D0012070470020FCE700000020024063
:10BFD000EFCDAB8905040302F8B504460E460127F0
:10BFE000002500BF1C48007C012801D10220F8BDBB
:10BFF00001201949087400BF1848FFF71DFF0746C4
:10C00000002F22D1401E3060656817E02846FFF7F8
:10C0100081FE1248FFF710FF0746114840680821CB
:10C0200088430F49486008464068491588430C49D1
:10C030004860002F01D0356006E08035A068C0015F
:10C0400061684018A842E1D800BF00BF0020024943
:10C05000087400BF3846CAE78C08002050C30000AF
:10C060000020024006484068022108430449486015
:10C070000846406801210843014948600020704794
:10C08000002002401D484068C007C00F002816D09D
:10C0900000BFEFF31080014600BF72B61848174A80
:10C0A000D0601848D06000BF81F3108800BF1046F0
:10C0B0004068C007C00F002801D0012070470F481A
:10C0C000406802221040022815D100BFEFF3108013
:10C0D000014672B60C48094A10610C4810610846C6
:10C0E00080F3108800BF10464068022210400228EA
:10C0F00001D10120E2E70020E0E70000002002403B
:10C10000EFCDAB8905040302BFAE9D8C1615141349
:10C1100001480068704700004802002010B5002464
:10C12000084800684021084306490860032000F0E1
:10C130000BF8002801D0012401E000F02FF8204680
:10C1400010BD00000020024070B504461048017880
:10C150007D20C000FCF7C7FC064631460D4800684C
:10C16000FCF7C1FC054601F0EFF9002801D00120E1
:10C1700070BD042C07D200222146501E00F02CF87E
:10C180000548046001E00120F2E70020F0E700002C
:10C1900050020020540200204C0200200648406B50
:10C1A00001210843044948630846806B0904084399
:10C1B00001498863704700000010024001460029D1
:10C1C00005DBCB06DB0E01229A40024B1A6000BF52
:10C1D0007047000000E100E070B504460D461646C9
:10C1E0002946204603F042FE70BD00000348006867
:10C1F000FF21013108430149086070470070004089
:10C2000070B5024600201D4D2D680126760235408E
:10C210002B461B4D2D6AEC07E40F002B06D0002C9B
:10C2200004D0164D2D68B543144E3560134D286863
:10C2300080088000054615432846104D2860114DA2
:10C240002D69042635430F4E3561012901D130BFD8
:10C2500002E040BF20BF20BF0A4D2D690426B54330
:10C26000084E3561002B08D0002C06D0034D2D68F8
:10C27000012676023543014E356070BD00700040E6
:10C280000000014000ED00E0F8B504460027202141
:10C290002068084020287BD120680840202800D151
:10C2A00000BF8948806B012109070840002805D19B
:10C2B0008548806B08438449886301278348006868
:10C2C000FF2101310840002816D18048006808434A
:10C2D0007E490860FFF71CFF064606E0FFF718FFDF
:10C2E000801B642801D90320F8BD78480068FF212D
:10C2F000013108400028F1D0734805680321090581
:10C300000D4060680840A8420DD0091160680840DF
:10C31000884208D16C4800680121490408408842DD
:10C3200001D10120E0E76848403000690321090499
:10C3300008400546002D3DD060680840A84239D02D
:10C34000202120680840202834D15F48403000690F
:10C3500003210904884305465B48403000690121F8
:10C36000C904084358494031086108460069012161
:10C37000C904884354494031086108460561801565
:10C3800028408915884215D1FFF7C2FE064608E00D
:10C3900038E0FFF7BDFE801B4D49884201D90320DC
:10C3A000A2E7494840300069012149020840400A9B
:10C3B0000028EED000BF00BF0321090460680840D8
:10C3C00088420AD1404800680901884303221205C7
:10C3D0006168114008433C49086000BF3A4840305A
:10C3E0000069032212046168114008433649403154
:10C3F000086100BF012F05D13348806B8905884350
:10C40000314988632078C007C00F002809D02E4822
:10C410004030C06880088000A16808432A49403144
:10C42000C860022120680840022809D1264840300F
:10C43000C0680C218843E168084323494031C86043
:10C4400004212068084004280AD11F484030C068F1
:10C45000032189028843216908431B494031C86090
:10C4600008212068084008280AD117484030C068D1
:10C470000321090388436169084313494031C860B7
:10C48000FF2101312068084088420AD10E4840301F
:10C49000C068032109048843A16908430A4940315F
:10C4A000C86080212068084080280AD106484030B2
:10C4B000C068032189048843E16908430249403187
:10C4C000C860002010E7000000100240007000402B
:10C4D00088130000F8B504460E46002C01D1012057
:10C4E000F8BD83480068C007C00FB04218D280482A
:10C4F00000684008400030437D490860FFF708FEAF
:10C50000054607E0FFF704FE401B7A49884201D93F
:10C510000320E5E776480068C007C00FB042F1D1BC
:10C52000022120680840022807D17348C068F02122
:10C530008843A16808437049C8602078C007C00FCD
:10C5400000284CD06068022809D16B48006801219E
:10C5500049040840400C002824D10120C0E760684D
:10C56000032809D164480068012149060840400EAB
:10C57000002817D10120B3E76068012808D15E4880
:10C58000006804210840800800280BD10120A7E79B
:10C5900059480068012149020840400A002801D199
:10C5A00001209DE75448C068800880006168084306
:10C5B0005149C860FFF7ACFD0546606802280FD1FD
:10C5C00007E0FFF7A5FD401B4A49884201D9032037
:10C5D00086E74948C0680C2108400828F1D134E0BA
:10C5E000606803280FD107E0FFF792FD401B414927
:10C5F000884201D9032073E73F48C0680C210840F6
:10C600000C28F1D121E0606801280FD107E0FFF785
:10C610007FFD401B3749884201D9032060E7364837
:10C62000C0680C2108400428F1D10EE007E0FFF7B4
:10C630006FFD401B2F49884201D9032050E72E4847
:10C64000C0680C2108400028F1D129480068C007C3
:10C65000C00FB04218D92648006840084000304357
:10C6600023490860FFF754FD054607E0FFF750FD3A
:10C67000401B2049884201D9032031E71C4800684B
:10C68000C007C00FB042F1D104212068084004283F
:10C6900008D11948C068072109028843E1680843A6
:10C6A0001549C860082120680840082809D11248A7
:10C6B000C0680721C90288432169C90008430E499F
:10C6C000C86000F021F80C49C968F022114009093E
:10C6D0000A4A515CC8400A4908600A480068FFF7E6
:10C6E00033FD0746002F01D03846F9E60020F7E673
:10C6F000002002408813000000100240832002083E
:10C70000540200204C020020F0B585B03548C068C6
:10C7100003900C2103980840002852D0042804D02C
:10C7200008280CD00C284BD10BE02E4800681021B3
:10C730000840002801D02C4D00E02C4D4EE02C4D3F
:10C740004CE00F21890403980840800C29490F5CB4
:10C750000321890503980840800D441C2148C068C6
:10C7600001210904084000280BD02148394603F074
:10C7700059FA2246002301910090FBF7C9FD0646B5
:10C780001CE0184800681021084000280BD016480B
:10C79000394603F047FA2246002301910090FBF747
:10C7A000B7FD06460AE01148394603F03BFA224637
:10C7B000002301910090FBF7ABFD064635460DE0E6
:10C7C00000BF08484068072149030840400B029019
:10C7D0000298401C01218140CD0300BF00BF2846C4
:10C7E00005B0F0BD0010024000093D000024F40037
:10C7F00000127A009B200208FEB50446002C01D1ED
:10C800000120FEBDFB48C7680C210F40C068012114
:10C810000904084001902078C007C00F002872D09A
:10C82000082F04D00C2F0FD1019888420CD1F14869
:10C830000068012149040840400C002863D060686A
:10C84000002860D10120DCE700BF012109046068F5
:10C85000884205D1E74800680843E649086027E0B8
:10C8600005210904606888420ED1E2480068012170
:10C8700089040843DF49086008460068012109046B
:10C880000843DC49086013E0DA4800680121090424
:10C890008843D84908600846006801210904084017
:10C8A000009000BFD348006889008843D1490860E0
:10C8B00000BF6068002813D0FFF72AFC054606E099
:10C8C000FFF726FC401B642801D9032099E7C948DB
:10C8D0000068012149040840400C0028F0D012E013
:10C8E000FFF716FC054606E0FFF712FC401B642824
:10C8F00001D9032085E7BF480068012149040840A9
:10C90000400C0028F0D102212068084002286CD198
:10C91000E66820203040002809D0B6480068202171
:10C920000843B44908602021304688430646042F56
:10C9300004D00C2F34D10198002831D1AD480068C3
:10C94000042108408008002803D0002E01D10120D6
:10C9500057E7A84840681F21090288432169090256
:10C960000843A449486008460068092188433043C9
:10C97000A0490860FFF7C8FE9E49C968F02211402F
:10C9800009099D4A515CC8409C4908609C48006860
:10C99000FFF7DAFB0290029800283FD0029830E7B8
:10C9A000002E23D0934800680921884330439149E1
:10C9B0000860FFF7ADFB054606E0FFF7A9FB401B4B
:10C9C000022801D903201CE78A4800680421084096
:10C9D00080080028F1D0874840681F210902884359
:10C9E0002169090208438349486017E081480068CB
:10C9F000400840007F490860FFF78AFB054606E0D3
:10CA0000FFF786FB401B022801D90320F9E679488D
:10CA100000680421084080080028F1D11021206816
:10CA20000840102868D1002F37D1724800684901AA
:10CA30000840400A002804D0A069002801D1012044
:10CA4000DFE66C484068072149038843216A0843B0
:10CA500068494860084640680002000A217F0906CC
:10CA6000084364494860206A400B401C0121814012
:10CA7000C8036049C968F022114009095E4A515C47
:10CA8000C8405E4908605E480068FFF75DFB0290A1
:10CA9000029800284BD00298B3E6A06900282CD059
:10CAA00054480068FF210131084352490860FFF7EC
:10CAB0002FFB054606E0FFF72BFB401B022801D9A0
:10CAC00003209EE64B480068012149020840400AC5
:10CAD0000028F0D047484068072149038843216A6D
:10CAE000084344494860084640680002000A217F24
:10CAF000090608433F49486019E03E480068FF21A5
:10CB0000013188433B490860FFF702FB054606E018
:10CB1000FFF7FEFA401B022801D9032071E63548D1
:10CB20000068012149020840400A0028F0D108218C
:10CB300020680840082839D1606900281BD02D489A
:10CB400040300069012108432A4940310861FFF75C
:10CB5000DFFA054606E0FFF7DBFA401B022801D9A1
:10CB600003204EE623484030006902210840400877
:10CB70000028F0D01AE01F4840300069400840000B
:10CB80001C4940310861FFF7C3FA054606E0FFF78C
:10CB9000BFFA401B022801D9032032E61548403075
:10CBA00000690221084040080028F0D104212068D3
:10CBB000084004287BD1002000900E48806B890635
:10CBC0000840002806D10B48806B08430949886358
:10CBD000012000900B480068FF2101310840002827
:10CBE00020D108480068084306490860FFF790FA1A
:10CBF000054610E000100240832002085402002085
:10CC00004C02002000700040FFF782FA401B6428AD
:10CC100001D90320F5E587480068FF21013108406C
:10CC20000028F1D000BFFF210131A068884205D162
:10CC30008148006908438049086130E0A068002805
:10CC40000DD17D480069FF21013188437A4908618F
:10CC50000846006909158843774908611FE00521E6
:10CC60000902A06888420DD1734800690121890238
:10CC700008437149086108460069891508436E49EF
:10CC800008610CE06C480069FF21013188436A4962
:10CC9000086108460069091588436749086100BFB3
:10CCA000A068002815D0FFF733FA054608E031E008
:10CCB000FFF72EFA401B6149884201D90320A0E505
:10CCC0005D480069012149020840400A0028EFD070
:10CCD00013E0FFF71DFA054607E0FFF719FA401BBE
:10CCE0005649884201D903208BE553480069012148
:10CCF00049020840400A0028EFD10098012808D1D5
:10CD00004D484038806B0121090788434A49403922
:10CD1000886300BF606A00284CD00C2F69D0606A1D
:10CD2000022848D144484038006801210906884358
:10CD3000414940390860FFF7EBF9054606E0FFF787
:10CD4000E7F9401B022801D903205AE53A48403848
:10CD50000068012149060840400E0028EFD1E16A31
:10CD6000A06A0843216B084333494039C968FD2252
:10CD700012049143084330494039C86008460068AE
:10CD80000121090608432C4940390860FFF7C0F922
:10CD9000054606E0FFF7BCF9401B022801D9032035
:10CDA0002FE5254840380068012149060840400E1B
:10CDB0000028EFD03CE020484038006801210906F7
:10CDC00088431D4940390860FFF7A2F9054606E08F
:10CDD000FFF79EF9401B022801D9032011E51648F0
:10CDE00040380068012149060840400E0028EFD174
:10CDF0001EE0606A012800D103E50F484038C06892
:10CE000001900121090401980840A16A88420DD1CE
:10CE10000F21890401980840E16A884206D1032164
:10CE2000890501980840216B884201D00120E8E47F
:10CE30000020E6E40070004040100240881300002B
:10CE400002461068034650338800C31818687047BC
:10CE500010B50468234650338C00E3181A6010BDE7
:10CE6000024600BF2020805C012801D102207047CB
:10CE700001232020835400BF022321208354106803
:10CE8000006C884313681864C807C00F002805D0D9
:10CE90001068006C104B1840136818640820084094
:10CEA000002805D01068006C0C4B184013681864FB
:10CEB00020200840002805D01068006C084B18405E
:10CEC0001368186401232120835400BF002320200D
:10CED000835400BF0020CAE7FBFFFEFFFBFFF7FF04
:10CEE000FBFFBFFF70B5044600BF2020005D012896
:10CEF00001D1022070BD01212020015500BF022177
:10CF00002120015500BFCA202168486253202168B2
:10CF1000486200BF20688068012189028843216837
:10CF200088602068806801218903884321688860BF
:10CF3000FFF7EEF8054615E0FFF7EAF8401B7D2104
:10CF4000C90088420ED900BFFF202168486200BF97
:10CF500003212120015500BF00212020015500BFE1
:10CF60000320C7E72068C068042108408008002823
:10CF7000E2D000BFFF202168486200BF01212120CC
:10CF8000015500BF00212020015500BF0020B1E75E
:10CF9000F8B504460E46174600BF2020005D012864
:10CFA00001D10220F8BD01212020015500BF02213E
:10CFB0002120015500BFCA20216848625320216802
:10CFC000486200BF2068806801218902084000286B
:10CFD00020D0FFF79DF8054615E0FFF799F8401BB4
:10CFE0007D21C90088420ED900BFFF202168486218
:10CFF00000BF03212120015500BF00212020015541
:10D0000000BF0320CEE72068C068042108408008E4
:10D010000028E2D1206880680121890288432168C4
:10D0200088602068C068802108402E490843216834
:10D03000C860FFF76DF8054615E0FFF769F8401B7B
:10D040007D21C90088420ED900BFFF2021684862B7
:10D0500000BF03212120015500BF002120200155E0
:10D0600000BF03209EE72068C068042108408008B4
:10D070000028E2D02068466120688068C008C000AF
:10D080002168886020688068384321688860164875
:10D0900000680121090508431349086008468068B3
:10D0A0000121090508431049886020688068012132
:10D0B000890308432168886020688068012189020B
:10D0C00008432168886000BFFF202168486200BFD4
:10D0D00001212120015500BF00212020015500BF62
:10D0E00000205FE77FFBFFFF0004014010B504460E
:10D0F0000020064908702046FFF7F4FE0448006847
:10D10000042108430249086010BD00000402002009
:10D110000070004010B504462068C06801218902F3
:10D120000840800A00280AD02046FFF7DFFF206869
:10D13000C06880210840064908432168C860012072
:10D1400000050449486101212120015510BD00005E
:10D150007FFBFFFF0004014010B50446002C01D105
:10D16000012010BD2120005D002805D100212020D4
:10D170000155204600F06EF802212120015500BF24
:10D18000CA202168486253202168486200BF2046B7
:10D1900002F03AFA002809D000BFFF202168486257
:10D1A00000BF0421212001550120DAE720688068B2
:10D1B0002749084021688860216960680843A1699F
:10D1C0000843216889680843216888602168E0680D
:10D1D0000861206800692189090408432168086101
:10D1E0002068C068802188432168C8602068C06CBE
:10D1F000800880002168C8646169E069084321688B
:10D20000C96C08432168C8642068806820210840F0
:10D21000002813D1204600F079F900280ED000BF75
:10D22000FF202168486200BF04212120015500BF72
:10D2300000212020015500BF012092E700BFFF2000
:10D240002168486200BF012121200155002088E7A4
:10D25000BFFF8FFF10B504460F492068884219D1DF
:10D260000E48806B0121090708430C498863FEF7CB
:10D27000BDFF0A484030006901218904084307497D
:10D2800040310861002211460220FEF7A5FF02206E
:10D29000FEF794FF10BD000000280040001002407F
:10D2A000F7B504460D4600BF2020005D012801D1DE
:10D2B0000220FEBD01212020015500BF02212120B6
:10D2C00001550298002809D16878102108401028DB
:10D2D00004D16878EF2108400A306870029800286D
:10D2E00011D1E87802F082F90704687802F07EF93B
:10D2F00000020743A87802F079F907432878400331
:10D300003E4606430AE0E8780004697809020843CB
:10D31000A9780843297849030843064600BFCA2074
:10D320002168486253202168486200BF204602F00D
:10D330006BF900280ED000BFFF202168486200BFB3
:10D3400004212120015500BF00212020015500BFEC
:10D350000120AEE719483040216848602068C06865
:10D36000802188432168C8602068806820210840A7
:10D37000002813D1204600F0C9F800280ED000BFC5
:10D38000FF202168486200BF04212120015500BF11
:10D3900000212020015500BF01208AE700BFFF20A7
:10D3A0002168486200BF01212120015500BF0021F2
:10D3B0002020015500BF00207BE700003FFFFF0059
:10D3C000F7B504460D4600BF2020005D012801D1BD
:10D3D0000220FEBD01212020015500BF0221212095
:10D3E0000155029800281BD1206880684021084020
:10D3F000002800D002E00020E87000BF287802F08A
:10D40000F5F80704687802F0F1F800020743A878FD
:10D4100002F0ECF80743E87800043E46064314E0C7
:10D420002068806840210840002800D002E00020E9
:10D43000E87000BF28780004697809020843A978D9
:10D440000843E97809040843064600BFCA2021685A
:10D45000486253202168486200BF204602F0D4F899
:10D4600000280ED000BFFF202168486200BF0421C1
:10D470002120015500BF00212020015500BF0120BF
:10D48000A7E72148304021680860206880680121B2
:10D4900089048843216888602969E868084321680D
:10D4A00089680843216888602068C06880218843B3
:10D4B0002168C8602068806820210840002813D1B6
:10D4C000204600F023F800280ED000BFFF2021687E
:10D4D000486200BF04212120015500BF0021202007
:10D4E000015500BF012074E700BFFF20216848629A
:10D4F00000BF01212120015500BF0021202001553E
:10D5000000BF002065E700007F7F7F0070B5044604
:10D510002068C068A02188432168C860FEF7F8FD34
:10D52000054608E0FEF7F4FD401B7D21C900884256
:10D5300001D9032070BD2068C06820210840002860
:10D54000F0D00020F6E7000070B504462546681EBE
:10D550000949884201D901200CE0681E0749486149
:10D560000321081F02F082FC002004498861072083
:10D570000861002070BD0000FFFFFF0000E000E038
:10D5800013F0C0FF044603A2214603A003F028F9CC
:10D5900002F0A8FC000000001B5B323B33316D3C05
:10D5A00025753E205B455D202573203A2048617239
:10D5B000646661756C740D0A1B5B306D00000000C1
:10D5C00038B50446002500200090204600F0A2F85F
:10D5D000012842D10020E1683722920191430143A2
:10D5E000E16000BF00BFA068042108408008002857
:10D5F0000CD0204600F0BAF8002807D100BFA06880
:10D600002E4908401030A06000BF00BF0120C003B9
:10D61000009005E00098411E0091002800D10125EE
:10D62000204600F0A3F80128F4D000BFA0682349E9
:10D630000840801CA06000BF0120C003009005E0EE
:10D640000098411E0091002800D1012500BFA0686C
:10D650000221084040080028F2D1A06817210840A4
:10D66000002828D160689F218843606020680843B3
:10D670002060A068012109078843A060E068104984
:10D680000840E06020690F49084020616069C008D7
:10D69000C0006061206A0C4908400C4940182062B3
:10D6A000A06A0B490840A062B4200059C109C90111
:10D6B000B420015100E00125284638BDE8FFFF7F76
:10D6C00000023E8302FCFF3F00F000F00000FF0F6D
:10D6D0000000F9FF70B504460D460026204600F014
:10D6E00019F8002810D1A96868680843E968084358
:10D6F000E168074A11400843E06020698000800823
:10D7000029680843206100E00126304670BD000012
:10D71000C73FFFFF01468868C007C00F0122504085
:10D720005040704770B505460C4600262846FFF766
:10D73000F1FF00280ED1616820680843A168084302
:10D74000E168084321690843E968044A1140084335
:10D75000E86000E00126304670BD00003CC2FEFFDC
:10D760000146886804221040800870470146886896
:10D770001022104000097047826A4B035B0B1A436A
:10D78000826270474A03520B8262704702680F231D
:10D790009B049A430A4302607047026803239B0577
:10D7A0009A430A430260704708B50549096B014373
:10D7B000034A11631146096B0140009100BF08BD87
:10D7C000001002400246118070470170704700004F
:10D7D00010B54A1E044B9A5C825802239A434B1E92
:10D7E000014CE35CC25010BDF81F020810B54A1E80
:10D7F000044B9A5C825808239A434B1E014CE35C0D
:10D80000C25010BDF81F020810B54A1E044B9A5CA6
:10D81000825802231A434B1E014CE35CC25010BDD8
:10D82000F81F020810B54A1E044B9A5C8258082360
:10D830001A434B1E014CE35CC25010BDF81F020896
:10D8400030B54B1E054CE35CC35803242403A343AB
:10D8500013434C1E014D2C5D035130BDF81F0208CF
:10D8600030B54B1E054CE35CC358054C23401343B5
:10D870004C1E024D2C5D035130BD0000F81F020804
:10D88000EFBFFFFF30B54B1E054CE35CC35880244F
:10D89000A34313434C1E024D2C5D035130BD0000C9
:10D8A000F81F020830B54B1E054CE35CC358032437
:10D8B000A402A34313434C1E014D2C5D035130BD04
:10D8C000F81F020830B54B1E054CE35CC3582024FA
:10D8D000A34313434C1E024D2C5D035130BD000089
:10D8E000F81F020830B54B1E054CE35CC3584024BA
:10D8F000A34313434C1E024D2C5D035130BD000069
:10D90000F81F020830B5A8231B584C1EA5000F2491
:10D91000AC40A3434C1EA5001446AC402343A824AE
:10D92000235030BD30B54B1E054CE35CC358032477
:10D930002402A34313434C1E014D2C5D035130BD03
:10D94000F81F0208014948617047000000040140C7
:10D95000024949688143014A51607047000401400F
:10D96000024909688143014A11607047000401407F
:10D97000024949680143014A51607047000401406F
:10D980000249C9680143014AD1607047000401405F
:10D99000024909680143014A1160704700040140CF
:10D9A000024989680143014A9160704700040140BF
:10D9B00070B504460025207900284DD02068002845
:10D9C00050D06079002804D0012809D0022815D150
:10D9D0000DE02068FFF7BCFF2068FFF7D9FF0FE0DC
:10D9E0002068FFF7BDFF2068FFF7C2FF08E020684E
:10D9F000FFF7CEFF2068FFF7BBFF01E0012500BF66
:10DA000000BFA07900282DD0A079012804D00228D9
:10DA10000DD003281DD115E020681349C968814342
:10DA2000114AD16000BF2068FFF7BAFF13E02068F9
:10DA30000D49896881430C4A916000BF2068FFF757
:10DA40009FFF08E02068FFF7ABFF2068FFF798FF13
:10DA500001E0012500BF05E02068FFF781FF206895
:10DA6000FFF776FF284670BD0004014001460448D8
:10DA700040690840884201D1012070470020FCE73E
:10DA800000040140F0B502460B46002600216CE080
:10DA90000124B440186820400146002964D0586829
:10DAA000012802D05868022816D1986894680D465B
:10DAB0004D436F00ED19AC430D464D4345432C4398
:10DAC000946000BFDC681868556885430746674363
:10DAD0003D43556000BF00BF1869D4680D464D43F3
