:020000040800F2
:10000000E0050020D900000869130008310D000840
:1000100000000000000000000000000000000000E0
:100020000000000000000000000000006D13000848
:1000300000000000000000006B1300086F130008B0
:10004000EB000008EB000008EB000008EB000008E4
:10005000EB000008EB000008EB000008EB000008D4
:10006000EB000008EB000008EB000008EB000008C4
:10007000EB000008EB000008EB000008EB000008B4
:10008000EB000008EB000008EB0000080000000097
:10009000EB000008EB000008EB000008EB00000894
:1000A000EB000008EB000008EB000008EB00000884
:1000B000EB000008EB000008EB000008EB00000874
:1000C0000448854600F050F800480047B91400087D
:1000D000C046C046E0050020044880470448004769
:1000E000FEE7FEE7FEE7FEE7FEE7FEE73114000865
:1000F000C100000830B50B46014600202022012433
:1001000009E00D46D5409D4205D31D469540491B4B
:100110002546954040191546521E002DF1DC30BD94
:1001200003460B439B0703D009E008C9121F08C010
:10013000042AFAD203E00B780370401C491C521EBB
:10014000F9D27047D2B201E00270401C491EFBD2C6
:1001500070470022F6E710B513460A4604461946D2
:10016000FFF7F0FF204610BD064C0125064E05E0C6
:10017000E36807CC2B430C3C98471034B442F7D3C8
:10018000FFF7A2FF78150008A815000803B401487E
:10019000019001BD3100002003B40148019001BD70
:1001A0000501002003B40148019001BDB500002005
:1001B00038B50446084807490068FFF79BFF6043CD
:1001C000009002E00098401E009000980028F9D1AD
:1001D00038BD000040420F006801002072B601F0F7
:1001E0004BF9000010B5084900234B6107494A68E4
:1001F0004C1522434A604A68082422434A60C009D9
:10020000C001036010BD0000C801002000200240B2
:1002100010B50020204A9169CB05204904D54869D2
:10022000022318434861901593699B0505D54B69D6
:10023000012423434B616302184393695B0505D591
:100240004B69082423434B61E301184393691B0561
:1002500005D54B69042423434B616302184393691A
:100260009B0405D54B69102423434B61630218435B
:1002700093699B0304D54C6920231C434C611843AC
:100280009369DB0305D54B69402423434B61A102ED
:100290000843906110BD000000200240C80100200A
:1002A00070B5044600F0AEFC0546184E0AE0601C2E
:1002B00008D0002C04D000F0A5FC401BA04201D9BE
:1002C000032070BDB069C007F1D1B069800701D5C6
:1002D0000220B061B069C00511D4B06980050ED4A8
:1002E000B06940050BD4B069000508D4B06980043A
:1002F00005D4B069800302D4B069C00303D5FFF709
:1003000087FF012070BD002070BD0000002002406A
:10031000F8B506460C4655493068884203D0544922
:1003200054A001F0C6F8206801283AD05F498842FD
:1003300037D04900884234D05D49884231D05D4988
:1003400088422ED05C4988422BD05C49884228D014
:100350005B49884225D05B49884222D05A4988426D
:100360001FD05A4988421CD05949884219D059494E
:10037000884216D05849884213D05849884210D034
:10038000574988420DD0574988420AD05649884279
:1003900007D05649884204D0354936A0491C01F09F
:1003A00088F80121090360684F1C884206D0B842D2
:1003B00004D02F492FA0891C01F07BF83546403529
:1003C000287C01280DD001202874306881684907F5
:1003D00009D5706D20210843706500202874012024
:1003E000F8BD0220F8BD01213B46C90562684F10E7
:1003F0003F4E9A421DD0826A23685B035B0B1A430F
:1004000082622068400305D5B0680843B0600A20C6
:10041000FFF7CEFE2068800302D5B0683843B06095
:100420002068C0031FD5B068012109060843B060E9
:1004300019E0826A23685B035B0B9A43826220683F
:10044000400302D5B0688843B0602068800302D5BD
:10045000B068B843B0602068C00304D5B16801201B
:1004600000068143B16000202874F8BD00240140DB
:10047000810700002E2E2F447269766572732F5308
:10048000544D33324C3078785F48414C5F44726948
:100490007665722F5372632F73746D33326C3078BC
:1004A000785F68616C5F6164632E63000200000422
:1004B0000800000C1000001020000014400000187C
:1004C0008000001C0001002000020024000400281D
:1004D0000008002C001000300020003400400038DC
:1004E0000080003C0000044800000244000001407D
:1004F00000270140F8B50446002C7DD0FE49206855
:10050000884204D0FF219D31FCA000F0D2FF60683A
:10051000002838D003218907884234D049428842D4
:1005200031D0490088422ED0490B88422BD0490057
:10053000884228D003218904884224D0012109055A
:10054000884220D00521890488421CD00321C90497
:10055000884218D007218904884214D00121490516
:10056000884210D00921890488420CD00521C90491
:10057000884208D00B218904884204D0FF219E3193
:10058000DEA000F096FFA06800280AD0082808D056
:10059000102806D0182804D0FF219F31D7A000F0E2
:1005A00088FFE068002806D0202804D0FF21A03171
:1005B000D2A000F07EFF2069012806D0022804D0D6
:1005C000FF21A131CDA000F074FF274620373878F5
:1005D000002806D0012804D0FF21A231C7A000F0D6
:1005E00068FF7878002806D0012804D0FF21A331C5
:1005F000C2A000F05EFF00E098E0A06A00280FD0E3
:100600000121890288420BD04900884208D0032189
:100610008902884204D0FF21A431B8A000F049FF2C
:10062000606A00281DD040281BD0802819D0C0281F
:1006300017D0C11FF93914D00146FF39413910D004
:100640000146FF3981390CD00146FF39C13908D044
:100650000146FF39C23904D0FF21A531A7A000F01F
:1006600028FF387B002806D0012804D0FF21A631BE
:10067000A2A000F01EFF6069042806D0082804D05C
:10068000FF21A7319DA000F014FF206B002808D0A7
:1006900001210903884204D0FF21A83197A000F06E
:1006A00008FFA069002806D0012804D0FF21A93145
:1006B00092A000F0FEFE606B002806D0012804D056
:1006C000FF21AA318DA000F0F4FEE069002806D0D9
:1006D000012804D0FF21AB3188A000F0EAFEA06B16
:1006E000002812D0012810D002280ED003280CD0E8
:1006F00004280AD0052808D0062806D0072804D0E8
:10070000FF21AC317DA000F0D4FEE06B002806D0C4
:10071000012804D0FF21AD3178A000F0CAFE606D41
:10072000264600254036002802D006E00120F8BD0C
:10073000A5653574204600F02FF9606DC00603D41E
:1007400020688168490706D5606D102108436065FF
:1007500035740120F8BD616DFF260136B1430222D8
:10076000114361658168734A8907890F012902D1A4
:100770000168C9072BD1032361689B07994205D003
:100780005B42994202D05B00994209D1016989001C
:1007900089080161206801696368194301610CE0FF
:1007A000016989008908016190680F2189048843E3
:1007B000906090686168084390602068C168182361
:1007C0009943C1602068C168A3681943C1609068FB
:1007D00001214906884390609068A18E490608432C
:1007E000906020688168C90004D4816801221207E2
:1007F000114381602068C1684F4A1140C16020697F
:10080000E168022822D00020014338783A7B400377
:10081000520010430143206B0143A0698003014350
:10082000E069C00301432068C2681143C160606A87
:100830000146FF39C23905D0A16A08432168CA6858
:100840001043C8607878012802D00CE00420DBE770
:100850003878002824D0606D202108436065A06DA1
:1008600001210843A065E06B012820D020680169C0
:10087000C90703D00169490849000161206841693D
:10088000C908C900416120684169A26B11434161F7
:10089000A565606D80088000401C60650020F8BD83
:1008A0002068C168012212041143C160DBE7206C9B
:1008B000002812D0042810D008280ED00C280CD004
:1008C00010280AD0142808D0182806D01C2804D0D4
:1008D0009321890009A000F0ECFD606C002836D05F
:1008E000202834D0402832D0602830D080282ED024
:1008F000A0282CD0C02821E0002401402E2E2F4417
:100900007269766572732F53544D33324C30787858
:100910005F48414C5F4472697665722F5372632F52
:1009200073746D33326C3078785F68616C5F6164CA
:10093000632E6300002701401902FEFF07D0E02864
:1009400005D0B04203D01249124800F0B2FDA06CAD
:10095000002808D0C11FFF39FA3904D00C490D48CE
:10096000491C00F0A6FD20680169FF229200914316
:10097000016120680169226CA36C1143626C1A4307
:10098000114301612068016901221143016175E78A
:100990004D020000FC08000800680449884204D1A8
:1009A0000348416B421511434163704700240140E5
:1009B00000100240F3B581B004463648017C01299D
:1009C00008D0012101743448FFF76AFC074638005B
:1009D00002D059E00220FEBD00210298C943016007
:1009E000A0682E4E002804D0B18F0904490B88421C
:1009F00003D9BC212AA000F05CFD2068002803D0A8
:100A0000BD2127A000F055FD01256068ED06A84234
:100A100005D3B18F090489094919884203D3BE213E
:100A20001FA000F046FD6068A168C009C001C901AF
:100A30004018401EA84205D3B18F090489094919FD
:100A4000884203D3BF2116A000F033FD6568244E11
:100A500014E02846FFF7C6FB0F48FFF721FC0746C6
:100A60007168082081437160716880018143716001
:100A7000380002D00298056006E08035A068616801
:100A8000C0014018A842E4D8024800210174384649
:100A9000FEBD0000C801002050C300004000F81F48
:100AA0002E2E2F447269766572732F53544D333254
:100AB0004C3078785F48414C5F4472697665722F9C
:100AC0005372632F73746D33326C3078785F686162
:100AD0006C5F666C6173685F65782E630000000070
:100AE00000200240054841680222114341604168EC
:100AF00001221143416000207047000000200240A5
:100B0000F8B50C461746154D297C01291DD0012149
:100B10002974022803D0EF2111A000F0CAFC0120A3
:100B2000C006844206D31D49898F09048909081823
:100B3000A04203D8F0210AA000F0BBFC1848FFF740
:100B4000AFFB0026002802D006E00220F8BD6E614F
:100B500027601348FFF7A4FB2E74F8BDC8010020DE
:100B60002E2E2F447269766572732F53544D333293
:100B70004C3078785F48414C5F4472697665722FDB
:100B80005372632F73746D33326C3078785F6861A1
:100B90006C5F666C6173682E630000004000F81F94
:100BA00050C3000012484168C9070DD0EFF310810F
:100BB00072B6104AC260104AC26081F31088416860
:100BC000C90701D001207047416889070DD5EFF3AF
:100BD000108172B6094A0261094A026181F31088E4
:100BE0004068800701D50120704700207047000051
:100BF00000200240EFCDAB8905040302BFAE9D8CFF
:100C00001615141301488068704700005C0100202D
:100C10000248816802788918816070475C01002071
:100C200010B50024074801684022114301600020EC
:100C300000F00AF8002801D0012401E000F028F8B3
:100C4000204610BD0020024070B504460E4D7D20A8
:100C50002978C000FFF74EFA01460C480068FFF7FC
:100C600049FA00F04DF8002801D0012070BD042C95
:100C700007D200222146501E00F016F86C600020BA
:100C800070BD012070BD00005C01002068010020E3
:100C90000448416B012211434163816B02041143FB
:100CA000816370470010024070B505460C46102C59
:100CB00003D3872103A000F0FCFB2146284600F067
:100CC000B9FB70BD2E2E2F447269766572732F5357
:100CD000544D33324C3078785F48414C5F447269F0
:100CE0007665722F5372632F73746D33326C307864
:100CF000785F68616C5F636F727465782E63000063
:100D000010B50949401E884201D9012010BD074C89
:100D100060610321081F00F08DFB0020A061072007
:100D20002061002010BD0000FFFFFF0000E000E098
:100D3000BFF34F8F04490348C860BFF34F8F00BF14
:100D4000FDE700000400FA0500ED00E0FEB50446F2
:100D50000D46002705200007844212D059488442DE
:100D60000FD0594884420CD05848844209D0584882
:100D7000844206D05748844203D0A32156A000F0F5
:100D800098FB28686249401E884203D9A42152A0DA
:100D900000F08FFB6868002809D0012807D00228DE
:100DA00005D0032803D0A5214BA000F082FB2869C1
:100DB000002807D001287FD002287DD0A62146A098
:100DC00000F077FB78E00120B8400640002E72D09A
:100DD0006868012801D0022826D1A868002809D017
:100DE000012807D0022805D0032803D0B7213AA054
:100DF00000F05FFBA9683046A26840434300C31877
:100E00009A4348430243A260E868002805D00128BD
:100E100003D0BD2130A000F04CFBE968286862686F
:100E2000824348430243626029693046E268404396
:100E30004300C31801909A43484300930243E26081
:100E4000686802282FD16869002811D001280FD0C6
:100E500002280DD003280BD0042809D0052807D07C
:100E6000062805D0072803D0C9211BA000F021FBCC
:100E7000FF2E0BD86969226A019870437043030101
:100E80001B1A9A434843024322620CE06A69300A03
:100E900001464143414341430801431A606A5143BB
:100EA00098430843606269682268009B01989A43EE
:100EB0004843024322607F1C2E683046F84082D1AE
:100EC000FEBD00000004005000080050000C00505F
:100ED00000100050001C00502E2E2F4472697665C1
:100EE00072732F53544D33324C3078785F48414CF5
:100EF0005F4472697665722F5372632F73746D331A
:100F0000326C3078785F6C6C5F6770696F2E63004D
:100F1000FEFF000008B50449CA6A0243CA62C96AF2
:100F20000140009108BD0000001002400149086026
:100F300070470000680100201CB50021009101915C
:100F40001D481C4A0260C16303229207426081600F
:100F50000722826301220261C160024620321170C1
:100F600051708162FF23C2334362117304224261D4
:100F7000016381614163C161FFF7BCFA002801D0C0
:100F8000FFF72CF90D4800900120000301906946FD
:100F90000948FFF7BDF9002801D0FFF71FF90848FD
:100FA000009069460448FFF7B3F9002801D0FFF725
:100FB00015F91CBD002401406C010020000004480C
:100FC00000000244F0B587B0182101A8FFF7C1F86E
:100FD0000420FFF79FFF8020FFF79CFF0120FFF711
:100FE00099FF0220FFF796FF0820FFF793FF0120EB
:100FF00040030190032402940025059501A9C748E8
:10100000FFF7A4FE0127BF0301970294059501A9EC
:10101000C248FFF79BFE780001900294059501A954
:10102000BE48FFF793FE012001900294059501A9A7
:10103000BB48FFF78BFE022001900294059501A9A1
:10104000B748FFF783FE012001900294059501A99E
:10105000B248FFF77BFE022001900294059501A99A
:10106000AE48FFF773FE042601960294059501A988
:10107000AA48FFF76BFE082001900294059501A98C
:10108000A648FFF763FE0120019002940595052014
:1010900001A90007FFF75AFE02200190029405956E
:1010A000052001A90007FFF751FE0196029405955E
:1010B000052001A90007FFF749FE082001900294CE
:1010C0000595052001A90007FFF740FE10200190BB
:1010D00002940595052001A90007FFF737FE20209F
:1010E000019002940595052001A90007FFF72EFE47
:1010F0004020019002940595052001A90007FFF703
:1011000025FE8020019002940595052001A9000785
:10111000FFF71CFE102001900294059501A97F485D
:10112000FFF714FE202001900294059501A97B4849
:10113000FFF70CFE012001900294059501A9794862
:10114000FFF704FE022001900294059501A975485D
:10115000FFF7FCFD01960294059501A97148FFF780
:10116000F5FD300201900294059501A96D48FFF745
:10117000EDFD700201900294059501A96948FFF701
:10118000E5FDB00201900294059501A96548FFF7BD
:10119000DDFDF00201900294059501A96148FFF779
:1011A000D5FD01970294059501A95E48FFF7CEFD94
:1011B000700301900294059501A95A48FFF7C6FDF6
:1011C000402001900294059501A95448FFF7BEFD07
:1011D000802001900294059501A95048FFF7B6FDC3
:1011E000B00101900294059501A94C48FFF7AEFDAE
:1011F000F70101970294059501A94848FFF7A6FD5C
:10120000B001019002940595052001A90007FFF7A0
:101210009DFD019702940595052001A90007FFF7A0
:1012200095FD3002019002940595052001A9000763
:10123000FFF78CFD7002019002940595052001A92D
:101240000007FFF783FDB002019002940595052089
:1012500001A90007FFF77AFD70030190029405953C
:10126000052001A90007FFF771FD300201900294EB
:10127000059501A92948FFF769FD700201900294C4
:10128000059501A92548FFF761FDB0020190029480
:10129000059501A92148FFF759FD0196029405958E
:1012A00001A92148FFF752FD0820019002940595FD
:1012B00001A91C48FFF74AFD1020019002940595F2
:1012C00001A91848FFF742FD2020019002940595DE
:1012D00001A91448FFF73AFD4020019002940595BA
:1012E00001A91048FFF732FD802001900294059576
:1012F00001A90C48FFF72AFDB00101900294059561
:1013000001A90848FFF722FD01970294059501A95C
:101310000448FFF71BFD07B0F0BD000000080050B7
:10132000001C005000040050000C00500A490948FD
:1013300008600A4808600620486009488860C86854
:10134000400705D000200128F9D106480860704701
:101350000120F8E7CCCC00000030004055550000DB
:10136000FF0F0000AAAA0000FEE77047704710B503
:10137000FFF74EFC10BD000010B529480168490870
:10138000490001600168C907C90F0029FAD101228B
:10139000D202244801680323DB0299431143016010
:1013A0002148016801221143016001684907C90F02
:1013B0000029FAD041681F231B02994301231B0314
:1013C00019434160184940310B6913430B610A69A5
:1013D0009207D20F002AFAD0C168F0229143C1606F
:1013E000C168072212029143C160C168D2009143D3
:1013F000C1600121C268920892000A43C2600C22B7
:10140000C16811400429FBD10848FFF78FFD002077
:10141000FFF71AFC002801D0FEF7E0FE10BD000027
:101420000020024000700040001002400024F40040
:10143000704700008307FF22DB0E9A408907090EE0
:101440009940002808DB830809489B0018180368A6
:1014500093430B43036070470007000F083883086D
:1014600004489B001818C36993430B43C36170473A
:1014700000E400E000ED00E0BFF34F8F04490348B3
:10148000C860BFF34F8F00BFFDE700000400FA05FE
:1014900000ED00E002E008C8121F08C1002AFAD1DE
:1014A00070477047002001E001C1121F002AFBD1E4
:1014B0007047FEF793FE0000A2B0FFF7B1FBFFF705
:1014C0005BFFFFF77FFDFFF731FFFFF735FD214F92
:1014D0008022394602A8FEF723FE1F4802991F4DBD
:1014E000814225D11E4802901F4E1E4C34601F4978
:1014F0002846FEF74BFE002801D0FFF7BDFF346001
:101500001A49491C01910398C01C82082846FEF71D
:1015100043FE002800D0FEE73460FEF743FE34604F
:10152000202202A93846FEF737FE3460FFF7A4FFF9
:1015300072B628680E49084001214907884207D140
:1015400068680C4948600860296881F3088880470A
:10155000FFF792FF00F002087856341200180008D6
:1015600084537819AAAA000000300040FF830108C4
:101570000000FE2F54010020A815000800000020E4
:101580005401000094140008FC16000854010020C7
:101590001800000094140008141700086C010020C3
:1015A00074040000A414000803B40148019001BDB4
:1015B000A50B000803B40148019001BDB50900085E
:1015C00003B40148019001BDE50A000803B40148D5
:1015D000019001BD010B0008F0B585B004460E4630
:1015E00000F056F80025FFF7DFFF0294002001907D
:1015F00072B6194FBC4216D2BE420AD3381BC0097C
:101600000390694601A8FFF7D5FF00280BD00125FC
:1016100009E0301BC0090390694601A8FFF7CAFF23
:10162000002800D00125002D10D1BE420ED3BC42AF
:1016300000D23C4602940298301AC00903906946D1
:1016400001A8FFF7B7FF002800D00125FFF7B8FF7A
:1016500062B6284605B0F0BD008001081FB500F055
:1016600017F80024FFF7A0FF08480290002001901F
:1016700001200390694601A8FFF79CFF002800D0D5
:101680000124FFF79DFF204604B010BD00F00208C2
:1016900010B5FFF789FF044902488861FFF790FF02
:1016A00010BD0000002F030000200240F7B50646E1
:1016B0000F460025FFF7ECFFFFF776FF002411E04F
:1016C0000D490C480860A0003A5831460220FFF747
:1016D0007DFF002803D00325002D06D101E0361D33
:1016E000FAE7641C02988442EAD3FFF769FF2846B0
:1016F000FEBD0000AAAA000000300040000000006B
:1017000000000000010000000400000000000000D4
:0417100000002000B5
:04000005080000C12E
:00000001FF
