:020000040800F2
:10000000881F00207D020008A15400080541000857
:1000100000000000000000000000000000000000E0
:10002000000000000000000000000000A15B0008CC
:100030000000000000000000D9590008A35B000880
:100040008F0200088F0200088F0200088F0200084C
:100050008F0200088F0200088F0200088F0200083C
:100060008F020008651C00088F0200088F0200083C
:100070008F0200088F0200088F0200088F0200081C
:100080008F0200088F0200088F0200088F0200080C
:100090008F0200088F0200088F0200088F020008FC
:1000A0008F0200088F0200088F0200088F020008EC
:1000B0008F020008056300088F0200083D8C0008CD
:1000C00000F002F800F0AFF80CA030C8083824188F
:1000D0002D18A246671EAB4654465D46AC4201D180
:1000E00000F0A1F87E460F3E0FCCB6460126334203
:1000F00000D0FB1AA246AB4633431847449A00008F
:10010000649A00000023002400250026103A01D341
:1001100078C1FBD8520700D330C100D50B607047BF
:1001200010B56E2902D100F00EFC10BD702902D16D
:1001300000F065FD10BD662902D109F063FC10BD19
:10014000652902D109F05EFC10BD672902D109F0D2
:1001500059FC10BD612902D109F05CFC10BD036897
:100160001B0A01D380231943692902D100F024F925
:1001700010BD642902D100F01FF910BD752902D10C
:1001800000F01AF910BD6F2902D100F0E3FC10BD98
:10019000782902D100F020FD10BDE92902D100F03C
:1001A0007FFC10BDE42902D100F07AFC10BDF529D6
:1001B00002D100F075FC10BDEF2902D100F0D6FC91
:1001C00010BDF82902D100F015FD10BD0368DB0950
:1001D00001D380231943632902D100F0F7FB10BD3E
:1001E000732902D100F0FAFB10BDE32902D101F01E
:1001F000ECF810BDF32902D101F0EFF810BD00209A
:1002000010BD1FB500F00AFB04000020002109F01A
:10021000CDFB401C60600020002109F0DDFBE060A8
:100220001FBD10B510BD01F041F91146FFF7E9FF00
:1002300009F02CF901F0CAFC03B4FFF7F2FF03BC8C
:1002400001F0CCFC70B505460C46164602E00FCC1A
:100250000FC5103E102EFAD2082E02D303CC03C5D0
:10026000083E042E07D301CC01C5361F03E02178D8
:100270002970641C6D1C761EF9D270BD074880473A
:1002800007480047FEE7FEE7FEE7FEE7FEE7FEE77A
:1002900004480549054A064B70470000DD5C00082C
:1002A000C100000888190020881F0020881B00203A
:1002B000881B002010B500F0B1FA001D10BD00BF72
:1002C000ED9600007CB51D4616460C00009001D04E
:1002D0000019401E084B7B442A466946019030466F
:1002E00000F049FB002C054603D06946002000F0D1
:1002F00055FB28467CBD0000CD0600000FB41CB5A0
:10030000084B06AA7B4469460090059800F033FB31
:1003100004460020694600F041FB20461CBC08BC96
:1003200004B01847950600000FB47CB50C0009AA6C
:10033000009001D00019401E094B7B446946019092
:10034000089800F018FB002C054603D069460020F1
:1003500000F024FB28467CBC08BC04B01847000011
:100360006906000070B50C460546012A05D02878BC
:10037000800600D5EA69002302E0012305E05B1C4A
:10038000934202D2E05C0028F9D1A869E618C01AAD
:10039000A861286AC0182862284600F043FA04E0E1
:1003A0006A682078A968641C9047B442F8D328464C
:1003B00000F04EFA70BD0000F7B5002575291068F1
:1003C000009914A611D000F054FA002802DA404235
:1003D00011A608E0009909688A0701D50FA602E076
:1003E000490704D50EA6012501E000F04BFA009F55
:1003F0000024243704E000F00FFC30313955641C30
:100400000028F8D12B4632462146009800F043FAE6
:10041000FEBD0000000000002D0000002B000000C9
:1004200020000000F3B50446002081B02062204681
:10043000E1688847002872D0252802D06268A16848
:10044000ABE0594F00267F442046E16888472028CA
:10045000054608DB312D06D27819203800780028AF
:1004600001D00643F0E7B00701D504208643002001
:10047000E0610746A0612A2D0AD0284608F0F0FD69
:10048000002827D0B8000019303D0090856119E0A0
:100490000298BA00121902C8916102902046E168E0
:1004A0008847012F054617D1E06900281FDA202070
:1004B00086431CE000980A2180694843009940194E
:1004C000303888612046E1688847054608F0C8FD55
:1004D0000028EFD1012F0AD02E2D08D12046E16847
:1004E00088470546202006437F1C022FC3DBA069F6
:1004F000002803DA4042A06101200643F00701D042
:10050000102086436C2D0BD0682D09D04C2D3CD08B
:100510006A2D38D0742D38D07A2D36D016E040E0D0
:10052000E1682F4620468847B842054609D16C2F1E
:1005300029D001208002E16806432046884705460D
:1005400004E06C2F1DD0FF2001300643002D28D081
:1005500028464138192803D80120C0020643203517
:10056000204626602946029A1646FFF7D9FD002844
:1005700010D001280BD0F61DF008C0000830029002
:1005800055E74020E1E78020D5E70020D3E7361D7E
:1005900002964CE762682846A1689047206A401C92
:1005A00044E7206AFEBD0000F9950000034670B5DF
:1005B00002460B439B070FD10E4CE60100E008C238
:1005C00008C91D1B9D433542F9D0D9B21170521C88
:1005D00000290DD01B0AF8E70B78491C1370521C38
:1005E000002B05D00B78491C1370521C002BF3D143
:1005F00070BD000001010101F8B5042A2CD3830766
:1006000012D00B78491C0370401C521E83070BD07C
:100610000B78491C0370401C521E830704D00B78D2
:10062000491C0370401C521E8B079B0F05D0C91A32
:10063000DF002023DE1B08C90AE0FFF703FEF8BD38
:100640001D4608C9FD401C46B4402C4310C0121F73
:10065000042AF5D2F308C91A521EF0D40B78491CAB
:100660000370401C521EEAD40B78491C0370401CD6
:10067000012AE4D409780170F8BD01E004C0091F23
:100680000429FBD28B0701D50280801CC90700D04A
:100690000270704700290BD0C30702D00270401CC3
:1006A000491E022904D3830702D50280801C891EBB
:1006B000E3E70022EEE70022DFE7002203098B4296
:1006C0002CD3030A8B4211D300239C464EE00346F1
:1006D0000B433CD4002243088B4231D303098B42A5
:1006E0001CD3030A8B4201D394463FE0C3098B42DB
:1006F00001D3CB01C01A524183098B4201D38B0134
:10070000C01A524143098B4201D34B01C01A5241D6
:1007100003098B4201D30B01C01A5241C3088B421B
:1007200001D3CB00C01A524183088B4201D38B0006
:10073000C01A524143088B4201D34B00C01A5241A8
:10074000411A00D201465241104670475DE0CA0F7F
:1007500000D04942031000D34042534000229C463F
:1007600003098B422DD3030A8B4212D3FC22890149
:1007700012BA030A8B420CD3890192118B4208D31F
:10078000890192118B4204D389013AD0921100E081
:100790008909C3098B4201D3CB01C01A5241830995
:1007A0008B4201D38B01C01A524143098B4201D3C2
:1007B0004B01C01A524103098B4201D30B01C01AED
:1007C0005241C3088B4201D3CB00C01A5241830867
:1007D0008B4201D38B00C01A5241D9D243088B42BD
:1007E00001D34B00C01A5241411A00D20146634660
:1007F00052415B10104601D34042002B00D54942C4
:10080000704763465B1000D3404201B50020C046EC
:10081000C04602BD704770477047000000487047EF
:100820004819002070B5044685690068C10601D5E5
:10083000302600E02026C00707D070BD6268304631
:10084000A1689047206A401C20626D1EF6D570BDDD
:1008500070B5044685690078C00707D170BD62682D
:10086000A16820209047206A401C20626D1EF6D5AA
:1008700070BD09684A0501D540B27047C905FCD56D
:1008800000B2704709684A0501D5C0B27047C90572
:10089000FCD580B27047FFB504460D4681B02430C8
:1008A00000902168880604D51022E06991432160F8
:1008B00000E00120A84201DD471B00E0002704986A
:1008C000A1697A191018081AA0612078C00602D40C
:1008D0002046FFF7A7FF002608E003986268A1689A
:1008E000805D9047206A401C761C206204988642F6
:1008F000F3DB2078C0060AD52046FFF793FF06E019
:100900006268A16830209047206A401C2062384607
:100910007F1E0028F4DC07E000986268A168405D53
:100920009047206A401C206228466D1E0028F3DC98
:100930002046FFF78DFF2078000602D5022005B083
:10094000F0BD0120FBE711680268006A530501D57C
:10095000087009E0D30501D5088005E0130602D52B
:10096000C21705C100E008600120704701694A1CF8
:1009700002610878704700B58FB00291002105919F
:100980000549019379440391114604906846FFF7A5
:1009900049FD0FB000BD0000E5FFFFFF0A681070C1
:1009A000521C0A6070470CC908399A4202D2531C83
:1009B0000B601070704710B54369002B02D0C04621
:1009C000C04601E0FFF7CEFC012010BD12780146C1
:1009D00024310A7000224A700122ECE711680022DB
:1009E000D243E8E7F7B50446154686B02B4878446D
:1009F000002703C83E460090019111E007986A461F
:100A00007100415A02A800F0ECFC411C07D021788B
:100A1000890603D5E269391891420ED83F18761C31
:100A20002078800602D5E069B84206DDAE42E5DBFB
:100A300007987100405A0028E0D1A069C01BA0614E
:100A40002046FFF7EFFE154878445A3803C8009057
:100A50000020019116E041006A460798415A02A819
:100A600000F0BFFC0590401C0AD0002505E062683C
:100A700002A8A168405D90476D1C05988542F6D399
:100A80000498401CB0420490E5DB206AC019206243
:100A90002046FFF7DDFE09B0F0BD000062900000C7
:100AA000F7B5D21D0025D20815A6D200F52905CA32
:100AB00011D0002A05DA00214042914111A60A46D0
:100AC00008E0009909688B0701D50FA602E04907E5
:100AD00001D50EA601251146009F0024243704E00D
:100AE00000F0B2F830323A55641C02460A43F7D19E
:100AF0002B46324621460098FFF7CDFEFEBD000092
:100B0000000000002D0000002B000000200000006D
:100B100070B504460021243408E05507D2086D0F53
:100B2000303565545D072A43DB08491C15461D43D3
:100B3000F3D10468002310A2250708D5A40601D428
:100B4000002904D0C46901230CA2641EC461FFF70C
:100B5000A2FE70BD10B5044621461068FFF792FE54
:100B6000002302462046FFF7D3FF10BDD21DD10857
:100B7000C9000CC9CCE700000000000030000000F4
:100B8000F8B50F460188090502D5224C7C4402E0E5
:100B9000204C7C440E3405460021243508E016071D
:100BA0001209360FA65D6E541E0732431B09491CFD
:100BB00016461E43F3D1224604780023240705D5A8
:100BC000702F06D0002901D002231132FFF763FEF7
:100BD000F8BD01231032F9E770B504460D462146F1
:100BE0001068FFF74FFE0023024629462046FFF714
:100BF000C7FF70BDD21DD308DB000CCBC0E730B4FB
:100C0000036820241268234303600823C36130BCB7
:100C10000023B5E7CC8E000001468008081A0209BF
:100C20001018020A1018020C1018C00882001218BE
:100C30005200891A01E0401C0A390A29FBD2704788
:100C400000487047281900200B4670B502468907F6
:100C50008008084319469D08141AA9412509080768
:100C6000054308092C194841250A01060D43010ACC
:100C70002C194141200C0D0428430D0C00194D4145
:100C8000002140194D41C00869070843E908840F55
:100C90008D002543840024184D4124196D41121BF9
:100CA000AB4107E00925ED432C11521963410024A3
:100CB000401C61411C460A250026551BB441F1D257
:100CC00070BD00007047FFB50C461E468FB003CACA
:100CD000089009914F007D0D00D16D1E002108463E
:100CE0000020C0460321099A89050840002A03DA3A
:100CF0008200801840080840800D01280A9002DD1B
:100D00000020C0430A90089807430DD0F048F149ED
:100D1000281848430714189800281DD07542291E2A
:100D20001DDD0A9842421BE01898012802D00020DD
:100D3000302104E00020F24305E02154401CB04281
:100D4000FBDB30460022189B002121540F998B6059
:100D50000A60486013B0F0BDBD1B6D1CDFE70A9A46
:100D6000002900DA69420BA800F004FC0BAB07CBAA
:100D700003AB07C30899099800F068FC6B4607C3EA
:100D80000146D5480918002D00910BDDD249039882
:100D90000A9A49424018002303A90390684600F0CC
:100DA000C5FE08E003990A9A0023081803A90390D6
:100DB000684600F065FE6B4607C30004000C03D0D4
:100DC0000020C043410800E01046189A002A03D0D2
:100DD0000022009215461EE0751E05D4FFF734FF71
:100DE000303262556D1EF9D501220843079602D0B4
:100DF00000227F1C04E02078302801D100227F1ED1
:100E0000002A069787D01EE0112D07DAFFF71CFF96
:100E1000303262556D1C02460A43F5D1084303D0B7
:100E20000098002819D00EE00021681E05E0235C20
:100E3000625C63542254401E491C8142F7DBA81BAC
:100E4000401E07950690079A18990020A0540F9805
:100E5000079B069A81600CC07CE711260020189041
:100E600059E7D21DF0B50D460446D10893B0C9002C
:100E700003C90C900D9108F009F802460D98C00FB7
:100E800001D02D2007E02068810701D52B2002E04A
:100E90004007C00F4001032A0F9001D0072A05DB4D
:100EA00003462946204600F021FB0EE1207880060B
:100EB00001D5E76900E006272846652D04D066289D
:100EC00014D0672D69D12DE00020112F009001DB97
:100ED000112300E07B1C0CAA03A910A8FFF7F3FE66
:100EE0001199002610987D1C0E9142E001203B468E
:100EF0000CAAC0070B900120009003A910A8FFF7CF
:100F0000E2FE119D12981099002600280E9501D13D
:100F1000781C0D18781B02D446427D1C761EE81BF7
:100F200000903AE0012F00DA01270020112F0090F5
:100F300001DD112300E03B460CAA03A910A8FFF72E
:100F4000C2FE11993D46109800260E91217809079E
:100F50000BD40E99A94200DA0D4603A9012D04DD38
:100F60004A19203AD27F302A06D0B84201DA011D50
:100F700004DA012100910FE06D1EEFE7002802DC8A
:100F800086192D1A03E0411CA94200DD0D46801B85
:100F9000401C00900120C0070B902078000705D46A
:100FA0000098A84202DB0020C04300906946002060
:100FB000C8720B98012102AF0337C907884225D0B8
:100FC000022010902B2011900B9800280BDA404241
:100FD0000B902D20119006E00B98FFF71DFE30318D
:100FE0007F1E0B9039701099481E00291090F3DC79
:100FF0000B980028F0D111987F1E387020880005CA
:1010000001D5452000E065207F1E387001A8C01B77
:10101000C01D0B900F98002800D0012041190098A6
:10102000C01709180B980818A169081A401EA0617A
:101030002078C00602D42046FFF7F4FB0F98002862
:1010400005D06268A1689047206A401C2062207821
:10105000C00625D52046FFF7E5FB21E0002E07DB83
:101060000E98B04204DD03A86268805DA16802E0CA
:101070006268A16830209047206A761C401C20627C
:101080000098401E002800900AD1FFF7C7FBC068F7
:1010900062680168405CA1689047206A401C206239
:1010A00028466D1E0028D9DC07E062683878A16800
:1010B0007F1C9047206A401C20620B99481E002923
:1010C0000B90F2DC2046FFF7C3FB032042E6000052
:1010D00001FCFFFF104D0000E1DFFFFFD21DF0B566
:1010E00004460D46D0088DB0C000466807683146FA
:1010F000384607F0CBFE0246F00F01D02D2307E063
:101100002068810701D52B2302E04007C00F43016F
:101110006846002B037001D0012000E00020032A64
:101120000A9001D0072A04DB2946204600F0DEF9A8
:101130002DE12078800601D40D2500E0E5697000DE
:10114000400D0D2D01904BDA300D00210B9008461B
:101150000020C046032189050840002E05DA8200E0
:101160008018C20F1018401008408015012801DDBA
:101170000020C043A9000023182906D39C460A4634
:101180000123183A1B07D34003E001221205CA408D
:1011900094460C31202902D33A46203900E03246E9
:1011A0008A40002802DD002A06D119E0002817D164
:1011B0000121C9078A4213D3194663467F185E414D
:1011C000002806D10120C007824202D10846874389
:1011D0009E430B98310D814202D00198401C019032
:1011E0002088000502D57149794402E06F497944AD
:1011F00019396B460A9830221A540A980A7C401C06
:101200001A54401C0A900198002801DC302000E0AC
:1012100031201872019A0120002A02D0644BD218A2
:1012200004E072003A4302D0614A521C0192002D40
:1012300002DC2278120703D56A462E205072022063
:101240000022864694460CE032033601120F6D1ED2
:101250008B5C02AA13546246521C401C9446052A19
:1012600001DA002DF0DC002202AE08E03B0F3F0166
:10127000CB5C521C6D1E3354401C082A01DA002D31
:10128000F4DC23689A0601D511E0401E704504DDA8
:101290003218203AD27F302AF7D0002807DD3218E2
:1012A000203AD27F2E2A02D11A0700D4401E002DE8
:1012B00003DD3E223254401C6D1E497C315401999D
:1012C000401C002906DA2D21471C31540198404268
:1012D000019003E02B21471C315401987D21C90066
:1012E000884206DBFFF7F3F93030F0557F1C01919F
:1012F00001E0642808DB01986421FFF7E8F9303049
:10130000F0557F1C019101E00A2806DB01980A21B3
:10131000FFF7DDF93030F0557F1C01980A21FFF707
:10132000D6F93031F1550A98A1697F1C7A19101845
:10133000081AA0612078C00602D42046FFF772FA8E
:10134000216A6E460A980818206204E062683078C4
:10135000A168761C90470A98401E0A90401CF5D15F
:101360002078C00602D52046FFF75CFA02AE09E0FD
:101370003078761C3E280DD06268A1689047206ABC
:10138000401C20627F1EF3D22046FFF761FA0DB0A9
:101390000320F0BD206A4019206203E06268A16862
:1013A000302090476D1EEDD3F8E70000AB880000B9
:1013B00001FCFFFF10B54369002B02D0C046C046B8
:1013C00001E0FFF70FFB012010BD12880146243118
:1013D00082840022C2840122ECE711680022D243F9
:1013E000E8E770B516460C460546FEF763FF03684E
:1013F000FF200230C05C012807D0FF2C0ED8185DFA
:1014000000280BD001202C7070BDFF3332462146DE
:1014100008331868C3182846984770BD0020C04399
:1014200070BD0000024670B50A4392072AD11E4DD6
:10143000EE0104C808C9541B9443344017D0D0B2FD
:10144000D9B2401A2106014310D190B299B2401A84
:10145000210401430AD110021902000A090A401AA4
:101460002102014302D1100E190E401A70BD9A429A
:10147000DFD010BA19BA884201D9012070BD00200E
:10148000C04370BD02780B78401C491C002A09D06B
:101490009A4207D102780B78401C491C002A01D0DF
:1014A0009A42EFD0D01A70BD010101017546FFF7D5
:1014B000C7FBAE46050069465346C008C0008546D6
:1014C00018B020B5FEF7E4FE60BC00274908B64618
:1014D0000026C0C5C0C5C0C5C0C5C0C5C0C5C0C543
:1014E000C0C5403D49008D4670470000F8B51F4615
:1014F000044601230068DB02032601461840072A40
:1015000005DB002801D017A506E017A504E0002898
:1015100001D016A500E016A5102081432160A06926
:10152000C01E002FA06101D0401EA0612046FFF721
:1015300079F9002F09D038466268A1689047206A7F
:10154000401C2062C01C206206E0206AFAE7626844
:101550002878A1686D1C9047761EF8D22046FFF7C8
:1015600077F9F8BD4E414E006E616E00494E46005F
:10157000696E6600F7B516468AB0334878446C4603
:1015800003467C33C06F5A689B680DC42E4878446C
:10159000763003AC0DC80DC43720C00108183721C0
:1015A0001B30FFF794F805460C46803D1B3C02D5E6
:1015B0006442012000E000200027099010E0E007CD
:1015C0000CD00C2020497843794432464C394118DC
:1015D0006846012300F054FA6B4607C364107F1C71
:1015E000002CECD1184F7F442E3F16E0E80712D0B4
:1015F0002001C0190EC80691089307920068F042B6
:1016000001D1981908903246012306A903A800F0D9
:1016100037FA03AB07C36D10641C002DE6D109989F
:10162000002806D032466946012303A800F07EFA5E
:1016300005E001233246694603A800F021FA0A9B1F
:1016400007C30DB0F0BD00002C850000034640002C
:101650000A4610B5400D0BD00121C9070F24A40282
:1016600000191C0364082143540D2143D20207E0F2
:1016700000210120F2E7D40F490021435200401E0F
:101680000029F8DADB0FDB07184310BDFFB50D4664
:10169000144685B04868516807F0D2FB009101906C
:1016A000A868A16807F0CCFB02910390A868616864
:1016B00007F0C6FB029A12188242029201D2012060
:1016C00000E00020019A0B18D2180028019202D0E5
:1016D0008A4202D903E08A4201D2012000E00020C0
:1016E0000099081800906868A16807F0A9FB029AA1
:1016F00012188242029201D2012000E00020019AD9
:101700000B18D2180028019202D08A4202D903E0B5
:101710008A4201D2012000E00020009908180090C0
:101720002868216840004900400849084018FA49E3
:10173000471814E001994000C90F08430090019830
:1017400002994000C90F0843019002980399400094
:10175000C90F08430290039840007F1E0390009831
:101760000028E7DA0898002801D0EC4E00E00026B7
:10177000B74201DA012000E00020002804902AD0BE
:10178000F71BF806C00E15D0029B2021091A039AF8
:101790008B401A430392029A019BC2408B401A432A
:1017A0000292019A009BC2408B4000991A43019219
:1017B000C14000917B110DD06F460320C11A03D5A3
:1017C00000218200B95003E08A008100BA587A50A3
:1017D000401EF3D5374603980299002800D0012017
:1017E000014308980291002808460CD0002800D038
:1017F00001200199019A490508430121D20AC90231
:10180000D202019200E001210E9B0122D207012B9E
:1018100002D0002B03D013E0002807D120E0904233
:1018200004D890420CD1019B0B4209D0019B59185E
:10183000019105D10099491C009101D17F1C0092B2
:1018400000280DD0102108460020C046049800282A
:1018500006D00F98002803D0082108460020C04673
:1018600028682168019B009A4840C10F0598C90764
:1018700039430EC009B0F0BDFFB587B0099A08988A
:1018800008995368926840688968964600220393D5
:1018900017469446089A12685300099A5B08126822
:1018A000520052089A1A9E4BD4180A9A002A01D064
:1018B000352200E0402206920022012315460492C0
:1018C000DB07059324E0002D05D175460346039EF2
:1018D0004D1BB34109D375466646039B491B049DC6
:1018E0009841059B7519AC465F4163463B4308D060
:1018F000059B049EDD0776082E435B08049605933E
:1019000001E0521E641EC50FED0749184041521CEC
:10191000069B9A42D7DB002D04D17546039A6B1AB9
:10192000824101D203200CE0039A0B466B404240F7
:10193000134303D0014303D0012002E0022000E062
:101940000020614601910021009702910A99002927
:1019500005D0614640020143704B019102E08007CF
:10196000002302909C4201DA012000E000200700E1
:101970003AD01A1BD006C00E15D0029D2021019C22
:10198000091AC5408C402543029C8C4000D001249C
:101990002543019C0295009DC4408D4000992C4335
:1019A0000194C140009154111DD06D4602210022C6
:1019B00002290CD10320001B07E0002804DB86006D
:1019C000AE59002E00D00122401C0328F5DB081B75
:1019D00002D588002A5004E08000285810438A006D
:1019E000A850491EE3D51C460A98002802980CD03E
:1019F000002800D001200199019A490508430121DE
:101A0000D20AC902D202019200E00121109B0122F8
:101A1000D207012B02D0002B03D013E0002807D1FE
:101A20001FE0904204D890420CD1019B0B4209D098
:101A3000019B5918019105D10099491C009101D1D0
:101A4000641C009200280CD0102108460020C046DB
:101A5000002F06D01198002803D008210846002046
:101A6000C04608980999019A009B00680968484097
:101A7000C10F0798C907214382600AC00BB0F0BDAF
:101A800000B585B0019300920A460146002302A8E2
:101A9000FFF7FCFD02A807C805B000BDFFB50A4668
:101AA0001F4685B00799019301230091014602A8C2
:101AB000FFF7ECFD02990398049ECA0F4900D20774
:101AC00000920F22490892028C1A0021002800DBA4
:101AD0000C46450013486D08844214D3079A002A27
:101AE00004DA441E0026104DF64302E004460D467B
:101AF0000E46102108460020C046002F03D00421C6
:101B000008460020C0462005E90A0843009908431A
:101B10006905F20A1143ADE602C0FFFF013C000077
:101B2000FF3F0000FF070000FFFFFF7F00B585B00B
:101B3000019300920A460146002302A8FFF79CFE8B
:101B400002A807C8A8E7FFB50A461F4685B007994F
:101B5000019301230091014602A8FFF78DFE02992F
:101B60000398049ECA0F4900D20700920F22490829
:101B700092028C1A0021002800DB0C464500114817
:101B80006D08844214D3079A002A04DA441E002602
:101B90000D4DF64302E004460D460E461021084660
:101BA0000020C046002F03D0042108460020C04674
:101BB0002005E90A0843009908436905F20A114320
:101BC00058E60000FF070000FFFFFF7F10B5044646
:101BD000C046C0462046FEF72FFB10BD0149182025
:101BE000ABBEFEE726000200704770B58C18057882
:101BF000401C6B075B0F01D10378401C2A1106D1F2
:101C00000278401C03E00678401C0E70491C5B1EE5
:101C1000F9D12B0705D40023521E0DD40B70491C9B
:101C2000FAE70378401CCB1A921C03E01D780D7074
:101C3000491C5B1C521EF9D5A142D8D3002070BDAF
:101C4000002070470020704710B504460448006823
:101C5000002803D02046024909688847002010BDAB
:101C60005C00002000BF15480068022108404008C1
:101C7000002805D000BF02201049486000BF00BF07
:101C800000BF0E480068042108408008002805D0E5
:101C900000BF04200949486000BF00BF00BF0748DB
:101CA000006808210840C008002805D000BF0820AF
:101CB0000249486000BF00BF7047000000000240BA
:101CC00072B607F0ADF9000070B50948C46A056B3B
:101CD000466BA419002C0AD008220649204602F0BF
:101CE0004BFA042203491031284602F045FA70BD30
:101CF00080F7FF1F4200002070B5044600F0C6F9CF
:101D000006462546681C002802D0054800782D1894
:101D100000BF00F0BBF9801BA842FAD370BD0000E1
:101D20009C000020FEB506460C4600270920C00690
:101D300086420ED0BE4886420BD0BE48864208D0AE
:101D4000BD48864205D0BD48864202D0BC48864286
:101D500000D103E0B021BBA007F03EFA208880B29A
:101D6000002805D02068000C0004002800D103E002
:101D7000B121B4A007F030FA606800282CD0606868
:101D8000012829D06068112826D06068022823D055
:101D90006068122820D011210904606888421BD095
:101DA000212109046068884216D031210904606845
:101DB000884211D009214904606888420CD0112161
:101DC00049046068884207D0192149046068884244
:101DD00002D06068032800D103E0B22199A007F087
:101DE000FBF91FE10121B9402068084001900198EA
:101DF00000287DD020798007800F012804D0207929
:101E00008007800F022826D1E068002805D0E0680E
:101E1000012802D0E068032800D103E0C22189A094
:101E200007F0DAF9B5687900032088402946814334
:101E30000D467900E06888400543B560756801206B
:101E4000B840294681430D461021606808400009CA
:101E5000B8400543756020798007800F032819D0AA
:101E6000A068002805D0A068012802D0A068022838
:101E700000D103E0D32173A007F0AEF9F568790033
:101E800003208840294681430D467900A068884098
:101E90000543F56020798007800F022834D109209E
:101EA000C00686420BD06248864208D0614886420E
:101EB00005D06148864202D06048864200D103E0E6
:101EC000E02160A007F088F92069072800D803E026
:101ED000E1215CA007F080F9F8088100304620304D
:101EE00045587807C10E0F2088402946814300E0FD
:101EF00097E00D467907C90E206988400543F80828
:101F000081003046203045503568790003208840F4
:101F1000294681430D4620798007800F790088404B
:101F2000054335600321090460680840002878D023
:101F300000BF534880690121084351498861084620
:101F40008069C007C00F009000BF00BF4D48B908AE
:101F500089004558B807010F0F2088402946814362
:101F60000D460920C006864201D1002014E0304809
:101F7000864201D101200FE02E48864201D1022085
:101F80000AE02D48864201D1032005E02B48864215
:101F900001D1042000E00520B907090F884005435E
:101FA0003848B908890045503748056829460198DE
:101FB00081430D460121090460680840002801D0D2
:101FC00001980543304805604568294601988143DA
:101FD0000D460121490460680840002801D001989D
:101FE00005432948456085682946019881430D4687
:101FF0000121090560680840002801D001980543C7
:1020000021488560C5682946019881430D46012114
:10201000490560680840002801D0019805431A4826
:10202000C5607F1C2068F840002800D0DAE6FEBDBD
:102030000004004800080048000C00480010004858
:10204000001400482E2E2F447269766572732F5348
:10205000544D3332463078785F48414C5F44726962
:102060007665722F5372632F73746D3332663078D6
:10207000785F68616C5F6770696F2E6300000000B5
:1020800000100240080001400004014001480068BF
:102090007047000094000020034800680349097855
:1020A0004018014908607047940000209C000020FF
:1020B00010B5064800681021084304490860032051
:1020C00000F006F800F02EF8002010BD00200240BD
:1020D00070B50446104801787D20C000FEF7EDFA87
:1020E000064631460D480068FEF7E7FA054601F05E
:1020F00057F8002801D0012070BD042C07D200221F
:102100002146501E00F062F80548046001E00120FD
:10211000F2E70020F0E700009C000020A000002073
:102120009800002008B500BF0D48806901210843D0
:102130000B49886108468069C007C00F009000BF46
:1021400000BF00BF0846C069090408430449C861CC
:102150000846C06909040840009000BF00BF08BDE0
:102160000010024010B50446002C00DB03E09B2168
:1021700006A007F031F82046002805DBC206D20E83
:1021800001219140104A116000BF10BD2E2E2F4436
:102190007269766572732F53544D333246307878B6
:1021A0005F48414C5F4472697665722F5372632FAA
:1021B00073746D3332663078785F68616C5F636F1B
:1021C000727465782E63000000E100E070B505468A
:1021D0000C461646042C00D203E08B2103A006F027
:1021E000FBFF2146284606F0DFFE70BD2E2E2F4451
:1021F0007269766572732F53544D33324630787856
:102200005F48414C5F4472697665722F5372632F49
:1022100073746D3332663078785F68616C5F636FBA
:10222000727465782E63000001460A680120052358
:10223000DB01CB189866002017235B01CB181870C0
:102240005420805A01231843542398525420805A12
:10225000022318435423985200207047704770B5EA
:1022600005460C4680202040802806D16007400F9C
:1022700028267043AE19811905E0282060432E46B8
:10228000FF3669368119002A03D100200873CB80FC
:1022900004E0012008730B81180C4881002070BDF8
:1022A00070B504460D462821694323462833C918D2
:1022B0004A690521C9016118086F294604F03CFEEE
:1022C00070BD70B504460D46282169432346FF338F
:1022D0006933C9184A690521C9016118086F29467F
:1022E00004F0C5FE70BD70B504460E468020304037
:1022F000802808D17007400F2821484361184518ED
:102300000120687009E07007400F282148432146EA
:10231000FF3169314518002068707007400F287040
:1023200000BF152040012018007A012801D10220A9
:1023300070BD0120152149016118087200BF2946AE
:10234000206805F0BBFD00BF002015214901611880
:10235000087200BF00BFEBE770B504460E463007B9
:10236000000F6168884201D9012070BD8020304093
:10237000802808D17007400F28214843611845186C
:102380000120687009E07007400F2821484321466A
:10239000FF3169314518002068700020A87070076F
:1023A000400F287000BF152040012018007A012836
:1023B00001D10220D9E701201521490161180872D5
:1023C00000BF2946206805F0CFFE00BF0020152180
:1023D00049016118087200BF00BFC6E7F8B505469D
:1023E0000C46174601208003384000284ED028684C
:1023F0004030008A2178C9004018801C01229202D6
:1024000029688918405A8605B60DA069B04203D3E1
:10241000A069801BA06101E00020A061A0690028E4
:1024200013D100BF227892002968895A3F4A11408F
:102430000846012149034840890001438022114395
:1024400023789B002A68D15200BF402038400028E2
:1024500013D000BF00BF227892002968895A344AFD
:10246000114008460121C9030143C02211432378CA
:102470009B002A68D15200BF00BF002E54D0228991
:1024800061693346286806F0E5FB4DE02868403076
:10249000008A2178C9004018801D01229202296813
:1024A0008918405A8605B60DA069B04203D3A069C9
:1024B000801BA06101E00020A061A069002813D169
:1024C00000BF227892002968895A184A11400846AC
:1024D00001214903484089000143802211432378A8
:1024E0009B002A68D15200BF40203840002813D1F9
:1024F00000BF00BF227892002968895A0C4A114017
:1025000008460121C9030143C022114323789B00DF
:102510002A68D15200BF00BF002E05D062896169D0
:102520003346286806F096FB3046F8BD8FBF0000A2
:102530008F8F0000F7B584B005460C464021069801
:10254000084000286FD028684030008A2178C900F0
:102550004018801C0122920229688918405A870578
:10256000BF0DA069B84203D9A069C01BA06101E0FA
:102570000020A061A06900287ED100BF60780028FB
:102580001BD100BF29680391296840310A8A039949
:10259000511803912178C900891C01239B02039AD9
:1025A000D218881800BF0188FE4A114001800188B6
:1025B0005A011143018000BF12E0607801280FD159
:1025C00000BF28682A684032128A10182278D20088
:1025D000921C01239B02C318D11800220A8000BF5D
:1025E00000BF00BF28680390607800281CD100BF9E
:1025F00029680191296840310A8A0199511801918D
:102600002178C900891D01239B02019AD2188818DC
:1026100000BF0188E34A1140018001885A0111433B
:10262000018000BF15E0CCE06078012811D1286856
:102630004030018A0398081803902078C000801D5C
:1026400001229202039989184018029000210298F1
:10265000018000BF21782846FFF722FE012189036F
:1026600006980840002815D000BF00BF22789200CD
:102670002968895ACC4A00E00DE011400846012142
:10268000C90301438122D201114323789B002A68A8
:10269000D15200BFDCE101218903069808400028DF
:1026A00014D000BF00BF227892002968895ABE4A20
:1026B000114008460121C90301438122D20111437F
:1026C00023789B002A68D15200BF00BF2420005D00
:1026D0000128DFD16069C0196061E069C019E0615B
:1026E0002169206A884204D32669206A801B2062FF
:1026F0000DE0206A002804D13E4600212420015527
:1027000005E0002124200155266A0020206200BF38
:10271000607800283AD100BF2968039129684031C8
:102720000A8A0399511803912178C900891C012351
:102730009B02039AD2188918084600BF002E09D1BF
:102740000288984B1A40028002880123DB031A4357
:10275000028019E03E2E0AD800BF7108F207D20F9E
:10276000002A00D0491C8A06120C02800CE000BF2F
:102770007109F206D20E002A00D1491E8A020123F5
:10278000DB031A43028000BF00BF11E0607801281C
:102790000ED100BF28682A684032128A10182278A9
:1027A000D200921C01239B02C318D1180E8000BFD7
:1027B00000BFB3B2228961692868039006F072FAFB
:1027C00046E128684030008A2178C9004018801D01
:1027D0000122920229688918405A8705BF0DA06915
:1027E000B84203D3A069C01BA06101E00020A06132
:1027F000A06900287ED100BF607800281BD100BFEF
:1028000029680391296840310A8A03995118039174
:102810002178C900891C01239B02039AD2188818C9
:1028200000BF01885F4A1140018001885A011143AD
:10283000018000BF12E0607801280FD100BF286836
:102840002A684032128A10182278D200921C012382
:102850009B02C318D11800220A8000BF00BF00BF2E
:1028600028680390607800281BD100BF2968019177
:10287000296840310A8A0199511801912178C900CB
:10288000891D01239B02019AD218881800BF018874
:10289000444A1140018001885A011143018000BF60
:1028A00014E06078012811D128684030018A03982B
:1028B000081803902078C000801D0122920203991D
:1028C00089184018029000210298018000BF2178E9
:1028D0002846FFF7E5FC01218903069808400028F7
:1028E00015D100BF00BF227892002968895A2E4A6C
:1028F000114000E00CE008460121C9030143812298
:10290000D201114323789B002A68D15200BF9FE077
:102910000121890306980840002814D100BF00BF98
:10292000227892002968895A1F4A114008460121DD
:10293000C90301438122D201114323789B002A68F5
:10294000D15200BF00BF2420005D01287DD1606905
:10295000C0196061E069C019E0612169206A88429C
:1029600004D32669206A801B20620DE0206A0028BB
:1029700004D13E4600212420015505E0266A0020AE
:10298000206200212420015500BF28680390607850
:1029900000283FD100BF29680191296840310A8A87
:1029A000019903E0FF8300008F8F0000511801910F
:1029B0002178C900891D01239B02019AD218891828
:1029C000084600BF002E09D102882D4B1A40028014
:1029D00002880123DB031A43028019E03E2E0AD845
:1029E00000BF7108F207D20F002A00D0491C8A06E6
:1029F000120C02800CE000BF7109F206D20E002A10
:102A000000D1491E8A020123DB031A43028000BF62
:102A100000BF13E06078012810D128684030018A97
:102A20000398081803902078C000801D01229202AC
:102A300003998918401802900298068000BFB3B22B
:102A4000628961692868039000E001E006F02AF9D4
:102A500000BF227892002968895A0A4A1140084624
:102A6000102148402021484089020143802211431F
:102A700023789B002A68D15200BF002007B0F0BD28
:102A8000FF830000BF8F0000FFB581B005460E46F2
:102A90001F460020009080203040802808D1700719
:102AA000400F28214843691844180120607009E04C
:102AB0007007400F282148432946FF3169314418E7
:102AC000002060707007400F207003982061E7704D
:102AD0006078002801D02078E081022F01D1002009
:102AE000207100BF152040012818007A012802D16A
:102AF000022005B0F0BD01201521490169180872B6
:102B000000BF2146286804F0A7FF00BF0020152160
:102B100049016918087200BF0098EAE7FFB581B063
:102B200005460E4617467007400F282148432946A0
:102B3000FF316931441867610498A0610020E061A9
:102B400060707007400F20707007400F002804D19C
:102B50002146286805F0A2FB03E02146286805F01D
:102B60009DFB002005B0F0BD70B504460E46700711
:102B7000400F6168884201D9012070BD802030403B
:102B8000802808D17007400F282148436118451854
:102B90000120687007E0282070432146FF31693129
:102BA0004518002068700120A8707007400F287039
:102BB00000BF152040012018007A012801D1022011
:102BC000DBE70120152149016118087200BF294681
:102BD000206805F035FB00BF002015214901611870
:102BE000087200BF00BFC8E7FFB581B005460E46BA
:102BF0001F467007400F282148436918441803985E
:102C00006061A76101212420015527620020E06155
:102C1000012060707007400F20707007400F00287F
:102C200004D12146286805F039FB03E021462868D5
:102C300005F034FB002005B0F0BD000010B50446DF
:102C4000206806F003F80121C9030840884202D138
:102C5000204602F027FC206805F0F8FF01218902D8
:102C6000084088420ED12068403080887149084071
:102C7000216840318880204600F0B4F900212046C8
:102C800000F009FA206805F0E1FF012189030840FE
:102C9000884207D120684030808867490840216811
:102CA00040318880206805F0D1FF012149030840A8
:102CB000884207D1206840308088604908402168F8
:102CC00040318880206805F0C1FF012109030840D8
:102CD00088422AD12068403000885949084021683C
:102CE000403108802068403000885549091F08405D
:102CF0002168403108801720400120180078012801
:102D000008D10020172149016118087000212046D0
:102D1000FFF7A4FA204600F07BF920684030808855
:102D200048490840216840318880206805F08EFFBE
:102D30000121C902084088421AD120684030008829
:102D4000082108432168403108802068403080888D
:102D50003D49084021684031888020684030008823
:102D600004210843216840310880204600F0E0F942
:102D7000206805F06BFF80210840802835D120684D
:102D8000403080882E497C39084021684031888055
:102D90001720400120180078002823D120684030F7
:102DA00000880421084321684031088020684030B1
:102DB000008808210843216840310880012017213C
:102DC00049016118087020684030808AF02108406D
:102DD00080080521C9016118486601212046FFF7D6
:102DE0003DFA02E0204600F0A3F9206805F02EFF2E
:102DF00001214902084088420AD120684030808879
:102E000012490840216840318880204600F03AF994
:102E1000206805F01BFFFF2101310840884208D1DE
:102E20002068403080880649FC39084021684031DC
:102E3000888010BDFFFB0000FFBF0000FFDF000027
:102E4000FBFF0000FFEF0000FFF70000FFFD0000A8
:102E500030B585B00446002C02D1012005B030BD4C
:102E60003F492068884200D103E085213DA006F05B
:102E7000B3F9152040012018407A002806D1152109
:102E8000490161180872204600F088F803201521D6
:102E9000490161184872206805F05AF9002520E0C0
:102EA00001222820684321462831401842702820FA
:102EB00068430D54282068434018C581002228200B
:102EC00068434018C27028206843401802612820D7
:102ED0006843401842612820684340188261681C9A
:102EE000C5B26068A842DBD800251CE0002228207B
:102EF00068432146FF3169314018427028206843F9
:102F00000D54282068434018C27028206843401898
:102F10000261282068434018426128206843401815
:102F20008261681CC5B26068A842DFD814222146BD
:102F300010316846FDF786F920460FC805F0FAF80B
:102F400000212420015501201521490161184872F2
:102F5000E069012802D12046FFF766F900207DE7ED
:102F6000005C00402E2E2F447269766572732F53D9
:102F7000544D3332463078785F48414C5F44726933
:102F80007665722F5372632F73746D3332663078A7
:102F9000785F68616C5F7063642E630038B50446C7
:102FA0000E492068884217D100BF0D48C069012131
:102FB000C90508430A49C8610846C0690121C90515
:102FC0000840009000BF00BF002211461F20FFF7FD
:102FD000FDF81F20FFF7C6F838BD0000005C004078
:102FE0000010024070B504460125A068022801D0F7
:102FF000FEF766FE0521C9016118086F294604F035
:1030000093F90521C9016118086F04F02BF970BD0F
:1030100070B50446A069002807D00B480069062156
:1030200088430949086102F0C0FD06F081FC0546AD
:1030300006A2294606A006F0A9F80521C9016118D3
:10304000086F04F048F970BD00ED00E000000000DA
:103050001B5B323B33326D3C25753E205B495D2066
:103060002573203A2048414C5F5043445F526573BA
:10307000756D6543616C6C6261636B0D0A1B5B303F
:103080006D00000010B504460521C9016118086FE4
:1030900004F032F910BD70B504460D4600BF15208E
:1030A00040012018007A012801D1022070BD0120C2
:1030B000152149016118087200BF242005552946D1
:1030C000206805F0E7FD00BF0020152149016118C7
:1030D000087200BF00BFE9E710B504460521C90129
:1030E0006118086F2B210901611804F034F910BD33
:1030F00010B5044600BF152040012018007A0128B1
:1031000001D1022010BD012015214901611808726A
:1031100000BF206805F086FD206805F001F800BFBB
:103120000020152149016118087200BF00BFE9E7BE
:1031300070B504460521C9016118086F04F075F9DE
:10314000A069002805D00748006906210843054901
:10315000086106F0EDFB054603A2294603A006F030
:1031600015F870BD00ED00E0000000001B5B323B75
:1031700033326D3C25753E205B495D202573203A36
:103180002048414C5F5043445F53757370656E64D3
:1031900043616C6C6261636B0D0A1B5B306D0000F8
:1031A00070B504462546681E0949884201D90120A8
:1031B0000CE0681E074948610321081F05F0F4FE72
:1031C00000200449886107200861002070BD0000CC
:1031D000FFFFFF0000E000E070B505460C4600264A
:1031E0005E49286888420BD05D492868884207D02C
:1031F0005C492868884203D05B492868884200D12E
:1032000003E05A495AA005F0E7FF0121C9022068EE
:10321000884202D02068002800D104E07F21090103
:1032200053A005F0D9FF012189026068884202D0CD
:103230006068002800D104E04C49891C4CA005F0CE
:10324000CBFFA06800280DD0FF210131A068884283
:1032500008D04900A068884204D003210902A06870
:10326000884200D104E04149C91C41A005F0B4FFE7
:10327000E068FF2800D804E03C49091D3CA005F0A7
:10328000ABFF012109032069884202D02069002890
:1032900000D104E03549491D35A005F09DFF606966
:1032A000002804D0012149036069884200D104E06C
:1032B0002E49891D2EA005F08FFF01218903E069A9
:1032C000884202D0E069002800D104E02749C91DE6
:1032D00027A005F081FF00BF3C20405D012801D1FF
:1032E000022070BD01213C20415500BF300A000280
:1032F000E168084306463046032109028843A16875
:103300000843064630460121890288436168084324
:10331000064630460121C902884321680843064613
:103320003046012109038843216908430646304697
:10333000012149038843616908430646304601215B
:1033400089038843E169084306462868466400BF4C
:1033500000213C20415500BF0020C2E7002C014065
:10336000004001400044014000480140EF070000D8
:103370002E2E2F447269766572732F53544D33325B
:10338000463078785F48414C5F4472697665722FA9
:103390005372632F73746D3332663078785F68616F
:1033A0006C5F74696D5F65782E630000F8B5044644
:1033B0000D4642492068884214D0012189072068BF
:1033C00088420FD03E49206888420BD03D49206892
:1033D000884207D03C492068884203D03B49206896
:1033E000884200D103E03A493AA005F0F5FE28688A
:1033F000002814D02868102811D0286820280ED062
:10340000286830280BD02868402808D02868502821
:1034100005D02868602802D02868702800D104E010
:103420002B49491C2BA005F0D7FE6868802802D0E4
:103430006868002800D104E02549891C25A005F012
:10344000CBFE00BF3C20005D012801D10220F8BD69
:1034500001213C20015500BF02213D20015520687B
:103460004768206886687021384688430746286880
:103470000743206847601149206888420CD0012129
:1034800089072068884207D00D492068884203D008
:103490000E492068884207D180213046884306467D
:1034A000686806432068866001213D20015500BF01
:1034B00000213C20015500BF0020C8E7002C01403E
:1034C0000004004000100040001400400040014093
:1034D000B20700002E2E2F447269766572732F5347
:1034E000544D3332463078785F48414C5F447269BE
:1034F0007665722F5372632F73746D333266307832
:10350000785F68616C5F74696D5F65782E63000039
:1035100010B50446002C01D1012010BD444920689B
:10352000884220D001218907206888421BD0414968
:103530002068884217D040492068884213D03F490C
:10354000206888420FD03E49206888420BD03D4910
:103550002068884207D03C492068884203D03B4914
:103560002068884200D104E0FF21143138A005F022
:1035700033FEA06800280BD0A068102808D0A068EF
:10358000202805D0A068402802D0A068602800D17B
:1035900004E0FF2115312EA005F01EFE2069002851
:1035A00008D0FF2101312069884203D049002069F9
:1035B000884200D104E0FF21163125A005F00CFE61
:1035C000A069002802D0A069802800D104E0FF2172
:1035D00017311FA005F000FE3D20005D002805D139
:1035E00000213C200155204600F04EF802213D20EC
:1035F0000155211D206802F073FB01214620015571
:1036000000BF3E2001553F2001554020015541207B
:10361000015500BF00BF4220015543200155442001
:1036200001554520015500BF3D200155002074E79C
:10363000002C014000040040001000400014004035
:10364000002000400040014000440140004801408B
:103650002E2E2F447269766572732F53544D333278
:10366000463078785F48414C5F4472697665722FC6
:103670005372632F73746D3332663078785F68618C
:103680006C5F74696D2E630008B51D4A0168914234
:103690000DD100BF1B498969D2141143194A9161A8
:1036A00011468969D2141140009100BF26E0012221
:1036B0009207016891420DD100BF1249C9690122E8
:1036C0001143104AD1611146C969C907C90F009158
:1036D00000BF13E00C4A016891420FD100BF0949B5
:1036E0008969012212041143064A916111468969D0
:1036F000012212041140009100BF00BF08BD00006C
:10370000002C01400010024000400140F8B5054681
:103710000C460020009000BF3C20405D012801D1F4
:103720000220F8BD01213C20415500BF02213D206F
:103730004155C902206888421BD049002068884250
:1037400017D02068002814D02068102811D02068D5
:1037500020280ED0206830280BD02068402808D0C0
:103760002068502805D02068602802D02068702882
:1037700000D103E0F849F9A005F02EFD286886681D
:103780007721304688430646FF21090230468843A8
:10379000064628688660206850287DD00CDC2028EA
:1037A0007BD004DC002879D0102878D1B5E130280E
:1037B00076D04028F9D16EE1602872D0702832D0DE
:1037C00001210903401A02D0401AEED189E0F149E3
:1037D0002868884220D001218907286888421BD0A8
:1037E000ED492868884217D0EC492868884213D0F0
:1037F000EB49286888420FD0EA49286888420BD0F4
:10380000E9492868884207D0E8492868884203D0F7
:10381000E7492868884200D104E0CF490C31CFA0A5
:1038200005F0DAFCC9E1DB492868884208D00121AB
:1038300089072868884203D0D7492868884200D180
:1038400004E0C5491331C5A005F0C6FCA0680028F6
:103850000DD001210903A068884208D04900A06862
:10386000884204D003210903A068884200D104E003
:10387000B9491631B9A005F0AFFC0121C903606850
:10388000884212D0606800280FD0606800280CD0F1
:103890006068022809D005E07BE03FE13CE189E176
:1038A0003DE1B7E060680A2800D104E0AA49173179
:1038B000AAA005F091FCE0680F2800D804E0A64912
:1038C0001831A6A005F088FCE3686268A168286842
:1038D00002F05EFA286886687720064328688660CA
:1038E0006BE1AC492868884208D001218907286823
:1038F000884203D0A8492868884200D104E096494C
:103900002B3196A005F068FCA06800280DD001219D
:103910000903A068884208D04900A068884204D002
:1039200003210903A068884200D104E08A492E31AE
:103930008AA005F051FC0121C903606888420BD0C0
:103940006068002808D06068002805D060680228F8
:1039500002D060680A2800D104E07F492F317FA09F
:1039600005F03AFCE0680F2800D804E07A493031CD
:103970007AA005F031FCE3686268A168286802F06B
:1039800007FA28688068012189030843296888604C
:1039900013E18049286888420CD0012189072868F2
:1039A000884207D07C492868884203D07E4928682D
:1039B000884200D104E068493F3168A005F00CFC62
:1039C0000121C903606888420BD06068002808D0D4
:1039D0006068002805D06068022802D060680A2864
:1039E00000D104E05C4942315CA005F0F5FBE068E1
:1039F0000F2800D804E05849433158A005F0ECFBEB
:103A0000E2686168286802F04BFC5021286802F0E7
:103A1000CDF9D2E05F49286888420CD0012189079E
:103A20002868884207D05C492868884203D05E49EC
:103A30002868884200D104E047494F3147A005F08B
:103A4000CBFB0121C903606888420BD06068002865
:103A500008D06068002805D06068022802D060683D
:103A60000A2800D104E03C4952313CA005F0B4FBE7
:103A7000E0680F2800D804E03749533137A005F03B
:103A8000ABFBE2686168286802F023FC60212868CB
:103A900002F08CF991E03F49286888420CD001215E
:103AA00089072868884207D03B492868884203D0A4
:103AB0003D492868884200D104E027495F3127A0AA
:103AC00005F08AFB0121C903606888420BD0606859
:103AD000002808D06068002805D06068022802D05D
:103AE00060680A2800D104E01B4962311BA005F080
:103AF00073FBE0680F2800D804E01749633117A072
:103B000005F06AFBE2686168286802F0C9FB4021A1
:103B1000286802F04BF950E000BF00BF00BF1D490C
:103B2000286888420CD0012189072868884207D07C
:103B300019492868884203D01B492868884200D167
:103B400004E00549723105A005F046FB21682868AC
:103B500002F02CF931E00000C41400002E2E2F4496
:103B60007269766572732F53544D333246307878CC
:103B70005F48414C5F4472697665722F5372632FC0
:103B800073746D3332663078785F68616C5F746926
:103B90006D2E6300002C0140000400400010004026
:103BA000001400400020004000400140004401405B
:103BB000004801400120009000BF00BF01213D20CE
:103BC000415500BF00213C20415500BF0098A8E5A9
:103BD00010B586B00446142101A8FCF76CFD4349DA
:103BE000206888421FD100BF414840690121490433
:103BF00008433F494861084640690121490408409B
:103C0000009000BF00BF032000020190022002903C
:103C10000020039004900220059001A90920C0060D
:103C2000FEF780F860E0012189072068884239D1D9
:103C300000BF2F484069491308432D494861084691
:103C40004069012149040840009000BF00BF00BF47
:103C500027484069490008432549486108464069AA
:103C6000012189040840009000BF00BFC8100190E6
:103C7000022002900020039004900220059001A9E8
:103C80000920C006FEF74EF808200190022002909D
:103C90000020039004900220059001A91548FEF72A
:103CA00041F821E01449206888421DD100BF104826
:103CB00040690121890408430D494861084640696B
:103CC000012189040840009000BF00BF0320800349
:103CD00001900220029000200390049001200590A2
:103CE00001A90448FEF71EF806B010BD002C0140E3
:103CF000001002400004004800400140F8B50446AE
:103D00000D4616460027002E07D0042E05D0082E9B
:103D100003D00C2E01D03C2E00D103E0844985A0B5
:103D200005F05AFA2868602802D02868702800D167
:103D300004E07F49491C7FA005F04EFAA8680028DE
:103D400002D0A868022800D104E07949891C79A032
:103D500005F042FA2869002802D02869042800D119
:103D600004E07349C91C73A005F036FA00BF3C207B
:103D7000005D012801D10220F8BD01213C20015540
:103D800000BF002E06D0042E3ED0082E6DD00C2E83
:103D900079D195E075492068884218D001218907BA
:103DA0002068884213D07249206888420FD0714938
:103DB000206888420BD070492068884207D06F493C
:103DC0002068884203D06E492068884200D104E010
:103DD00057490D3157A005F0FFF92946206801F039
:103DE000F1FF206880690821084321688861206804
:103DF0008069042188432168886120688069296975
:103E00000843216888618AE05849206888420CD0BC
:103E1000012189072068884207D0554920688842D7
:103E200003D055492068884200D104E040491E3142
:103E300040A005F0D1F92946206802F067F8206813
:103E400080690121C902084321688861206880696E
:103E50000121890288432168886120688069296975
:103E6000090208432168886159E040492068884276
:103E700008D0012189072068884203D03C49206886
:103E8000884201D105E048E029492F3129A005F0F9
:103E9000A3F92946206802F0E5F82068C0690821E6
:103EA00008432168C8612068C069042188432168EB
:103EB000C8612068C069296908432168C8612EE08B
:103EC0002A492068884208D0012189072068884251
:103ED00003D027492068884200D104E014494031CA
:103EE00014A005F079F92946206802F067F92068E6
:103EF000C0690121C90208432168C8612068C069FE
:103F00000121890288432168C8612068C069296944
:103F1000090208432168C86101E0012700BF00BF12
:103F200000BF00213C20015500BF384624E70000B7
:103F3000771000002E2E2F447269766572732F530E
:103F4000544D3332463078785F48414C5F44726953
:103F50007665722F5372632F73746D3332663078C7
:103F6000785F68616C5F74696D2E6300002C01409E
:103F70000004004000200040004001400044014097
:103F80000048014010B50446002C01D1012010BDAD
:103F900044492068884220D001218907206888424E
:103FA0001BD041492068884217D040492068884288
:103FB00013D03F49206888420FD03E49206888428C
:103FC0000BD03D492068884207D03C492068884290
:103FD00003D03B492068884200D103E039493AA028
:103FE00005F0FAF8A06800280BD0A068102808D0C7
:103FF000A068202805D0A068402802D0A0686028CA
:1040000000D104E02F49491C2FA005F0E5F82069F4
:10401000002808D0FF2101312069884203D04900DF
:104020002069884200D104E02649891C26A005F0B9
:10403000D3F8A069002802D0A069802800D104E04C
:104040002049C91C20A005F0C7F83D20005D0028CC
:1040500005D100213C200155204600F051F80221F5
:104060003D200155211D206801F03AFE0121462026
:10407000015500BF3E2001553F200155402001550C
:104080004120015500BF00BF42200155432001558A
:10409000442001554520015500BF3D200155002019
:1040A00075E70000002C01400004004000100040B3
:1040B0000014004000200040004001400044014046
:1040C00000480140290500002E2E2F4472697665B4
:1040D00072732F53544D3332463078785F48414CD9
:1040E0005F4472697665722F5372632F73746D33F8
:1040F00032663078785F68616C5F74696D2E63003A
:104100007047000005F014FC04460EA221460EA0E4
:1041100005F03CF800BF00BF00BF00BF00BFBFF309
:104120004F8F00BF00BF00BF11481249C86000BFD9
:1041300000BF00BFBFF34F8F00BF00BF00BF00BF75
:1041400000BFFDE7000000001B5B323B33316D3CDC
:1041500025753E205B455D202573203A204861721D
:10416000646661756C740D0A1B5B306D00000000A5
:104170000400FA0500ED00E030B50B46002100BF59
:1041800012E0040F0A2C04D2040F30344D005C55A9
:1041900003E0040F37344D005C55000100254C004E
:1041A000641C1D554C1CE1B29142EADB30BD00009D
:1041B00070B505460C4600263448854200D104E01F
:1041C000FF217A3132A005F007F80121C9072068E4
:1041D000884206D049082068884202D0206800281A
:1041E00000D104E0FF217C3129A004F0F5FF6068D4
:1041F000002808D06068082805D06068102802D020
:104200006068182800D104E0FF217D3120A004F06F
:10421000E3FFA068002802D0A068202800D104E0B5
:10422000FF217E311AA004F0D7FFE06800280DD0EE
:1042300001218903E068884208D04900E06888428B
:1042400004D003218903E068884200D104E0FF2103
:104250007F310FA004F0C0FF284600F037F8002897
:1042600010D1A16860680843E1680843E968164A0C
:1042700011400843E86028698000800821680843ED
:10428000286100E00126304670BD00000024014096
:104290002E2E2F447269766572732F53544D33322C
:1042A000463078785F48414C5F4472697665722F7A
:1042B0005372632F73746D3332663078785F6C6C31
:1042C0005F6164632E630000C73FFFFF014688689B
:1042D000C007C00F012250405040704770B50546DE
:1042E0000C4600264348854200D104E0FF21D93125
:1042F00041A004F071FF2068002818D00121890234
:104300002068884213D011218901206888420ED08C
:104310000921C9012068884209D013218901206838
:10432000884204D0052109022068884200D104E0B7
:10433000FF21DA3130A004F04FFF6068002804D07C
:10434000012109046068884200D104E0FF21DB31CB
:1043500029A004F041FFA068002804D001214903EE
:10436000A068884200D104E0FF21DC3122A004F0E3
:1043700033FFE068002805D0E068012802D0E0683B
:10438000032800D104E0FF21DD311BA004F024FF4D
:104390002069002804D0012109032069884200D146
:1043A00004E0FF21DE3114A004F016FFA06800280D
:1043B00002D06068002800D104E0FF21E2310EA0A5
:1043C00004F00AFF2846FFF781FF00280ED161683C
:1043D00020680843A1680843E1680843216908434D
:1043E000E968134A11400843E86000E001263046BE
:1043F00070BD0000002401402E2E2F4472697665A6
:1044000072732F53544D3332463078785F48414CA5
:104410005F4472697665722F5372632F73746D33C4
:1044200032663078785F6C6C5F6164632E63000085
:104430003CC2FEFFC268920892000A43C260704705
:10444000826A4B035B0B1A438262704708B50549C9
:1044500049690143034A516111464969014000918C
:1044600000BF08BD0010024008B505494969014375
:10447000034A5161114649690140009100BF08BDDE
:1044800000100240F8B506460C460920C0068642D8
:104490000ED0754886420BD07448864208D07448C6
:1044A000864205D07348864202D07348864200D1C6
:1044B00003E0B32171A004F08FFE2068002804D926
:1044C0007C492068884200D803E0B4216BA004F046
:1044D00083FE6068002808D06068012805D0606805
:1044E000022802D06068032800D103E0B52163A050
:1044F00004F072FE2069002805D02069012802D04E
:104500002069022800D103E0B6215CA004F064FE1B
:104510000027A2E00121B94025680D40002D76D08A
:104520006068012802D0606802282FD1A0680028A6
:1045300005D0A068012802D0A068032800D103E0BC
:10454000C7214EA004F048FEA068B1682A466A431D
:104550005300D21891432A466A4342431143B16043
:1045600000BFE068002802D0E068012800D103E025
:10457000CD2142A004F030FEE168206872688243D9
:1045800003464B431A43726000BF00BF2069F168C5
:104590002A466A435300D21891432A466A4342434B
:1045A0001143F16000BF6068022847D160690028AC
:1045B00014D06069012811D0606902280ED06069AA
:1045C00003280BD06069042808D06069052805D04D
:1045D0006069062802D06069072800D103E0D9216C
:1045E00026A004F0F9FDFF2D12D86069316A2A4631
:1045F0006A436A436A4313019A1A91432A466A43FB
:104600006A436A4342431143316200BF16E023E02C
:104610006369280A4043290A4843290A484301019B
:10462000091A706A8843290A49432A0A51432A0A07
:10463000514359430843706200BF00BF606831684E
:104640002A466A435300D21891432A466A4342439A
:104650001143316000BF00BF7F1C2068F840002874
:1046600000D057E7F8BD00000004004800080048EB
:10467000000C004800100048001400482E2E2F4463
:104680007269766572732F53544D333246307878A1
:104690005F48414C5F4472697665722F5372632F95
:1046A00073746D3332663078785F6C6C5F677069F5
:1046B0006F2E6300FFFF0000024840680C21084095
:1046C000704700000010024010B5044601F0AAF93E
:1046D0002060206801F082F96060606801F090F964
:1046E000A06010BDF8B504460025002C01D0102CA8
:1046F00000D103E0FF212FA004F06EFD002C28D193
:10470000204600F075F8002818D0012804D00228AF
:104710000CD0032811D103E001F084F9054617E01D
:1047200000F072F8002800D0304D11E000F074F86D
:10473000002801D00125ED030AE000BF01F072F965
:10474000074601F04BF9064601F05AF9054600BF4D
:1047500000BF102C2CD1204600F04AF80F21090789
:104760004018002819D02103401A04D0401A0CD058
:10477000401A11D103E001F055F9054617E000F0A9
:1047800043F8002800D0194D11E000F045F800284A
:1047900001D00125ED030AE000BF01F043F907460F
:1047A00001F01CF9064601F02BF9054600BF00BFD9
:1047B0002846F8BD2E2E2F447269766572732F53EA
:1047C000544D3332463078785F48414C5F447269CB
:1047D0007665722F5372632F73746D33326630783F
:1047E000785F6C6C5F7263632E63000000127A0066
:1047F00001460448006B03228A4010400A06104319
:104800007047000000100240024800680221084082
:1048100040087047001002400248006A0221084028
:1048200040087047001002400149086070470000CE
:10483000A0000020016801221143016070470000C0
:10484000F0B589B005460C4601200890002007907D
:104850008148854208D08148854205D080488542FC
:1048600002D08048854200D103E0F2217EA004F00E
:10487000B3FC8C492068884200D803E0F3217AA079
:1048800004F0AAFC012109076068884206D060682C
:10489000002803D009146068884200D103E0F421A5
:1048A00071A004F099FC01210903A06888420CD092
:1048B000A068002809D003210903A068884204D019
:1048C00001214903A068884200D103E0F52166A0D8
:1048D00004F082FCE068002809D001218902E06828
:1048E000884204D003214902E068884200D103E0F5
:1048F000F6215DA004F070FC2069002808D0206932
:10490000042805D02069082802D020690C2800D18D
:1049100003E0F72154A004F05FFC606900280DD08B
:10492000FF2101316069884208D0490060698842EE
:1049300004D0032109026069884200D103E0F82114
:1049400049A004F049FCA069002804D00121C90352
:10495000A069884200D103E0F92143A004F03CFCA7
:10496000284600F0A5F8002872D1E1686068084385
:1049700021690843A169084329684B4A114008434B
:104980002860A068696803221203914301436960AB
:1049900000BF6069A968121191430143A96000BF7B
:1049A0002D48854204D10020FFF79CFE079018E0B7
:1049B0002A48854204D11020FFF794FE079010E0AA
:1049C0002748854205D104A8FFF77EFE0698079088
:1049D00007E02448854204D104A8FFF775FE069835
:1049E00007900798002833D02068002830D0002096
:1049F0000890079FA069039026680121C9030398C6
:104A0000884214D17900720888183146FBF755FEA8
:104A100080B2029025490298084001900298000750
:104A2000400F0199084301900198E86006E0710881
:104A3000C8193146FBF741FE80B2E86000BFE86864
:104A4000102800D304E0FF21753107A004F0C4FB57
:104A5000089809B0F0BD0000003801400044004053
:104A600000480040004C00402E2E2F4472697665AD
:104A700072732F53544D3332463078785F48414C2F
:104A80005F4472697665722F5372632F73746D334E
:104A900032663078785F6C6C5F75736172742E6308
:104AA00000000000808D5B00F369FFEFF0FF000065
:104AB00001460868C007C00F0122504050407047AF
:104AC00070B590B000200C900D900E900F901421B6
:104AD00007A8FBF7F0FD182101A8FBF7ECFD01206A
:104AE0004002AB4989690143A94A9161114689692C
:104AF0000140009100BF00BF0002FFF7B5FC01209C
:104B00008004FFF7B1FC01200190032002900020F7
:104B1000059001A90920C006FFF7B4FC022001900E
:104B2000032002900020059001A90920C006FFF78C
:104B3000A9FC04200190032002900020059001A907
:104B40000920C006FFF79EFC082001900320029078
:104B50000020059001A90920C006FFF793FC102052
:104B60000190032002900020059001A90920C006B1
:104B7000FFF788FC20200190032002900020059080
:104B800001A90920C006FFF77DFC40200190032009
:104B900002900020059001A90920C006FFF772FCD1
:104BA00080200190032002900020059001A9092097
:104BB000C006FFF767FC012001900320029000204F
:104BC000059001A97348FFF75DFC022001900320C6
:104BD00002900020059001A96E48FFF753FC6E4833
:104BE000012100224B1E6D4DEB5CC3586C4D2B40D8
:104BF00013434D1E694E755D435100BF00BF4B1EF0
:104C00003546EB5CC35803252D03AB4313434D1EC0
:104C1000755D435100BF20224B1E3546EB5CC358E7
:104C20002025AB4313434D1E755D435100BF002249
:104C30004B1E3546EB5CC3584025AB4313434D1E1A
:104C4000755D435100BF80224B1E3546EB5CC35857
:104C50008025AB4313434D1E755D435100BF821544
:104C60004B1E3546EB5CC35803252D02AB43134363
:104C70004D1E755D435100BF02154B1E3546EB5C62
:104C8000C3580325AD02AB4313434D1E755D43511D
:104C900000BF4448FFF7D4FB43494248FFF7D0FB2D
:104CA00042494048FFF7CCFB41493E48FFF7C8FB6B
:104CB00040493C48FFF7C4FB3F493A48FFF7C0FB77
:104CC0003E493848FFF7BCFB3D493648FFF7B8FB83
:104CD0003C493448FFF7B4FB3B493248FFF7B0FB8F
:104CE0003A493048FFF7ACFB012080053849096894
:104CF0000722920591430143354A116000BF00200D
:104D00000C900D900E900F900CA92648FFF750FACA
:104D100000200790089001204003099003200A908A
:104D200000200B9007A91F48FFF7D8FA00201D4963
:104D3000C9680422914301431A4AD16000BF072089
:104D40001146496981430143516100BF00BF1046CC
:104D5000C0688007800F044600211046FFF76AFBF9
:104D600000BF104880681B490840090740180D49DA
:104D7000886000BF00BF00BF0A488068C00F0028DD
:104D8000F9D121460748FFF755FB10B070BD000070
:104D9000001002400004004800000240249A00086D
:104DA000EFBFFFFF002401400200000404000008E0
:104DB0000800000C10000010200000144000001833
:104DC0008000001C0001002000020024000002C43A
:104DD00008270140E8FFFF7F08B501200C49496919
:104DE00001430B4A5161114649690140009100BFDE
:104DF00000BF0021092004F05FF80920002805DB2E
:104E0000C206D20E01219140024A116000BF08BDC6
:104E10000010024000E100E000B587B0182101A8B1
:104E2000FBF749FC0120C004FFF710FB01208005BF
:104E3000FFF70CFB01204004FFF708FB0120800472
:104E4000FFF704FB04205149886200BFC0020190B3
:104E5000032002900020059001A94D48FFF712FBA6
:104E6000012080030190032002900020059001A9F9
:104E70004748FFF707FB0120C00301900320029081
:104E80000020059001A94248FFF7FCFA012001909B
:104E9000032002900020059001A93E48FFF7F2FA96
:104EA00002200190032002900020059001A93948BA
:104EB000FFF7E8FA042001900120029000200390FF
:104EC0000490059001A93148FFF7DCFA01200003A6
:104ED000019000200290059001A92C48FFF7D2FA1A
:104EE00001204003019000200290059001A927486D
:104EF000FFF7C8FA012080020190032002900020F1
:104F0000059001A90920C006FFF7BCFA1020019006
:104F1000032002900020059001A91C48FFF7B2FA77
:104F200020200190032002900020059001A917483D
:104F3000FFF7A8FA4020019003200290002005907E
:104F400001A91248FFF79EFA8020019003200290E9
:104F50000020059001A90D48FFF794FAFF200130C9
:104F60000190032002900020059001A90748FFF757
:104F700089FA012040020190032002900020059050
:104F800001A90248FFF77EFA07B000BD00040048FF
:104F9000000800480014004800BF1048104908608D
:104FA00000BF00BF0F48086000BF0620486000BF78
:104FB0000D48886000BF00BF00BF0948C0684007B7
:104FC000400F002801D1012000E000200128F3D18A
:104FD00000BF06480249086000BF7047CCCC000003
:104FE0000030004055550000FF0F0000AAAA000045
:104FF00000B595B0002011901290139014900F906E
:1050000010901C2108A8FBF756FB20216846FBF7EF
:1050100052FB334833490860334848600021314827
:1050200081603149C1600121490201610021416172
:105030008161FEF76DFA002801D0FCF741FE0120E6
:105040000003119011A92748FEF760FB002801D04A
:10505000FCF736FE2348FEF795FF002801D0FCF749
:105060002FFE00200F9010900FA91E48FEF79EF90A
:10507000002801D0FCF724FE602008905A200990F7
:1050800000200A900B900C900D900E90002208A921
:105090001448FEF733FE002801D0FCF711FE04226D
:1050A00008A91048FEF72AFE002801D0FCF708FEE8
:1050B0000020009001900290039004900120400392
:1050C00005900020079069460648FEF785F80028FD
:1050D00001D0FCF7F5FD0348FEF77AFD15B000BDE1
:1050E0000040014068060020FFFF000000B595B0B9
:1050F000002011901290139014900F9010901C218A
:1051000008A8FBF7D8FA20216846FBF7D4FA334801
:105110003349086033484860002131488160314993
:10512000C160012149020161002141618161FEF7F5
:10513000EFF9002801D0FCF7C3FD01200003119016
:1051400011A92748FEF7E2FA002801D0FCF7B8FDC4
:105150002348FEF717FF002801D0FCF7B1FD00201F
:105160000F9010900FA91E48FEF720F9002801D0DB
:10517000FCF7A6FD602008905A20099000200A90B4
:105180000B900C900D900E90002208A91448FEF789
:10519000B5FD002801D0FCF793FD042208A91048B2
:1051A000FEF7ACFD002801D0FCF78AFD002000903E
:1051B000019002900390049001204003059000208C
:1051C000079069460648FEF707F8002801D0FCF76B
:1051D00077FD0348FEF7FCFC15B000BD002C014034
:1051E000D8050020FFFF000000B58DB00020099019
:1051F0000A900B900C90079008901C216846FBF7D2
:105200005AFA012080072749086027484860002192
:10521000244881602449C1600121490201610021C3
:105220008161FEF775F9002801D0FCF749FD0120E6
:105230000003099009A91B48FEF768FA002801D06D
:10524000FCF73EFD1748FEF79DFE002801D0FCF755
:1052500037FD00200790089007A91248FEF7A6F82E
:10526000002801D0FCF72CFD602000905A2001900E
:10527000002002900490002269460A48FEF73EFD95
:10528000002801D0FCF71CFD042269460548FEF702
:1052900035FD002801D0FCF713FD0248FEF798FC0D
:1052A0000DB000BD20060020FFFF000010B58EB03D
:1052B0001C2107A8FBF7FFF9182101A8FBF7FBF950
:1052C000012080045D49C96901435C4AD1611146EE
:1052D000C9690140009100BF00BF00BF1146496984
:1052E00001435161114649690140009100BF00BF6F
:1052F00000120190022002900320039000200490ED
:1053000005900420069001A94D48FFF7BBF8012045
:10531000C00201900220029003200390002004901C
:1053200005900420069001A94548FFF7ABF800213D
:105330001D2003F0FDFD1D20002805DBC206D20E56
:10534000012191403F4A116000BF4B20C0010790EE
:105350000020089009900A900C200B9000200C90DF
:105360000D9007A93848FFF76BFA00BF00BF00BFD8
:1053700003F070FE0446012003F06FFE324880689F
:1053800001218902884330498860204603F065FE88
:1053900000BF00BF00BF2C4840680921C9028843F4
:1053A00029494860084680682A2188432649886040
:1053B00000BF0846FFF73EFA00BF00BF00BF03F082
:1053C00049FE0446012003F048FE1F480068802182
:1053D00088431D490860204603F03FFE00BF00BF20
:1053E00000BF00BF00BF03F035FE0446012003F0FC
:1053F00034FE154800684021884313490860204660
:1054000003F02BFE00BF00BF00BF00BF00BF03F0D2
:1054100021FE0446012003F020FE0B4800682021F5
:10542000084309490860204603F017FE00BF00BF8B
:105430000548FFF7FFF90EB010BD00000010024054
:105440000004004800E100E00048004010B50022E0
:105450000F49104801F00AFD002801D0FCF730FC8C
:105460000D490C4802F01EF8002801D0FCF728FC7A
:105470000A49084801F0D0F8002801D0FCF720FCC8
:10548000044802F015F9002801D0FCF719FC10BD02
:105490000C000020B0060020A8000020840000209E
:1054A00000BFFEE7F0B587B0054688E228684030C7
:1054B0008088069006980607360F002E70D11021BE
:1054C00006980840002836D100BF29680988F94AA3
:1054D000114008460121C90301432A68118000BF19
:1054E0002C46283428684030008A2178C9004018AA
:1054F000801C0122920229688918405A8005800D7B
:10550000E061E16960694018606100212846FCF7AC
:10551000C7FE2420405D0028C7D0A0690028C4D160
:105520002420405D80210843296840318881002182
:105530002420415543E22C46FF3469342868008812
:1055400005900121C90205980840002829D0286843
:105550004030008A2178C9004018801D0122920243
:1055600029688918405A8005800DE061A08B83B2BC
:10557000E288286803902B2000012918039803F083
:1055800069FB00BF29680988CB4A11400846802181
:1055900001432A68118000BF2846FDF79DFD0EE2F9
:1055A0008CE00121C903059808400028C2D000BF43
:1055B00029680988C04A11400846802101432A68A9
:1055C000118000BF28684030008A2178C900401847
:1055D000801D0122920229688918405A8005800D99
:1055E000E061E069002812D0606900280FD0A08B2C
:1055F00083B2E28861692868039003F02BFBE169BC
:1056000060694018606100212846FCF75AFE28684E
:1056100000880121C902084000288BD100BF2968F9
:105620000391296840310A8A039951180391012294
:10563000920203998918891D084600BF2269002A31
:1056400009D102889D4B1A40028002880123DB03A6
:105650001A4302801EE022693E2A0CD800BF22694C
:105660005108227CD207D20F002A00D0491C8A069A
:10567000120C02800EE000BF22695109227CD20682
:10568000D20E002A00D1491E8A020123DB031A43ED
:10569000028000BF00BF00BF00BF29680988884A98
:1056A000114008460121090348404900484089004B
:1056B0000143802211432A68118080E1B1002868EB
:1056C000405A05900121C9030598084000287DD063
:1056D00000BFB2002968895A774A114008468021E4
:1056E0000143B3002A68D15200BF282070432946E5
:1056F000FF3169314418207B002817D128684030D9
:10570000008A2178C9004018801D01229202296870
:105710008918405A8705BF0D002F60D0E288616963
:1057200028683B46039003F095FA58E0E078022899
:1057300006D121462846059AFCF750FE07464EE062
:1057400000BF00BF227892002968895A594A8032E6
:10575000114008460121C9030143C02211432378A7
:105760009B002A68D15200BF00BF217889002868B9
:10577000405A012189030840002817D0286840308A
:10578000008A2178C9004018801C012292022968F1
:105790008918405A8705BF0D002F20D022896169E2
:1057A00028683B46039003F055FA18E0286840301B
:1057B000008A2178C9004018801D012292022968C0
:1057C0008918405A8705BF0D002F00E01CE006D065
:1057D0006289616928683B46039003F03BFAE069FF
:1057E000C019E0616069C0196061A069002802D039
:1057F0002069B84204D921782846FCF762FD03E00D
:105800002146286802F04AFD8021059808400028BA
:105810007AD02820704329462831441800BFB200AE
:105820002968895A234A114008460121C9030143C6
:10583000B3002A68D15200BFE07802287ED0002051
:10584000A06140210598084000283BD000BF607847
:1058500000281BD100BF29680391296840310A8ABA
:105860000399511803912178C900891C01239B02D7
:10587000039AD218881800BF0188104A114001808D
:1058800001885A011143018000BF12E060780128AD
:105890000FD100BF286829684031098A081821788B
:1058A000C900891C0122920282188B1800221A80DA
:1058B00000BF40E00F8F00008F0F0000FF8300004B
:1058C0008FBF000000BF28680390607800281CD1BB
:1058D00000BF29680191296840310A8A019951184D
:1058E00001912178C900891D01239B02019AD218D8
:1058F000881800BF0188374A1140018001885A0189
:105900001143018000BF15E059E06078012811D1F2
:1059100028684030018A0398081803902078C00056
:10592000801D0122920203998918401802900021DB
:105930000298018000BF2178284600E002E0FCF7D1
:10594000AFFC3CE0E078022834D1FF21013105981A
:10595000084000282ED128684030008A2178C900EC
:105960004018801C0122920229688918405A80053B
:10597000800D0490A1690498814204D9A16904981A
:10598000081AA06101E00020A061A069002804D1EC
:1059900021782846FCF784FC11E061690498081816
:1059A0006061E16904980818E0612146286802F006
:1059B00075FC04E021462846059AFCF7BBFD2868E3
:1059C000403080880121C9030840002800D06DE5DF
:1059D00007B0F0BDFF83000070470000014600BF24
:1059E00005484068F022104010400009034A125C4C
:1059F0000846D04070470000001002402B9A000873
:105A0000014600BF05484068072212021040000A04
:105A1000034A125C0846D040704700000010024064
:105A20003B9A000810B50024FEF746FE002806D079
:105A3000042806D0082806D00C280AD107E0074C15
:105A400009E0064C07E000F00DF8044603E0044CC2
:105A500001E0024C00BF00BF204610BD00127A00DA
:105A6000006CDC0270B50024002500BF16484068B9
:105A70000321C903084005460120C003281A06D0A7
:105A80000121C903401A06D0401A06D101E00F4C8B
:105A900005E00F4C03E00D4C01E00C4C00BF00BFD3
:105AA00000BF0948C06A0007000F461C3146204667
:105AB000FAF703FE044949680F229204114011408D
:105AC000890C891C484370BD0010024000127A0006
:105AD000006CDC02F8B504460D4616460E4F00BFBA
