:020000040800F2
:10000000A8040020D9000008F9460008F9300008CB
:1000100000000000000000000000000000000000E0
:10002000000000000000000000000000CD480008B3
:100030000000000000000000FD460008CF48000856
:10004000EB000008EB000008BD480008EB000008CA
:10005000EB000008EB000008EB000008EB000008D4
:10006000EB000008EB0000084B020008EB00000862
:100070000D020008EB000008EB000008EB00000890
:10008000EB000008EB000008EB0000080000000097
:10009000EB000008EB000008EB000008EB00000894
:1000A000EB000008EB000008EB0000088F49000897
:1000B000EB00000849020008EB000008EB00000814
:1000C0000448854600F090F800480047614B00085E
:1000D000C046C046A80400200448804704480047A2
:1000E000FEE7FEE7FEE7FEE7FEE7FEE78D490008D4
:1000F000C100000830B50B46014600202022012433
:1001000009E00D46D5409D4205D31D469540491B4B
:100110002546954040191546521E002DF1DC30BD94
:10012000F0B51FB40646002082B005464024019178
:1001300000901BE0019922460F46304600F042F83D
:10014000049A059B801A994110D3104619462246FD
:1001500000F028F8361A8F4101972246012000212D
:10016000009F00F01FF838184D4100902046641E93
:100170000028DFDC019B00982946324607B0F0BD1D
:10018000D2B201E00270401C491EFBD2704700222F
:10019000F6E710B513460A4604461946FFF7F0FF86
:1001A000204610BD10B5202A04DB0146203A9140BC
:1001B000002010BD914020239C1A0346E3401943C0
:1001C000904010BD10B5202A04DB0846203AD040EC
:1001D000002110BD0B46D340D0402024A21A9140EC
:1001E0000843194610BD0000064C0125064E05E0E7
:1001F000E36807CC2B430C3C98471034B442F7D348
:10020000FFF762FFB44B0008D44B000810B502485A
:1002100000F06AF910BD00001000002038B5044657
:10022000074908480068FFF765FF6043009002E057
:100230000098401E009000980028F9D138BD0000B9
:1002400040420F000C0000207047704772B600BF9C
:10025000FEE7000070B505460C467F4928688842D5
:1002600000D103E07D497EA004F079FC20680128DC
:1002700047D089492068884243D049002068884295
:100280003FD08649206888423BD085492068884213
:1002900037D084492068884233D083492068884217
:1002A0002FD08249206888422BD08149206888421B
:1002B00027D080492068884223D07F49206888421F
:1002C0001FD07E49206888421BD07D492068884223
:1002D00017D07C492068884213D07B492068884227
:1002E0000FD07A49206888420BD07949206888422B
:1002F00007D078492068884203D07749206888422F
:1003000000D104E05549491C55A004F028FC012106
:1003100009036068884203D0491C6068884200D1A4
:1003200004E04E49891C4EA004F019FC00BF502087
:10033000405D012801D1022070BD012150204155AE
:1003400000BF2868806804210840800800280AD07F
:10035000686D20210843686500BF00215020415589
:1003600000BF0120E8E75D496068884238D028680E
:10037000806A21684903490B08432968886220681C
:100380004003400B5249084001218904884208D1AA
:100390005348806849010843514988600A20FFF7A3
:1003A0003DFF20684003400B4A49084001214904B1
:1003B000884205D14A488068490108434849886015
:1003C00020684003400B4449084001210904884249
:1003D0003BD143488068090208434149886034E0C2
:1003E0002868806A21684903490B88432968886224
:1003F00020684003400B36490840012189048842A7
:1004000005D13748806849018843354988602068AC
:100410004003400B2F49084001214904884205D17F
:100420002F488068490188432D498860206840032F
:10043000400B2949084001210904884205D1284878
:100440008068090288432649886000BF0021502047
:10045000415500BF00206FE70024014081070000E4
:100460002E2E2F447269766572732F53544D33329A
:100470004C3078785F48414C5F4472697665722FE2
:100480005372632F73746D33326C3078785F6861A8
:100490006C5F6164632E6300020000040800000CBE
:1004A0001000001020000014400000188000001C04
:1004B0000001002000020024000400280008002C95
:1004C0000010003000200034004000380080003C64
:1004D0000000044800000244000001400110000038
:1004E000002701407047704710B5044657492068FF
:1004F000884200D103E0564956A004F030FB20208A
:10050000005D002803D02020005D012800D104E018
:10051000D321C9004FA004F022FB6069042802D057
:100520006069082800D104E04949891C49A004F009
:1005300016FB2068006804210840042804D12068C4
:100540004068084004280AD0206800680821084054
:10055000082844D120684068084008283FD1606DD1
:1005600010210840002803D1606D490108436065EF
:100570002068C068032189020840002826D1202075
:10058000005D002822D12068006808210840082862
:100590001CD12068806804210840800800280DD103
:1005A000206840680C21884321684860606DFF2105
:1005B0000131884301210843606507E0606D202117
:1005C00008436065A06D01210843A0652046FFF740
:1005D00089FFA069012802D00C20216808602068EA
:1005E00000688021084080280ED1206840680840BB
:1005F000802809D1606D490208436065204600F0FB
:100600002BFB8020216808602068006810210840CA
:1006100010281AD1206840680840102815D1206B96
:10062000002805D02068C068C007C00F002809D086
:10063000A06D02210843A0651020216808602046B3
:10064000FFF751FF10202168086010BD0024014011
:10065000970600002E2E2F447269766572732F5311
:10066000544D33324C3078785F48414C5F44726966
:100670007665722F5372632F73746D33326C3078DA
:10068000785F68616C5F6164632E630010B5044637
:10069000002C01D1012010BDF8492068884200D10A
:1006A00004E0FF219D31F6A004F059FA60680028AB
:1006B00044D003218907606888423FD0494260687E
:1006C00088423BD049006068884237D06068002883
:1006D00034D0490B6068884230D049006068884255
:1006E0002CD0032189046068884227D001210905A4
:1006F0006068884222D005218904606888421DD044
:100700000321C9046068884218D007218904606801
:10071000884213D001214905606888420ED0092122
:1007200089046068884209D00521C904606888424C
:1007300004D00B2189046068884200D104E0FF21C5
:100740009E31CFA004F00BFAA068002808D0A06862
:10075000082805D0A068102802D0A068182800D169
:1007600004E0FF219F31C6A004F0F9F9E0680028F9
:1007700002D0E068202800D104E0FF21A031C0A011
:1007800004F0EDF92069012802D02069022800D187
:1007900004E0FF21A131BAA004F0E1F92020005DBE
:1007A000002803D02020005D012800D104E0FF21B3
:1007B000A231B3A004F0D3F92120005D002803D0BA
:1007C0002120005D012800D104E0FF21A331ACA06D
:1007D00004F0C5F9A06A00280DD001218902A06AA1
:1007E000884208D04900A06A884204D003218902C7
:1007F000A06A884200D104E0FF21A431A0A004F047
:10080000AEF9606A002823D0606A402820D0606A70
:1008100080281DD0606AC0281AD0FF210131606A8B
:10082000884215D0606A884212D0FF214131606A47
:1008300088420DD0FF218131606A884208D0FF21B3
:10084000C131606A884203D0491C606A884200D185
:1008500004E0FF21A5318AA004F081F92C20005D7D
:10086000002803D02C20005D012800D104E0FF21E6
:10087000A63183A004F073F96069042802D060698E
:10088000082800D104E0FF21A7317DA004F067F91A
:10089000206B002804D001210903206B884200D17D
:1008A00004E0FF21A83176A004F059F9A0690028DE
:1008B00002D0A069012800D104E0FF21A93170A075
:1008C00004F04DF9606B002802D0606B012800D164
:1008D00004E0FF21AA316AA004F041F9E069002890
:1008E00002D0E069012800D104E0FF21AB3164A00F
:1008F00004F035F9A06B002814D0A06B012811D0AA
:10090000A06B02280ED0A06B03280BD0A06B04288C
:1009100008D0A06B052805D0A06B062802D0A06BDC
:10092000072800D104E0FF21AC3155A004F017F9ED
:10093000E06B002802D0E06B012800D104E0FF2129
:10094000AD314FA004F00BF9606D002806D1A06511
:10095000002150200155204600F080F9606D1021E3
:100960000840102806D020688068042108408008CC
:1009700000280AD0606D10210843606500BF002187
:100980005020015500BF012085E6606DFF21013137
:100990008843022108436065206880688007800FD3
:1009A000012807D120680068C007C00F002801D0C7
:1009B000012000E0002000283AD100BF0321890770
:1009C0006068884207D049426068884203D0490085
:1009D000606888420CD12068006980008008216826
:1009E000086120680069616808432168086112E0B5
:1009F0002068006980008008216808612E488068AE
:100A00000F21890488432C49886008468068616802
:100A100008432949886000BF2068C06818218843BE
:100A20002168C8602068C068A16808432168C86060
:100A3000214880680121490688431F49886008468B
:100A40008068A18E490608431B4988602068806839
:100A5000012109070840002804D120688068084364
:100A6000216888602068C068144908402168C8600F
:100A70002169E068022923D1042122E000240140F9
:100A80002E2E2F447269766572732F53544D333274
:100A90004C3078785F48414C5F4472697665722FBC
:100AA0005372632F73746D33326C3078785F686182
:100AB0006C5F6164632E6300002701401902FEFF32
:100AC000002108432021095D490308432C21095DC9
:100AD00049000843216B0843A16989030843E16980
:100AE000C90308432168C96808432168C860FF2119
:100AF000C231606A884207D0A16A606A08432168EF
:100B0000C96808432168C8602120005D012813D10D
:100B10002020005D002807D12068C0680121090459
:100B200008432168C86007E0606D202108436065C4
:100B3000A06D01210843A065E06B012865D1206C00
:100B4000002814D0206C042811D0206C08280ED066
:100B5000206C0C280BD0206C102808D0206C142896
:100B600005D0206C182802D0206C1C2800D104E08D
:100B700093218900364803F0F2FF606C002819D0F9
:100B8000606C202816D0606C402813D0606C602800
:100B900010D0606C80280DD0606CA0280AD0606CEA
:100BA000C02807D0606CE02804D0FF210131606CC0
:100BB000884200D103E02749254803F0D0FFA06C0C
:100BC000002804D001214902A06C884200D104E031
:100BD0002049491C1E4803F0C2FF20680069FF211C
:100BE0008900884321680861216C606C0843A16C0E
:100BF0000843216809690843216808612068006981
:100C000001210843216808610BE020680069C007E2
:100C1000C00F002805D02068006940084000216806
:100C2000086120684069C008C000216848612068E8
:100C30004069A16B0843216848610020A065606D90
:100C400002218843012108436065002023E500005C
:100C5000800A00084D0200007047000010B586B001
:100C60000446142101A8FFF792FA2249206888421D
:100C70003ED12148406B491508431F49486300BFD6
:100C80000846C06A042108431B49C8620846C06A76
:100C900004210840009000BF00BF00BF1648C06A92
:100CA000012108431449C8620846C06AC007C00F42
:100CB000009000BF00BF022001900320029000209E
:100CC000039001A90D4800F013F9E22001900320E0
:100CD00002900020039001A90520000700F008F908
:100CE000002211460C2000F083FB0C2000F04CFB8E
:100CF00006B010BD00240140001002400008005062
:100D0000F8B505460C4616460027002000902068DE
:100D1000002817D02068042814D020680C2811D08F
:100D2000206814280ED020682C280BD020681C289E
:100D300008D02068242805D02068342802D02068F4
:100D40003C2800D103E0224922A003F008FF60689C
:100D5000002802D06068022800D104E01C49491C28
:100D60001CA003F0FCFE002E01D0102E00D104E0E8
:100D7000A921890017A003F0F2FE00BF68790128BD
:100D800001D10220F8BD0120687100BF0220287146
:100D9000286807681D48B040394681430F4661689E
:100DA0002068084300900098B04007432868076017
:100DB00028680068C021B140884329680860012084
:100DC000287100BF0020687100BF00BFDAE7000093
:100DD000A20200002E2E2F447269766572732F5383
:100DE000544D33324C3078785F48414C5F447269DF
:100DF0007665722F5372632F73746D33326C307853
:100E0000785F68616C5F6461632E6300FE0F0000B1
:100E100010B50446002C01D1012010BD0C492068FA
:100E2000884200D104E0FF211E310AA003F097FEA2
:100E30002079002803D16071204600F027F80220B5
:100E4000207100202061012020710020E5E70000D2
:100E5000007400402E2E2F447269766572732F53F2
:100E6000544D33324C3078785F48414C5F4472695E
:100E70007665722F5372632F73746D33326C3078D2
:100E8000785F68616C5F6461632E630010B586B043
:100E90000446142101A8FFF77AF913492068884213
:100EA0001FD11248806B0121490708430F4988630D
:100EB00000BF0846C06A012108430C49C8620846C1
:100EC000C06AC007C00F009000BF00BF1020019093
:100ED000032002900020039001A90520000700F0E4
:100EE00007F806B010BD000000740040001002407A
:100EF000F8B506460C4600270020009000256068E3
:100F0000002826D06068012823D06068112820D0EE
:100F1000606802281DD0606812281AD0CA4960682B
:100F2000884216D0C9496068884212D0C8496068B2
:100F300088420ED0C749606888420AD0C6496068B6
:100F4000884206D0C5496068884202D0606803289C
:100F500000D103E0AE21C2A003F001FEA06800288A
:100F600005D0A068012802D0A068022800D103E0C3
:100F7000AF21BBA003F0F3FD05200007864208D196
:100F8000208880B2002804D0C449206808438842E1
:100F90003BD0C348864208D1208880B2002804D0C4
:100FA000BE492068084388422FD0BE48864208D1F7
:100FB000208880B2002804D0B849206808438842BD
:100FC00023D0B948864208D1208880B2002804D0B6
:100FD000B24920680843884217D0B448864208D1F5
:100FE000208880B2002804D0AC4920680843884299
:100FF0000BD0AF48864209D1AE492068084000288E
:1010000004D020680843884200D103E0B02194A0B6
:1010100003F0A5FD12E10121B940206808400090CD
:10102000009800287ED06068012808D060680228F7
:1010300005D06068112802D06068122829D1E068C4
:10104000002808D0E068012805D0E068022802D016
:10105000E068032800D103E0C02181A003F07FFDF8
:10106000B568790003208840294681430D46790000
:10107000E06888400543B56075680120B84029469E
:1010800081430D461021606808400009B8400543BF
:101090007560F568790003208840294681430D4634
:1010A0007900A06888400543F5606068022802D096
:1010B0006068122835D10520000786420ED0784896
:1010C00086420BD07748864208D07748864205D0C2
:1010D0007648864202D07648864200D103E0D82185
:1010E0005FA003F03CFD2069072800D803E0D92168
:1010F0005BA003F034FDF8088100304620304558ED
:101100007807C10E0F208840294681430D46790794
:10111000C90E206988400543F80881003046203018
:10112000455000E089E03568790003208840294671
:1011300081430D4620798007800F79008840054360
:1011400035600121090760680840884275D15A4816
:10115000406B01210843584948635848B908890041
:101160004558B807010F0F208840294681430D4696
:1011700005200007864201D1002019E04848864238
:1011800001D1012014E04748864201D102200FE03E
:101190004548864201D103200AE04448864201D1F5
:1011A000042005E04248864201D1052000E00620E7
:1011B000B907090F884005434048B90889004550E0
:1011C0003F4805682946009881430D4601210904DE
:1011D00060680840884201D100980543384805609E
:1011E00045682946009881430D46012149046068FD
:1011F0000840884201D10098054331484560856820
:101200002946009881430D46012109056068084080
:10121000884201D10098054329488560C568294660
:10122000009881430D4601214905606808408842C5
:1012300001D1009805432248C5607F1C2068F84012
:10124000002800D0E7E6F8BD0000111000002110D2
:1012500000003110000012100000221000003210B7
:101260002E2E2F447269766572732F53544D33328C
:101270004C3078785F48414C5F4472697665722FD4
:101280005372632F73746D33326C3078785F68619A
:101290006C5F6770696F2E6300000000FFFF000045
:1012A0000004005000080050000C005000100050D6
:1012B000001C00500306000000100240080001401E
:1012C0000004014001480068704700000000002051
:1012D00003480068034909784018014908607047CD
:1012E000000000200800002010B500240848006815
:1012F0004021084306490860002000F00BF8002850
:1013000001D0012401E000F02FF8204610BD0000BC
:101310000020024070B50446104801787D20C000CE
:10132000FEF7E8FE064631460D480068FEF7E2FE8D
:10133000054601F0C5FE002801D0012070BD042C37
:1013400007D200222146501E00F052F805480460E2
:1013500001E00120F2E70020F0E700000800002093
:101360000C000020040000200648406B01210843C7
:10137000044948630846806B0904084301498863AF
:10138000704700000010024010B50446002C00DB3E
:1013900003E0972106A003F0E2FB2046002805DBCE
:1013A000C206D20E01219140104A116000BF10BD4B
:1013B0002E2E2F447269766572732F53544D33323B
:1013C0004C3078785F48414C5F4472697665722F83
:1013D0005372632F73746D33326C3078785F686149
:1013E0006C5F636F727465782E63000000E100E04B
:1013F00070B505460C461646102C00D203E0872136
:1014000003A003F0ACFB2146284603F05DFB70BD52
:101410002E2E2F447269766572732F53544D3332DA
:101420004C3078785F48414C5F4472697665722F22
:101430005372632F73746D33326C3078785F6861E8
:101440006C5F636F727465782E63000003480068F8
:10145000FF210131084301490860704700700040D6
:10146000F8B504460027FE492068884200D803E00A
:101470006821FCA003F073FB20212068084020288D
:1014800004D089012068084088426FD1202120685B
:101490000840202823D1606800281BD0C90260685A
:1014A000884217D049006068884213D0032109049C
:1014B000606888420ED0132109046068884209D010
:1014C000232109046068884204D03321090460683C
:1014D000884200D103E07421E2A003F040FB012127
:1014E000C90220680840884223D1A06800281BD088
:1014F0004901A068884217D04900A068884213D0EB
:1015000003210904A06888420ED013210904A068B1
:10151000884209D023210904A068884204D03321DD
:101520000904A068884200D103E07A21CDA003F02D
:1015300016FBDB48806B012109070840002805D114
:10154000D748806B0843D64988630127D54800688F
:10155000FF2101310840002817D1D2480068084314
:10156000D0490860FFF7AEFE064607E0A3E0FFF7AC
:10157000A9FE801B642801D90320F8BDC948006872
:10158000FF21013108400028F1D0C548056803213A
:1015900009050D4060680840A84203D1A0680840D2
:1015A000A8420ED00321090460680840884208D18F
:1015B000BB480068012149040840884201D101204C
:1015C000DBE7B748403000690321090408400546BD
:1015D000002D48D060680840A84204D0202120682F
:1015E000084020280BD003210904A0680840A84225
:1015F00039D00121C90220680840884233D1A84867
:10160000403000690321090488430546A44840305E
:1016100000690121C9040843A14940310861084615
:1016200000690121C90488439D4940310861084689
:101630000561801528408915884214D1FFF742FEC4
:10164000064607E0FFF73EFE801B9749884201D916
:10165000032092E792484030006901214902084086
:10166000400A0028EED000BF00BF032109046068D3
:10167000084088420AD18A48006809018843032249
:1016800012056168114008438549086000BF84481D
:101690004030006903221204616811400843804908
:1016A0004031086100BF012F05D17D48806B89055D
:1016B00088437B4988632078C007C00F00281AD070
:1016C000E068002808D0E068012805D0E068032819
:1016D00002D0E068022800D103E0DD2161A003F020
:1016E0003EFA6F484030C06880088000E1680843D7
:1016F0006B494031C86002212068084002281AD195
:101700002069002808D02069042805D020690C2809
:1017100002D02069082800D103E0E82151A003F09D
:101720001EFA5F484030C0680C2188432169084395
:101730005B494031C860042120680840042820D15A
:10174000606900280DD009026069884209D0032130
:1017500089026069884204D00121C9026069884217
:1017600000D103E0F2213FA003F0F9F94C484030EA
:10177000C0680321890288436169084348494031B0
:10178000C86008212068084008281AD1A0690028EC
:1017900007D04902A069884203D04900A069884265
:1017A00000D103E0FC212FA003F0D9F93C484030E0
:1017B000C068032109038843A169084338494031BF
:1017C000C860FF2101312068084088421BD1E069D0
:1017D000002807D00902E069884203D04900E06987
:1017E000884200D104E0FF2108311EA003F0B7F9C0
:1017F0002B484030C068032109048843E16908434D
:1018000027494031C860402120680840402817D14E
:101810000905606A884202D0606A002800D104E0AD
:10182000FF2113310FA003F09AF91D484030C06822
:10183000012189068843616A084319494031C8601B
:10184000802120680840802845D1206A002833D0B4
:10185000C902206A88422FD04900206A884225E0C8
:10186000FF0900002E2E2F447269766572732F5384
:10187000544D33324C3078785F48414C5F44726944
:101880007665722F5372632F73746D33326C3078B8
:10189000785F68616C5F7263635F65782E630000D8
:1018A00000100240007000408813000004D00321A3
:1018B0008904206A884200D104E0FF211B310748D7
:1018C00003F04DF90648C068032189048843216A62
:1018D00008430349C86000204FE600006418000870
:1018E00040100240F8B504460D46002C01D10120FD
:1018F000F8BD2078C007C00F00280ED10221206853
:101900000840022809D0042120680840042804D097
:10191000082120680840082800D103E0BF49C0A082
:1019200003F01DF9002D01D0012D00D104E06D213F
:10193000C900BBA003F013F9C7480068C007C00F77
:10194000A84218D2C4480068400840002843C24951
:101950000860FFF7B7FC064607E0FFF7B3FC801B03
:10196000BE49884201D90320C2E7BB480068C007CE
:10197000C00FA842F1D1022120680840022828D1D6
:10198000A068002817D0A068802814D0A0689028EC
:1019900011D0A068A0280ED0A068B0280BD0A068F5
:1019A000C02808D0A068D02805D0A068E02802D0C0
:1019B000A068F02800D104E0E121890098A003F09C
:1019C000CEF8A748C068F0218843A1680843A4491D
:1019D000C8602078C007C00F00285ED0606800286B
:1019E00008D06068012805D06068022802D06068CD
:1019F000032800D104E08949243189A003F0AFF81D
:101A00006068022809D1964800680121490408400D
:101A1000400C002824D101206AE76068032809D11E
:101A20008F480068012149060840400E002817D160
:101A300001205DE76068012808D189480068042119
:101A40000840800800280BD1012051E78448006835
:101A5000012149020840400A002801D1012047E73E
:101A60007F48C06880088000616808437C49C8607E
:101A7000FFF728FC0646606802280FD107E0FFF751
:101A800021FC801B7549884201D9032030E7744846
:101A9000C0680C2108400828F1D134E060680328B0
:101AA0000FD107E0FFF70EFC801B6C49884201D97B
:101AB00003201DE76A48C0680C2108400C28F1D1BA
:101AC00021E0606801280FD107E0FFF7FBFB801BD6
:101AD0006249884201D903200AE76148C0680C21A5
:101AE00008400428F1D10EE007E0FFF7EBFB801B74
:101AF0005A49884201D90320FAE65948C0680C21A6
:101B000008400028F1D154480068C007C00FA8421F
:101B100018D9514800684008400028434E490860E1
:101B2000FFF7D0FB064607E0FFF7CCFB801B4B49D5
:101B3000884201D90320DBE647480068C007C00F90
:101B4000A842F1D1042120680840042824D1E0688B
:101B5000002812D00902E06888420ED0052109024F
:101B6000E068884209D003214902E068884204D035
:101B700007210902E068884200D104E027498E313C
:101B800027A002F0ECFF3648C0680721090288430D
:101B9000E16808433249C8600821206808400828E5
:101BA00025D12069002812D0C901206988420ED0B1
:101BB000052109022069884209D0032149022069D0
:101BC000884204D0072109022069884200D104E03C
:101BD000FF21890012A002F0C2FF2148C06807213E
:101BE000C90288432169C90008431D49C86000F043
:101BF0003FF81B49C968F02211400909194A515C94
:101C0000C8401949086019480068FFF783FB074678
:101C1000002F01D038466BE6002069E6670300001C
:101C20002E2E2F447269766572732F53544D3332C2
:101C30004C3078785F48414C5F4472697665722F0A
:101C40005372632F73746D33326C3078785F6861D0
:101C50006C5F7263632E63000020024088130000F3
:101C600000100240934B00080C00002004000020EC
:101C7000F0B585B03548C06803900C210398084042
:101C8000002852D0042804D008280CD00C284BD1AE
:101C90000BE02E48006810210840002801D02C4D90
:101CA00000E02C4D4EE02C4D4CE00F2189040398B0
:101CB0000840800C29490F5C0321890503980840DE
:101CC000800D441C2148C0680121090408400028F7
:101CD0000BD02148394602F05BFE224600230191D9
:101CE0000090FEF71DFA06461CE018480068102117
:101CF000084000280BD01648394602F049FE22461B
:101D0000002301910090FEF70BFA06460AE0114805
:101D1000394602F03DFE2246002301910090FEF775
:101D2000FFF9064635460DE000BF08484068072128
:101D300049030840400B02900298401C0121814059
:101D4000CD0300BF00BF284605B0F0BD0010024023
:101D500000093D000024F40000127A00AB4B00089B
:101D6000FEB50446002C01D10120FEBD20680028EC
:101D70001DD02078C007C00F002818D1022120688C
:101D80000840022813D020212068084020280ED0C7
:101D9000082120680840082809D00421206808404C
:101DA000042804D0102120680840102800D104E045
:101DB000FF216131EFA002F0D2FEFC48C7680C2180
:101DC0000F40C06801210904084001902078C00735
:101DD000C00F002871D06068002807D06068884272
:101DE00004D0052109046068884200D104E0FF2185
:101DF0006A31E0A002F0B3FE082F06D00C2F11D1FB
:101E000001210904019888420CD1E84800680121A9
:101E100049040840400C002863D06068002860D165
:101E20000120A2E700BF012109046068884205D1B2
:101E3000DE4800680843DD49086027E00521090401
:101E4000606888420ED1D94800680121890408439E
:101E5000D649086008460068012109040843D349AF
:101E6000086013E0D1480068012109048843CF4984
:101E7000086008460068012109040840009000BF7E
:101E8000CA48006889008843C849086000BF606884
:101E9000002813D0FFF716FA054606E0FFF712FAFE
:101EA000401B642801D903205FE7C0480068012176
:101EB00049040840400C0028F0D012E0FFF702FA75
:101EC000054606E0FFF7FEF9401B642801D9032010
:101ED0004BE7B6480068012149040840400C00283F
:101EE000F0D1022120680840022875D1E06800285E
:101EF0000ED0E06801280BD0E068092808D0E0681F
:101F0000202805D0E068212802D0E068292800D1E7
:101F100004E0FF219D3197A002F021FE20691F28D7
:101F200000D804E0FF219E3192A002F018FEE6687E
:101F300020203040002809D09C4800682021084318
:101F40009A4908602021304688430646042F04D071
:101F50000C2F34D10198002831D194480068042115
:101F600008408008002803D0002E01D10120FCE6A3
:101F70008E4840681F2109028843216909020843ED
:101F80008A494860084600680921884330438749E8
:101F90000860FFF76DFE8549C968F0221140090904
:101FA000834A515CC8408349086083480068FFF752
:101FB000B1F902900298002840D00298D5E6002E90
:101FC00024D07A4800680921884330437749086063
:101FD000FFF778F9054607E030E0FFF773F9401B9B
:101FE000022801D90320C0E6704800680421084097
:101FF00080080028F1D06D4840681F2109028843FD
:102000002169090208436949486017E06748006888
:102010004008400065490860FFF754F9054606E0AE
:10202000FFF750F9401B022801D903209DE65F48C5
:1020300000680421084080080028F1D110212068A0
:10204000084010287ED1002F65D15848006849010A
:102050000840400A002804D0E069002801D101208E
:1020600083E6206AFF2800D804E00121490241A04C
:1020700002F075FD606A00281CD001214903606AE6
:10208000884217D04900606A884213D0032149036F
:10209000606A88420ED00121C903606A884209D073
:1020A00005214903606A884204D003218903606ADC
:1020B000884200D103E041492EA002F050FD3B4888
:1020C0004068072149038843616A084337494860EB
:1020D000084640680002000A218C0906084333497B
:1020E0004860606A400B401C01218140C8032F49B1
:1020F000C968F022114009092D4A515CC8402D4998
:1021000008602D480068FFF705F902900298002842
:1021100018D0029829E6E069002802D0E069012879
:1021200000D104E04321C90012A002F018FDE069CB
:1021300000287DD01D480068FF21013108431B495C
:10214000086000E095E0FFF7BDF8054606E0FFF700
:10215000B9F8401B022801D9032006E6134800689D
:10216000012149020840400A0028F0D0206AFF28D7
:1021700026D82AE02E2E2F447269766572732F536B
:10218000544D33324C3078785F48414C5F4472692B
:102190007665722F5372632F73746D33326C30789F
:1021A000785F68616C5F7263632E630000100240A9
:1021B000934B00080C0000200400002001020000E6
:1021C0008B218900FE4802F0CAFC606A00281CD0FE
:1021D00001214903606A884217D04900606A884239
:1021E00013D003214903606A88420ED00121C9033C
:1021F000606A884209D005214903606A884204D098
:1022000003218903606A884200D103E0ED49EC486C
:1022100002F0A5FCEC484068072149038843616A45
:102220000843E9494860084640680002000A00E0A7
:1022300005E0218C09060843E349486019E0E248BB
:102240000068FF2101318843DF490860FFF73AF851
:10225000054606E0FFF736F8401B022801D90320A7
:1022600083E5D9480068012149020840400A002856
:10227000F0D1082120680840082845D1606900286D
:1022800002D06069012800D104E0CE491E31CC485B
:1022900002F065FC606900281BD0CB484030006923
:1022A00001210843C84940310861FFF70BF8054692
:1022B00006E0FFF707F8401B022801D9032054E588
:1022C000C148403000690221084040080028F0D091
:1022D0001AE0BD484030006940084000BA4940312A
:1022E0000861FEF7EFFF054606E0FEF7EBFF401B37
:1022F000022801D9032038E5B348403000690221A3
:10230000084040080028F0D1042120680840042833
:1023100077D100200090A068002808D08901A0682B
:10232000884204D005210902A068884200D104E057
:10233000A4494A31A24802F012FCA348806B012153
:1023400009070840002806D19F48806B08439E4932
:102350008863012000909D480068FF2101310840FA
:10236000002816D199480068084398490860FEF78C
:10237000A9FF054606E0FEF7A5FF401B642801D92A
:102380000320F2E491480068FF2101310840002851
:10239000F1D000BFFF210131A068884207D18A48EF
:1023A0004030006908438849403108613AE0A0683C
:1023B000002810D1844840300069FF210131884352
:1023C00081494031086108460069091588437E4902
:1023D0004031086126E005210902A068884211D138
:1023E000794840300069012189020843764940312B
:1023F000086108460069891508437349403108613E
:1024000010E049E0704840300069FF210131884305
:102410006D494031086108460069091588436A49D9
:102420004031086100BFA068002815D0FEF74AFFC0
:10243000054607E0FEF746FF401B6549884201D983
:10244000032092E4604840300069012149020840BD
:10245000400A0028EED014E0FEF734FF054607E0FE
:10246000FEF730FF401B5A49884201D903207CE423
:10247000554840300069012149020840400A0028BF
:10248000EED10098012806D14F48806B0121090741
:1024900088434D49886300BF2021206808402028D8
:1024A00057D1A069002802D0A069012800D104E01A
:1024B00044499231424802F052FBA069002827D0DB
:1024C00000BF41488068012108433F4988600846B1
:1024D000406B012108433C4948633E48006A0121A2
:1024E000490308433B49086200BFFEF7EBFE05467F
:1024F00006E0FEF7E7FE401B022801D9032034E482
:10250000314880680221084040080028F1D020E0CE
:1025100000BF2D488068400840002B4988602D4846
:10252000006A0121490388432A49086200BFFEF777
:10253000C9FE054606E0FEF7C5FE401B022801D98C
:10254000032012E420488068022108404008002847
:10255000F1D1A06A002805D0A06A012802D0A06AA3
:10256000022800D104E01749BC31154802F0F7FAFF
:10257000A06A002874D00C2F73D0A06A022871D1F1
:10258000E06A002804D001210904E06A884200D1F1
:1025900004E00C49C5310A4802F0E1FA206B00283A
:1025A00033D001218904206B88422ED04900206B52
:1025B00088422AD003218904206B884225D00BE071
:1025C000742100082D02000000100240007000403D
:1025D000881300000000014001210905206B88429A
:1025E00013D005218904206B88420ED00321C90431
:1025F000206B884209D007218904206B884204D0CF
:1026000001214905206B884200D103E04B494C4829
:1026100002F0A5FA01218905606B884208D04900C3
:10262000606B884204D003218905606B884200D129
:1026300004E0BD218900424802F091FA4148006857
:102640000121090688433F490860FEF73BFE054625
:1026500009E0FEF737FE401B022804D9032023E4DB
:102660006AE04BE02FE03748006801214906084046
:10267000400E0028EDD1216BE06A0843616B0843EE
:102680003049C968FD221204914308432D49C860AE
:10269000084600680121090608432A490860FEF738
:1026A00011FE054606E0FEF70DFE401B022801D98B
:1026B00003200DE423480068012149060840400E2C
:1026C0000028F0D038E01F4800680121090688433F
:1026D0001C490860FEF7F6FD054606E0FEF7F2FD30
:1026E000401B022801D9032041E41648006801215B
:1026F00049060840400E0028F0D11DE0A06A0128DC
:1027000000D134E40F48C068019001210904019808
:102710000840E16A88420DD10F21890401980840E0
:10272000216B884206D10321890501980840616B1D
:10273000884201D001201AE4002018E4F3020000CE
:102740007421000800100240F8B504460F461546F3
:10275000002D09D0012D07D0022D05D0032D03D067
:10276000042D01D0062D00D103E0594959A002F0F3
:10277000F6F96748874200D804E05549491C55A03E
:1027800002F0EDF900BF2020005D012801D10220F8
:10279000F8BD01212020015500BF02212120015553
:1027A00000BFCA202168486253202168486200BFE8
:1027B00020688068012189020840002820D0FEF7A7
:1027C00081FD064615E0FEF77DFD801B7D21C900D9
:1027D00088420ED900BFFF202168486200BF032154
:1027E0002120015500BF00212020015500BF0320FA
:1027F000CEE72068C0680421084080080028E2D1A4
:1028000020688068012189028843216888602068E7
:10281000C068802108403F4908432168C860FEF72E
:1028200051FD064615E0FEF74DFD801B7D21C900D8
:1028300088420ED900BFFF202168486200BF0321F3
:102840002120015500BF00212020015500BF032099
:102850009EE72068C0680421084080080028E2D074
:102860002068476120688068C008C00021688860CF
:102870002068806828432168886027480068012113
:1028800009050843244908600846806801210905B4
:102890000843214988602068806801218903084332
:1028A00021688860206880680121890208432168C6
:1028B000886000BFFF202168486200BF01212120FD
:1028C000015500BF00212020015500BF00205FE717
:1028D000110400002E2E2F447269766572732F53F7
:1028E000544D33324C3078785F48414C5F447269C4
:1028F0007665722F5372632F73746D33326C307838
:10290000785F68616C5F7274635F65782E63000046
:10291000FFFF00007FFBFFFF000401407047000045
:1029200010B504462068C068012189020840800A69
:1029300000280AD02046FFF7F1FF2068C0688021F8
:102940000840064908432168C86001200005044981
:10295000486101212120015510BD00007FFBFFFFD0
:102960000004014010B50446002C01D1012010BD27
:1029700069492068884200D103E0F02167A002F095
:10298000EEF86068402802D06068002800D103E0BB
:10299000F12162A002F0E3F8A0687F2800D803E0EC
:1029A000F2215EA002F0DBF86A49E068884200D8B4
:1029B00003E0F32159A002F0D2F8206900280DD0DD
:1029C000012149052069884208D0490020698842D0
:1029D00004D0032149052069884200D103E0F42195
:1029E0004EA002F0BCF86069002802D0606902289D
:1029F00000D103E0F52149A002F0B1F8A069002858
:102A000004D001210905A069884200D103E0F62124
:102A100042A002F0A4F8E069002802D0E069012891
:102A200000D103E0F7213DA002F099F82120005DDC
:102A3000002805D1002120200155204600F08EF805
:102A400002212120015500BFCA202168486253207D
:102A50002168486200BF204601F010FF002809D01D
:102A600000BFFF202168486200BF042121200155DA
:102A700001207CE720688068374908402168886029
:102A8000216960680843A16908432168896808438F
:102A9000216888602168E0680861206800692189F0
:102AA00009040843216808612068C06880218843C0
:102AB0002168C8602068C06C800880002168C864F4
:102AC0006169E06908432168C96C08432168C864EA
:102AD0002068806820210840002813D1204600F09B
:102AE000D1FA00280ED000BFFF202168486200BF45
:102AF00004212120015500BF00212020015500BFE5
:102B0000012034E700BFFF202168486200BF012197
:102B10002120015500202AE7002800402E2E2F44B6
:102B20007269766572732F53544D33324C30787816
:102B30005F48414C5F4472697665722F5372632F10
:102B400073746D33326C3078785F68616C5F727467
:102B5000632E6300FF7F0000BFFF8FFF10B50446A8
:102B60000949206888420ED108480069012189047A
:102B7000084306490861002211460220FEF738FC8E
:102B80000220FEF701FC10BD00280040401002406A
:102B9000F8B505460C461646002E01D0012E00D190
:102BA00003E07A497AA001F0DAFF00BF2020405DFF
:102BB000012801D10220F8BD01212020415500BF8C
:102BC000022121204155002E09D1607810210840B2
:102BD000102804D16078EF2108400A306070207816
:102BE000012811D0207802280ED0207803280BD09D
:102BF0002078042808D02078052805D020780628D9
:102C000002D02078072800D104E060490C3160A090
:102C100001F0A5FF002E32D1E078632800D804E04F
:102C20005A4910315AA001F09AFF6078002803D069
:102C300060780C2800D804E0E921890054A001F054
:102C40008EFFA078002803D0A0781F2800D804E0C9
:102C50004E4912314EA001F082FFE07801F000FEF3
:102C60000704607801F0FCFD00020743A07801F042
:102C7000F7FD0743207840030743009735E0E078ED
:102C800001F0E2FD632800D804E040491B3140A078
:102C900001F065FF607801F0D7FD002805D060786D
:102CA00001F0D2FD0C2800D804E038491C3138A0CE
:102CB00001F055FFA07801F0C7FD002805D0A078ED
:102CC00001F0C2FD1F2800D804E03B21090130A01B
:102CD00001F045FFE0780004617809020843A1781B
:102CE0000843217849030843009000BFCA2029689F
:102CF000486253202968486200BF284601F0BEFDA3
:102D000000280ED000BFFF202968486200BF0421C0
:102D10002120415500BF00212020415500BF012046
:102D200049E7294900980840296848602868C06830
:102D3000802188432968C86028688068202108406D
:102D4000002813D1284600F09DF900280ED000BFBE
:102D5000FF202968486200BF04212120415500BF9F
:102D600000212020415500BF012024E700BFFF20A3
:102D70002968486200BF01212120415500BF002180
:102D80002020415500BF002015E7000093030000FC
:102D90002E2E2F447269766572732F53544D333241
:102DA0004C3078785F48414C5F4472697665722F89
:102DB0005372632F73746D33326C3078785F68614F
:102DC0006C5F7274632E63003FFFFF00F8B5054629
:102DD0000C461646002E01D0012E00D103E0994981
:102DE00099A001F0BCFE01214904E068884206D0A8
:102DF0004910E068884202D0E068002800D104E071
:102E00009049491C90A001F0AAFE2069002804D036
:102E1000012189042069884200D104E08949891C84
:102E200089A001F09CFE00BF2020405D012801D157
:102E30000220F8BD01212020415500BF02212120A0
:102E40004155002E4DD12868806840210840002857
:102E500018D02078002803D020780C2800D804E06F
:102E600078490D3178A001F07AFEE078002802D090
:102E7000E078402800D110E072490E3172A001F0D4
:102E80006EFE0AE00020E0702078172800D804E0E9
:102E9000BD2189006CA001F062FE60783B2800D85B
:102EA00004E06849153168A001F059FEA0783B287C
:102EB00000D804E06349163163A001F050FE207889
:102EC00001F0CEFC0704607801F0CAFC0002074361
:102ED000A07801F0C5FC0743E078000407430097A1
:102EE00050E0286880684021084000281CD02078E5
:102EF00001F0AAFC002805D0207801F0A5FC0C28E0
:102F000000D804E04F4921314FA001F028FEE078BD
:102F1000002802D0E078402800D112E0494922314F
:102F200049A001F01CFE0CE00020E070207801F0C8
:102F30008BFC172800D804E06121C90042A001F0F1
:102F40000EFE607801F080FC3B2800D804E03D498B
:102F500029313DA001F003FEA07801F075FC3B286B
:102F600000D804E037492A3137A001F0F8FD207875
:102F70000004617809020843A1780843E178090454
:102F80000843009000BFCA2029684862532029687E
:102F9000486200BF284601F071FC00280ED000BF37
:102FA000FF202968486200BF04212120415500BF4D
:102FB00000212020415500BF01203AE73049009808
:102FC00008402968086028688068012189048843CE
:102FD000296888602169E06808432968896808438E
:102FE000296888602868C068802188432968C8608B
:102FF0002868806820210840002813D1284600F066
:1030000041F800280ED000BFFF202968486200BFA9
:1030100004212120415500BF00212020415500BF3F
:10302000012006E700BFFF202968486200BF012198
:103030002120415500BF00212020415500BF002024
:10304000F7E60000E10200002E2E2F44726976653B
:1030500072732F53544D33324C3078785F48414C63
:103060005F4472697665722F5372632F73746D3388
:10307000326C3078785F68616C5F7274632E6300C5
:103080007F7F7F0070B504462068C068A021884318
:103090002168C860FEF716F9054608E0FEF712F948
:1030A000401B7D21C900884201D9032070BD2068E2
:1030B000C068202108400028F0D00020F6E700007A
:1030C00070B504462546681E0949884201D9012089
:1030D0000CE0681E074948610321081F01F0F4FC59
:1030E00000200449886107200861002070BD0000AD
:1030F000FFFFFF0000E000E000BFFEE730B54B1E21
:10310000054CE35CC35803242403A34313434C1E20
:10311000014D2C5D035130BD8C4B000830B54B1E6A
:10312000054CE35CC358054C234013434C1E024D31
:103130002C5D035130BD00008C4B0008EFBFFFFF3A
:1031400030B54B1E054CE35CC3588024A3431343A6
:103150004C1E024D2C5D035130BD00008C4B00080D
:1031600030B54B1E054CE35CC3580324A402A343B3
:1031700013434C1E014D2C5D035130BD8C4B000898
:1031800030B54B1E054CE35CC3582024A3431343C6
:103190004C1E024D2C5D035130BD00008C4B0008CD
:1031A00030B54B1E054CE35CC3584024A343134386
:1031B0004C1E024D2C5D035130BD00008C4B0008AD
:1031C00030B5A8231B584C1EA5000F24AC40A343C8
:1031D0004C1EA5001446AC402343A824235030BD08
:1031E00030B54B1E054CE35CC35803242402A343B3
:1031F00013434C1E014D2C5D035130BD8C4B000818
:10320000024949688143014A516070470004014006
:10321000024909688143014A116070470004014076
:10322000024949680143014A516070470004014066
:103230000249C9680143014AD16070470004014056
:10324000024909680143014A1160704700040140C6
:10325000024989680143014A9160704700040140B6
:1032600070B5044600251921C906206808400028C9
:1032700000D103E06D2143A001F071FC207900280A
:1032800002D02079012800D103E06E213DA001F099
:1032900066FC6079002805D06079012802D0607949
:1032A000022800D103E06F2136A001F058FC2079FC
:1032B00000285ED0A079002808D0A079012805D088
:1032C000A079022802D0A079032800D103E074215C
:1032D0002CA001F044FC2068002850D06079002820
:1032E00004D0012809D0022815D10DE02068FFF78D
:1032F00087FF2068FFF7A4FF0FE02068FFF788FF33
:103300002068FFF78DFF08E02068FFF799FF20682D
:10331000FFF786FF01E0012500BF00BFA07900286C
:103320002DD0A079012804D002280DD003281DD16A
:1033300015E020682149C9688143204AD16000BF57
:103340002068FFF785FF13E020681C4989688143E6
:103350001A4A916000BF2068FFF76AFF08E0206802
:10336000FFF776FF2068FFF763FF01E0012500BF4C
:1033700005E02068FFF74CFF2068FFF741FF284673
:1033800070BD00002E2E2F447269766572732F5324
:10339000544D33324C3078785F48414C5F44726909
:1033A0007665722F5372632F73746D33326C30787D
:1033B000785F6C6C5F657874692E6300000401406F
:1033C000F8B506460C460027002505200007864272
:1033D0000ED0764886420BD07548864208D0754894
:1033E000864205D07448864202D07448864200D195
:1033F00003E0A32172A001F0B2FB2068002804D9E9
:103400007D492068884200D803E0A4216CA001F027
:10341000A6FB6068002808D06068012805D06068B5
:10342000022802D06068032800D103E0A52164A02F
:1034300001F095FB2069002805D02069012802D001
:103440002069022800D103E0A6215DA001F087FBDE
:10345000A6E00121B940206808400546002D79D03A
:103460006068012802D06068022832D1A068002874
:1034700008D0A068012805D0A068022802D0A06862
:10348000032800D103E0B7214DA001F068FBA0683C
:10349000B1682A466A435300D21891432A466A43C8
:1034A00042431143B16000BFE068002802D0E068E9
:1034B000012800D103E0BD2141A001F050FBE168EB
:1034C00020687268824303464B431A43726000BF10
:1034D00000BF2069F1682A466A435300D21891431D
:1034E0002A466A4342431143F16000BF60680228E4
:1034F00047D16069002814D06069012811D0606943
:1035000002280ED0606903280BD06069042808D017
:103510006069052805D06069062802D0606907281F
:1035200000D103E0C92126A001F019FBFF2D12D81C
:103530006069316A2A466A436A436A4313019A1AE8
:1035400091432A466A436A436A43424311433162C4
:1035500000BF16E023E06369280A4043290A484374
:10356000290A48430101091A706A8843290A494314
:103570002A0A51432A0A514359430843706200BF43
:1035800000BF606831682A466A435300D2189143ED
:103590002A466A4342431143316000BF00BF7F1C8B
:1035A0002068F840002800D053E7F8BD0004005020
:1035B00000080050000C005000100050001C00508B
:1035C0002E2E2F447269766572732F53544D333209
:1035D0004C3078785F48414C5F4472697665722F51
:1035E0005372632F73746D33326C3078785F6C6C08
:1035F0005F6770696F2E6300FFFF00008162704794
:1036000030B503680C464C4365006419A3430C466F
:103610004C4354432343036030BD30B5C3680C466C
:103620004C4365006419A3430C464C435443234365
:10363000C36030BD08B50549C96A0143034AD16278
:103640001146C96A0140009100BF08BD0010024048
:1036500008B50549C96A0143034AD1621146C96ADE
:103660000140009100BF08BD00100240F0B585B0D8
:1036700005460C46012003906148854200D103E0D5
:10368000A12160A001F06BFA6D492068884203D83F
:103690002068082800D303E0A2215AA001F05FFAB5
:1036A000012109076068884206D06068002803D0BD
:1036B00009146068884200D103E0A32151A001F001
:1036C0004EFAA068002804D001214903A06888426E
:1036D00000D103E0A4214BA001F041FAE0680028EA
:1036E00009D001218902E068884204D003214902FF
:1036F000E068884200D103E0A52142A001F02FFA42
:103700002069002808D02069042805D020690828ED
:1037100002D020690C2800D103E0A62139A001F0D5
:103720001EFA606900280DD0FF21013160698842CE
:1037300008D049006069884204D003210902606909
:10374000884200D103E0A7212EA001F008FA00BFB3
:103750002868C007C00F01214840484000284CD1CC
:10376000E16860680843216908432968354A1140C7
:1037700008432860A068696803221203914301434B
:10378000696000BF6069A968121191430143A96093
:1037900000BF900000F05AF80746002F2DD0206897
:1037A00000282AD00020039002972668002E10D00F
:1037B000FF210131029801F0EBF872080023801814
:1037C0005941324601910090FCF7AAFC1E4908407D
:1037D000E86000BFE86803210902884200D303E0E3
:1037E000D62108A001F0BBF9E8681749884200D843
:1037F00003E0D92103A001F0B2F9039805B0F0BDB0
:10380000004800402E2E2F447269766572732F5344
:10381000544D33324C3078785F48414C5F44726984
:103820007665722F5372632F73746D33326C3078F8
:10383000785F6C6C5F6C70756172742E6300000051
:1038400040BEA100F3E9FFEFFFFF0F00F8B504460B
:10385000002503208002844200D104E0FF21AD3125
:103860001BA001F07CF900BF2748C0682040002859
:1038700020D001218902401A04D0401A06D0401AF3
:1038800017D10FE000F072FF05461DE000F0F0F8E0
:10389000002806D000F0F4F8002801D01B4D00E00D
:1038A0001B4D11E000F0F4F8002801D00125ED03D4
:1038B0000AE000BF00F05AFF074600F021FF06466D
:1038C00000F030FF054600BF00BF2846F8BD0000ED
:1038D0002E2E2F447269766572732F53544D3332F6
:1038E0004C3078785F48414C5F4472697665722F3E
:1038F0005372632F73746D33326C3078785F6C6CF5
:103900005F7263632E6300004010024000093D00B7
:103910000024F40010B5044600F028FF2060206861
:1039200000F0EEFE6060606800F0FCFEA060606881
:1039300000F00AFFE06010BDF8B504460025032C36
:1039400001D00C2C00D103E0FC2134A001F007F9D8
:10395000032C2FD1204600F081F82104401A1ED0FC
:10396000012804D0022806D0032817D10FE000F068
:10397000FDFE05461DE000F07BF8002806D000F0B3
:103980007FF8002801D0334D00E0334D11E000F006
:103990007FF8002801D00125ED030AE000BF00F008
:1039A000E5FE074600F0ACFE064600F0CDFE0546FB
:1039B00000BF00BF0C2C2FD1204600F04FF821048F
:1039C000401A1ED0042804D0082806D00C2817D18D
:1039D0000FE000F0CBFE05461DE000F049F800289E
:1039E00006D000F04DF8002801D01A4D00E01A4D25
:1039F00011E000F04DF8002801D00125ED030AE0A8
:103A000000BF00F0B3FE074600F07AFE064600F065
:103A100089FE054600BF00BF2846F8BD2E2E2F4464
:103A20007269766572732F53544D33324C30787807
:103A30005F48414C5F4472697665722F5372632F01
:103A400073746D33326C3078785F6C6C5F72636363
:103A50002E63000000093D000024F40001460348E5
:103A6000C06808400A04104370470000401002403C
:103A70000248006804210840800870470010024096
:103A800002480068102108400009704700100240F9
:103A900003480069012149020840400A70470000BC
:103AA000401002400248406807214903084070471F
:103AB0000010024010B5084A0B069B0DD2580C0CA2
:103AC0000F23A3409A430C0C0346A3401A43024B16
:103AD0000C06A40D1A5110BD08000140F0B589B0C4
:103AE00005460C4601200890002007908648854234
:103AF00008D08648854205D08548854202D0854851
:103B0000854200D103E0C72183A001F028F8914944
:103B10002068884200D803E0C8217FA001F01FF888
:103B2000012109076068884206D06068002803D038
:103B300009146068884200D103E0C92176A001F031
:103B40000EF801210903A06888420CD0A068002863
:103B500009D003210903A068884204D00121490348
:103B6000A068884200D103E0CA216BA000F0F7FFF3
:103B7000E068002809D001218902E068884204D069
:103B800003214902E068884200D103E0CB2162A012
:103B900000F0E5FF2069002808D02069042805D03E
:103BA0002069082802D020690C2800D103E0CC212C
:103BB00059A000F0D4FF606900280DD0FF21013129
:103BC0006069884208D049006069884204D00321B6
:103BD00009026069884200D103E0CD214EA000F0C7
:103BE000BEFFA069002804D00121C903A069884252
:103BF00000D103E0CE2148A000F0B1FF284600F03C
:103C0000AFF800287DD1E168606808432169084366
:103C1000A16908432968504A114008432860A068F8
:103C200069680322120391430143696000BF606920
:103C3000A968121191430143A96000BF324885422F
:103C400004D10320FFF778FE079018E02F48854243
:103C500004D10C20FFF770FE079010E02C4885423D
:103C600005D103A8FFF756FE0598079007E02948FD
:103C7000854204D103A8FFF74DFE059807900798E9
:103C800000283ED0206800283BD000200890079FE5
:103C9000A069029026680121C9030298884214D1C4
:103CA0007900720888183146FCF724FA80B2019036
:103CB0002A4901980840009001980007400F009998
:103CC000084300900098E86006E07108C819314682
:103CD000FCF710FA80B2E86000BFE868102800D353
:103CE00004E0FF2124310CA000F039FFE8681B49F3
:103CF0000F31884200D804E0FF21273106A000F0F0
:103D00002EFF089809B0F0BD003801400044004083
:103D1000004C0040005000402E2E2F447269766502
:103D200072732F53544D33324C3078785F48414C86
:103D30005F4472697665722F5372632F73746D33AB
:103D4000326C3078785F6C6C5F75736172742E635F
:103D50000000000000093D00F369FFEFF0FF0000E4
:103D600001460868C007C00F01225040504070470C
:103D70001CB50020009001903548364908600021AC
:103D80003448C16309208004324948600021314829
:103D9000816006218163012101610021C160001D54
:103DA00001774177001F8162FF21C231416200210A
:103DB0002430017204212438416189020163012108
:103DC00081614163C161FCF761FC002801D0FCF70F
:103DD0003DFA214800908013019069461D48FCF788
:103DE00039FA002801D0FCF731FA1C4800906946E6
:103DF0001848FCF72FFA002801D0FCF727FA1848DA
:103E0000009069461348FCF725FA002801D0FCF71A
:103E10001DFA1448009069460E48FCF71BFA00286A
:103E200001D0FCF713FA1048009069460948FCF7E6
:103E300011FA002801D0FCF709FA0C4800906946F5
:103E40000448FCF707FA002801D0FCF7FFF91CBD75
:103E50000024014010000020020000042000001493
:103E6000400000188000001C0008002C00000244E4
:103E70001CB50020009001900B480C4908600846D2
:103E8000FCF7C6FF002801D0FCF7E0F90020009005
:103E90000190002269460548FCF732FF002801D056
:103EA000FCF7D4F91CBD0000007400406C00002039
:103EB00008B500BF0D48006B012108430B4908639A
:103EC0000846006BC007C00F009000BF00BF002174
:103ED0000A2000F081FD0A20002805DBC206D20E70
:103EE00001219140024A116000BF08BD001002404C
:103EF00000E100E000B589B000200790089018218B
:103F000001A8FCF744F90420FFF794FB8020FFF799
:103F100091FB0120FFF78EFB0220FFF78BFB0820AF
:103F2000FFF788FB01214903FE48FFF767FB0121EA
:103F3000FC48FFF763FB0821FA48FFF75FFB01210C
:103F40000903F948FFF75AFB0121C90305200007BF
:103F5000FFF754FB01218902F248FFF74FFB0121D3
:103F6000C902F048FFF74AFB01210903ED48FFF7BA
:103F700045FB0421ED48FFF741FB8021EA48FFF7AC
:103F80003DFBFF210131E848FFF738FB01214902E1
:103F9000E548FFF733FB2020E349886100BF0002BA
:103FA000019001200290002003900490059001A947
:103FB000DC48FFF705FA0120019000200290022062
:103FC000059001A9DA48FFF7FBF9022001900020D3
:103FD00002900220059001A9D548FFF7F1F90120D0
:103FE000019002900020039004900220059001A906
:103FF000CC48FFF7E5F9042001900320029000204F
:10400000059001A9C748FFF7DBF9082001900120BE
:104010000290002003900490059001A9C148FFF789
:10402000CFF90120019000200290059001A9052000
:104030000007FFF7C5F904200190002002900590C9
:1040400001A905200007FFF7BBF908200190002017
:104050000290059001A905200007FFF7B1F9102093
:104060000190032002900020059001A9AD48FFF7C0
:10407000A7F920200190032002900020059001A9BB
:10408000A848FFF79DF9012001900320029000202D
:10409000059001A9A448FFF793F90220019003209D
:1040A00002900020059001A99F48FFF789F901209F
:1040B00000030190012002900020039004900590DD
:1040C00001A99948FFF77CF90120400301900320E2
:1040D00002900020059001A99348FFF771F9012093
:1040E000C0030190032002900020059001A98E4892
:1040F000FFF766F940200190032002900020059010
:1041000001A98848FFF75CF9FF20013001900320E6
:1041100002900020059001A905200007FFF750F943
:104120000120C0020190032002900020059001A907
:1041300005200007FFF744F9012000030190032048
:1041400002900020059001A905200007FFF738F92B
:104150000120C003019001200290002003900490F0
:104160000220059001A905200007FFF729F9012089
:10417000800201900120029000200390049005909D
:1041800001A96848FFF71CF90120C0020190012035
:104190000290002003900490059001A96148FFF768
:1041A0000FF90120000301900120029000200390EC
:1041B0000490059001A95B48FFF702F904200190E3
:1041C00001200290002003900490059001A9574817
:1041D000FFF7F6F8082001900320029000200590D8
:1041E00001A95148FFF7ECF820200190012002902E
:1041F000002003900490059001A94B48FFF7E0F8D8
:1042000040200190032002900020059001A946481B
:10421000FFF7D6F880200190012002900020039043
:104220000490059001A94048FFF7CAF8FF2001302B
:10423000019001200290002003900490059001A9B4
:104240003948FFF7BDF8012040020190012002909B
:104250000020039004900220059001A93248FFF746
:10426000AFF80121C9040120FFF724FC31490120E6
:10427000FFF720FC30490220FFF71CFC0221084612
:10428000FFF718FC2D490220FFF714FC0121084616
:10429000FFF710FC002204212348FFF7BEF900229B
:1042A000012189032048FFF7B8F9002280211D4829
:1042B000FFF7B3F90022FF2101311A48FFF7ADF9EA
:1042C0000022012149021748FFF7A7F90022102117
:1042D0001548FFF7A2F9002204211348FFF790F9CF
:1042E0000022012189031048FFF78AF9002280216A
:1042F0000C48FFF785F90022FF2101310948FFF73B
:104300007FF90022012149020648FFF779F90022CE
:1043100010210548FFF774F904200790012108A82F
:1043200001700DE00008005000040050000C005027
:10433000001C00500300080001000C0002000400F3
:10434000002141700121817007A8FEF789FF01203B
:1043500080030790012108A801700021417001210C
:10436000817007A8FEF77CFF80200790012108A834
:104370000170002141700121817007A8FEF770FFD4
:10438000FF2001300790012108A801700021417031
:104390000121817007A8FEF763FF0120400207900A
:1043A000012108A80170002141700121817007A836
:1043B000FEF756FF10200790012108A80170002188
:1043C00041700121817007A8FEF74AFF09B000BDC6
:1043D00000BF10481049086000BF00BF0F480860C8
:1043E00000BF0620486000BF0D48886000BF00BFC6
:1043F00000BF0948C0684007400F002801D10120D4
:1044000000E000200128F3D100BF064802490860FF
:1044100000BF7047CCCC0000003000405555000074
:10442000FF0F0000AAAA000000B58DB0182107A850
:10443000FBF7ADFE182101A8FBF7A9FE01208004BF
:104440002249896B0143214A91631146896B0140DE
:10445000009100BF00BF0220FFF7FAF801208002A0
:104460000190022002900320039000200490059008
:104470000420069001A91648FEF7A2FF0120C00201
:1044800001900220029003200390002004900590E8
:104490000420069001A90E48FEF792FF00211D207E
:1044A00000F0D6FA1D2000F08BFAE12040020790C0
:1044B0000020089009900A900C200B9000200C908E
:1044C00007A90448FFF7D2F80DB000BD0010024064
:1044D000000400500048004000B587B0142102A835
:1044E000FBF755FE0020019020482149086000207C
:1044F00048607F211E488160FF21C1600021016169
:1045000041618161C161FEF72DFA002801D0FBF7FE
:104510009DFE002168460172417281720020059063
:104520000690012202A91248FEF750FC002801D093
:10453000FBF78CFE012168460171417181710021F8
:10454000C171012201A90A48FEF722FB002801D00F
:10455000FBF77CFE002211460548FEF7F5F800281F
:1045600001D0FBF773FE07B000BD0000002800403B
:104570008000002000B58FB01C2108A8FBF707FEC3
:10458000182102A8FBF703FE012080035749496B5D
:104590000143564A51631146496B0140019100BFE6
:1045A00000BF0120FFF754F80120400202900220D2
:1045B00003900320049000200590069004200790AB
:1045C00002A905200007FEF7FBFE012080020290F1
:1045D0000220039003200490002005900690042000
:1045E000079002A905200007FEF7EAFE0322022138
:1045F0003F48FEF7E5FD102202213D48FEF78EFD03
:10460000002202213A48FEF779FD002202213848B3
:10461000FEF7B6FD002202213548FEF7C1FD8022DB
:1046200002213348FEF78CFD002202213048FEF7BC
:10463000D7FD002202212E48FEF792FD03221146EB
:104640002B48FEF7BDFD002203212948FEF766FD39
:10465000002203212648FEF751FD002203212448B1
:10466000FEF78EFD002203212148FEF799FD8022EE
:1046700003211F48FEF764FD002203211C48FEF7BA
:10468000AFFD002203211A48FEF76AFD00211B201E
:1046900000F0DEF91B2000F093F9E12040020890C1
:1046A000002009900A900B900C200C9000200D9097
:1046B0000E9008A90F48FFF711FA00BF0D48406897
:1046C0000921C90288430B494860084680682A21AD
:1046D00088430849886000BF00BF08460068012180
:1046E00008430449086000BF0FB000BD001002403D
:1046F000000002400038014000BFFEE770470000A4
:10470000014600BF0548C068F02210401040000973
:10471000034A125C0846D040704700000010024077
:10472000934B0008014600BF0548C06807221202EB
:104730001040000A034A125C0846D040704700004F
:1047400000100240A34B0008014600BF0548C068A6
:104750000722D2021040C00A034A125C0846D04029
:104760007047000000100240A34B000810B500BFC6
:104770001648C0680C210840002806D004280CD038
:10478000082812D00C2816D111E0FFF78BF9400B46
:10479000401C01218140CC0315E0FFF771F900288E
:1047A00001D00B4C00E00B4C0DE00B4C0BE000F08B
:1047B00015F8044607E0FFF775F9400B401C01218E
:1047C0008140CC0300BF00BF204610BD0010024056
:1047D00000093D000024F40000127A00F8B500BF83
:1047E0001448C0680121090408400546002D07D17E
:1047F000FFF746F9002801D00F4C00E00F4C01E014
:104800000F4C00BF00BF00BF0A48C06803218905E4
:104810000840800D461C0748C0680F2189040840E5
:10482000800C0849085C604307463146FBF762FC90
:10483000F8BD00000010024000093D000024F40013
:1048400000127A00AB4B00080146F0200840000936
:104850000A23584302460807000F8018C0B2704769
:1048600002460023114603E05B1C08460A38C1B229
:104870000A29F9D21807000E0843704770B504469C
:104880002068C06840210840002815D1401E2168DA
:10489000C860FCF717FD054608E0FCF713FD401B58
:1048A0007D21C900884201D9032070BD2068C068FD
:1048B000402108400028F0D00020F6E710B502485B
:1048C000FEF72EF810BD000080000020704710B5E4
:1048D000FCF7FEFC10BD000000B59DB038210FA80C
:1048E000FBF755FC14210AA8FBF751FC2821684668
:1048F000FBF74DFC234800680321C90288430121CE
:10490000C90240181F490860FCF7A0FD1E48006955
:104910000321C90288431C4908610E200F908815A5
:10492000119001201290102013900120149000206B
:1049300019900FA8FDF714FA002801D0FBF786FCA8
:104940000F200A9001200B9000200C900D900E90EB
:1049500000210AA8FCF7C6FF002801D0FBF776FC6F
:104960002520009000200390059001200004019074
:104970006846FCF775FD002801D0FBF767FC1DB009
:1049800000BD0000007000404010024070477047BA
:10499000F8B582B28BB2040C0D0C104658430021BE
:1049A00026465E43370C36048019794116466E431D
:1049B000370C36048019794126466E438919F8BDB3
:1049C000002805DBC206D20E01219140014A116088
:1049D0007047000000E100E010B5002819DB1A4A1A
:1049E00003231B02D21883089B00D2588307DC0ED6
:1049F000FF23A3409A438B071B0E8407E40EA340BA
:104A00001A43114B032424021B198408A4001A51D1
:104A100018E00E4A03071B0F083B9B089B00D25867
:104A20008307DC0EFF23A3409A438B071B0E8407EA
:104A3000E40EA3401A43054B0407240F083CA408C6
:104A4000A4001A5110BD000000E100E01CED00E0E0
:104A500010B5002819DB1A4A03231B02D218830859
:104A60009B00D2588307DC0EFF23A3409A438B0799
:104A70001B0E8407E40EA3401A43114B03242402A7
:104A80001B198408A4001A5118E00E4A03071B0FD3
:104A9000083B9B089B00D2588307DC0EFF23A340F2
:104AA0009A438B071B0E8407E40EA3401A43054B61
:104AB0000407240F083CA408A4001A5110BD0000EC
:104AC00000E100E01CED00E010B5002819DB1A4AF7
:104AD00003231B02D21883089B00D2588307DC0EE5
:104AE000FF23A3409A438B071B0E8407E40EA340C9
:104AF0001A43114B032424021B198408A4001A51E1
:104B000018E00E4A03071B0F083B9B089B00D25876
:104B10008307DC0EFF23A3409A438B071B0E8407F9
:104B2000E40EA3401A43054B0407240F083CA408D5
:104B3000A4001A5110BD000000E100E01CED00E0EF
:104B400002E008C8121F08C1002AFAD17047704756
:104B5000002001E001C1121F002AFBD170477047FD
:104B6000FCF7C2FBFFF7B8FEFFF7C4F9FFF7A0F9A7
:104B7000FFF7FEF8FFF77CF9FFF72AFCFFF7FAFCD6
:104B8000FFF752FCFFF7A8FC00BFFEE7081C30440B
:104B9000586C8000000000000000000102030406C1
:104BA0000708090000000001020304030406080CC2
:104BB00010182030D44B0008000000201000000026
:104BC000404B0008E44B000810000020980400004F
:104BD000504B00080000000004000000010000002D
:044BE00000002000B1
:04000005080000C12E
:00000001FF
