:020000040800F2
:10000000E0220020D90000086D690008E5500008D2
:1000100000000000000000000000000000000000E0
:10002000000000000000000000000000316C00082B
:10003000000000000000000071690008336C000837
:10004000EB000008EB000008316B0008EB00000833
:10005000EB000008EB000008C7090008EB090008E6
:10006000EB0000084509000855090008810900084F
:10007000F9060008F15E0008EB000008EB0000083C
:10008000EB000008EB000008EB0000080000000097
:10009000EB000008EB000008EB000008EB00000894
:1000A000EB000008EB0000080D6C0008F96C00087C
:1000B000EB0000088D080008EB000008EB000008CA
:1000C0000448854600F094FA004800473588000847
:1000D000C046C046E022002004488047044800474C
:1000E000FEE7FEE7FEE7FEE7FEE7FEE7F56C000849
:1000F000C100000830B50B46014600202022012433
:1001000009E00D46D5409D4205D31D469540491B4B
:100110002546954040191546521E002DF1DC30BD94
:1001200070B500242546002801DA01244042002948
:1001300001DA01254942FFF7DDFFAC4200D0404221
:10014000002C00D0494270BDF0B51FB40646002017
:1001500082B005464024019100901BE0019922469F
:100160000F46304600F06BF8049A059B801A9941BF
:1001700010D310461946224600F051F8361A8F4126
:100180000197224601200021009F00F048F838180E
:100190004D4100902046641E0028DFDC019B009842
:1001A0002946324607B0F0BD10B5431A934209D232
:1001B0008318881803E0401E01785B1E1970521ED8
:1001C000F9D210BD03460B439B0703D009E008C9D1
:1001D000121F08C0042AFAD203E00B780370401CF7
:1001E000491C521EF9D210BDD2B201E00270401C6F
:1001F000491EFBD270470022F6E710B513460A46A7
:1002000004461946FFF7F0FF204610BD03460A7862
:100210000270401C491C002AF9D11846704710B5DD
:10022000202A04DB0146203A9140002010BD914075
:1002300020239C1A0346E3401943904010BD10B59B
:10024000202A04DB0846203AD040002110BD0B468E
:10025000D340D0402024A21A91400843194610BD33
:10026000F0B507460846584087B0C00F04904800D4
:100270000E46590040084908BC1A884105D2384644
:1002800031461E4617460B460246580040081043AA
:100290004DD0300D039040055900400D490D05909B
:1002A000401A0290402873DA18030121000B090557
:1002B0000843019004980092002806D01146019A44
:1002C00049420020904100910190029840210A1A71
:1002D00001990098FFF7A3FF05460C466B4607CB34
:1002E00000F098F9C0197141039A0E0D0023D71739
:1002F00056401A467A40164344D0049A002A2DD01C
:10030000029A012A039A15DC1205C01A91410126AE
:100310003605001C7141D20F059ED2070093019251
:1003200002962A46234600F095F907B0F0BD3846FC
:100330003146FAE71605234A0F46B218C01AB741EC
:1003400001210905001C4F4100187F411146181872
:100350007941E20F10436D19644113E0E2076D0823
:1003600015436408C2071443039A01261205C01AF4
:1003700091413605001C7141CE07400830434908C1
:10038000C01851412A46234600F057F9CDE7FFE750
:10039000049801224000C117121A00238B410498CF
:1003A0003146C417381AA141EEE730B40124E407FE
:1003B000634030BC54E730B40124E407614030BCF2
:1003C0004EE700000000E0FFF0B51FB488B00B99C5
:1003D0000998002448400999C00F4900490809912B
:1003E000C0070B990090490049080B91099908989A
:1003F000A64608431CD00B990A98084318D00998C0
:1004000001244000420D4800410D099824050003D5
:10041000000B204309900B980003000B20430B9026
:1004200050181C494018002201901446104605E05F
:10043000002001460DB0F0BD032801DA034600E0BC
:1004400003239C46C11A0AAE0AE05F0008ADED5BCB
:100450004F00F75B7D430027AA187C41491C5B1EB7
:100460006145F2DD410004AB5A522104120C0A43EB
:10047000240C401C0828DFDB01980290009970468C
:1004800001910090059B049A0799069800F0E2F804
:10049000D0E700000DFCFFFFF0B50C465C4085B0D6
:1004A000E40FE40703944C000026640859009446C6
:1004B000490802460296224321D062460A431ED0D2
:1004C0006200570D4A000E032303550D0124024616
:1004D0002C492405781B1B0B360B4018234326435D
:1004E000614600901C46501AB44103D30098401C4A
:1004F000009002E0921800985B41002803DA002087
:10050000014605B0F0BD00200121090507468646D9
:1005100011E064461D46141BB54106D36546521BC7
:10052000B341744607430C43A646CD07400849082B
:10053000284392185B4105460D43EAD11046184303
:1005400013D06046194650407140084306D06046BB
:10055000101AB34106D20122002306E00022012333
:10056000DB0702E00122D2435310009874460105D4
:10057000381C6141029C039D0019694100F05DF83F
:10058000BFE70000FD0300004A0009030123090B37
:100590001B0519430A4B10B5520D9A4202DA00208E
:1005A000014610BD064B34339A4203DC9A1AFFF71A
:1005B00046FE10BD034BD218FFF731FE10BD000000
:1005C000FF030000CDFBFFFF10B5002904DB012471
:1005D000E40740428C412146002B04DB1C460123EA
:1005E000DB075242A341994200D1904210BD000066
:1005F000064C0125064E05E0E36807CC2B430C3C76
:1006000098471034B442F7D3FFF75EFD54920008C8
:100610007492000810B5202A06DBCB170846203A52
:100620001041C1170B4306E00B461341D040202474
:10063000A21A91400843194610BD10B5002B08DAE4
:100640000024401C614192185B411A4301D14008CB
:10065000400010BDF0B51FB482B005460C0003D0B9
:10066000084606F083FC02E006F080FC20300246DB
:10067000009021462846FFF7D2FD049B059A0446C8
:100680000F4618431143084314D0184610431BD09B
:10069000009840210A1A18460599FFF7D0FD054633
:1006A0000E46009A05990498FFF7B9FD084305D056
:1006B000012004E02046394607B0F0BD0020C117F4
:1006C00005430E432C43374300990E986305401AA7
:1006D0007905E40A00220C43FD0A0A3002D5002005
:1006E0000146E9E70105101969410C9C0D9D0019AF
:1006F0006941FFF7A2FFDFE710B5024800F038FCC0
:1007000010BD00000009002070B50546AC6A606DA0
:1007100050210840002836D1606D0121490208436C
:1007200060652068C068032189020840002826D13E
:100730002020005D002822D12068006808210840A0
:1007400008281CD1206880680421084080080028FF
:100750000DD1206840680C21884321684860606D95
:10076000FF210131884301210843606507E0606D86
:10077000202108436065A06D01210843A065204643
:1007800000F07AFB03E0E06C416B2846884770BDBF
:1007900070B50546AC6A606D402108436065A06D88
:1007A00004210843A065204600F0E1FB70BD70B550
:1007B0000446A56A284600F0D9FB70BD38B504464A
:1007C000074908480068FFF795FC6043009002E085
:1007D0000098401E009000980028F9D138BD000014
:1007E00040420F002800002070B504460025206814
:1007F00080688007800F012807D120680068C00743
:10080000C00F002801D0012000E00020002839D1CD
:10081000206880681C490840002801D1012000E0C0
:100820000020002809D1606D102108436065A06D8B
:1008300001210843A065012070BD20688068012166
:100840000843216888600120FFF7B8FF02F01CF818
:1008500005460EE002F018F8401B0A2809D9606D21
:10086000102108436065A06D01210843A0650120A7
:10087000E2E720680068C007C00F012148404840F7
:100880000028E7D00020D7E71700008010B52048E7
:1008900005F020FB00280AD01EA007F023FA1C4810
:1008A000446A00BF08201E49086200BF00BF184804
:1008B00005F010FB002808D01AA007F013FA00BFBB
:1008C00002201349086200BF00BF114805F0FCFA7E
:1008D000002808D017A007F005FA00BF04200C4933
:1008E000086200BF00BF00BF0948C069202108405E
:1008F0004009002804D00649496AC8B208F012F835
:10090000034805F0DBFA002801D008F001F810BD1B
:10091000004800404F7665722072756E0D0A000027
:10092000003801404672616D65206572726F720D0C
:100930000A0000004E6F697365206572726F720D58
:100940000A00000010B5024801F092F910BD000045
:100950005C09002000BF09480068202108404009C8
:10096000002805D000BF20200449486000BF03E0F4
:1009700000BF0248006800BF70470000000002404E
:1009800010B5034801F074F9024801F071F910BD87
:10099000940C0020DC0C002030B51C25446C2C404D
:1009A0000125A540046C6560046863608468102CB0
:1009B00004D10468A2600468E16003E00468A160F7
:1009C0000468E26030BD10B5042004F081FD002809
:1009D00002D0042004F096FC082004F079FD0028E1
:1009E00002D0082004F08EFC10BD10B5102004F0D9
:1009F0006FFD002802D0102004F084FC802004F059
:100A000067FD002802D0802004F07CFCFF2001302C
:100A100004F05EFD002803D0FF20013004F072FCDA
:100A20000120400204F054FD002803D001204002C0
:100A300004F068FC0120800304F04AFD002803D084
:100A40000120800304F05EFC10BD72B600BFFEE71B
:100A5000002039498969FF2201321140914208D1B1
:100A60003649496902221143344A5161FF2101315B
:100A7000084331498969012252021140914208D14B
:100A80002E494969012211432C4A51610121490231
:100A9000084329498969012292021140914208D1F3
:100AA0002649496908221143244A516101218902DA
:100AB0000843214989690122D2021140914208D19B
:100AC0001E494969042211431C4A51610121C9028E
:100AD000084319498969012252031140914208D102
:100AE0001649496910221143144A516101214903F1
:100AF000084311498969012252041140914207D1EA
:100B00000E494969202211430C4A516120210843B2
:100B100009498969012212041140914208D107490B
:100B2000496940221143054A5161012109040843E2
:100B3000014988617047000000200240240D002018
:100B400070B5044601F0A0FE05460BE0601C0028CD
:100B500008D0002C04D001F097FE401BA04201D920
:100B6000032070BD1F488069C007C00F0028EDD169
:100B70001C48806902210840022801D11949886176
:100B800018488069FF2101310840884223D0154868
:100B900080694900084088421DD012488069490098
:100BA0000840884217D00F488069490008408842B1
:100BB00011D00C4880698900084088420BD0094850
:100BC000806909010840884205D0064880694910BB
:100BD0000840884203D1FFF73BFF0120C1E7002016
:100BE000BFE700000020024070B505460C467F4973
:100BF0002868884200D103E07D497EA007F036FADC
:100C00002068012847D089492068884243D049009C
:100C1000206888423FD08649206888423BD0854979
:100C20002068884237D084492068884233D083497D
:100C3000206888422FD08249206888422BD0814981
:100C40002068884227D080492068884223D07F4985
:100C5000206888421FD07E49206888421BD07D4989
:100C60002068884217D07C492068884213D07B498D
:100C7000206888420FD07A49206888420BD0794991
:100C80002068884207D078492068884203D0774995
:100C90002068884200D104E05549491C55A007F05E
:100CA000E5F9012109036068884203D0491C6068A6
:100CB000884200D104E04E49891C4EA007F0D6F9C5
:100CC00000BF5020405D012801D1022070BD0121EC
:100CD0005020415500BF28688068042108408008E2
:100CE00000280AD0686D20210843686500BF0021F4
:100CF0005020415500BF0120E8E75D496068884207
:100D000038D02868806A21684903490B084329685C
:100D1000886220684003400B524908400121890441
:100D2000884208D153488068490108435149886086
:100D30000A20FFF743FD20684003400B4A49084062
:100D400001214904884205D14A4880684901084385
:100D50004849886020684003400B4449084001210D
:100D6000090488423BD1434880680902084341494D
:100D7000886034E02868806A21684903490B884309
:100D80002968886220684003400B364908400121E9
:100D90008904884205D1374880684901884335492C
:100DA000886020684003400B2F4908400121490416
:100DB000884205D12F488068490188432D498860C1
:100DC00020684003400B294908400121090488425A
:100DD00005D128488068090288432649886000BFF9
:100DE00000215020415500BF00206FE70024014042
:100DF000810700002E2E2F447269766572732F537F
:100E0000544D33324C3078785F48414C5F447269BE
:100E10007665722F5372632F73746D33326C307832
:100E2000785F68616C5F6164632E63000200000498
:100E30000800000C100000102000001440000018F2
:100E40008000001C00010020000200240004002893
:100E50000008002C00100030002000340040003852
:100E60000080003C000004480000024400000140F3
:100E7000011000000027014070B505462CA006F0C7
:100E800031FF324801680068401C304A10600A296E
:100E900010D30020114608602D4800F023FC0020EC
:100EA0002C49087001202C49087000BF2B4988612B
:100EB00000BF3CE0002433E029480078002821D11D
:100EC000E0002849085864214843E100254A505071
:100ED00060002549085A642148436100224A505263
:100EE0006200214BD118E2001E4BD01807F07EFCA7
:100EF000E1001C4A50586421FFF712F9E100194A39
:100F000050500CE060001849085AE100154A505052
:100F10000120E10089180871002011490870641C43
:100F2000072CC9D30E221049094800F071FC70BD8E
:100F3000444D412044414320636F6D706C6574657E
:100F40002063616C6C6261636B0D0A000400002019
:100F500000090020000000200900002000080050C7
:100F600008000020C8080020B8080020704770471B
:100F700010B5044657492068884200D103E056491D
:100F800056A007F073F82020005D002803D0202031
:100F9000005D012800D104E0D321C9004FA007F073
:100FA00065F86069042802D06069082800D104E06F
:100FB0004949891C49A007F059F8206800680421B4
:100FC0000840042804D120684068084004280AD05A
:100FD0002068006808210840082844D1206840683B
:100FE000084008283FD1606D10210840002803D137
:100FF000606D4901084360652068C068032189026B
:101000000840002826D12020005D002822D1206839
:1010100000680821084008281CD120688068042145
:101020000840800800280DD1206840680C218843C2
:1010300021684860606DFF21013188430121084328
:10104000606507E0606D202108436065A06D0121A7
:101050000843A0652046FFF70FFFA069012802D0D2
:101060000C202168086020680068802108408028E2
:101070000ED1206840680840802809D1606D49027F
:1010800008436065204600F02BFB80202168086043
:10109000206800681021084010281AD12068406894
:1010A0000840102815D1206B002805D02068C068A2
:1010B000C007C00F002809D0A06D02210843A06519
:1010C0001020216808602046FFF751FF102021689A
:1010D000086010BD00240140970600002E2E2F440A
:1010E0007269766572732F53544D33324C30787871
:1010F0005F48414C5F4472697665722F5372632F6B
:1011000073746D33326C3078785F68616C5F6164E2
:10111000632E630010B50446002C01D1012010BDE0
:10112000F8492068884200D104E0FF219D31F6A0F3
:1011300006F09CFF6068002844D00321890760689E
:1011400088423FD04942606888423BD0490060688D
:10115000884237D06068002834D0490B60688842E4
:1011600030D04900606888422CD00321890460682F
:10117000884227D0012109056068884222D00521D4
:101180008904606888421DD00321C90460688842D0
:1011900018D0072189046068884213D001214905CD
:1011A000606888420ED0092189046068884209D0AD
:1011B0000521C9046068884204D00B218904606855
:1011C000884200D104E0FF219E31CFA006F04EFFFF
:1011D000A068002808D0A068082805D0A0681028BA
:1011E00002D0A068182800D104E0FF219F31C6A0DA
:1011F00006F03CFFE068002802D0E068202800D11B
:1012000004E0FF21A031C0A006F030FF20690128D2
:1012100002D02069022800D104E0FF21A131BAA048
:1012200006F024FF2020005D002803D02020005D70
:10123000012800D104E0FF21A231B3A006F016FF7F
:101240002120005D002803D02120005D012800D16D
:1012500004E0FF21A331ACA006F008FFA06A00283B
:101260000DD001218902A06A884208D04900A06AF5
:10127000884204D003218902A06A884200D104E098
:10128000FF21A431A0A006F0F1FE606A002823D05F
:10129000606A402820D0606A80281DD0606AC0281B
:1012A0001AD0FF210131606A884215D0606A8842F5
:1012B00012D0FF214131606A88420DD0FF21813177
:1012C000606A884208D0FF21C131606A884203D039
:1012D000491C606A884200D104E0FF21A5318AA040
:1012E00006F0C4FE2C20005D002803D02C20005DF9
:1012F000012800D104E0FF21A63183A006F0B6FE4C
:101300006069042802D06069082800D104E0FF2148
:10131000A7317DA006F0AAFE206B002804D0012191
:101320000903206B884200D104E0FF21A83176A098
:1013300006F09CFEA069002802D0A069012800D117
:1013400004E0FF21A93170A006F090FE606B002838
:1013500002D0606B012800D104E0FF21AA316AA00D
:1013600006F084FEE069002802D0E069012800D17F
:1013700004E0FF21AB3164A006F078FEA06B0028EA
:1013800014D0A06B012811D0A06B02280ED0A06B46
:1013900003280BD0A06B042808D0A06B052805D02B
:1013A000A06B062802D0A06B072800D104E0FF2123
:1013B000AC3155A006F05AFEE06B002802D0E06B7D
:1013C000012800D104E0FF21AD314FA006F04EFE10
:1013D000606D002806D1A0650021502001552046EF
:1013E00000F0A2F9606D10210840102806D0206896
:1013F000806804210840800800280AD0606D102110
:101400000843606500BF00215020015500BF012046
:1014100085E6606DFF210131884302210843606544
:10142000206880688007800F012807D12068006845
:10143000C007C00F002801D0012000E000200028D4
:101440003AD100BF032189076068884207D049422A
:101450006068884203D04900606888420CD12068E7
:10146000006980008008216808612068006961685F
:1014700008432168086112E0206800698000800844
:10148000216808612E4880680F21890488432C490F
:10149000886008468068616808432949886000BF01
:1014A0002068C068182188432168C8602068C06827
:1014B000A16808432168C860214880680121490665
:1014C00088431F49886008468068A18E4906084302
:1014D0001B498860206880680121090708400028AE
:1014E00004D1206880680843216888602068C0684B
:1014F000144908402168C8602169E068022923D1A5
:10150000042122E0002401402E2E2F4472697665CA
:1015100072732F53544D33324C3078785F48414CBE
:101520005F4472697665722F5372632F73746D33E3
:10153000326C3078785F68616C5F6164632E630041
:10154000002701401902FEFF002108432021095D08
:10155000490308432C21095D49000843216B0843D6
:10156000A16989030843E169C90308432168C9687F
:1015700008432168C860FF21C231606A884207D0F1
:10158000A16A606A08432168C96808432168C86085
:101590002120005D012813D12020005D002807D103
:1015A0002068C0680121090408432168C86007E079
:1015B000606D202108436065A06D01210843A0658E
:1015C000E06B012865D1206C002814D0206C042821
:1015D00011D0206C08280ED0206C0C280BD0206C69
:1015E000102808D0206C142805D0206C182802D0B0
:1015F000206C1C2800D104E093218900364806F0B5
:1016000035FD606C002819D0606C202816D0606C05
:10161000402813D0606C602810D0606C80280DD0FA
:10162000606CA0280AD0606CC02807D0606CE028ED
:1016300004D0FF210131606C884200D103E02749CA
:10164000254806F013FDA06C002804D001214902B2
:10165000A06C884200D104E02049491C1E4806F0D5
:1016600005FD20680069FF21890088432168086121
:10167000216C606C0843A16C084321680969084328
:101680002168086120680069012108432168086118
:101690000BE020680069C007C00F002805D0206853
:1016A0000069400840002168086120684069C0085E
:1016B000C0002168486120684069A16B0843216827
:1016C00048610020A065606D022188430121084324
:1016D0006065002023E50000081500084D020000A9
:1016E0007047000010B504460C492068884214D1A8
:1016F0000B48406B49158843094948632221094832
:1017000000F0D0FDE3210520000700F0CBFDE06CE8
:1017100000F02CFA0C2001F01FFB10BD002401404A
:10172000001002400008005010B586B00446142195
:1017300001A8FEF760FD3149206888425BD130483E
:10174000406B491508432E49486300BF0846C06AEC
:10175000042108432A49C8620846C06A0421084097
:10176000009000BF00BF00BF2548C06A01210843A8
:101770002349C8620846C06AC007C00F009000BF76
:1017800000BF22200190032002900020039001A9B5
:101790001C4800F08FFEE3200190032002900020FF
:1017A000039001A90520000700F084FE16481749A0
:1017B000086000204860002114488160C1608021D9
:1017C000016149004161890081610021C1610162BB
:1017D00000F0D2FA002801D0FFF737F900BF0B481C
:1017E000E064846200BF002211460C2001F02CFB53
:1017F0000C2001F0F5FA06B010BD000000240140F5
:101800000010024000080050080002405C0900205F
:10181000F8B504460D46164600272D492068884233
:1018200000D103E02B492CA006F020FC2068806842
:10183000042108408008002847D100BF5020005DE7
:10184000012801D10220F8BD01215020015500BF1F
:101850002068C06808432168C860E069012803D097
:101860002046FEF7C1FF0746002F2FD1606D2849A3
:101870000840FF210131084360650020A06500BFDA
:1018800000215020015500BF2248E16CC862224867
:10189000E16C08632148E16C48631C202168086002
:1018A000206840681021084321684860226811467A
:1018B000403133462A46E06C00F092FB2068806895
:1018C000042108432168886000E002273846BAE70F
:1018D00000240140D90500002E2E2F447269766540
:1018E00072732F53544D33324C3078785F48414CEB
:1018F0005F4472697665722F5372632F73746D3310
:10190000326C3078785F68616C5F6164632E63006D
:10191000FEF1FFFF09070008AF0700089107000864
:10192000F8B505460C4616460027002000902068B2
:10193000002817D02068042814D020680C2811D063
:10194000206814280ED020682C280BD020681C2872
:1019500008D02068242805D02068342802D02068C8
:101960003C2800D103E0224922A006F07FFB6068FA
:10197000002802D06068022800D104E01C49491CFC
:101980001CA006F073FB002E01D0102E00D104E045
:10199000A921890017A006F069FB00BF687901281A
:1019A00001D10220F8BD0120687100BF022028711A
:1019B000286807681D48B040394681430F46616872
:1019C0002068084300900098B040074328680760EB
:1019D00028680068C021B140884329680860012058
:1019E000287100BF0020687100BF00BFDAE7000067
:1019F000A20200002E2E2F447269766572732F5357
:101A0000544D33324C3078785F48414C5F447269B2
:101A10007665722F5372632F73746D33326C307826
:101A2000785F68616C5F6461632E6300FE0F000085
:101A300010B50446002C01D1012010BD0C492068CE
:101A4000884200D104E0FF211E310AA006F00EFBFF
:101A50002079002803D16071204600F027F8022089
:101A6000207100202061012020710020E5E70000A6
:101A7000007400402E2E2F447269766572732F53C6
:101A8000544D33324C3078785F48414C5F44726932
:101A90007665722F5372632F73746D33326C3078A6
:101AA000785F68616C5F6461632E630010B586B017
:101AB0000446142101A8FEF79EFB134920688842C2
:101AC0001FD11248806B0121490708430F498863E1
:101AD00000BF0846C06A012108430C49C862084695
:101AE000C06AC007C00F009000BF00BF1020019067
:101AF000032002900020039001A90520000700F0B8
:101B0000D9FC06B010BD0000007400400010024077
:101B100070B5044600252520005D022803D004206E
:101B2000E063012520E0206800680E2188432168D9
:101B300008602068006840084000216808601C2197
:101B4000606C084001218140206C4160012125200A
:101B5000015500BF00212420015500BFA06B0028C3
:101B600002D02046A16B8847284670BD10B50446B8
:101B7000002C01D1012010BD2E49206888421DD0C3
:101B80002C4914312068884218D02A49283120680D
:101B9000884213D027493C31206888420ED025491D
:101BA00050312068884209D0224964312068884237
:101BB00004D0204978312068884200D103E0E02138
:101BC0001DA006F053FA2068006840084000216814
:101BD0000860184A2168881A1421FEF78BFA8000E1
:101BE00060641448083820640020216808601C21C3
:101BF000606C084001218140206C41600D487830C4
:101C0000806A1C22616C11400F228A40904309496E
:101C1000783188620020E06220636063A063E06343
:101C200000212520015500BF2420015500BF0020C0
:101C3000A1E70000080002402E2E2F44726976654D
:101C400072732F53544D33324C3078785F48414C87
:101C50005F4472697665722F5372632F73746D33AC
:101C6000326C3078785F68616C5F646D612E630000
:101C700070B50446206C0568206806681C20616CFD
:101C8000014004208840284000281DD00420304016
:101C9000002819D02068006820210840002805D1BC
:101CA0002068006804218843216808601C21606C5A
:101CB000084004218140206C4160206B00285AD0EC
:101CC0002046216B884756E01C20616C01400220B1
:101CD00088402840002825D002203040002821D00C
:101CE0002068006820210840002808D1206800688A
:101CF0000A218843216808600121252001551C2103
:101D0000606C084002218140206C416000BF0021CE
:101D10002420015500BFE06A00282CD02046E16A4B
:101D2000884728E01C20616C01400820884028403A
:101D3000002820D00820304000281CD020680068EF
:101D40000E218843216808601C21606C0840012135
:101D50008140206C41600120E06301212520015574
:101D600000BF00212420015500BF606B002802D075
:101D70002046616B884770BD70B50446002C01D1C8
:101D8000012070BD8649206888421DD084491431E5
:101D90002068884218D0824928312068884213D0B0
:101DA0007F493C31206888420ED07D4950312068FF
:101DB000884209D07A4964312068884204D0784941
:101DC00078312068884200D103E0962175A006F0A2
:101DD0004DF9606800282CD06068012829D060681F
:101DE000022826D06068032823D06068042820D009
:101DF000606805281DD0606806281AD0606807282A
:101E000017D06068082814D06068092811D060686D
:101E10000A280ED060680B280BD060680C2808D008
:101E200060680D2805D060680E2802D060680F2811
:101E300000D103E097215BA006F018F9A068002804
:101E400007D0A068102804D001218903A068884227
:101E500000D103E0982153A006F008F9E06840287B
:101E600002D0E068002800D103E099214DA006F0DF
:101E7000FDF82069802802D02069002800D103E005
:101E80009A2148A006F0F2F86069002808D0FF21E6
:101E900001316069884203D049006069884200D1FD
:101EA00003E09B213FA006F0E1F8A069002808D0DC
:101EB00001218902A069884203D04900A0698842B3
:101EC00000D103E09C2137A006F0D0F8E06900289B
:101ED00002D0E069202800D103E09D2131A006F066
:101EE000C5F8206A00280DD001210903206A884224
:101EF00008D04900206A884204D003210903206ADF
:101F0000884200D103E09E2126A006F0AFF8244AC3
:101F10002168881A1421FEF7EDF8800060642048DB
:101F200008382064022125200155206805682B48C7
:101F30000540E168A06808432169084361690843D6
:101F4000A1690843E1690843216A08430543206801
:101F5000056001218903A068884217D010487830B5
:101F6000806A1C22616C11400F228A4090430C4908
:101F7000783188621C22616C114060688840084991
:101F80007831896A08430649783188620020E06325
:101F90000121252001550021242001550020F0E6D3
:101FA000080002402E2E2F447269766572732F53FB
:101FB000544D33324C3078785F48414C5F447269FD
:101FC0007665722F5372632F73746D33326C307871
:101FD000785F68616C5F646D612E63000F80FFFF46
:101FE000F8B504460E4617461D4600200090002D09
:101FF00004D001200004854200D204E0FF215731C3
:1020000024A006F033F800BF2420005D012801D190
:102010000220F8BD01212420015500BF2520005DCC
:1020200001282DD10221252001550020E0632068E0
:10203000006840084000216808602B463A46314657
:102040002046FEF7A9FC206B002806D02068006817
:102050000E210843216808600BE020680068042115
:10206000884321680860206800680A2108432168C5
:10207000086020680068012108432168086006E0C4
:1020800000BF00212420015500BF022000900098CD
:10209000BFE700002E2E2F447269766572732F53AE
:1020A000544D33324C3078785F48414C5F4472690C
:1020B0007665722F5372632F73746D33326C307880
:1020C000785F68616C5F646D612E630070B5044673
:1020D00000250D48844203D30C48844200D803E015
:1020E0000B490CA005F0C2FF1A48FEF729FD054672
:1020F000002D06D11849486120601648FEF720FDE2
:102100000546284670BD000000000808FF170808B3
:10211000AF0200002E2E2F447269766572732F5322
:10212000544D33324C3078785F48414C5F4472698B
:102130007665722F5372632F73746D33326C3078FF
:10214000785F68616C5F666C6173685F65782E6349
:102150000000000050C30000240D00200348406828
:1021600001210843014948600020704700200240D7
:10217000F8B504460D461646012700BF2148007CED
:10218000012801D10220F8BD01201E49087400BFBA
:10219000002C03D0012C01D0022C00D104E0B72187
:1021A000890019A005F062FF2748854203D327481C
:1021B000854200D803E0264913A005F057FF2548C3
:1021C000FEF7BEFC0746002F14D10E494861022CD1
:1021D00001D12E6008E0012C01D12E8004E0002CFA
:1021E00001D12E7000E00127002F03D01948FEF71F
:1021F000A7FC074600BF00200249087400BF38460C
:10220000C1E70000240D00202E2E2F447269766550
:1022100072732F53544D33324C3078785F48414CB1
:102220005F4472697665722F5372632F73746D33D6
:10223000326C3078785F68616C5F666C6173685F80
:1022400065782E630000000000000808FF170808EA
:10225000DD02000050C300000F484068C007C00FF7
:10226000002816D000BFEFF31080014600BF72B601
:102270000A48094AD0600A48D06000BF81F310883C
:1022800000BF10464068C007C00F002801D00120E1
:1022900070470020FCE7000000200240EFCDAB8932
:1022A00005040302F8B504460E4600250027002069
:1022B000009005200007844207D1B0B2002804D066
:1022C000644830436349884237D06348844207D129
:1022D000B0B2002804D05F4830435E4988422CD019
:1022E0005E48844207D1B0B2002804D05948304338
:1022F0005849884221D05A48844207D1B0B20028B8
:1023000004D0544830435349884216D0554884423B
:1023100007D1B0B2002804D04E4830434D4988421E
:102320000BD05148844209D150483040002805D094
:102330004E4830434D49884200D104E0FF212C3102
:102340004BA005F093FE7EE00120A84030400746F8
:10235000002F77D05548A908890040580090A80759
:10236000010F0F20884000990840009005200007C9
:10237000844201D1002019E03748844201D1012074
:1023800014E03648844201D102200FE034488442F0
:1023900001D103200AE03348844201D1042005E042
:1023A0003148844201D1052000E00620A907090F29
:1023B0008840009988421FD13D480068B8433C4995
:1023C000086008464068B843486008468068B843DB
:1023D00088600846C068B843C860A807010F0F208E
:1023E000884000903148A9088900405800998843E6
:1023F0002E49AA089200885020686A000321914063
:1024000008432060E80881002046203040586907D2
:10241000CA0E0F2191408843E9088A0021462031E5
:102420008850E0686A00032191408843E06060685A
:102430000121A94088436060A1686A0003209040A0
:102440008143A1606D1C3046E840002800D07BE746
:10245000F8BD0000FFFF000000040050000800501D
:10246000000C005000100050001C0050030600003B
:102470002E2E2F447269766572732F53544D33326A
:102480004C3078785F48414C5F4472697665722FB2
:102490005372632F73746D33326C3078785F686178
:1024A0006C5F6770696F2E630000000008000140D8
:1024B00000040140F8B506460C46002700200090B5
:1024C00000256068002826D06068012823D0606855
:1024D000112820D0606802281DD0606812281AD008
:1024E000CA496068884216D0C9496068884212D0DB
:1024F000C849606888420ED0C749606888420AD0DF
:10250000C6496068884206D0C5496068884202D0E2
:102510006068032800D103E0AE21C2A005F0A6FD4B
:10252000A068002805D0A068012802D0A068022871
:1025300000D103E0AF21BBA005F098FD0520000706
:10254000864208D1208880B2002804D0C44920687F
:10255000084388423BD0C348864208D1208880B2D5
:10256000002804D0BE492068084388422FD0BE48C6
:10257000864208D1208880B2002804D0B84920685B
:102580000843884223D0B948864208D1208880B2C7
:10259000002804D0B24920680843884217D0B448C4
:1025A000864208D1208880B2002804D0AC49206837
:1025B000084388420BD0AF48864209D1AE49206813
:1025C0000840002804D020680843884200D103E076
:1025D000B02194A005F04AFD12E10121B940206824
:1025E00008400090009800287ED06068012808D03C
:1025F0006068022805D06068112802D0606812283F
:1026000029D1E068002808D0E068012805D0E068FA
:10261000022802D0E068032800D103E0C02181A095
:1026200005F024FDB56879000320884029468143E0
:102630000D467900E06888400543B5607568012063
:10264000B840294681430D461021606808400009C2
:10265000B84005437560F568790003208840294635
:1026600081430D467900A06888400543F5606068A5
:10267000022802D06068122835D105200007864262
:102680000ED0784886420BD07748864208D07748EB
:10269000864205D07648864202D07648864200D1EE
:1026A00003E0D8215FA005F0E1FC2069072800D8ED
:1026B00003E0D9215BA005F0D9FCF8088100304681
:1026C000203045587807C10E0F20884029468143A5
:1026D0000D467907C90E206988400543F808810036
:1026E00030462030455000E089E03568790003200D
:1026F0008840294681430D4620798007800F790064
:102700008840054335600121090760680840884218
:1027100075D15A48406B01210843584948635848CD
:10272000B90889004558B807010F0F20884029468D
:1027300081430D4605200007864201D1002019E0A3
:102740004848864201D1012014E04748864201D121
:1027500002200FE04548864201D103200AE04448A8
:10276000864201D1042005E04248864201D105207D
:1027700000E00620B907090F884005434048B90822
:10278000890045503F4805682946009881430D4619
:102790000121090460680840884201D1009805437E
:1027A0003848056045682946009881430D46012157
:1027B000490460680840884201D1009805433148C7
:1027C000456085682946009881430D460121090529
:1027D00060680840884201D1009805432948856017
:1027E000C5682946009881430D4601214905606866
:1027F0000840884201D1009805432248C5607F1CEB
:102800002068F840002800D0E7E6F8BD000011106D
:1028100000002110000031100000121000002210F2
:10282000000032102E2E2F447269766572732F537A
:10283000544D33324C3078785F48414C5F44726974
:102840007665722F5372632F73746D33326C3078E8
:10285000785F68616C5F6770696F2E6300000000CD
:10286000FFFF00000004005000080050000C005062
:1028700000100050001C0050030600000010024031
:102880000800014000040140014800687047000052
:102890001C000020034800680349097840180149DA
:1028A000086070471C0000202400002010B50024A0
:1028B000084800684021084306490860002000F0ED
:1028C0000BF8002801D0012401E000F035FA204681
:1028D00010BD00000020024070B504461048017889
:1028E0007D20C000FDF706FC064631460D48006815
:1028F000FDF700FC054602F0D9FB002801D00120BD
:1029000070BD042C07D200222146501E00F09CFA14
:102910000548046001E00120F2E70020F0E7000034
:10292000240000202800002020000020704770476D
:10293000704770477047704710B5044620680068BC
:10294000C007C00F01214840484000280CD0206833
:102950008068084048404840002805D00120216890
:1029600048602046FFF7E4FF206800680221084025
:10297000400800280BD020688068084040080028E4
:1029800005D00220216848602046FFF7CFFF20686D
:10299000006804210840800800280BD02068806867
:1029A00008408008002805D004202168486020469F
:1029B00000F0C0F92068006808210840C00800281D
:1029C0000BD0206880680840C008002805D0082087
:1029D000216848602046FFF7ACFF2068006810219E
:1029E0000840000900280BD02068806808400009D2
:1029F000002805D01020216848602046FFF797FF87
:102A00002068006820210840400900280BD0206879
:102A1000806808404009002805D0202021684860CF
:102A20002046FFF788FF20680068402108408009A1
:102A300000280BD02068806808408009002805D055
:102A40004020216848602046FFF774FF10BD000059
:102A500070B50446002C01D1012070BD9649206854
:102A6000884200D103E0E72194A005F0FFFA6068F6
:102A7000012802D06068002800D103E0E9218FA07E
:102A800005F0F4FAA068002821D001214902A068CD
:102A900088421CD04900A068884218D0032149020E
:102AA000A068884213D00121C902A06888420ED0D4
:102AB00005214902A068884209D003218902A06843
:102AC000884204D007214902A068884200D103E06F
:102AD000EA217AA005F0CAFA606801280DD1E06801
:102AE000002805D0E068022802D0E068042800D160
:102AF00003E0ED2171A005F0B9FA7F4960698842D1
:102B000024D06069002821D00121490360698842EE
:102B10001CD049006069884218D0032149036069CC
:102B2000884213D00121C903606988420ED0052173
:102B300049036069884209D003218903606988429A
:102B400004D0072149036069884200D103E0EF21E6
:102B50005AA005F08BFA68496069884212D00121B9
:102B60004904A069884208D04900A069884204D07D
:102B700003214904A069884200D103E0F2214FA05B
:102B800005F074FA6068002821D1E069002808D0B7
:102B9000E069402805D0E069802802D0E069C028BB
:102BA00000D103E0F62145A005F060FA2069002875
:102BB00008D02069082805D02069102802D0206993
:102BC000182800D103E0F7213CA005F04FFA0121BD
:102BD0004905206A884202D0206A002800D103E01B
:102BE000F92136A005F042FA606A002804D00121DC
:102BF0008905606A884200D103E0FA212FA005F020
:102C000035FAA06A002804D00121C905A06A8842CB
:102C100000D103E0FB2129A005F028FA2E20005D59
:102C2000002805D100212D200155204600F068F82C
:102C300002212E2001552068C5686068012803D153
:102C400006212846884305462B496069884204D0FE
:102C5000072149032846884305466068002803D1B8
:102C6000D82128468843054624480540A168606865
:102C70000843216A0843616A0843A16A084305437F
:102C80006068002803D1E169206908430543606852
:102C9000012801D1E068054317496069884203D0E3
:102CA0006169A069084305432068C56001212E20A1
:102CB00001550020D1E60000007C00402E2E2F445C
:102CC0007269766572732F53544D33324C30787875
:102CD0005F48414C5F4472697665722F5372632F6F
:102CE00073746D33326C3078785F68616C5F6C70D0
:102CF00074696D2E63000000FFFF0000F8F119FFFA
:102D000010B504460949206888420DD10848806BF7
:102D10004905084306498863002211460D2000F04A
:102D200093F80D2000F05CF810BD0000007C00401E
:102D300000100240704700000648406B0121084324
:102D4000044948630846806B0904084301498863C5
:102D5000704700000010024010B50446002C00DB54
:102D600003E0A7210EA005F081F92046002815DB1D
:102D7000C206D20E01219140184A116000BF00BF67
:102D800000BFBFF34F8F00BF00BF00BF00BF00BF39
:102D900000BFBFF36F8F00BF00BF00BF00BF10BDFB
:102DA0002E2E2F447269766572732F53544D333231
:102DB0004C3078785F48414C5F4472697665722F79
:102DC0005372632F73746D33326C3078785F68613F
:102DD0006C5F636F727465782E63000080E100E0C1
:102DE00010B50446002C00DB03E0972106A005F097
:102DF0003DF92046002805DBC206D20E0121914094
:102E0000104A116000BF10BD2E2E2F4472697665E6
:102E100072732F53544D33324C3078785F48414CA5
:102E20005F4472697665722F5372632F73746D33CA
:102E3000326C3078785F68616C5F636F727465784C
:102E40002E63000000E100E070B505460C46164612
:102E5000102C00D203E0872103A005F007F92146DA
:102E6000284604F09BF970BD2E2E2F4472697665BA
:102E700072732F53544D33324C3078785F48414C45
:102E80005F4472697665722F5372632F73746D336A
:102E9000326C3078785F68616C5F636F72746578EC
:102EA0002E63000003480068FF21013108430149F7
:102EB0000860704700700040F8B504460027FE49DE
:102EC0002068884200D803E06821FCA005F0CEF815
:102ED000202120680840202804D08901206808406B
:102EE00088426FD1202120680840202823D16068C3
:102EF00000281BD0C9026068884217D0490060686A
:102F0000884213D003210904606888420ED013213F
:102F100009046068884209D0232109046068884256
:102F200004D0332109046068884200D103E0742191
:102F3000E2A005F09BF80121C90220680840884200
:102F400023D1A06800281BD04901A068884217D06F
:102F50004900A068884213D003210904A068884270
:102F60000ED013210904A068884209D02321090446
:102F7000A068884204D033210904A068884200D1A7
:102F800003E07A21CDA005F071F8DB48806B0121C8
:102F900009070840002805D1D748806B0843D64967
:102FA00088630127D5480068FF21013108400028C7
:102FB00017D1D24800680843D0490860FFF764FC85
:102FC000064607E0A3E0FFF75FFC801B642801D9F9
:102FD0000320F8BDC9480068FF21013108400028DE
:102FE000F1D0C5480568032109050D406068084017
:102FF000A84203D1A0680840A8420ED003210904CA
:1030000060680840884208D1BB4800680121490433
:103010000840884201D10120DBE7B7484030006911
:103020000321090408400546002D48D06068084087
:10303000A84204D020212068084020280BD003217A
:103040000904A0680840A84239D00121C9022068BB
:103050000840884233D1A848403000690321090460
:1030600088430546A448403000690121C90408434B
:10307000A14940310861084600690121C90488431B
:103080009D49403108610846056180152840891531
:10309000884214D1FFF7F8FB064607E0FFF7F4FB80
:1030A000801B9749884201D9032092E7924840301B
:1030B0000069012149020840400A0028EED000BF03
:1030C00000BF032109046068084088420AD18A4889
:1030D0000068090188430322120561681140084312
:1030E0008549086000BF844840300069032212040B
:1030F00061681140084380494031086100BF012FD9
:1031000005D17D48806B890588437B498863207899
:10311000C007C00F00281AD0E068002808D0E06877
:10312000012805D0E068032802D0E068022800D119
:1031300003E0DD2161A004F099FF6F484030C068D2
:1031400080088000E16808436B494031C860022173
:103150002068084002281AD12069002808D0206978
:10316000042805D020690C2802D02069082800D145
:1031700003E0E82151A004F079FF5F484030C068C7
:103180000C218843216908435B494031C860042110
:1031900020680840042820D1606900280DD0090269
:1031A0006069884209D0032189026069884204D09D
:1031B0000121C9026069884200D103E0F2213FA0E9
:1031C00004F054FF4C484030C06803218902884312
:1031D0006169084348494031C860082120680840B7
:1031E00008281AD1A069002807D04902A06988429E
:1031F00003D04900A069884200D103E0FC212FA040
:1032000004F034FF3C484030C06803210903884380
:10321000A169084338494031C860FF210131206865
:10322000084088421BD1E069002807D00902E06904
:10323000884203D04900E069884200D104E0FF21C0
:1032400008311EA004F012FF2B484030C068032153
:1032500009048843E169084327494031C860402197
:1032600020680840402817D10905606A884202D0CA
:10327000606A002800D104E0FF2113310FA004F0A0
:10328000F5FE1D484030C068012189068843616A07
:10329000084319494031C8608021206808408028CF
:1032A00045D1206A002833D0C902206A88422FD035
:1032B0004900206A884225E0FF0900002E2E2F4495
:1032C0007269766572732F53544D33324C3078786F
:1032D0005F48414C5F4472697665722F5372632F69
:1032E00073746D33326C3078785F68616C5F7263D1
:1032F000635F65782E63000000100240007000409C
:103300008813000004D003218904206A884200D178
:1033100004E0FF211B31074804F0A8FE0648C068FE
:10332000032189048843216A08430349C8600020B7
:103330004FE60000BC32000840100240F8B50446D9
:103340000D46002C01D10120F8BD2078C007C00F28
:1033500000280ED1022120680840022809D004214B
:1033600020680840042804D0082120680840082864
:1033700000D103E0BF49C0A004F078FE002D01D0C9
:10338000012D00D104E06D21C900BBA004F06EFE48
:10339000C7480068C007C00FA84218D2C4480068D8
:1033A000400840002843C2490860FFF76DFA06460E
:1033B00007E0FFF769FA801BBE49884201D9032064
:1033C000C2E7BB480068C007C00FA842F1D1022184
:1033D00020680840022828D1A068002817D0A068DB
:1033E000802814D0A068902811D0A068A0280ED002
:1033F000A068B0280BD0A068C02808D0A068D0284A
:1034000005D0A068E02802D0A068F02800D104E030
:10341000E121890098A004F029FEA748C068F021A6
:103420008843A1680843A449C8602078C007C00F3A
:1034300000285ED06068002808D06068012805D0A8
:103440006068022802D06068032800D104E089493E
:10345000243189A004F00AFE6068022809D1964848
:103460000068012149040840400C002824D10120B3
:103470006AE76068032809D18F480068012149067E
:103480000840400E002817D101205DE76068012840
:1034900008D18948006804210840800800280BD121
:1034A000012051E784480068012149020840400A90
:1034B000002801D1012047E77F48C06880088000CC
:1034C000616808437C49C860FFF7DEF9064660681A
:1034D00002280FD107E0FFF7D7F9801B7549884212
:1034E00001D9032030E77448C0680C21084008283F
:1034F000F1D134E0606803280FD107E0FFF7C4F989
:10350000801B6C49884201D903201DE76A48C068C6
:103510000C2108400C28F1D121E0606801280FD16E
:1035200007E0FFF7B1F9801B6249884201D9032007
:103530000AE76148C0680C2108400428F1D10EE078
:1035400007E0FFF7A1F9801B5A49884201D90320FF
:10355000FAE65948C0680C2108400028F1D15448C7
:103560000068C007C00FA84218D951480068400839
:10357000400028434E490860FFF786F9064607E0F9
:10358000FFF782F9801B4B49884201D90320DBE613
:1035900047480068C007C00FA842F1D10421206845
:1035A0000840042824D1E068002812D00902E0680D
:1035B00088420ED005210902E068884209D0032123
:1035C0004902E068884204D007210902E068884285
:1035D00000D104E027498E3127A004F047FD36488A
:1035E000C068072109028843E16808433249C8607E
:1035F000082120680840082825D12069002812D019
:10360000C901206988420ED005210902206988423B
:1036100009D0032149022069884204D00721090208
:103620002069884200D104E0FF21890012A004F043
:103630001DFD2148C0680721C90288432169C900CE
:1036400008431D49C86000F03FF81B49C968F022D3
:1036500011400909194A515CC840194908601948C4
:103660000068FFF739F90746002F01D038466BE6AE
:10367000002069E6670300002E2E2F4472697665EC
:1036800072732F53544D33324C3078785F48414C2D
:103690005F4472697665722F5372632F73746D3352
:1036A000326C3078785F68616C5F7263632E6300A0
:1036B000002002408813000000100240CB91000857
:1036C0002800002020000020F0B585B03548C068F3
:1036D00003900C2103980840002852D0042804D0FD
:1036E00008280CD00C284BD10BE02E480068102184
:1036F0000840002801D02C4D00E02C4D4EE02C4D10
:103700004CE00F21890403980840800C29490F5C84
:103710000321890503980840800D441C2148C06896
:1037200001210904084000280BD02148394603F044
:1037300034FC2246002301910090FCF705FD06466B
:103740001CE0184800681021084000280BD01648DB
:10375000394603F022FC2246002301910090FCF739
:10376000F3FC06460AE01148394603F016FC2246EF
:10377000002301910090FCF7E7FC064635460DE07A
:1037800000BF08484068072149030840400B0290E9
:103790000298401C01218140CD0300BF00BF284694
:1037A00005B0F0BD0010024000093D000024F40007
:1037B00000127A00E3910008FEB50446002C01D106
:1037C0000120FEBD206800281DD02078C007C00F52
:1037D000002818D1022120680840022813D0202197
:1037E0002068084020280ED00821206808400828BA
:1037F00009D0042120680840042804D01021206842
:103800000840102800D104E0FF216131EFA004F04E
:103810002DFCFC48C7680C210F40C0680121090439
:10382000084001902078C007C00F002871D0606860
:10383000002807D06068884204D005210904606828
:10384000884200D104E0FF216A31E0A004F00EFCC0
:10385000082F06D00C2F11D10121090401988842AC
:103860000CD1E8480068012149040840400C0028B8
:1038700063D06068002860D10120A2E700BF012169
:1038800009046068884205D1DE4800680843DD49C4
:10389000086027E005210904606888420ED1D948F4
:1038A0000068012189040843D64908600846006879
:1038B000012109040843D349086013E0D148006896
:1038C000012109048843CF490860084600680121A6
:1038D00009040840009000BFCA4800688900884376
:1038E000C849086000BF6068002813D0FEF7CCFF0D
:1038F000054606E0FEF7C8FF401B642801D90320F7
:103900005FE7C0480068012149040840400C0028D6
:10391000F0D012E0FEF7B8FF054606E0FEF7B4FF70
:10392000401B642801D903204BE7B64800680121F9
:1039300049040840400C0028F0D1022120680840CA
:10394000022875D1E06800280ED0E06801280BD06D
:10395000E068092808D0E068202805D0E068212820
:1039600002D0E068292800D104E0FF219D3197A012
:1039700004F07CFB20691F2800D804E0FF219E3161
:1039800092A004F073FBE66820203040002809D0A4
:103990009C480068202108439A490860202130464D
:1039A00088430646042F04D00C2F34D101980028F8
:1039B00031D194480068042108408008002803D0D1
:1039C000002E01D10120FCE68E4840681F2109022B
:1039D00088432169090208438A494860084600680B
:1039E00009218843304387490860FFF76DFE854908
:1039F000C968F02211400909834A515CC8408349D3
:103A0000086083480068FEF767FF0290029800286C
:103A100040D00298D5E6002E24D07A4800680921CB
:103A20008843304377490860FEF72EFF054607E0DC
:103A300030E0FEF729FF401B022801D90320C0E631
:103A4000704800680421084080080028F1D06D48C3
:103A500040681F2109028843216909020843694916
:103A6000486017E067480068400840006549086002
:103A7000FEF70AFF054606E0FEF706FF401B022898
:103A800001D903209DE65F480068042108408008B2
:103A90000028F1D110212068084010287ED1002F85
:103AA00065D15848006849010840400A002804D000
:103AB000E069002801D1012083E6206AFF2800D8B0
:103AC00004E00121490241A004F0D0FA606A002814
:103AD0001CD001214903606A884217D04900606AFE
:103AE000884213D003214903606A88420ED0012125
:103AF000C903606A884209D005214903606A884287
:103B000004D003218903606A884200D103E041495F
:103B10002EA004F0ABFA3B484068072149038843D4
:103B2000616A084337494860084640680002000A55
:103B3000218C0906084333494860606A400B401CE9
:103B400001218140C8032F49C968F02211400909A9
:103B50002D4A515CC8402D4908602D480068FEF789
:103B6000BBFE02900298002818D0029829E6E0696E
:103B7000002802D0E069012800D104E04321C900F7
:103B800012A004F073FAE06900287DD01D48006897
:103B9000FF21013108431B49086000E095E0FEF772
:103BA00073FE054606E0FEF76FFE401B022801D9B2
:103BB000032006E613480068012149020840400A34
:103BC0000028F0D0206AFF2826D82AE02E2E2F4485
:103BD0007269766572732F53544D33324C30787856
:103BE0005F48414C5F4472697665722F5372632F50
:103BF00073746D33326C3078785F68616C5F7263B8
:103C0000632E630000100240CB91000828000020C2
:103C100020000020010200008B218900FE4804F0F2
:103C200025FA606A00281CD001214903606A884295
:103C300017D04900606A884213D003214903606AA3
:103C400088420ED00121C903606A884209D005214B
:103C50004903606A884204D003218903606A88426C
:103C600000D103E0ED49EC4804F000FAEC4840686C
:103C7000072149038843616A0843E94948600846C7
:103C800040680002000A00E005E0218C09060843B4
:103C9000E349486019E0E2480068FF2101318843A8
:103CA000DF490860FEF7F0FD054606E0FEF7ECFD93
:103CB000401B022801D9032083E5D948006801216F
:103CC00049020840400A0028F0D108212068084035
:103CD000082845D16069002802D06069012800D118
:103CE00004E0CE491E31CC4804F0C0F960690028D8
:103CF0001BD0CB484030006901210843C8494031FE
:103D00000861FEF7C1FD054606E0FEF7BDFD401B5C
:103D1000022801D9032054E5C1484030006902213E
:103D2000084040080028F0D01AE0BD484030006943
:103D300040084000BA4940310861FEF7A5FD05463C
:103D400006E0FEF7A1FD401B022801D9032038E55B
:103D5000B348403000690221084040080028F0D1F3
:103D6000042120680840042877D100200090A06832
:103D7000002808D08901A068884204D005210902E2
:103D8000A068884200D104E0A4494A31A24804F066
:103D90006DF9A348806B012109070840002806D16E
:103DA0009F48806B08439E498863012000909D488E
:103DB0000068FF2101310840002816D199480068A9
:103DC000084398490860FEF75FFD054606E0FEF7E8
:103DD0005BFD401B642801D90320F2E49148006890
:103DE000FF21013108400028F1D000BFFF2101313F
:103DF000A068884207D18A48403000690843884952
:103E0000403108613AE0A068002810D18448403071
:103E10000069FF210131884381494031086108462A
:103E20000069091588437E494031086126E0052173
:103E30000902A068884211D1794840300069012107
:103E400089020843764940310861084600698915AE
:103E5000084373494031086110E049E07048403040
:103E60000069FF21013188436D49403108610846EE
:103E70000069091588436A494031086100BFA0689C
:103E8000002815D0FEF700FD054607E0FEF7FCFC14
:103E9000401B6549884201D9032092E460484030C4
:103EA0000069012149020840400A0028EED014E0D0
:103EB000FEF7EAFC054607E0FEF7E6FC401B5A4920
:103EC000884201D903207CE4554840300069012133
:103ED00049020840400A0028EED10098012806D186
:103EE0004F48806B0121090788434D49886300BF13
:103EF000202120680840202857D1A069002802D03E
:103F0000A069012800D104E044499231424804F0FC
:103F1000ADF8A069002827D000BF41488068012182
:103F200008433F4988600846406B012108433C49EB
:103F300048633E48006A0121490308433B4908623F
:103F400000BFFEF7A1FC054606E0FEF79DFC401B06
:103F5000022801D9032034E4314880680221084056
:103F600040080028F1D020E000BF2D4880684008BC
:103F700040002B4988602D48006A0121490388438D
:103F80002A49086200BFFEF77FFC054606E0FEF7FF
:103F90007BFC401B022801D9032012E420488068E2
:103FA0000221084040080028F1D1A06A002805D06D
:103FB000A06A012802D0A06A022800D104E01749B3
:103FC000BC31154804F052F8A06A002874D00C2FB8
:103FD00073D0A06A022871D1E06A002804D00121C0
:103FE0000904E06A884200D104E00C49C5310A485E
:103FF00004F03CF8206B002833D001218904206BA9
:1040000088422ED04900206B88422AD0032189049F
:10401000206B884225D00BE0CC3B00082D0200002D
:1040200000100240007000408813000000000140B2
:1040300001210905206B884213D005218904206BDA
:1040400088420ED00321C904206B884209D0072181
:104050008904206B884204D001214905206B8842E5
:1040600000D103E04B494C4804F000F801218905D8
:10407000606B884208D04900606B884204D00321FD
:104080008905606B884200D104E0BD218900424867
:1040900003F0ECFF414800680121090688433F49CD
:1040A0000860FEF7F1FB054609E0FEF7EDFB401B5B
:1040B000022804D9032023E46AE04BE02FE03748CC
:1040C0000068012149060840400E0028EDD1216B0F
:1040D000E06A0843616B08433049C968FD22120455
:1040E000914308432D49C86008460068012109062C
:1040F00008432A490860FEF7C7FB054606E0FEF7BD
:10410000C3FB401B022801D903200DE423480068AB
:10411000012149060840400E0028F0D038E01F4831
:1041200000680121090688431C490860FEF7ACFBC2
:10413000054606E0FEF7A8FB401B022801D9032034
:1041400041E416480068012149060840400E002855
:10415000F0D11DE0A06A012800D134E40F48C06806
:1041600001900121090401980840E16A88420DD1BB
:104170000F21890401980840216B884206D1032150
:10418000890501980840616B884201D001201AE43A
:10419000002018E4F3020000CC3B000800100240AD
:1041A000F8B504460F461546002D09D0012D07D05D
:1041B000022D05D0032D03D0042D01D0062D00D1F2
:1041C00003E0594959A003F051FF6748874200D8DE
:1041D00004E05549491C55A003F048FF00BF2020CA
:1041E000005D012801D10220F8BD012120200155E8
:1041F00000BF02212120015500BFCA20216848626A
:1042000053202168486200BF20688068012189022C
:104210000840002820D0FEF737FB064615E0FEF7E1
:1042200033FB801B7D21C90088420ED900BFFF20CF
:104230002168486200BF03212120015500BF0021F1
:104240002020015500BF0320CEE72068C06804216C
:10425000084080080028E2D1206880680121890296
:104260008843216888602068C068802108403F49F1
:1042700008432168C860FEF707FB064615E0FEF715
:1042800003FB801B7D21C90088420ED900BFFF209F
:104290002168486200BF03212120015500BF002191
:1042A0002020015500BF03209EE72068C06804213C
:1042B000084080080028E2D02068476120688068B4
:1042C000C008C00021688860206880682843216891
:1042D00088602748006801210905084324490860CF
:1042E0000846806801210905084321498860206843
:1042F00080680121890308432168886020688068FC
:104300000121890208432168886000BFFF202168DD
:10431000486200BF01212120015500BF002120205B
:10432000015500BF00205FE7110400002E2E2F442E
:104330007269766572732F53544D33324C307878EE
:104340005F48414C5F4472697665722F5372632FE8
:1043500073746D33326C3078785F68616C5F72743F
:10436000635F65782E630000FFFF00007FFBFFFFA7
:10437000000401407047000010B504462068C06882
:10438000012189020840800A00280AD02046FFF750
:10439000F1FF2068C0688021084006490843216871
:1043A000C860012000050449486101212120015510
:1043B00010BD00007FFBFFFF0004014010B5044664
:1043C000002C01D1012010BD69492068884200D12C
:1043D00003E0F02167A003F049FE6068402802D0A6
:1043E0006068002800D103E0F12162A003F03EFEE6
:1043F000A0687F2800D803E0F2215EA003F036FE1B
:104400006A49E068884200D803E0F32159A003F02C
:104410002DFE206900280DD0012149052069884220
:1044200008D049002069884204D003214905206949
:10443000884200D103E0F4214EA003F017FE60692A
:10444000002802D06069022800D103E0F52149A0CC
:1044500003F00CFEA069002804D001210905A06921
:10446000884200D103E0F62142A003F0FFFDE0699D
:10447000002802D0E069012800D103E0F7213DA027
:1044800003F0F4FD2120005D002805D1002120204B
:104490000155204600F08EF802212120015500BF71
:1044A000CA202168486253202168486200BF204624
:1044B00002F01EFB002809D000BFFF2021684862DF
:1044C00000BF04212120015501207CE7206880687D
:1044D0003749084021688860216960680843A169FC
:1044E0000843216889680843216888602168E0687A
:1044F000086120680069218909040843216808616E
:104500002068C068802188432168C8602068C06C2A
:10451000800880002168C8646169E06908432168F7
:10452000C96C08432168C86420688068202108405D
:10453000002813D1204600F0D1FA00280ED000BF89
:10454000FF202168486200BF04212120015500BFDF
:1045500000212020015500BF012034E700BFFF20CB
:104560002168486200BF01212120015500202AE76F
:10457000002800402E2E2F447269766572732F53E7
:10458000544D33324C3078785F48414C5F44726907
:104590007665722F5372632F73746D33326C30787B
:1045A000785F68616C5F7274632E6300FF7F000048
:1045B000BFFF8FFF10B504460949206888420ED11D
:1045C000084800690121890408430649086100225E
:1045D00011460220FEF738FC0220FEF701FC10BD58
:1045E0000028004040100240F8B505460C4616462B
:1045F000002E01D0012E00D103E07A497AA003F009
:1046000035FD00BF2020405D012801D10220F8BD0A
:1046100001212020415500BF022121204155002EBB
:1046200009D1607810210840102804D16078EF216A
:1046300008400A3060702078012811D020780228C4
:104640000ED0207803280BD02078042808D02078BA
:10465000052805D02078062802D02078072800D128
:1046600004E060490C3160A003F000FD002E32D15F
:10467000E078632800D804E05A4910315AA003F0CA
:10468000F5FC6078002803D060780C2800D804E09E
:10469000E921890054A003F0E9FCA078002803D0A8
:1046A000A0781F2800D804E04E4912314EA003F034
:1046B000DDFCE07802F00EFA0704607802F00AFAF6
:1046C00000020743A07802F005FA07432078400370
:1046D0000743009735E0E07802F0F0F9632800D84E
:1046E00004E040491B3140A003F0C0FC607802F0B8
:1046F000E5F9002805D0607802F0E0F90C2800D830
:1047000004E038491C3138A003F0B0FCA07802F076
:10471000D5F9002805D0A07802F0D0F91F2800D8DC
:1047200004E03B21090130A003F0A0FCE078000484
:10473000617809020843A1780843217849030843B6
:10474000009000BFCA202968486253202968486247
:1047500000BF284602F0CCF900280ED000BFFF2091
:104760002968486200BF04212120415500BF002173
:104770002020415500BF012049E729490098084001
:10478000296848602868C068802188432968C86013
:104790002868806820210840002813D1284600F0AE
:1047A0009DF900280ED000BFFF202968486200BF95
:1047B00004212120415500BF00212020415500BF88
:1047C000012024E700BFFF202968486200BF0121C3
:1047D0002120415500BF00212020415500BF00206D
:1047E00015E70000930300002E2E2F4472697665B2
:1047F00072732F53544D33324C3078785F48414CAC
:104800005F4472697665722F5372632F73746D33D0
:10481000326C3078785F68616C5F7274632E63000D
:104820003FFFFF00F8B505460C461646002E01D0A6
:10483000012E00D103E0994999A003F017FC012152
:104840004904E068884206D04910E068884202D0F6
:10485000E068002800D104E09049491C90A003F0D2
:1048600005FC2069002804D00121890420698842C0
:1048700000D104E08949891C89A003F0F7FB00BF3F
:104880002020405D012801D10220F8BD0121202017
:10489000415500BF022121204155002E4DD12868ED
:1048A000806840210840002818D02078002803D0D4
:1048B00020780C2800D804E078490D3178A003F066
:1048C000D5FBE078002802D0E078402800D110E045
:1048D00072490E3172A003F0C9FB0AE00020E070BB
:1048E0002078172800D804E0BD2189006CA003F0CF
:1048F000BDFB60783B2800D804E06849153168A00A
:1049000003F0B4FBA0783B2800D804E063491631DB
:1049100063A003F0ABFB207802F0DCF807046078BA
:1049200002F0D8F800020743A07802F0D3F807435A
:10493000E07800040743009750E028688068402131
:10494000084000281CD0207802F0B8F8002805D0D4
:10495000207802F0B3F80C2800D804E04F49213148
:104960004FA003F083FBE078002802D0E0784028D5
:1049700000D112E04949223149A003F077FB0CE055
:104980000020E070207802F099F8172800D804E0A1
:104990006121C90042A003F069FB607802F08EF843
:1049A0003B2800D804E03D4929313DA003F05EFBDF
:1049B000A07802F083F83B2800D804E037492A3178
:1049C00037A003F053FB2078000461780902084304
:1049D000A1780843E17809040843009000BFCA2089
:1049E0002968486253202968486200BF284602F0BF
:1049F0007FF800280ED000BFFF202968486200BF62
:104A000004212120415500BF00212020415500BF35
:104A100001203AE730490098084029680860286872
:104A20008068012189048843296888602169E068D9
:104A30000843296889680843296888602868C0682D
:104A4000802188432968C860286880682021084040
:104A5000002813D1284600F041F800280ED000BFEE
:104A6000FF202968486200BF04212120415500BF72
:104A700000212020415500BF012006E700BFFF2094
:104A80002968486200BF01212120415500BF002153
:104A90002020415500BF0020F7E60000E1020000A1
:104AA0002E2E2F447269766572732F53544D333214
:104AB0004C3078785F48414C5F4472697665722F5C
:104AC0005372632F73746D33326C3078785F686122
:104AD0006C5F7274632E63007F7F7F0070B5044645
:104AE0002068C068A02188432168C860FDF7CCFE1B
:104AF000054608E0FDF7C8FE401B7D21C90088423D
:104B000001D9032070BD2068C0682021084000281A
:104B1000F0D00020F6E77047F8B5044620684668F4
:104B20002068856840202840800900280FD1E807C8
:104B3000C00F012148404840002808D040203040A4
:104B40008009002803D02046216C8847F8BD022048
:104B500028404008002808D080203040C0090028A4
:104B600003D02046616C8847F0E7202028404009A8
:104B700000280AD1402028408009002805D1FF20C4
:104B800001302840000A00287ED020203040400913
:104B90000028F9D040202840800900281ED051204C
:104BA000005D03280ED0606D04210843606500BFDE
:104BB000002000902068C068009020688068009005
:104BC00000BF0BE000BF002000902068C06800908C
:104BD00020688068009000BF00BFB7E72020284011
:104BE0004009002811D0606D01210843606500BFB5
:104BF00000200090206880680090206800684021B4
:104C000088432168086000BF00BFFF2001302840B2
:104C1000000A00280BD0606D08210843606500BFC2
:104C20000020009020688068009000BF00BF606D89
:104C300000283AD020684068E02188432168486015
:104C400001215120015502203040022803D0F007F5
:104C5000C00F002826D020684068800880002168A6
:104C60004860E06C00280BD01148E16C8863E06C70
:104C7000FCF74EFF002803D0606D402108436065BB
:104C8000A06C002811D000E010E00948A16C8863F6
:104C9000A06CFCF73DFF002807D0606D4021084361
:104CA000606502E02046FFF736FF4FE700BF4DE7A3
:104CB0001D6C000810B50446002C01D1012010BD68
:104CC0009C492068884203D09B492068884200D1D3
:104CD00004E0FF214B3199A003F0C8F96068002877
:104CE00004D0FF2105316068884200D104E0FF2133
:104CF0004C3192A003F0BAF9A068002808D0012135
:104D00008902A068884203D04901A068884200D186
:104D100004E0FF214D3189A003F0A8F90121C90267
:104D2000E068884202D0E068002800D104E0FF215A
:104D30004E3182A003F09AF901214902A06988420C
:104D400006D0A069002803D04902A069884200D19A
:104D500004E0FF214F3179A003F088F9E0690028D1
:104D600014D0E069082811D0E06910280ED0E0695D
:104D700018280BD0E069202808D0E069282805D041
:104D8000E069302802D0E069382800D104E0FF2132
:104D900050316AA003F06AF9206A002802D0206A24
:104DA000802800D104E0FF21513164A003F05EF9B6
:104DB000606A002802D0606A102800D104E0FF2158
:104DC00052315EA003F052F9606A00283ED120699A
:104DD000002802D02069022800D104E0FF215531CB
:104DE00056A003F043F96069002802D060690128E9
:104DF00000D104E0FF21563150A003F037F9FF2124
:104E00000531606888421ED1E069002814D0E0694D
:104E1000082811D0E06910280ED0E06918280BD0BE
:104E2000E069202808D0E069282805D0E06930280A
:104E300002D0E069382800D129E0FF215A313FA093
:104E400003F014F923E00021E16120E0E06900288B
:104E500014D0E069082811D0E06910280ED0E0696C
:104E600018280BD0E069202808D0E069282805D050
:104E7000E069302802D0E069382800D104E0FF2141
:104E800064312EA003F0F2F800212161616100215C
:104E9000A1625120005D002804D150200155204618
:104EA00000F068F802215120015520680068402177
:104EB000884321680860FF2105316068084021228D
:104EC0009202A168114008430122D202E168114018
:104ED00008430222216911400843217DC907C90FF7
:104EE00008431202A169114008433822E1691140C8
:104EF00008438022216A114008439201A16A1140AF
:104F0000084321680860A069000C042108401022B1
:104F1000616A11400843216848602068C069D10176
:104F200088432168C8610020606501215120015536
:104F30000020C4E600300140003800402E2E2F44EF
:104F40007269766572732F53544D33324C307878D2
:104F50005F48414C5F4472697665722F5372632FCC
:104F600073746D33326C3078785F68616C5F737026
:104F7000692E630010B586B00446142101A8FBF722
:104F80003AF94349206888427DD14248806B091430
:104F900008434049886300BF0846C06A04210843AB
:104FA0003C49C8620846C06A04210840009000BF1E
:104FB00000BF00BF3748C06A022108433549C862B4
:104FC0000846C06A02210840009000BF00BF0420CC
:104FD0000190022002900020039003200490022000
:104FE000059001A92C48FDF765FA052040030190C2
:104FF00002200290002003900320049000200590DE
:1050000001A92648FDF756FA2548264908600220DE
:105010004860002123488160C16080210161002136
:1050200041618161C1610162FCF7A6FE002801D0E7
:10503000FBF70BFD00BF1B48E064846200BF18480B
:105040001430194908600220486010211648816018
:105050000021C16080210161002141618161C16144
:105060000162FCF789FE002801D0FBF7EEFC00BFCF
:105070000D48A064846200BF002211461A20FDF78B
:10508000E3FE1A2000E001E0FDF7AAFE06B010BD25
:10509000003800400010024000080050000400509A
:1050A00044000240940C0020DC0C002070B5044643
:1050B0002546681E0949884201D901200CE0681E76
:1050C000074948610321081F02F068F800200449DD
:1050D000886107200861002070BD0000FFFFFF000D
:1050E00000E000E000BF00BF00BF00BF00BFBFF393
:1050F0004F8F00BF00BF00BF06480749C86000BF10
:1051000000BF00BFBFF34F8F00BF00BF00BF00BF95
:1051100000BFFDE70400FA0500ED00E008B5054911
:10512000496B0143034A51631146496B01400091A9
:1051300000BF08BD0010024070B5049C102C09D1BE
:105140004D1E094E755D2D18EA604D1E755D2D18BA
:10515000AB6008E04D1E044E755D2D18AA604D1E13
:10516000755D2D18EB6070BDAC91000810B54A1E3E
:10517000044B9A5C825853085B004A1E014CA25CA7
:10518000835010BDAC91000810B54A1E044B9A5CC8
:10519000825801231A434B1E014CE35CC25010BDE0
:1051A000AC91000810B54A1E044B9A5C8258022349
:1051B0001A434B1E014CE35CC25010BDAC91000879
:1051C00010B54A1E044B9A5C825808231A434B1EA2
:1051D000014CE35CC25010BDAC91000830B54B1ED1
:1051E000054CE35CC35803242403A34313434C1E20
:1051F000014D2C5D035130BDAC91000830B54B1E04
:10520000064CE35C1B185B681B0C1B0413434C1E11
:10521000024D2C5D2418636030BD0000AC91000885
:1052200030B54B1E054CE35CC358054C234013437B
:105230004C1E024D2C5D035130BD0000AC910008A6
:10524000EFBFFFFF30B54B1E054CE35CC358802415
:10525000A34313434C1E024D2C5D035130BD00008F
:10526000AC91000830B54B1E054CE35CC3580324D9
:10527000A402A34313434C1E014D2C5D035130BDCA
:10528000AC91000830B54B1E054CE35CC35820249C
:10529000A34313434C1E024D2C5D035130BD00004F
:1052A000AC91000830B54B1E054CE35CC35840245C
:1052B000A34313434C1E024D2C5D035130BD00002F
:1052C000AC91000830B5A8231B584C1EA5000F2434
:1052D000AC40A3434C1EA5001446AC402343A82475
:1052E000235030BD30B54B1E054CE35CC35803243E
:1052F0002402A34313434C1E014D2C5D035130BDCA
:10530000AC91000801494861704700000004014069
:10531000024949688143014A5160704700040140D5
:10532000024909688143014A116070470004014045
:10533000024949680143014A516070470004014035
:105340000249C9680143014AD16070470004014025
:10535000024909680143014A116070470004014095
:10536000024989680143014A916070470004014085
:1053700070B5044600251921C90620680840002898
:1053800000D103E06D2143A002F070FE20790028D7
:1053900002D02079012800D103E06E213DA002F067
:1053A00065FE6079002805D06079012802D0607917
:1053B000022800D103E06F2136A002F057FE2079C9
:1053C00000285ED0A079002808D0A079012805D057
:1053D000A079022802D0A079032800D103E074212B
:1053E0002CA002F043FE2068002850D060790028ED
:1053F00004D0012809D0022815D10DE02068FFF75C
:1054000087FF2068FFF7A4FF0FE02068FFF788FF01
:105410002068FFF78DFF08E02068FFF799FF2068FC
:10542000FFF786FF01E0012500BF00BFA07900283B
:105430002DD0A079012804D002280DD003281DD139
:1054400015E020682149C9688143204AD16000BF26
:105450002068FFF785FF13E020681C4989688143B5
:105460001A4A916000BF2068FFF76AFF08E02068D1
:10547000FFF776FF2068FFF763FF01E0012500BF1B
:1054800005E02068FFF74CFF2068FFF741FF284642
:1054900070BD00002E2E2F447269766572732F53F3
:1054A000544D33324C3078785F48414C5F447269D8
:1054B0007665722F5372632F73746D33326C30784C
:1054C000785F6C6C5F657874692E6300000401403E
:1054D0000146044840690840884201D101207047D4
:1054E0000020FCE700040140F8B506460C46002702
:1054F00000250520000786420ED0764886420BD054
:105500007548864208D07548864205D07448864260
:1055100002D07448864200D103E0A32172A002F0B9
:10552000A5FD2068002804D97D492068884200D85C
:1055300003E0A4216CA002F099FD6068002808D067
:105540006068012805D06068022802D060680328DE
:1055500000D103E0A52164A002F088FD20690028A5
:1055600005D02069012802D02069022800D103E07B
:10557000A6215DA002F07AFDA6E00121B9402068D5
:1055800008400546002D79D06068012802D0606887
:10559000022832D1A068002808D0A068012805D0D0
:1055A000A068022802D0A068032800D103E0B72138
:1055B0004DA002F05BFDA068B1682A466A43530023
:1055C000D21891432A466A4342431143B16000BF57
:1055D000E068002802D0E068012800D103E0BD2186
:1055E00041A002F043FDE1682068726882430346EF
:1055F0004B431A43726000BF00BF2069F1682A461E
:105600006A435300D21891432A466A4342431143E6
:10561000F16000BF6068022847D16069002814D09B
:105620006069012811D0606902280ED060690328E2
:105630000BD06069042808D06069052805D060692E
:10564000062802D06069072800D103E0C92126A0FE
:1056500002F00CFDFF2D12D86069316A2A466A43B8
:105660006A436A4313019A1A91432A466A436A437A
:105670006A4342431143316200BF16E023E063698D
:10568000280A4043290A4843290A48430101091AC4
:10569000706A8843290A49432A0A51432A0A514316
:1056A00059430843706200BF00BF606831682A46F2
:1056B0006A435300D21891432A466A434243114336
:1056C000316000BF00BF7F1C2068F840002800D078
:1056D00053E7F8BD0004005000080050000C0050D3
:1056E00000100050001C00502E2E2F447269766569
:1056F00072732F53544D33324C3078785F48414C9D
:105700005F4472697665722F5372632F73746D33C1
:10571000326C3078785F6C6C5F6770696F2E6300F5
:10572000FFFF0000024610690840884201D10120B5
:1057300070470020FCE78162704730B503680C4673
:105740004C4365006419A3430C464C435443234324
:10575000036030BD30B5C3680C464C436500641926
:10576000A3430C464C4354432343C36030BD000065
:1057700008B50549C96A0143034AD1621146C96A9D
:105780000140009100BF08BD0010024008B5054966
:10579000C96A0143034AD1621146C96A01400091B6
:1057A00000BF08BD00100240F0B585B005460C46AC
:1057B000012003906148854200D103E0A12160A04F
:1057C00002F054FC6D492068884203D820680828FC
:1057D00000D303E0A2215AA002F048FC01210907EE
:1057E0006068884206D06068002803D009146068A9
:1057F000884200D103E0A32151A002F037FCA06849
:10580000002804D001214903A068884200D103E0A8
:10581000A4214BA002F02AFCE068002809D0012155
:105820008902E068884204D003214902E068884286
:1058300000D103E0A52142A002F018FC2069002855
:1058400008D02069042805D02069082802D02069E2
:105850000C2800D103E0A62139A002F007FC606902
:1058600000280DD0FF2101316069884208D049002D
:105870006069884204D0032109026069884200D12E
:1058800003E0A7212EA002F0F1FB00BF2868C007AB
:10589000C00F01214840484000284CD1E1686068B1
:1058A0000843216908432968354A114008432860A4
:1058B000A06869680322120391430143696000BF35
:1058C0006069A968121191430143A96000BF90006B
:1058D00000F05AF80746002F2DD0206800282AD063
:1058E0000020039002972668002E10D0FF2101317E
:1058F000029801F052FB7208002380185941324689
:1059000001910090FAF720FC1E490840E86000BFB2
:10591000E86803210902884200D303E0D62108A0E9
:1059200002F0A4FBE8681749884200D803E0D921B7
:1059300003A002F09BFB039805B0F0BD00480040B7
:105940002E2E2F447269766572732F53544D333265
:105950004C3078785F48414C5F4472697665722FAD
:105960005372632F73746D33326C3078785F6C6C64
:105970005F6C70756172742E6300000040BEA10000
:10598000F3E9FFEFFFFF0F00F8B504460025032001
:105990008002844200D104E0FF21AD311BA002F05F
:1059A00065FB00BF2748C0682040002820D00121A7
:1059B0008902401A04D0401A06D0401A17D10FE0CD
:1059C00001F00EF805461DE000F0F0F8002806D0C2
:1059D00000F0F4F8002801D01B4D00E01B4D11E051
:1059E00000F0F4F8002801D00125ED030AE000BF23
:1059F00000F0F6FF074600F0BDFF064600F0CCFFC2
:105A0000054600BF00BF2846F8BD00002E2E2F44DB
:105A10007269766572732F53544D33324C307878F7
:105A20005F48414C5F4472697665722F5372632FF1
:105A300073746D33326C3078785F6C6C5F72636353
:105A40002E6300004010024000093D000024F400D5
:105A500010B5044600F0C4FF2060206800F08AFF03
:105A60006060606800F098FFA060606800F0A6FFCA
:105A7000E06010BDF8B504460025032C01D00C2CC5
:105A800000D103E0FC2134A002F0F0FA032C2FD166
:105A9000204600F081F82104401A1ED0012804D0CD
:105AA000022806D0032817D10FE000F099FF054621
:105AB0001DE000F07BF8002806D000F07FF80028F9
:105AC00001D0334D00E0334D11E000F07FF80028A5
:105AD00001D00125ED030AE000BF00F081FF074679
