:020000040800F2
:10200000183F002099220008ED8B00086577000832
:1020100000000000000000000000000000000000C0
:102020000000000000000000000000004B900008CD
:102030000000000000000000EF8B00084D90000839
:10204000AB220008AB220008518D0008AB2200082B
:10205000AB220008ED5C0008A55D0008255E0008C5
:10206000AB220008AB220008ED5B0008AB220008A1
:10207000AB220008AB220008AB220008AB2200080C
:10208000AB220008AB220008AB22000800000000D1
:10209000AB220008AB220008AB220008AB220008EC
:1020A000AB220008AB22000849900008D593000835
:1020B000AB2200083D5B0008AB220008AB22000801
:1020C00000F002F800F0BDF80CA030C80838241861
:1020D0002D18A246671EAB4654465D46AC4201D160
:1020E00000F0AFF87E460F3E0FCCB64601263342D5
:1020F00000D0FB1AA246AB4633431847E435010033
:1021000014360100103A02D378C878C1FAD85207C1
:1021100001D330C830C101D504680C60704700009D
:102120000023002400250026103A01D378C1FBD8F3
:10213000520700D330C100D50B60704710B56E292F
:1021400002D101F08BFC10BD702902D100F039FAE8
:1021500010BD662902D112F083FF10BD652902D19E
:1021600012F07EFF10BD672902D112F079FF10BD79
:10217000612902D112F07CFF10BD03681B0A01D354
:1021800080231943692902D100F0A6F910BD642902
:1021900002D100F0A1F910BD752902D100F09CF91F
:1021A00010BD6F2902D101F06DFF10BD782902D159
:1021B00000F0F4F910BDE92902D101F009FF10BDCA
:1021C000E42902D101F004FF10BDF52902D101F08C
:1021D000FFFE10BDEF2902D101F060FF10BDF8290C
:1021E00002D100F0E9F910BD0368DB0901D38023B7
:1021F0001943632902D101F081FE10BD732902D178
:1022000001F084FE10BDE32902D102F0AAFA10BD4C
:10221000F32902D102F0ADFA10BD002010BD1FB5A8
:1022200001F078FB04000020002112F057FD401C53
:1022300060600020002112F067FDE0601FBD10B556
:1022400010BD02F0E3FE1146FFF7E9FF0EF048FF74
:1022500003F09AF903B4FFF7F2FF03BC03F0EEF9C1
:1022600070B505460C46164602E00FCC0FC5103E71
:10227000102EFAD2082E02D303CC03C5083E042E3A
:1022800007D301CC01C5361F03E021782970641CF7
:102290006D1C761EF9D270BD07488047074800477D
:1022A000FEE7FEE7FEE7FEE7FEE7FEE70448054936
:1022B000054A064B70470000FD910008C120000848
:1022C00018390020183F0020183B0020183B002040
:1022D00010B501F01FFB001D10BD00BF012A010059
:1022E000FEB5054610460C46184373D0AE468C46E4
:1022F0000020AD1A01469C4167D3664600270124A1
:102300003D46B61A9D4102D313463A4621246546FE
:1023100076462F04360C3E432D0CB61A9D4104D34D
:10232000150C1B042B4312041034654676462F0609
:10233000360A3E432D0AB61A9D4104D3150E1B02E0
:102340002B4312020834654676462F0736093E4372
:102350002D09B61A9D4104D3150F1B012B43120101
:10236000241D65467646AF07B6083E43AD08B61A4B
:102370009D4104D3950F9B002B439200A41C6546FE
:102380007646EF0776083E436D08B61A9D411AD38C
:1023900092185B41641C16E0001876466546494178
:1023A000B71A9D410191009009D36046B11A984136
:1023B0008E468446009801990025401C6941DD073E
:1023C00052082A435B08641EE6D57246634603B092
:1023D000F0BDFFE700200146C046C0462A4623461E
:1023E000F5E700007CB51D4616460C00009001D0B4
:1023F0000019401E084B7B442A466946019030462E
:1024000001F051FD002C054603D06946002001F083
:102410005DFD28467CBD0000DD1A00000FB41CB530
:10242000084B06AA7B4469460090059801F03BFDE5
:1024300004460020694601F049FD20461CBC08BC4A
:1024400004B01847A51A00000FB47CB50C0009AA07
:10245000009001D00019401E094B7B446946019051
:10246000089801F020FD002C054603D069460020A5
:1024700001F02CFD28467CBC08BC04B018470000C5
:10248000791A000070B50C460546012A05D0287857
:10249000800600D5EA69002302E0012305E05B1C09
:1024A000934202D2E05C0028F9D1A869E618C01A6C
:1024B000A861286AC0182862284601F03EFA04E0A4
:1024C0006A682078A968641C9047B442F8D328460B
:1024D00001F049FA70BD0000F7B5002575291068B4
:1024E000009914A611D001F04FFA002802DA4042F8
:1024F00011A608E0009909688A0701D50FA602E035
:10250000490704D50EA6012501E001F046FA009F17
:102510000024243704E001F07DFE30313955641C7D
:102520000028F8D12B4632462146009801F03EFAA9
:10253000FEBD0000000000002D0000002B00000088
:1025400020000000F8B50F460188090502D5224C8D
:102550007C4402E0204C7C440E34054600212435A6
:1025600008E016071209360FA65D6E541E073243A7
:102570001B09491C16461E43F3D12246047800234A
:10258000240705D5702F06D0002901D0022311326F
:1025900001F00CFAF8BD01231032F9E770B50446DA
:1025A0000D462146106801F0F8F90023024629463D
:1025B0002046FFF7C7FF70BDD21DD308DB000CCB50
:1025C000C0E730B403682024126823430360082363
:1025D000C36130BC0023B5E7922C0100F3B504467B
:1025E000002081B020622046E1688847002872D030
:1025F000252802D06268A168ABE0594F00267F44CD
:102600002046E16888472028054608DB312D06D2A0
:10261000781920380078002801D00643F0E7B00789
:1026200001D5042086430020E0610746A0612A2DE1
:102630000AD0284607F076FA002827D0B8000019FB
:10264000303D0090856119E00298BA00121902C865
:10265000916102902046E1688847012F054617D115
:10266000E06900281FDA202086431CE000980A2138
:102670008069484300994019303888612046E168F4
:102680008847054607F04EFA0028EFD1012F0AD0FF
:102690002E2D08D12046E1688847054620200643B4
:1026A0007F1C022FC3DBA069002803DA4042A0612F
:1026B00001200643F00701D0102086436C2D0BD07B
:1026C000682D09D04C2D3CD06A2D38D0742D38D0CF
:1026D0007A2D36D016E040E0E1682F462046884744
:1026E000B842054609D16C2F29D001208002E1684B
:1026F000064320468847054604E06C2F1DD0FF2086
:1027000001300643002D28D028464138192803D827
:102710000120C00206432035204626602946029A41
:102720001646FFF70BFD002810D001280BD0F61D30
:10273000F008C0000830029055E74020E1E7802013
:10274000D5E70020D3E7361D02964CE7626828469D
:10275000A1689047206A401C44E7206AFEBD000043
:102760000C2C010070B5064601F0D8F80468054647
:1027700030460A22002101F0F1FC2C6070BD0000FF
:1027800010B5024A01F022FD10BD0000C002002079
:1027900030B505460B462A461C781078521C5B1C47
:1027A000002801D0A042F7D0002C03D0002802D08E
:1027B0006D1CEFE7284630BD034610B50B439B0761
:1027C0000FD1042A0DD308C810C9121FA342F8D094
:1027D00018BA21BA884201D9012010BD0020C04397
:1027E00010BD002A03D0D30703D0521C07E00020FD
:1027F00010BD03780C78401C491C1B1B07D10378C3
:102800000C78401C491C1B1B01D1921EF1D11846AB
:1028100010BD0000034670B502460B439B070FD165
:102820000E4CE60100E008C208C91D1B9D4335425D
:10283000F9D0D9B21170521C00290DD01B0AF8E74B
:102840000B78491C1370521C002B05D00B78491CC7
:102850001370521C002BF3D170BD00000101010167
:1028600030B5441C03E00178401C00290DD08107DD
:10287000F9D10B4BDD0104C8D11A91432940FAD09C
:10288000001B0A0603D0C01E30BD001B30BD0A0469
:1028900001D0801E30BD0902FCD0401E30BD0000BA
:1028A00001010101F8B5042A2CD3830712D00B785B
:1028B000491C0370401C521E83070BD00B78491C27
:1028C0000370401C521E830704D00B78491C037010
:1028D000401C521E8B079B0F05D0C91ADF00202316
:1028E000DE1B08C90AE0FFF7BBFCF8BD1D4608C99E
:1028F000FD401C46B4402C4310C0121F042AF5D2E0
:10290000F308C91A521EF0D40B78491C0370401CFE
:10291000521EEAD40B78491C0370401C012AE4D4EF
:1029200009780170F8BD431A70B593421BD289181B
:10293000801804E0491E401E0B78521E0370930756
:10294000F8D106E01039103878C9103978C010383D
:10295000103A102AF6D203E0091F001F0B6803602B
:10296000121FF9D570BDFFF77BFC70BDF8B50646A8
:1029700014460843800707D0751AA54219D20819D2
:10298000102D13D2311907E03046FFF7CCFFF8BD08
:10299000401E491E02780A70641EF9D2F8BD471B1A
:1029A0002A463946FFF77EFF641B3846A542F6D318
:1029B000011B22463046FFF775FFF8BDD2B210B5B5
:1029C00013029A1813049A1800F00EF810BD01E0D3
:1029D00004C0091F0429FBD28B0701D50280801C8B
:1029E000C90700D00270704700290BD0C30702D07E
:1029F0000270401C491E022904D3830702D50280BD
:102A0000801C891EE3E70022EEE70022DFE70000DA
:102A1000024670B50A4392072AD11E4DEE0104C842
:102A200008C9541B9443344017D0D0B2D9B2401ACD
:102A30002106014310D190B299B2401A21040143FA
:102A40000AD110021902000A090A401A21020143A0
:102A500002D1100E190E401A70BD9A42DFD010BA82
:102A600019BA884201D9012070BD0020C04370BD51
:102A700002780B78401C491C002A09D09A4207D1E1
:102A800002780B78401C491C002A01D09A42EFD0F2
:102A9000D01A70BD010101018178C2780378090460
:102AA0001206114342781002184308437047020A85
:102AB00008704A70020C8A70020ECA7070470022B9
:102AC00003098B422CD3030A8B4211D300239C466B
:102AD0004EE003460B433CD4002243088B4231D3E3
:102AE00003098B421CD3030A8B4201D394463FE077
:102AF000C3098B4201D3CB01C01A524183098B42D7
:102B000001D38B01C01A524143098B4201D34B01BF
:102B1000C01A524103098B4201D30B01C01A524122
:102B2000C3088B4201D3CB00C01A524183088B42A9
:102B300001D38B00C01A524143088B4201D34B0092
:102B4000C01A5241411A00D2014652411046704704
:102B50005DE0CA0F00D04942031000D34042534009
:102B600000229C4603098B422DD3030A8B4212D3C9
:102B7000FC22890112BA030A8B420CD389019211FB
:102B80008B4208D3890192118B4204D389013AD038
:102B9000921100E08909C3098B4201D3CB01C01A0D
:102BA000524183098B4201D38B01C01A5241430920
:102BB0008B4201D34B01C01A524103098B4201D30E
:102BC0000B01C01A5241C3088B4201D3CB00C01A7B
:102BD000524183088B4201D38B00C01A5241D9D293
:102BE00043088B4201D34B00C01A5241411A00D214
:102BF0000146634652415B10104601D34042002B10
:102C000000D54942704763465B1000D3404201B58E
:102C10000020C046C04602BD7047704770470000A4
:102C20000246C80FC00781434B0030B54B405B00E4
:102C30009B0D20D01923DB06C91801231B059942DF
:102C400020DB0324A40704251346AB400BD3002B41
:102C500004D1EB0613409B00E34204D40124640733
:102C6000002312195941FF231B0599420BD2C900B9
:102C70000143500F09E0CB0204D50143080302438E
:102C800005D0054830BDFF21C905084330BD0846C1
:102C900007210905884330BD0000C07FF0B50C4610
:102CA000871A9C410D46861A9D4103D2C01BA14143
:102CB000D21963410D0D1F0DC94EEC1BAE435CD004
:102CC0007F057F0D0026002F51D02D05AC46A9436E
:102CD000DD020123ED0A1B051D4320231B1B24D409
:102CE0001746E740381871412F46E740CC199D4000
:102CF0002818314661410C0D27D161449A4013D503
:102D00000023401C594152000ED1400840000122CE
:102D10004B005205D34207D305204007C14201D5DD
:102D2000B04900E0B0493046F0BD6B00002A00D049
:102D300001229A181F23203C1B1B01D5002302E00F
:102D4000E540281871410C0DD7D00124240509193C
:102D5000C407CD0740084908E40F28436144002C0C
:102D6000D5D00024401C61419A40D0D1CDE76A05FE
:102D7000520DD9D1C90FC907D5E79C4D4E00002887
:102D800001D0012400E0002434195F00002A01D0A2
:102D9000012600E00026BE19954FAC420CD8AE4289
:102DA0000AD8B44206D001256D05EC42BCD01046CD
:102DB0001946F0BD9942FCD000203946F0BDF0B56F
:102DC0001FB40C460F46811A9F412546861A9D4125
:102DD00006D20125ED076F40401ABC4152187B41D5
:102DE000210D1E0D8D1BAC467D4D8D437ED075058E
:102DF0006D0D7CD00D05AE46AC431B031B0B794D0E
:102E000052429D41202366469B1B14D31746F74030
:102E1000381800260090744160462F460741E41997
:102E200000989D402818664116D4714671189A4042
:102E300025D5012320E093182A466A415200002B31
:102E400000D0521C1E23203E9B1B002B61DD354110
:102E5000EE1728186641E8D5001876415B1C9A40A9
:102E600000D3401C4B05F3181524E34010D3002B6E
:102E700052D071467118D30FC01802D3491C05B047
:102E8000F0BD0123DB079A42F9D140084000F6E784
:102E900001225205B21801D1002853D00123CC0AD7
:102EA000DB029943891E002A08D1020C03D0020CD0
:102EB0000004103902E00246002020390023550B9F
:102EC00005D112020823550B01D152010D23550CD7
:102ED00001D112011B1DD50C01D192009B1C150DB7
:102EE00001D152005B1C2025EE1A01E02CE022E00B
:102EF0000546F54015439840CA1AE10769181305BD
:102F0000C918002ABBDA032040070818C10FC907F7
:102F10000FE071466118B2E7F107400808437110ED
:102F200071444A000CD001235B059A42A7D2C90F15
:102F3000C9070020A3E74905490D26D1002001E07B
:102F40000028F4D100219AE7284D6600002801D01E
:102F5000012100E0002171185F00002A01D0012644
:102F600000E00026BE19224FA94210D8AE420ED86A
:102F7000B14208D001256D05E94206D01946A802E4
:102F8000414010467BE79C4201D0214677E7002074
:102F9000394674E710B50C465C4005D50124E407BA
:102FA0006340FFF70CFF10BDFFF778FE10BD30B493
:102FB0000C465C4004D50124E407634030BC6DE658
:102FC00030BCFCE670B50124E40761400D465D406D
:102FD00002D4FFF763FE70BD6340FFF7F0FE70BDE3
:102FE000FF0700000000F0FF0000F07F0000E0FF9E
:102FF0000000F87FF0B5F94D0C091E092C402E4059
:103000002F468BB0A7437DD0B543FCD0002E7AD09D
:10301000002CFCD00D465D40ED0F2543AC1BFF2579
:10302000AD0464190894C502440DC9022143500D32
:10303000DC0204430120C00701430443D202019192
:10304000200C110C00958C46010423468B430A91F9
:1030500061460904E24D8A430991010A7D444919F8
:103060008039097805464D4301266D18F605751B14
:103070006943C90C640B891C4C436418B5012C1BB3
:10308000250C2E04B4434C434D43210C6918890987
:103090000591009DE90701D00121C90704912C4643
:1030A00001996708CD072F434C08059DE10B4D435F
:1030B0002D0C29466646754302950D4645432E461E
:1030C000029D7D1BB44100950D465D4301942C0C7F
:1030D0002F040D465543AE462D0C3D4302950394F7
:1030E0007546049C2D04641B049406D2029C039D27
:1030F000641C002675410395029401AC70CC009FBE
:103100007D1B01E03EE162E1B441090400950791B5
:1031100001940599A4086143090C0C464443650BCE
:10312000E7040C4666467443A646640B3C4303958D
:1031300002947446049DE4042C1B049406D2029C61
:10314000039D641C002675410395029401AC70CC6C
:10315000009F7D1BB44101940C465C430095650FB4
:10316000E7000C465443A646640F3C430395029483
:103170007446049DE4002C1B049406D2029C039D1B
:10318000641C002675410395029401AC70CC009F2D
:103190007D1BB441AE09AF06049DC900AD092F43A4
:1031A000049DA406AD060495079D34436918079154
:1031B000059DE10B4D432D0C29466646754302954E
:1031C0000D4645432E46029D7D1BB44100950D469C
:1031D0005D4301942C0C2F040D465543AE462D0C37
:1031E0003D43029503947546049C2D04641B04948E
:1031F00006D2029C039D641C00267541039502942F
:1032000001AC70CC009F7D1BB44101948C050694E9
:10321000079C890A611800950791019C0599A408EB
:103220006143090C0D464543680BEF040D466446A7
:1032300065436C0B3C43049FED047D1BAC4602D2FE
:103240000025641C6841009E019D371B854108468E
:10325000584301950C46460FC5005443600F284360
:103260006546E4002C1B02D20025401C6E41019DE6
:103270003F1AB5412846BD09800628438446A00967
:10328000BF064E020699A40676180743079D002044
:1032900068410A99079019430020099B00906046F5
:1032A000FF1913434041E20F64003A43A446044629
:1032B000D71A8C41A04203D90120009020463A46FB
:1032C000C70F941840416246D20F224364466400FF
:1032D0000494009CBE466400D71AA4460446029794
:1032E0008C417746002F01D1A04204D96046401C92
:1032F0008446029A2046C40FA64694184041049A78
:103300000546D20F224364466400D31A8D417146AC
:10331000002901D1A84202D928461A46641C10434C
:103320000122002800D0164361020020079B891962
:1033300004465C410223002C02DB49181346644119
:10334000089DCE0A2D145D194B056705E10A2C0571
:103350000D1908993E43C9076940002B08D09340D6
:1033600006D30022761C5141002B01D1760876004D
:103370001C4A002D43DB154241D0AA433FD03046C2
:103380000BB0F0BD06180D464D41174C7642AC41CE
:103390001AD395181C465C41134A6D42A24113D3BF
:1033A000012252054C00D4420AD15C00D4420BD019
:1033B0004B4002D592021143E2E749004908DFE79A
:1033C0005940C90FC90718E000200849D8E7054847
:1033D00001420DD10342F7D0F2E700000000FF07E1
:1033E000BF2101000000F07F0000E0FF0000F87F37
:1033F000114859400143C01241400020C0E7012359
:10340000089A9B069A4205DC032252078918C90FC5
:10341000C907B5E7052252078918074A1143D21296
:103420005140ADE770B515461C4602460B4628468E
:103430002146FFF7DFFD70BDFFFFFF7FF0B58B4C2E
:103440000F09254689B0BD437BD01D092646AE43F2
:10345000FAD00E465E402740F60F3E43254071D01D
:1034600024012142FBD0FF24AD19A4042D1B039598
:1034700001252D05DB02DB0AC9022B43C90A2943BA
:103480001E010901040F130F050121431701880BC9
:10349000820391432D098C46A90B1E438A03954351
:1034A000B30B9A0396433F09BA0B9403A7430296C2
:1034B0002E467E430497B6464E19D7190C46019600
:1034C000544305977E43371B7646BF1B3601B646ED
:1034D000BE0B361900967646BC043719009C01D302
:1034E000641C00946400002F01D001263443029E26
:1034F000049F754366467E430496760034196E0039
:1035000034190094029C019E1C196643751BAE463B
:10351000069465464519059C05956C4359437546C7
:103520000891691A0191049E01465143A41B04911C
:10353000611A009C0791E10605D06109012211433F
:1035400002E072E06EE06109089D00272C0A2D065A
:103550006918049D7C412A0A2D066918019D624163
:10356000AC0DAD026D185441079A910D9202551998
:103570006141029A644658435443069B059A5A4354
:10358000121A131B9A0E9B015B187A41010B00055E
:10359000C3185141220A200644195A419A4200D2C6
:1035A000491C01204002814203D315230226F64321
:1035B00002E014230326F6432020C51AA94017462B
:1035C000AF40DA400A4320460399D84009147318E3
:1035D00019055118039A3843D2075140AC4009D01D
:1035E0000122944006D30022401C5141002C01D1FD
:1035F000400840001E4A934212D3012203989206CB
:10360000904207DB0520400709181A480143C01201
:10361000414004E0032040070818C10FC9070020FB
:1036200009B0F0BD0020F107FAE705180C464C413F
:1036300011486D42A04115D394181A465A410E48BC
:10364000644290410ED301204A004005824209D3D2
:103650005A00824206D35940C90F084AC9070020C0
:103660001143DDE700200649DAE700000000FF070C
:10367000FE070000FFFFFF7F0000E0FF0000F07F7B
:103680000000F87F0121C9050123411842001B06F3
:10369000D3185B0E0AD0C1100722D2068918400742
:1036A0005242D14201D5520089187047090208D50B
:1036B0000146002A03D0C10FC907002070471046F9
:1036C0007047420202D000200249704707210905D5
:1036D0000143F4E70000F87FF0B5FF252D04C6098B
:1036E000C209FF2704462E400137CB093E4348401C
:1036F0002A402B400746002A6BD0002B69D0AA42F3
:1037000067D0AB4265D0002800DA32460125ED05CE
:1037100029432C4309022002090AD21A4B0C7F24A8
:10372000E31A434C000A7C44E35C7D242404121910
:1037300014145B00A218884201D3521C00E0400020
:1037400049420C465C4324115C43DB016415E318D9
:10375000040A5C43C502200D0C4644436419250A43
:103760005D432303EC0C0D46654300030019EB1881
:103770004C42A34201D35B18401CD4052018002BF7
:1037800007D05B00C91804D3401C002901D14008B0
:1037900040003F2189048A4209D3002A08DC11062F
:1037A000090F04D0032149074018C00FC007F0BD1E
:1037B00001224100120689187F2252069142F6D258
:1037C00005214907C84201D59010F0BDFF20C00572
:1037D000F0BD002F00DA32461648AA4207D2AB42AB
:1037E00005D21902090E17D0F80FC007F0BDFF254A
:1037F00063002D06AB42F9D84900A942F6D8AB4286
:1038000001D1A942F2D0A94201D1002101E0610019
:103810004908D0050843F0BD1102090EFBD0FF2076
:103820000243D005F0BD0A460146104654E70000A9
:10383000751B01000000C07F10B501469E240002E8
:10384000CA15A307002A02D01843002A04DBA21AD3
:10385000002A0CDDD04010BD1206120E01D140002E
:103860004008A21A03D4D04040420028F3DDFF22D2
:1038700048001206904201D9002010BDC817C0436D
:10388000584010BD0102C21504D00123DB071943C3
:10389000002A0ADB9E239A1A02D40846D0407047B9
:1038A000FF2241001206914201D900207047C01743
:1038B000C04370471F22030C02D10F2200041CD00A
:1038C000030E01D10002083A030F01D10001121FBB
:1038D000830F01D18000921E002801DB4000521EA0
:1038E000D2055118021251181922904004D3491CD4
:1038F000002801D14908490008467047C10FC9078F
:1039000000D04042012292071143D3E701218907E9
:10391000D0E7000000487047D438002000487047C6
:10392000B438002010B5FFF7F9FF006810BD10B5DE
:103930000446FFF7F3FF046010BD70B504468569C7
:103940000068C10601D5302600E02026C00707D058
:1039500070BD62683046A1689047206A401C2062B2
:103960006D1EF6D570BD70B5044685690078C00738
:1039700007D170BD6268A16820209047206A401C72
:1039800020626D1EF6D570BD09684A0501D540B2AA
:103990007047C905FCD500B2704709684A0501D5D2
:1039A000C0B27047C905FCD580B27047FFB5044668
:1039B0000D4681B0243000902168880604D510227D
:1039C000E0699143216000E00120A84201DD471B2E
:1039D00000E000270498A1697A191018081AA0615C
:1039E0002078C00602D42046FFF7A7FF002608E093
:1039F00003986268A168805D9047206A401C761C2D
:103A0000206204988642F3DB2078C0060AD520465F
:103A1000FFF793FF06E06268A16830209047206AB4
:103A2000401C206238467F1E0028F4DC07E0009826
:103A30006268A168405D9047206A401C2062284669
:103A40006D1E0028F3DC2046FFF78DFF207800066E
:103A500002D5022005B0F0BD0120FBE71168026825
:103A6000006A530501D5087009E0D30501D5088027
:103A700005E0130602D5C21705C100E00860012069
:103A8000704700007047FFB50C461E468FB003CA52
:103A9000089009914F007D0D00D16D1E0021084650
:103AA0000020C0460321099A89050840002A03DA4C
:103AB0008200801840080840800D01280A9002DD2D
:103AC0000020C0430A90089807430DD0F048F14900
:103AD000281848430714189800281DD07542291E3D
:103AE0001DDD0A9842421BE01898012802D00020F0
:103AF000302104E00020F24305E02154401CB04294
:103B0000FBDB30460022189B002121540F998B606B
:103B10000A60486013B0F0BDBD1B6D1CDFE70A9A58
:103B2000002900DA69420BA800F09CFE0BAB07CB22
:103B300003AB07C30899099800F000FF6B4607C361
:103B40000146D5480918002D00910BDDD249039894
:103B50000A9A49424018002303A90390684601F0DD
:103B60005DF908E003990A9A0023081803A9039055
:103B7000684601F0FDF86B4607C30004000C03D053
:103B80000020C043410800E01046189A002A03D0E4
:103B90000022009215461EE0751E05D400F0E0FBE1
:103BA000303262556D1EF9D501220843079602D0C6
:103BB00000227F1C04E02078302801D100227F1EE3
:103BC000002A069787D01EE0112D07DA00F0C8FB07
:103BD000303262556D1C02460A43F5D1084303D0CA
:103BE0000098002819D00EE00021681E05E0235C33
:103BF000625C63542254401E491C8142F7DBA81BBF
:103C0000401E07950690079A18990020A0540F9817
:103C1000079B069A81600CC07CE711260020189053
:103C200059E7D21DF0B50D460446D10893B0C9003E
:103C300003C90C900D9105F0D9FD02460D98C00FF7
:103C400001D02D2007E02068810701D52B2002E05C
:103C50004007C00F4001032A0F9001D0072A05DB5F
:103C600003462946204600F02DFD0EE1207880060F
:103C700001D5E76900E006272846652D04D06628AF
:103C800014D0672D69D12DE00020112F009001DBA9
:103C9000112300E07B1C0CAA03A910A8FFF7F3FE78
:103CA0001199002610987D1C0E9142E001203B46A0
:103CB0000CAAC0070B900120009003A910A8FFF7E1
:103CC000E2FE119D12981099002600280E9501D150
:103CD000781C0D18781B02D446427D1C761EE81B0A
:103CE00000903AE0012F00DA01270020112F009008
:103CF00001DD112300E03B460CAA03A910A8FFF741
:103D0000C2FE11993D46109800260E9121780907B0
:103D10000BD40E99A94200DA0D4603A9012D04DD4A
:103D20004A19203AD27F302A06D0B84201DA011D62
:103D300004DA012100910FE06D1EEFE7002802DC9C
:103D400086192D1A03E0411CA94200DD0D46801B97
:103D5000401C00900120C0070B902078000705D47C
:103D60000098A84202DB0020C04300906946002072
:103D7000C8720B98012102AF0337C907884225D0CA
:103D8000022010902B2011900B9800280BDA404253
:103D90000B902D20119006E00B9800F03BFA30318B
:103DA0007F1E0B9039701099481E00291090F3DC8B
:103DB0000B980028F0D111987F1E387020880005DC
:103DC00001D5452000E065207F1E387001A8C01B8A
:103DD000C01D0B900F98002800D0012041190098B9
:103DE000C01709180B980818A169081A401EA0618D
:103DF0002078C00602D42046FFF79FFD0F980028C8
:103E000005D06268A1689047206A401C2062207833
:103E1000C00625D52046FFF790FD21E0002E07DBE8
:103E20000E98B04204DD03A86268805DA16802E0DC
:103E30006268A16830209047206A761C401C20628E
:103E40000098401E002800900AD1FFF763FDC0686B
:103E500062680168405CA1689047206A401C20624B
:103E600028466D1E0028D9DC07E062683878A16812
:103E70007F1C9047206A401C20620B99481E002935
:103E80000B90F2DC2046FFF76EFD032042E60000B7
:103E900001FCFFFF104D0000E1DFFFFF01694A1C3C
:103EA00002610878704700B58FB00291002105913A
:103EB0000549019379440391114604906846FEF741
:103EC0008DFB0FB000BD0000E5FFFFFF0A6810701A
:103ED000521C0A6070470CC908399A4202D2531C1E
:103EE0000B601070704710B54369002B02D0C046BC
:103EF000C04601E0FEF7C6FA012010BD1278014667
:103F000024310A7000224A700122ECE71168002275
:103F1000D243E8E7F7B50446154686B02B48784407
:103F2000002703C83E460090019111E007986A46B9
:103F30007100415A02A800F0C1FF411C07D021784E
:103F4000890603D5E269391891420ED83F18761CCC
:103F50002078800602D5E069B84206DDAE42E5DB96
:103F600007987100405A0028E0D1A069C01BA061E9
:103F70002046FFF7E2FC154878445A3803C8009001
:103F80000020019116E041006A460798415A02A8B4
:103F900000F094FF0590401C0AD0002505E06268FF
:103FA00002A8A168405D90476D1C05988542F6D334
:103FB0000498401CB0420490E5DB206AC0192062DE
:103FC0002046FFF7D0FC09B0F0BD0000F613010059
:103FD000F7B5D21D0025D20815A6D200F52905CACD
:103FE00011D0002A05DA00214042914111A60A466B
:103FF00008E0009909688B0701D50FA602E0490780
:1040000001D50EA601251146009F0024243704E0A7
:1040100000F0A6F930323A55641C02460A43F7D143
:104020002B46324621460098FFF7C0FCFEBD00003B
:10403000000000002D0000002B0000002000000008
:1040400070B504460021243408E05507D2086D0FEE
:10405000303565545D072A43DB08491C15461D436E
:10406000F3D10468002310A2250708D5A40601D4C3
:10407000002904D0C46901230CA2641EC461FFF7A7
:1040800095FC70BD10B5044621461068FFF785FC0D
:10409000002302462046FFF7D3FF10BDD21DD108F2
:1040A000C9000CC9CCE7000000000000300000008F
:1040B0000FB4002300B589B00CA900910B99CB6017
:1040C000224B7B44224A7A440792042206930192AF
:1040D000204A0292204A7A446B4608920246002007
:1040E00010F0CEFF09B008BC04B0184770B5064602
:1040F00015460C46324686B00020C0430190002091
:10410000049004A8009102916946FFF7D1FF02468E
:1041100004982118002D05D0002801D0084600E0A1
:1041200020462860049800280DD0002A02DD00985F
:10413000884208D03246081B6946019004A80094C2
:104140000294FFF7B5FF06B070BD0000B506000091
:10415000D1060000FFFFFF7F01030000F7B50F4607
:104160000026009C2578641C002D05D0FEF7B0F8D1
:104170000068405DC007F5D12B2D02D02D2D18D041
:10418000641E3946029A204600F019FB002F04D025
:104190003968A14201D100993960710502240029D2
:1041A0000BDA4042002803DDFFF7B8FB0460A007EC
:1041B000FEBD012080020643E3E70028F8DAFFF79E
:1041C000ADFB04600048FEBDFFFFFF7FF8B515465C
:1041D0000E46040003D12C68002C00D10CA420460C
:1041E00000F09DFE0419207800280ED027463146A5
:1041F000384600F083FE04192078002802D0002001
:104200002070641C38462C60F8BD0027FAE70000D7
:104210000000000001468008081A02091018020A6E
:104220001018020C1018C008820012185200891AC7
:1042300001E0401C0A390A29FBD270471F22030CF7
:1042400002D10F22000402D0030E03D004E00020AC
:10425000014670470002083A030F01D10001121F06
:10426000830F01D18000921E002801DB4000521E06
:10427000120551184205C012411810467047C10F6F
:10428000C90700D04042012292071143D6E701211D
:104290008907D3E770B505464800440D124B00204E
:1042A000002C0AD0634008D09A4206DA6642B24235
:1042B00003DD12054019514170BD002C08D0002BC0
:1042C00009D0C90FC907002AF6DB084A114370BD9F
:1042D000C90FC90770BD28460A03104302D0002049
:1042E000034970BD284670BDFF0700000000F07F45
:1042F0000000F87F10B5FF231B0644009C421DD828
:104300004C009C421AD80346124A0B4307D4401A69
:1043100002D3EFF3008010BDEFF3008010BD081A48
:1043200006D2EFF3008001219043C907084302E061
:10433000EFF30080904380F3008810BD0D231B0431
:104340001A4204D01146002000F0F9FD10BD00F023
:1043500055FE10BD0000009000487047B4380020A2
:104360000B4670B5024689078008084319469D0828
:10437000141AA94125090807054308092C194841C1
:10438000250A01060D43010A2C194141200C0D0498
:1043900028430D0C00194D41002140194D41C00822
:1043A00069070843E908840F8D0025438400241819
:1043B0004D4124196D41121BAB4107E00925ED4326
:1043C0002C11521963410024401C61411C460A25EE
:1043D0000026551BB441F1D270BD10B50446FDF75F
:1043E00077FF0068005DC007C00F10BDD21DF0B59B
:1043F00004460D46D0088DB0C000466807683146B7
:10440000384605F0F3F90246F00F01D02D2307E0FE
:104410002068810701D52B2302E04007C00F43012C
:104420006846002B037001D0012000E00020032A21
:104430000A9001D0072A04DB2946204600F042F901
:104440002DE12078800601D40D2500E0E56970009B
:10445000400D0D2D01904BDA300D00210B900846D8
:104460000020C046032189050840002E05DA82009D
:104470008018C20F1018401008408015012801DD77
:104480000020C043A9000023182906D39C460A46F1
:104490000123183A1B07D34003E001221205CA404A
:1044A00094460C31202902D33A46203900E03246A6
:1044B0008A40002802DD002A06D119E0002817D121
:1044C0000121C9078A4213D3194663467F185E410A
:1044D000002806D10120C007824202D10846874346
:1044E0009E430B98310D814202D00198401C0190EF
:1044F0002088000502D57149794402E06F4979446A
:1045000019396B460A9830221A540A980A7C401CC2
:104510001A54401C0A900198002801DC302000E069
:1045200031201872019A0120002A02D0644BD2185F
:1045300004E072003A4302D0614A521C0192002DFD
:1045400002DC2278120703D56A462E205072022020
:104550000022864694460CE032033601120F6D1E8F
:104560008B5C02AA13546246521C401C9446052AD6
:1045700001DA002DF0DC002202AE08E03B0F3F0123
:10458000CB5C521C6D1E3354401C082A01DA002DEE
:10459000F4DC23689A0601D511E0401E704504DD65
:1045A0003218203AD27F302AF7D0002807DD32189F
:1045B000203AD27F2E2A02D11A0700D4401E002DA5
:1045C00003DD3E223254401C6D1E497C315401995A
:1045D000401C002906DA2D21471C31540198404225
:1045E000019003E02B21471C315401987D21C90023
:1045F000884206DBFEF76DFA3030F0557F1C0191E2
:1046000001E0642808DB01986421FEF762FA30308B
:10461000F0557F1C019101E00A2806DB01980A2170
:10462000FEF757FA3030F0557F1C01980A21FEF74B
:1046300050FA3031F1550A98A1697F1C7A19101887
:10464000081AA0612078C00602D42046FFF775F949
:10465000216A6E460A980818206204E06268307881
:10466000A168761C90470A98401E0A90401CF5D11C
:104670002078C00602D52046FFF75FF902AE09E0B8
:104680003078761C3E280DD06268A1689047206A79
:10469000401C20627F1EF3D22046FFF764F90DB064
:1046A0000320F0BD206A4019206203E06268A1681F
:1046B000302090476D1EEDD3F8E700003F0E01005B
:1046C00001FCFFFFF8B51F46044601230068DB022A
:1046D000032601461840072A05DB002801D017A54C
:1046E00006E017A504E0002801D016A500E016A5F5
:1046F000102081432160A069C01E002FA06101D05D
:10470000401EA0612046FFF718F9002F09D0384657
:104710006268A1689047206A401C2062C01C206229
:1047200006E0206AFAE762682878A1686D1C904765
:10473000761EF8D22046FFF716F9F8BD4E414E001E
:104740006E616E00494E4600696E660010B54369A1
:10475000002B02D0C046C04601E0FFF7DBFB012082
:1047600010BD12880146243182840022C2840122B5
:10477000ECE711680022D243E8E74268002A08D03B
:1047800001680B78491C002B03D0521E06C0184646
:1047900070470121C160881E70474268002A0BD013
:1047A000C3680168002B07D183688B4204D0491E7F
:1047B000521C06C0002070470020C0437047F7B568
:1047C000154682B00027029C2078641C019730288F
:1047D00002D0002D15D015E020780127641C782820
:1047E00004D0582802D0002D09D00BE0002D01D0B4
:1047F000102D07D1207800271025641C02E0082521
:1048000000E00A250026009610E000990127694380
:10481000081829467143020C80B200908E183804A3
:10482000864201D3012001902078641C294600F0C3
:104830000CFC0028E9DA0398002805D0002F01D0ED
:10484000641E00E0029C04600198002806D0FFF777
:1048500065F802210160C81E05B0F0BD0099300462
:104860000843F9E7F7B516468AB0334878446C46F2
:1048700003467C33C06F5A689B680DC42E48784449
:10488000763003AC0DC80DC43720C001081837219D
:104890001B30FEF71EF905460C46803D1B3C02D539
:1048A0006442012000E000200027099010E0E007AA
:1048B0000CD00C2020497843794432464C394118B9
:1048C0006846012300F054FA6B4607C364107F1C4E
:1048D000002CECD1184F7F442E3F16E0E80712D091
:1048E0002001C0190EC80691089307920068F04293
:1048F00001D1981908903246012306A903A800F0B7
:1049000037FA03AB07C36D10641C002DE6D109987C
:10491000002806D032466946012303A800F07EFA3B
:1049200005E001233246694603A800F021FA0A9BFC
:1049300007C30DB0F0BD0000E00A010003464000CF
:104940000A4610B5400D0BD00121C9070F24A4025F
:1049500000191C0364082143540D2143D20207E0CF
:1049600000210120F2E7D40F490021435200401EEC
:104970000029F8DADB0FDB07184310BDFFB50D4641
:10498000144685B04868516804F00BFF009101900F
:10499000A868A16804F005FF02910390A868616807
:1049A00004F0FFFE029A12188242029201D2012004
:1049B00000E00020019A0B18D2180028019202D0C2
:1049C0008A4202D903E08A4201D2012000E000209D
:1049D0000099081800906868A16804F0E2FE029A45
:1049E00012188242029201D2012000E00020019AB6
:1049F0000B18D2180028019202D08A4202D903E093
:104A00008A4201D2012000E000200099081800909D
:104A10002868216840004900400849084018FA49C0
:104A2000471814E001994000C90F0843009001980D
:104A300002994000C90F0843019002980399400071
:104A4000C90F08430290039840007F1E039000980E
:104A50000028E7DA0898002801D0EC4E00E0002694
:104A6000B74201DA012000E00020002804902AD09B
:104A7000F71BF806C00E15D0029B2021091A039AD5
:104A80008B401A430392029A019BC2408B401A4307
:104A90000292019A009BC2408B4000991A430192F6
:104AA000C14000917B110DD06F460320C11A03D580
:104AB00000218200B95003E08A008100BA587A5080
:104AC000401EF3D5374603980299002800D00120F4
:104AD000014308980291002808460CD0002800D015
:104AE00001200199019A490508430121D20AC9020E
:104AF000D202019200E001210E9B0122D207012B7C
:104B000002D0002B03D013E0002807D120E0904210
:104B100004D890420CD1019B0B4209D0019B59183B
:104B2000019105D10099491C009101D17F1C00928F
:104B300000280DD0102108460020C0460498002807
:104B400006D00F98002803D0082108460020C04650
:104B500028682168019B009A4840C10F0598C90741
:104B600039430EC009B0F0BDFFB587B0099A089867
:104B700008995368926840688968964600220393B2
:104B800017469446089A12685300099A5B081268FF
:104B9000520052089A1A9E4BD4180A9A002A01D041
:104BA000352200E04022069200220123154604929D
:104BB000DB07059324E0002D05D175460346039ECF
:104BC0004D1BB34109D375466646039B491B049DA3
:104BD0009841059B7519AC465F4163463B4308D03D
:104BE000059B049EDD0776082E435B08049605931B
:104BF00001E0521E641EC50FED0749184041521CCA
:104C0000069B9A42D7DB002D04D17546039A6B1A96
:104C1000824101D203200CE0039A0B466B404240D4
:104C2000134303D0014303D0012002E0022000E03F
:104C30000020614601910021009702910A99002904
:104C400005D0614640020143704B019102E08007AC
:104C5000002302909C4201DA012000E000200700BE
:104C60003AD01A1BD006C00E15D0029D2021019CFF
:104C7000091AC5408C402543029C8C4000D0012479
:104C80002543019C0295009DC4408D4000992C4312
:104C90000194C140009154111DD06D4602210022A3
:104CA00002290CD10320001B07E0002804DB86004A
:104CB000AE59002E00D00122401C0328F5DB081B52
:104CC00002D588002A5004E08000285810438A004A
:104CD000A850491EE3D51C460A98002802980CD01B
:104CE000002800D001200199019A490508430121BB
:104CF000D20AC902D202019200E00121109B0122D6
:104D0000D207012B02D0002B03D013E0002807D1DB
:104D10001FE0904204D890420CD1019B0B4209D075
:104D2000019B5918019105D10099491C009101D1AD
:104D3000641C009200280CD0102108460020C046B8
:104D4000002F06D01198002803D008210846002023
:104D5000C04608980999019A009B00680968484074
:104D6000C10F0798C907214382600AC00BB0F0BD8C
:104D700000B585B0019300920A460146002302A8BF
:104D8000FFF7FCFD02A807C805B000BDFFB50A4645
:104D90001F4685B00799019301230091014602A89F
:104DA000FFF7ECFD02990398049ECA0F4900D20751
:104DB00000920F22490892028C1A0021002800DB81
:104DC0000C46450013486D08844214D3079A002A04
:104DD00004DA441E0026104DF64302E004460D4658
:104DE0000E46102108460020C046002F03D00421A3
:104DF00008460020C0462005E90A084300990843F8
:104E00006905F20A1143ADE602C0FFFF013C000054
:104E1000FF3F0000FF070000FFFFFF7F00B585B0E8
:104E2000019300920A460146002302A8FFF79CFE68
:104E300002A807C8A8E7FFB50A461F4685B007992C
:104E4000019301230091014602A8FFF78DFE02990C
:104E50000398049ECA0F4900D20700920F22490806
:104E600092028C1A0021002800DB0C4645001148F4
:104E70006D08844214D3079A002A04DA441E0026DF
:104E80000D4DF64302E004460D460E46102108463D
:104E90000020C046002F03D0042108460020C04651
:104EA0002005E90A0843009908436905F20A1143FD
:104EB00058E60000FF070000FFFFFF7F70B51646B1
:104EC0000C460546FDF704FA0368FF200230C05C7B
:104ED000012807D0FF2C0ED8185D00280BD0012028
:104EE0002C7070BDFF333246214608331868C31852
:104EF0002846984770BD0020C04370BD30B50346BA
:104F00001D78002D03D00A4603E0AC4201D1181AE7
:104F100030BD1478521C002CF7D15B1CF0E730B583
:104F200003461D78002D08D00A461478521C002C28
:104F300003D0AC42F9D15B1CF3E7181A30BDC802AC
:104F400012D54803400F002804D0C803C0430121F4
:104F500088407047EFF30080000100090321090732
:104F6000084380F30088704700207047F8B5224C52
:104F70004E00069DA6420AD8A64201D1002806D1BD
:104F80005E00A64203D8A6420AD1002A08D00D240A
:104F9000240425422CD029460020FFF7D0FFF8BD7D
:104FA0000C461C430CD4994202D0EFF30080F8BDAC
:104FB000904202D0EFF30080F8BDEFF30080F8BD1F
:104FC00009242407E5008B4206D0EFF30080A043BC
:104FD000591A06D2284304E0101A05D3EFF30080D3
:104FE000A04380F30088F8BDEFF30080A043F1E711
:104FF000009500F0D1FAF8BD0000E0FF10B50248BE
:1050000000F0D4FA10BD00000000C07F7546FFF725
:10501000A3F9AE46050069465346C008C000854660
:1050200018B020B5FDF742F960BC00274908B64624
:105030000026C0C5C0C5C0C5C0C5C0C5C0C5C0C5A7
:10504000C0C5403D49008D4670473A2800D23038EF
:10505000202302469A43412A01D31046373888421A
:1050600001D30020C0437047FFB58BB00878FF28FC
:1050700006D0491C2D2805D000230020009009E00F
:1050800000200EE00123F8E7009A0A24624380180A
:10509000491C00900878FF28F6D1002B02D0009818
:1050A00040420090002503952C460D9800782D284D
:1050B00001D02B2815D10D99491C2D280D9102D016
:1050C000002003900DE00120FBE7401C2146002753
:1050D0000A223B460D90284600F098FA35183C46C7
:1050E0004C410D980678FF2EEFD100210846002094
:1050F000C0460399002902D08100401840080002F0
:10510000860F012E01DD0026F6430E990098471800
:10511000284620430BD0FF20F530C7421ADA039807
:10512000C1070B98002E41600ADD012009E00398B9
:10513000C1070B9841600B99002008600FB0F0BDCB
:1051400000200B990860FEF7E9FB0221016018219D
:1051500008461AE0FF20F530874219DD002E02DAFA
:10516000FC48784401E0FC48784406C80B9806C027
:105170000B9803994068C90708430B994860FEF7EC
:10518000CDFB02210160142108460020C046D5E76E
:10519000002108460020C04639000A9001D572421D
:1051A00000E03246002900DA794207A8FFF75AFBEF
:1051B00007AB07CB04AB07C3E848009000200146CB
:1051C000214304D12C460546E44920390091210CA5
:1051D0000904014306D1290C24040C4300992D0431
:1051E00010390091210E0906014306D1290E24022F
:1051F0000C4300992D0208390091210F0907014342
:1052000006D1290F24010C4300992D01091F00919B
:10521000A10F8907014306D1A90FA4000C430099EF
:10522000AD00891E0091E10FC907084304D1009821
:105230006D196441401E0090002F0295019406DD17
:1052400032466846012304A9FFF7A0FD05E00123CB
:105250003246684604A9FFF7EEFD044603980D4662
:10526000002802D00120C007444000210846002049
:10527000C0460A99BA4E48400007800F07D1600027
:105280004008284303D06000400DB04214D1FEF71F
:1052900045FB022101606000400DB0420CD1B148D5
:1052A000784406C80B9806C00B98E10FC907406800
:1052B00008430B99486041E70B9844600B980560E0
:1052C0003CE7FFB51F4695B0002000250C909E6876
:1052D0005C68ED431390FEF71DFBC0680168405CFD
:1052E0001490B96916986D1C88470A90396A8847E6
:1052F0000028F6D10A98401C0AD00D20C001844332
:10530000002E12DD0A982B2809D02D280DD103E09C
:105310000020C04319B0F0BD012080020443B969E8
:1053200016986D1C8847761E0A90600504A901D561
:105330002D2000E02B206A46491C107410A8002E76
:105340000D910B903BDD0A98692805D0492803D0C0
:105350006E2801D04E281DD13B46039002200296B4
:10536000179A1699C043009501940FF099FEC11C3D
:10537000D0D10FE0B96916986D1C88470A900120BA
:10538000761E40020443179805601398401C002EB7
:10539000139014DD0A983028ECD0782801D05828D2
:1053A0000DD1139801280AD13B460296179A1699F7
:1053B000001F009501940FF06BFEC11CAAD1149937
:1053C0000A98884246D18020044308E00C98179937
:1053D000401E0C90012040020443681C0860B9691B
:1053E0006D1C1698761E884730280A90EED031E062
:1053F0001499884205D1200603D480200443761EE8
:105400001EE00A9804F08EFB002826D0012008A98F
:10541000400204430D980331761E88420BD20A984D
:105420000D99303808700D98401C0D90200607D556
:105430000C98401E03E0200602D40C98401C0C90EF
:10544000A00502D51799681C0860B96916986D1CEB
:1054500088470A90002ECBDC59E0002E57DD0A98D1
:10546000652801D0452852D1A00550D50320B9693F
:10547000000284436D1C1698761E8847002E0A9001
:105480000CDD2B2804D02D2808D1FF200130044347
:10549000B96916986D1C8847761E0A90E00501D5FB
:1054A0002D2100E02B210B9801700B98401C0B90D4
:1054B000009025E0012012A9400204430B9801311D
:1054C000761E88420ED20A980B9930380006000EDC
:1054D000087003D100990B9888420AD90B98401C98
:1054E0000B9006E0E00501D51F4801E01E48404250
:1054F0000C90B96916986D1C88470A90179805603A
:10550000002E04DD0A9804F00DFB0028D2D1F969C1
:10551000169888470D99FF2004AA08700B99087007
:1055200000200E900F900C9B10A90EA8FFF79CFD79
:10553000A00502D40120C043ECE62420044215D08B
:10554000E0071FD138680F9A0E99031D3B60006871
:1055500006C017E0B2050100A40501003E400000AE
:10556000FF0700006C040100F1D8FFFF0EA9684698
:1055700004F062FAE00705D13868009A011D39602D
:10558000006802602846C5E610B50446C046C0461D
:105590002046FCF75FFE10BD10B500200249029ABC
:1055A00000F004F810BD00000000F87F10B50C46B4
:1055B0001107090F092904D00A290AD008290CD19A
:1055C00004E011460820FFF7BAFC06E0510606D5B4
:1055D00001E0510601D50120C007214610BDD106CA
:1055E00007D501010909CC084907000E000604434C
:1055F00009E0410F20024907000A0143200E00067E
:105600001D22D14101430846E7E770474343514318
:1056100030B55C18010C130C0D4692B25D4380B29C
:1056200051432C19054655430A0C09044D19624192
:105630005843010C00044019514130BD0149182064
:10564000ABBEFEE726000200FFB51F4689B01398E7
:1056500012994005C00FC00705900020079005462D
:105660000446461E049002903C20491C129106906C
:10567000B9690A98884703901498401E14901498AA
:10568000002841DD03982E2816D01021FFF7DDFCFD
:10569000002834DB01210491079901431AD00699AF
:1056A00000290CDB069AC11700F006FA054306989C
:1056B0000C43001F069006E0012002900EE0002837
:1056C00001D001200543012007900298002805D150
:1056D000361D03E00298002800D0361F1298401CA7
:1056E0001290B9690A98884703901498401E149044
:1056F00004980028C3D00B9912980860BFE703985C
:10570000702808D0502806D0F9690A98884704986C
:10571000002815D051E00020039001200290049849
:1057200000280AD01298401C1290B9690A9888473C
:105730001499491E0029149106DCF9690A988847D2
:105740000120C0430DB0F0BD2B2804D02D280DD171
:105750000020C04302901298401C1290B9690A9828
:1057600088471499491E00291491E6DD411CE4D0B4
:105770000A21FFF76AFC0028DFDB03990A22514364
:10578000081803901298401C1290B9690A9888472B
:105790000A21FFF75AFC14990B9A491E1491129989
:1057A00011601499002901DD0028E6DAF9690A98E8
:1057B0008847029903984843861913982421084082
:1057C00004902846204304D0A10F8907090002D085
:1057D00006E005989BE0A90FA4000C43AD00B61E9F
:1057E000E10FC907080002D16D196441761E0498C3
:1057F000002803D00B2002905D4803E0282002908F
:105800007D20C0438642039007DA811B0298081866
:105810004128029001DD41200290029A01200021DE
:10582000521E00F049F9024628400B462140084329
:1058300001D0012000E0002007900020521EC0434C
:1058400043412A4023401A4301D0012000E00020B8
:1058500007990690014352D0002108460020C04617
:105860000321059A89050840002A05D08200801886
:10587000C20F1018401008408015012802DD0020DA
:10588000C04301E0012815D0401C38D007980028FB
:1058900035D0069800280DD1029A0120002100F091
:1058A0000BF928402140084301D0012000E00020EE
:1058B000002824D0029A0120002100F0FDF80346C0
:1058C00040198C4661412A1A8C410FD30298402816
:1058D00007DD0498039E002801D0343E02E0173E05
:1058E00000E0761C01240025E40708E05B1E624608
:1058F0000024E4436241DD43D44305400C40039857
:105900000121081AB04206DA1A49059808430190A5
:10591000002000900EE060006205010BE80A1043D1
:10592000059A009068460A4313490A43314601929A
:1059300004F0EEF8049800280AD01398C00714D198
:105940003868019A0099031D3B60006806C00CE0AE
:1059500002A8694604F070F81398C00705D13868AA
:10596000029A011D3960006802601298EAE60000A0
:1059700002FCFFFF0000F07F0000F03FFFB51D4676
:1059800087B01198484A109C129E40051399C00F89
:10599000761EC0070243019200220092FF22D20528
:1059A0001043202291434929059003D017464E29E0
:1059B00028D04FE03DA002AA0BC801270BC2A9695D
:1059C0000898641C8847761E014607D402A8C05D6B
:1059D000002803D02022914381420AD0E969089827
:1059E0008847032F36D0082F34D00120C0430BB096
:1059F000F0BD7F1C032F01D0082FE0D10999601C56
:105A00000860DCE7A9690898641C8847761E2DD4D5
:105A1000B84341282AD1A9690898641C8847761E92
:105A200024D4B8434E2821D1A9690898641C88471A
:105A300001990122D204114301910599D200114329
:105A400005910999761E0C6001D4282806D0E969D1
:105A5000089888471198C00712D023E0A9690898D0
:105A6000641C8847761E01D4002803DAE969089887
:105A70008847BAE72928F1D10998641C0460E9E74E
:105A800011982421084207D02868019A0099031D23
:105A90002B60006806C005E028680599021D2A6091
:105AA000006801602046A2E70000F07F494E4649A9
:105AB0004E4954590000000010B5202A04DB01466D
:105AC000203A9140002010BD914020239C1A0346AB
:105AD000E3401943904010BD70B58C180578401C08
:105AE0006B075B0F01D10378401C2A1106D10278A5
:105AF000401C03E00678401C0E70491C5B1EF9D167
:105B00002B0705D40023521E0DD40B70491CFAE755
:105B10000378401CCB1A921C03E01D780D70491CC1
:105B20005B1C521EF9D5A142D8D3002070BD0000E5
:105B300003B40148019001BDF100002010B51C4CD8
:105B4000E0690007C00F002806D01AA004F012FB7D
:105B5000606A1D4908200862E0698007C00F0028BC
:105B600004D01AA004F006FB02202062E06940077E
:105B7000C00F002804D019A004F0FCFA0420206211
:105B8000E0698006C00F002803D0606AC0B20CF044
:105B900070FA2068C006C00F002808D0E069C0066F
:105BA000C00F002803D0102020620CF061FA10BD55
:105BB000004800404C505541525431204F76657298
:105BC0002072756E0D0A0000003801404672616D4A
:105BD00065206572726F720D0A0000004E6F697366
:105BE00065206572726F720D0A00000010B5224CBC
:105BF00020688006C00F002807D0202060600120A8
:105C00000EF06EFF0EF062FF0EE020680006C00F7F
:105C1000002809D00EF0A4FB014618A21EA004F033
:105C2000DFFA00200EF05CFF20684005C00F00285E
:105C300005D001208002606001200EF015FF206871
:105C40008005C00F002806D0FF20013060600120D1
:105C50000EF00AFF10BD20680005C00F0028F9D023
:105C60000EF07EFB014605A216A004F0B9FA002052
:105C70000EF0FAFE10BD0000000002402E2E2F4351
:105C80006F72652F5372632F73746D33326C30787B
:105C9000785F69742E6300001B5B323B33316D3CCF
:105CA00025753E205B455D202573203A20555341E4
:105CB00052543120544532206572726F720D0A1BA6
:105CC0005B306D001B5B323B33316D3C25753E20F4
:105CD0005B455D202573203A2055534152543120B5
:105CE0004572726F720D0A1B5B306D0070B586B025
:105CF000012001F0FFFE274E274C002815D001207F
:105D000060612020B06125490520086008F0D2FBC1
:105D100000280AD00BF0B8FF0AF0FAFB0EF0E4FA04
:105D2000A030417F042211434177022001F0E2FEBE
:105D300000282CD0022060610EF012FB0025019596
:105D40000221304601F037FF002801D0012000E099
:105D50000020039005200821000701F02CFF0028F7
:105D600001D0012000E000200290012149030C48ED
:105D700001F021FF0490059501A80CF01DF80EF02C
:105D8000B3FABD30027802210A430270616106B0A5
:105D900070BD000000040050000401404C010020D0
:105DA0000008005000B585B017A004F015FA0820CF
:105DB00001F0A0FE002824D00820174948610020E7
:105DC00000900221154801F0F6FE002801D00120C4
:105DD00000E00020029005200821000701F0EBFE02
:105DE000002801D0012000E000200190012149039A
:105DF0000B4801F0E0FE03900120049068460BF090
:105E0000DBFF05B000BD0000455854322D3320693A
:105E100072710D0A000000000004014000040050EF
:105E20000008005010B5402001F064FE002814D096
:105E300040201149486105204021000701F0BBFEC8
:105E400000280BD00EF08CFA01460CA212A004F030
:105E5000C7F97D2019490001086010BD0EF080FAD5
:105E6000014606A216A004F0BBF91F4801680029EC
:105E7000F3D00021016010BD000401402E2E2F43FD
:105E80006F72652F5372632F73746D33326C307879
:105E9000785F69742E6300001B5B323B33326D3CCC
:105EA00025753E205B495D202573203A20506F7791
:105EB00065722075700D0A1B5B306D00500100206B
:105EC0001B5B323B33326D3C25753E205B495D20C8
:105ED0002573203A20506F77657220646F776E0DBE
:105EE0000A1B5B306D000000240200200EF038FA1F
:105EF000014606A20AA004F073F9BFF34F8F1349BD
:105F00001148C860BFF34F8F00BFFDE72E2E2F430F
:105F10006F72652F5372632F6D61696E2E6300007F
:105F20001B5B323B33316D3C25753E205B455D206C
:105F30002573203A204572726F722068616E646C1E
:105F4000650D0A1B5B306D000400FA0500ED00E0F2
:105F5000F0B5079F059E069D0C4614408B431C43DD
:105F6000A219D21910182022521BD0414018F0BD9E
:105F700010B5084900234B6107494A684C15224374
:105F80004A604A68082422434A60C009C00103608D
:105F900010BD0000541D00200020024010B500205C
:105FA000204A9169CB05204904D54869022318434A
:105FB0004861901593699B0505D54B6901242343DE
:105FC0004B616302184393695B0505D54B6908244F
:105FD00023434B61E301184393691B0505D54B69C6
:105FE000042423434B616302184393699B0405D542
:105FF0004B69102423434B616302184393699B034D
:1060000004D54C6920231C434C6118439369DB037E
:1060100005D54B69402423434B61A102084390619D
:1060200010BD000000200240541D002070B5044641
:1060300000F0C2F90546184E0AE0601C08D0002C9A
:1060400004D000F0B9F9401BA04201D9032070BD73
:10605000B069C007F1D1B069800701D50220B061F5
:10606000B069C00511D4B06980050ED4B06940058F
:106070000BD4B069000508D4B069800405D4B069B8
:10608000800302D4B069C00303D5FFF787FF012066
:1060900070BD002070BD000000200240F0B5079FD9
:1060A000059E069D0C461C409A431443A219D21922
:1060B00010182022521BD0414018F0BD03484168FF
:1060C000012211434160002070470000002002407F
:1060D000F8B505460E461446124F387C012807D005
:1060E000012038741048FFF7A1FF002802D00FE00C
:1060F0000220F8BD00217961022D0CD0012D0CD0B9
:10610000002D0CD00120002802D00748FFF78EFF99
:1061100000213974F8BD3460F5E73480F3E734705A
:10612000F1E70000541D002050C3000009484168F9
:10613000C9070DD0EFF3108172B6074AC260074A53
:10614000C26081F310884068C00701D00120704709
:106150000020704700200240EFCDAB890504030208
:10616000F8B505460E46184F387C012807D00120A7
:1061700038741648FFF75AFF002802D020E00220AA
:10618000F8BD0021C94331606C6813E02046FFF779
:10619000EFFE0E48FFF74AFF0D494A6808239A436D
:1061A0004A604A684B159A434A60002801D034601F
:1061B00006E08034A9686A68C9018918A142E5D857
:1061C00000213974F8BD0000541D002050C30000A8
:1061D00000200240054841680222114341604168A5
:1061E000012211434160002070470000002002405E
:1061F00012484168C9070DD0EFF3108172B6104AFA
:10620000C260104AC26081F310884168C90701D09A
:1062100001207047416889070DD5EFF3108172B6F0
:10622000094A0261094A026181F3108840688007C7
:1062300001D5012070470020704700000020024077
:10624000EFCDAB8905040302BFAE9D8C1615141368
:10625000F0B5002299E0012696403340002B71D022
:106260004C68012C05D0022C03D0112C01D0122C2B
:1062700010D1856854000327A740BD43CF68A740CD
:106280002F4387604468B4430D79ED06ED0F9540C8
:1062900025434560C56856000324B440A646A5437F
:1062A0008F68B7402F43C7604C68022C01D0122C76
:1062B0000ED1D408A4002418256AA4465707FC0E62
:1062C0000F27A740BD430F69A7402F4364462762AD
:1062D00004687546AC430D79AD07AD0FB540254355
:1062E00005604C68E4004FD52B4C656B01263543A7
:1062F00065639508294CAD002F19BD689407240FDC
:106300000F26A640B54305263607B04201D1002628
:106310001AE0234EB04201D1012615E0214EB042D1
:1063200001D1022610E0204EB04201D103260BE03D
:106330001E4EB04201D1042606E01D4EB04202D1ED
:10634000052601E020E00626A6402E43BE60194D3A
:106350002C689C434E68F60300D51C432C606C6887
:106360009C434E68B60300D51C436C60AC689C43EC
:106370004E68F60200D51C43AC60EC689C434E6846
:10638000B60200D51C43EC60521C0B681C46D4407E
:1063900000D060E7F0BD00000010024000000140A6
:1063A0000004005000080050000C00500010005085
:1063B000001C005000040140014880687047000044
:1063C0006C0100200248816802788918816070475A
:1063D0006C01002010B500240748016840221143D9
:1063E0000160002000F00AF8002801D0012401E03B
:1063F00000F028F8204610BD0020024070B5044689
:106400000E4D7D202978C000FCF759FB01460C4851
:106410000068FCF754FB00F071FF002801D0012058
:1064200070BD042C07D200222146501E00F022F835
:106430006C60002070BD012070BD00006C01002068
:10644000780100200448416B012211434163816BB4
:10645000020411438163704700100240002805DBED
:10646000C106C90E0120884001490860704700003C
:1064700000E100E010B503F03BFA10BD02480168EE
:10648000821511430160704700700040F0B5154E51
:10649000326874152240144B1B6ADB07DB0F002A9D
:1064A00004D0002B02D03568A54335603568AD08AF
:1064B000AD00054335600D4F3D69042005433D6146
:1064C00001290DD040BF20BF20BF39698143396108
:1064D000002A04D0002B02D0306820433060F0BD89
:1064E00030BFF2E7007000400000014000ED00E026
:1064F000F8B50446002620686B4D810601D40105DD
:106500007ED569484038806BC00006D46648403864
:10651000816B020411438163012664480168C90547
:1065200012D40168821511430160FFF745FF074649
:1065300006E0FFF741FFC01B642801D90320F8BD26
:106540005A480068C005F4D5574840380068032110
:106550000905084062681140814205D10323A16802
:106560001B05194081420AD09003800F032806D1F1
:106570004D4840380068800301D50120F8BD2869E6
:10658000032109040840002828D00A40824202D092
:106590002278920606D4A2680A4082421ED0208841
:1065A00000051BD5286988432A690121C9040A43CB
:1065B0002A612A698A432A612861C0050ED5FFF73E
:1065C000FBFE074607E0FFF7F7FEC11B3848814294
:1065D00001D90320F8BD28698005F4D560688103DE
:1065E000890F032908D1304B403B1968032212055B
:1065F000914310400143196028690322120400E00E
:106600000BE06168114008432861012E05D126483E
:106610004038826B01048A4382632078C00705D02A
:10662000E868E168800880000843E8602078800717
:1066300005D5E8680C21884321690843E860207883
:10664000400706D5E8680321890288436169084349
:10665000E8602078000706D5E8680321090388432D
:10666000A1690843E8602088C00506D5E8680321D1
:1066700009048843E1690843E8602078400606D5AC
:10668000E868012189068843616A0843E860207848
:10669000000606D5E868032189048843216A084377
:1066A000E8600020F8BD000040100240007000408B
:1066B00088130000F8B504460E46002C0FD0684839
:1066C0000068C007C00FB04218D2654F3868400854
:1066D000400030433860FFF76FFE054609E00120B7
:1066E000F8BDFFF769FE411B5E48814201D90320D6
:1066F000F8BD3868C007C00FB042F2D120785A4FB9
:10670000800705D5F868F0218843A1680843F86040
:106710002078C00760D06068022808D003280BD01A
:1067200001280ED03968890510D40120F8BD3968D8
:1067300089030BD40120F8BD3968890106D40120F2
:10674000F8BD3968490701D40120F8BDF968890806
:1067500089000143F960FFF72FFE054660680228B3
:106760000CD0032818D0012824D031E0FFF724FEF4
:10677000411B3C48814201D90320F8BDF86800075D
:10678000800F0228F2D127E0FFF716FE411B3548A3
:10679000814201D90320F8BDF8680007800F032863
:1067A000F2D119E0FFF708FE411B2E48814201D9C2
:1067B0000320F8BDF8680007800F0128F2D10BE034
:1067C000FFF7FAFD411B2748814201D90320F8BD9C
:1067D000F8680007800FF3D121480168C907C90F85
:1067E000B14217D9014608684008400030430860AC
:1067F000FFF7E2FD054607E0FFF7DEFD411B194804
:10680000814201D90320F8BD15480068C007C00FB8
:10681000B042F1D12078400706D5F8680721090277
:106820008843E1680843F8602078000707D5F868D6
:106830000721C90288432169C9000843F86000F0B4
:106840001BF8F968094A0906090F515CC840084954
:10685000086008480068FFF7D1FD0028D3D1F8BDD3
:10686000002002408813000000100240B7500108C9
:10687000780100207001002070B5214EF2680C21D3
:10688000104608401F498B0004280CD04D000828F2
:1068900010D00C2810D070680004410F491C012052
:1068A000C003884070BD3068C00601D5084670BD81
:1068B000184670BD284670BD9002134C000F205C36
:1068C0001202940F641CF268D20307D5294602F025
:1068D00068FF22460023FBF703FD70BD3268D20635
:1068E00006D502F05EFF22460023FBF7F9FC70BDDF
:1068F000194602F056FF22460023FBF7F1FC70BD5B
:106900000010024000093D00C7500108FEB50446D2
:10691000002C0FD0F84DEE680C200640EF680120E7
:10692000000407402078C00753D0082E08D00C2E52
:1069300002D00DE00120FEBD01200004874207D1F6
:106940002868800345D56068002842D10120FEBD3B
:10695000012061680004814203D129680143296054
:1069600015E0052301221B049204994206D12968EF
:106970001143296029680143296008E0296881439F
:106980002960296801400091286890432860606868
:1069900000280FD0FFF710FD019007E0FFF70CFD76
:1069A0000199401A642801D90320FEBD286880039C
:1069B000F4D50EE0FFF700FD019007E0FFF7FCFCC7
:1069C0000199401A642801D90320FEBD286880037C
:1069D000F4D42078800762D5E068810604D52A685F
:1069E00020210A432A6088430921042E0DD00C2E51
:1069F00001D1002F09D000283FD02A688A430243E2
:106A00002A60FFF7D9FC07462BE02A68520701D518
:106A100000281DD06A681F231B029A4323691B02AA
:106A20001A436A602A688A4302432A60FFF724FFF8
:106A30000146E8680006020FB048805CC140B048DB
:106A40000160B0480068FFF7D9FC0028BDD126E0FE
:106A50000120FEBDFFF7B0FCC01B022801D90320B6
:106A6000FEBD28684007F5D568681F2109028843E4
:106A7000216909020843686011E028684008400065
:106A80002860FFF799FC074606E0FFF795FCC01B5E
:106A9000022801D90320FEBD28684007F5D42078DC
:106AA000C00664D5002E0BD0E06900284CD02868C1
:106AB000FF21013108432860FFF77EFC074631E0E3
:106AC0002868800502D5E069002822D0686807217F
:106AD00049038843616A084368606868218C000242
:106AE000000A090608436860606A0121400B401CE7
:106AF000C9038140E8680006020F8048805CC140FD
:106B00007F4801607F480068FFF778FC0028C2D109
:106B10002DE00120FEBDFFF74FFCC01B022801D96C
:106B20000320FEBD28688005F5D568680721490364
:106B30008843616A084368606868218C0002000A23
:106B400009060843686012E02868FF210131884384
:106B50002860FFF731FC074606E0FFF72DFCC01B5D
:106B6000022801D90320FEBD28688005F5D42078CD
:106B7000654F000729D56069002813D038690121C5
:106B800008433861FFF718FC019007E0FFF714FC99
:106B90000199401A022801D90320FEBD38698007F7
:106BA000F4D512E03869400840003861FFF704FC72
:106BB000019007E0FFF700FC0199401A022801D973
:106BC0000320FEBD38698007F4D42078400776D5CD
:106BD00000200090A86BC00006D4A86B0121090713
:106BE0000843A8630120009048480168C90514D4EF
:106BF00002461168801501431160FFF7DDFB01902B
:106C000007E0FFF7D9FB0199401A642801D9032056
:106C1000FEBD3E480068C005F3D5FF20A2680130E4
:106C2000824203D13969014339611BE001218902A4
:106C3000002A0AD005231B029A420DD13A690A4361
:106C40003A613969014339610CE03A6982433A613A
:106C500038698843386105E03A6982433A613869A6
:106C600088433861A068002810D0FFF7A5FB019089
:106C700008E0FFF7A1FB0199411A2548814201D99B
:106C80000320FEBD38698005F3D510E0FFF794FBC3
:106C9000019009E0FFF790FB01460198091A1C4892
:106CA000814201D90320FEBD38698005F2D40098E5
:106CB000012804D1A86B012109078843A863207823
:106CC000800642D51349A0694B14002828D0AA6831
:106CD00001200243AA606A6B02436A63086A184390
:106CE0000862FFF769FB074616E0FFF765FBC01B6C
:106CF000022811D90320FEBD00100240B750010840
:106D00007801002070010020401002400070004017
:106D10008813000000000140A8688007E5D514E052
:106D2000A86840084000A860086A98430862FFF716
:106D300043FB074606E0FFF73FFBC01B022801D9D3
:106D40000320D8E7A8688007F5D4A06A00285ED0A1
:106D50000C2E43D001273F06022806D02868B843EE
:106D60002860FFF729FB044634E02868B843286010
:106D7000FFF722FB064606E0FFF71EFB801B0228FA
:106D800001D90320B7E728688001F5D4216BE06AB8
:106D9000EA680843616BFD231B049A4311430843CF
:106DA000E860286838432860FFF706FB044606E0E1
:106DB000FFF702FB001B022801D903209BE728688C
:106DC0008001F5D523E0FFF7F7FA001B022801D96F
:106DD000032090E728688001F5D418E0012814D03A
:106DE000E86801210904E26A014091420BD10F21B8
:106DF0008904226B0140914205D103218905084095
:106E0000616B884203D0012075E7012073E7002001
:106E100071E7006850308900081800687047006802
:106E200050308900081802607047F8B504462546BE
:106E300020352878012817D001272F70022068708C
:106E40002168CA204862216853204862206881680E
:106E5000BA02914381602068816812019143816088
:106E6000FFF7AAFA064611E00220F8BDFFF7A4FAE0
:106E7000811B7D20C000814208D92168FF20486223
:106E800003206870002028700320F8BD2068C068C7
:106E90004007EBD52168FF2048626F700020287002
:106EA000F8BD0000F7B504462546203528780128AE
:106EB00013D001202870022068702168CA2048621F
:106EC0002168532048622068806800274005002818
:106ED00017DAFFF771FA06460FE00220FEBDFFF752
:106EE0006BFA811B7D20C000814206D92168FF20FA
:106EF0004862032068702F70FEBD2068C06840079C
:106F0000EDD420688268012189028A43826020686A
:106F1000C16880221140204A8918C160FFF74CFAED
:106F200006460DE0FFF748FA811B7D20C000814234
:106F300006D92168FF204862032068702F70FEBDCB
:106F40002068C0684007EDD5216801984861206835
:106F50008168C908C900816020688168029A11436C
:106F600081600E48016801221205114301608168A9
:106F7000114381602068816892111143816020680B
:106F800081681211114381602168FF20486201204D
:106F900068702F700020FEBD7FFBFFFF00040140E2
:106FA000044900200870044801680422114301606C
:106FB00070470000480100200070004010B50446F2
:106FC0002068C068400509D52046FFF7E9FF206822
:106FD000C16880221140054A8918C1600120044916
:106FE0000005486101202034607010BD7FFBFFFF69
:106FF00000040140F8B50446002C05D02546203594
:107000006878002802D006E00120F8BD0020287032
:10701000204600F055F8022068702168CA204862B6
:10702000216853204862204601F075FEFF260427A0
:10703000002804D0206846626F700120F8BD2068E7
:1070400081681E4A11408160206881686268A36976
:10705000114322691A43114381602168E068086185
:107060002068016922891204114301612068C16806
:1070700080229143C1602068C16C89088900C16485
:10708000E169606901432068C26C1143C1642068F2
:10709000806880060BD4204600F016F9002806D040
:1070A000206846626F70002028700120F8BD2068BB
:1070B0004662012068700020F8BD0000BFFF8FFF0E
:1070C00010B50068084988420DD1084801690122BD
:1070D000920411430161002211460220FFF7CAF910
:1070E0000220FFF7BBF910BD00280040401002400D
:1070F000F8B504460B46254620352878012806D0E9
:107100000120287002206870002A02D008E00220C6
:10711000F8BD5878C10603D5EF2108400A305870F1
:10712000002A1DD0D8789E78000406435878197834
:1071300000024903084306432168CA2048622168C7
:1071400053204862204601F0E6FD0027002818D0B1
:107150002168FF204862042068702F700120F8BD6C
:10716000D87801F0CDFD0604587801F0C9FD000281
:107170000643987801F0C4FD06431878400306439F
:10718000DAE711480640206846602068C16880221E
:107190009143C1602068806880060CD4204600F0CE
:1071A00093F8002807D02168FF2048620420687007
:1071B0002F700120F8BD2168FF204862012068700F
:1071C0002F700020F8BD00003FFFFF00F8B5044617
:1071D0000D46264620363078012829D0012030700F
:1071E000022070700027002A24D0206880684006A2
:1071F00000D4EF702978A878090408436978EA7800
:10720000090212041143084300902168CA20486211
:10721000216853204862204601F07DFD002820D0DF
:107220002168FF2048620420707037700120F8BD8B
:107230000220F8BD20688068400600D4EF702878EE
:1072400001F05EFD0204687801F05AFD000202437D
:10725000A87801F055FD0243E8780004024300924B
:10726000D3E71849009808402168086020688168C1
:107270000122920491438160E968286901432068F2
:107280008268114381602068C16880229143C16097
:107290002068806880060CD4204600F015F800288D
:1072A00007D02168FF2048620420707037700120E9
:1072B000F8BD2168FF2048620120707037700020FF
:1072C000F8BD00007F7F7F0070B505462868C16863
:1072D000A0229143C160FFF76FF804467D26F600B7
:1072E00006E0FFF769F8001BB04201D9032070BD2A
:1072F0002868C0688006F4D5002070BD10B5094923
:10730000401E884201D9012010BD074C6061032155
:10731000081F02F0EDFA0020A06107202061002084
:1073200010BD0000FFFFFF0000E000E0F0B50246E6
:107330002032137E012B21D00126167602235376AC
:1073400003685D689C687027BD430F682F435F60CA
:107350000068B307984208D0094B984205D0094B02
:10736000984202D0084B984204D180239C4349683C
:1073700021438160567600201076F0BD0220F0BDDA
:1073800000040040000801400014014070B50546AB
:10739000002D05D02C462034607E002802D006E067
:1073A000012070BD00202076284600F02FF8022032
:1073B0006076291D286801F029FF0120A077A076BA
:1073C000E076207760776076002070BD00B585B0EC
:1073D000006801218907884214D10B48816B490854
:1073E0004900816314216846FBF70FFB20200090C1
:1073F00003200190002002900390052069460007B9
:10740000FEF726FF05B000BD001002400068012114
:107410008907884204D10348816B012211438163AB
:107420007047000000100240F8B50446254620359C
:10743000287E012817D001262E7602206876206843
:1074400082687727BA43FF231B029A4382600A6847
:10745000502A31D00EDC202A4CD006DC002A49D03C
:10746000102A4BD146E00220F8BD302A42D0402AF3
:1074700044D135E0602A29D0702A12D001231B03A1
:10748000D01A3BD0984239D1CB684A6889682068C5
:1074900001F0FBFE206881680122920311438160A4
:1074A0002CE0CB684A688968206801F0EEFE20680D
:1074B00081683943816021E0CA684968206801F029
:1074C00064FF5021206801F0EBFE17E0CA684968AC
:1074D000206801F06BFF6021206801F0E1FE0DE003
:1074E000CA684968206801F050FF4021206801F017
:1074F000D7FE03E01146206801F0D2FE6E76002030
:107500002876F8BD10B586B00446142101A8FBF713
:107510007CFA012120688907884214D10B48C16A8E
:1075200001221143C162C06A1040009020200190E6
:10753000022002900021039104900520059001A9EA
:107540000007FEF785FE06B010BD000000100240E7
:10755000F8B504460D4626462036307E01280BD06D
:10756000012030760427002A08D0042A19D0082ADE
:107570002ED00C2A55D13EE00220F8BD29462068C5
:1075800001F096FE2068816908221143816120681C
:107590008169B943816120688169EA681143816129
:1075A0003FE02946206801F09BFE206881690122A6
:1075B000D2021143816120688269012189028A43D4
:1075C000826120688169EA6812021143816128E0C2
:1075D0002946206801F0A0FE2068C16908221143F5
:1075E000C1612068C169B943C1612068C169EA68A5
:1075F0001143C16115E02946206801F0A8FE20680A
:10760000C1690122D2021143C1612068C26901210E
:1076100089028A43C2612068C169EA681202114383
:10762000C16100203076F8BD70B50546002D05D04B
:107630002C462034607E002802D006E0012070BD78
:1076400000202076284600F010F802206076291DE0
:10765000286801F0DBFD0120A077A076E076207796
:1076600060776076002070BD7047704770B5054642
:107670002C462034002908D0042908D0082908D035
:10768000627F012A07D0012070BDA27EF9E7E27E69
:10769000F7E7227FF5E70220002920D0042920D037
:1076A000082920D060770122286801F0E1FD01213E
:1076B000286889070122884208D00E49884205D0EF
:1076C0000D49884202D00D4988420ED18168490790
:1076D000490F06290CD001681143016008E0A0762B
:1076E000E1E7E076DFE72077DDE70168114301603D
:1076F000002070BD0004004000080140001401405B
:1077000070B504460D4600222946206801F0B0FD00
:107710002068016A0B4A114203D1016849084900F7
:10772000016001202034002D06D0042D06D0082D44
:1077300006D06077002070BDA076FBE7E076F9E721
:107740002077F7E71111000070B5069E049D059C97
:107750004A405A405219921910182022121BD04147
:10776000401870BD01A002F005FDFEE7486172649B
:107770006661756C740D0A0070B5069E049D059CCB
:10778000DB430B4353405A19921910182022121B45
:10779000D041401870BD000038B500210022009291
:1077A0008268D207D20F002A31D0C26837239B01EA
:1077B0009A43C26082685207D20F2C4B002A08D02D
:1077C0008268D206D20F002A03D182681A40103292
:1077D00082600124E403009404E0009A551E0095A1
:1077E00000D201218268D206D20F002AF5D1826828
:1077F0001A40921C8260009404E0009A531E009389
:1078000000D2012182689207D20F002AF5D1826846
:1078100017231A4227D143689F229343436003688A
:1078200013430360826801231B079A438260C26886
:107830000F4B1A40C26002690E4B1A400261426946
:10784000D208D2004261026A0B4B120B12031A4398
:107850000262826AD20CD20482628030426BD20908
:10786000D201426300E00121084638BDE8FFFF7FF6
:1078700000023E8302FCFF3F0000FF0F70B50022B4
:107880008368DB07DB0F002B02D00122104670BD9E
:107890008C684B68C5682343CC68064E35402C4342
:1078A0002343C360036909689B009B080B43036182
:1078B000ECE70000C73FFFFF30B500228368DB071D
:1078C000DB0F002B02D00122104630BD4C680B6844
:1078D000CD6823438C6809692C4323430B43C1685B
:1078E000024C21400B43C360EEE700003CC2FEFFA8
:1078F000026807239B059A430A4302607047000011
:10790000044A51182039C97F425802239A434250F1
:1079100070470000B0500108044A51182039C97F4F
:10792000425808239A43425070470000B050010863
:10793000044A51182039C97F425802231A43425041
:1079400070470000B0500108044A51182039C97F1F
:10795000425808231A43425070470000B0500108B3
:1079600010B5054B59182039C97F43580324240307
:10797000A3431343435010BDB050010810B5054B4D
:1079800059182039C97F4358034C234013434350AF
:1079900010BD0000B0500108EFBFFFFF10B5054B50
:1079A00059182039C97F43588024A34313434350B7
:1079B00010BD0000B050010810B5054B5918203912
:1079C000C97F43580324A402A3431343435010BD6B
:1079D000B050010810B5054B59182039C97F4358DC
:1079E0002024A3431343435010BD0000B0500108AE
:1079F00010B5054B59182039C97F43584024A3437B
:107A00001343435010BD0000B050010810B5803042
:107A1000836A491E89000F248C40A3438A40134384
:107A2000836210BD10B5054B59182039C97F4358E2
:107A300003242402A3431343435010BDB050010854
:107A400010B5002304792A4A0168002C47D0002988
:107A50004CD04479002C0FD0012C15D0022C1BD017
:107A600001238179002941D001291DD0022924D088
:107A700003292BD0012339E054688C4354600168FA
:107A800014680C431460ECE714688C4314600168BC
:107A900054680C435460E4E714680C4314600168B4
:107AA00054680C435460DCE70168D4688C43D460AC
:107AB000006891680143916018E0016894688C4304
:107AC00094600068D1680143D1600FE00168946858
:107AD0000C4394600068D1680143D16006E01468EB
