:020000040800F2
:10000000C816002099020008113C0008C5300008FD
:1000100000000000000000000000000000000000E0
:10002000000000000000000000000000233E000867
:100030000000000000000000133C0008253E0008FE
:10004000AB020008AB020008753D0008AB020008D7
:10005000AB0200082D1F0008551F00086D1F000887
:10006000AB020008AB020008451E0008AB02000806
:10007000AB020008AB020008AB020008AB020008AC
:10008000AB020008AB020008AB0200080000000051
:10009000AB020008AB020008AB020008AB0200088C
:1000A000AB020008AB020008213E0008ED3E00084C
:1000B000AB020008A51D0008AB020008AB02000857
:1000C00000F002F800F0BDF80CA030C80838241881
:1000D0002D18A246671EAB4654465D46AC4201D180
:1000E00000F0AFF87E460F3E0FCCB64601263342F5
:1000F00000D0FB1AA246AB4633431847E065000028
:1001000010660000103A02D378C878C1FAD85207B6
:1001100001D330C830C101D504680C6070470000BD
:100120000023002400250026103A01D378C1FBD813
:10013000520700D330C100D50B60704710B56E294F
:1001400002D100F0D6FC10BD702902D100F02DFEC6
:1001500010BD662902D106F0F5F910BD652902D15E
:1001600006F0F0F910BD672902D106F0EBF910BDD9
:10017000612902D106F0EEF910BD03681B0A01D314
:1001800080231943692902D100F088F910BD642940
:1001900002D100F083F910BD752902D100F07EF97B
:1001A00010BD6F2902D100F0ABFD10BD782902D13E
:1001B00000F0E8FD10BDE92902D100F047FD10BDB7
:1001C000E42902D100F042FD10BDF52902D100F072
:1001D0003DFD10BDEF2902D100F09EFD10BDF829B4
:1001E00002D100F0DDFD10BD0368DB0901D38023DF
:1001F0001943632902D100F0BFFC10BD732902D15D
:1002000000F0C2FC10BDE32902D101F0B4F910BD29
:10021000F32902D101F0B7F910BD002010BD1FB5C0
:1002200000F0D2FB04000020002106F05FF9401C22
:1002300060600020002106F06FF9E0601FBD10B57E
:1002400010BD01F009FA1146FFF7E9FF05F02EF99C
:1002500001F092FD03B4FFF7F2FF03BC01F094FD3F
:1002600070B505460C46164602E00FCC0FC5103E91
:10027000102EFAD2082E02D303CC03C5083E042E5A
:1002800007D301CC01C5361F03E021782970641C17
:100290006D1C761EF9D270BD07488047074800479D
:1002A000FEE7FEE7FEE7FEE7FEE7FEE70448054956
:1002B000054A064B70470000DD3E0008C1000008FB
:1002C000C8100020C8160020C8120020C812002044
:1002D00010B500F079FB001D10BD00BF11620000D9
:1002E000FEB5054610460C46184373D0AE468C4604
:1002F0000020AD1A01469C4167D3664600270124C1
:100300003D46B61A9D4102D313463A46212465461E
:1003100076462F04360C3E432D0CB61A9D4104D36D
:10032000150C1B042B4312041034654676462F0629
:10033000360A3E432D0AB61A9D4104D3150E1B0200
:100340002B4312020834654676462F0736093E4392
:100350002D09B61A9D4104D3150F1B012B43120121
:10036000241D65467646AF07B6083E43AD08B61A6B
:100370009D4104D3950F9B002B439200A41C65461E
:100380007646EF0776083E436D08B61A9D411AD3AC
:1003900092185B41641C16E0001876466546494198
:1003A000B71A9D410191009009D36046B11A984156
:1003B0008E468446009801990025401C6941DD075E
:1003C00052082A435B08641EE6D57246634603B0B2
:1003D000F0BDFFE700200146C046C0462A4623463E
:1003E000F5E700007CB51D4616460C00009001D0D4
:1003F0000019401E084B7B442A466946019030464E
:1004000000F08FFB002C054603D06946002000F069
:100410009BFB28467CBD0000590700000FB41CB5AB
:10042000084B06AA7B4469460090059800F079FBCA
:1004300004460020694600F087FB20461CBC08BC2F
:1004400004B018472107000070B50C460546012A84
:1004500005D02878800600D5EA69002302E0012350
:1004600005E05B1C934202D2E05C0028F9D1A86948
:10047000E618C01AA861286AC0182862284600F049
:10048000A7FA04E06A682078A968641C9047B4421F
:10049000F8D3284600F0B2FA70BD0000F7B5002589
:1004A00075291068009914A611D000F0B8FA002838
:1004B00002DA404211A608E0009909688A0701D5CE
:1004C0000FA602E0490704D50EA6012501E000F0C1
:1004D000AFFA009F0024243704E000F073FC3031B1
:1004E0003955641C0028F8D12B4632462146009825
:1004F00000F0A7FAFEBD0000000000002D00000083
:100500002B00000020000000F3B50446002081B05D
:1005100020622046E1688847002872D0252802D052
:100520006268A168ABE0594F00267F442046E1682D
:1005300088472028054608DB312D06D27819203857
:100540000078002801D00643F0E7B00701D5042069
:1005500086430020E0610746A0612A2D0AD0284684
:1005600003F02CFE002827D0B8000019303D009081
:10057000856119E00298BA00121902C891610290CF
:100580002046E1688847012F054617D1E069002819
:100590001FDA202086431CE000980A218069484326
:1005A00000994019303888612046E168884705463F
:1005B00003F004FE0028EFD1012F0AD02E2D08D120
:1005C0002046E16888470546202006437F1C022F0D
:1005D000C3DBA069002803DA4042A0610120064382
:1005E000F00701D0102086436C2D0BD0682D09D068
:1005F0004C2D3CD06A2D38D0742D38D07A2D36D081
:1006000016E040E0E1682F4620468847B84205469C
:1006100009D16C2F29D001208002E16806432046D1
:100620008847054604E06C2F1DD0FF2001300643AB
:10063000002D28D028464138192803D80120C002AF
:1006400006432035204626602946029A1646FFF7C3
:1006500075FD002810D001280BD0F61DF008C00051
:100660000830029055E74020E1E78020D5E70020E0
:10067000D3E7361D02964CE762682846A16890478A
:10068000206A401C44E7206AFEBD00005E60000056
:1006900030B505460B462A461C781078521C5B1C68
:1006A000002801D0A042F7D0002C03D0002802D0AF
:1006B0006D1CEFE7284630BD034610B50B439B0782
:1006C0000FD1042A0DD308C810C9121FA342F8D0B5
:1006D00018BA21BA884201D9012010BD0020C043B8
:1006E00010BD002A03D0D30703D0521C07E000201E
:1006F00010BD03780C78401C491C1B1B07D10378E4
:100700000C78401C491C1B1B01D1921EF1D11846CC
:1007100010BD0000034670B502460B439B070FD186
:100720000E4CE60100E008C208C91D1B9D4335427E
:10073000F9D0D9B21170521C00290DD01B0AF8E76C
:100740000B78491C1370521C002B05D00B78491CE8
:100750001370521C002BF3D170BD00000101010188
:1007600030B5441C03E00178401C00290DD08107FE
:10077000F9D10B4BDD0104C8D11A91432940FAD0BD
:10078000001B0A0603D0C01E30BD001B30BD0A048A
:1007900001D0801E30BD0902FCD0401E30BD0000DB
:1007A00001010101F8B5042A2CD3830712D00B787C
:1007B000491C0370401C521E83070BD00B78491C48
:1007C0000370401C521E830704D00B78491C037031
:1007D000401C521E8B079B0F05D0C91ADF00202337
:1007E000DE1B08C90AE0FFF73BFDF8BD1D4608C93E
:1007F000FD401C46B4402C4310C0121F042AF5D201
:10080000F308C91A521EF0D40B78491C0370401C1F
:10081000521EEAD40B78491C0370401C012AE4D410
:1008200009780170F8BD01E004C0091F0429FBD25A
:100830008B0701D50280801CC90700D00270704769
:1008400000290BD0C30702D00270401C491E0229A8
:1008500004D3830702D50280801C891EE3E70022AF
:10086000EEE70022DFE7002203098B422CD3030AC4
:100870008B4211D300239C464EE003460B433CD4ED
:10088000002243088B4231D303098B421CD3030A55
:100890008B4201D394463FE0C3098B4201D3CB0185
:1008A000C01A524183098B4201D38B01C01A5241B5
:1008B00043098B4201D34B01C01A524103098B42B9
:1008C00001D30B01C01A5241C3088B4201D3CB00A4
:1008D000C01A524183088B4201D38B00C01A524187
:1008E00043088B4201D34B00C01A5241411A00D237
:1008F00001465241104670475DE0CA0F00D04942A0
:10090000031000D34042534000229C4603098B420F
:100910002DD3030A8B4212D3FC22890112BA030A97
:100920008B420CD3890192118B4208D38901921119
:100930008B4204D389013AD0921100E08909C3099E
:100940008B4201D3CB01C01A524183098B4201D3A0
:100950008B01C01A524143098B4201D34B01C01A8B
:10096000524103098B4201D30B01C01A5241C30803
:100970008B4201D3CB00C01A524183088B4201D372
:100980008B00C01A5241D9D243088B4201D34B008D
:10099000C01A5241411A00D20146634652415B10CF
:1009A000104601D34042002B00D5494270476346B0
:1009B0005B1000D3404201B50020C046C04602BDD6
:1009C000704770477047000000487047881000204B
:1009D00070B5044685690068C10601D5302600E07F
:1009E0002026C00707D070BD62683046A1689047D6
:1009F000206A401C20626D1EF6D570BD70B504469D
:100A000085690078C00707D170BD6268A1682020A1
:100A10009047206A401C20626D1EF6D570BD0968A3
:100A20004A0501D540B27047C905FCD500B27047F0
:100A300009684A0501D5C0B27047C905FCD580B226
:100A40007047FFB504460D4681B024300090216800
:100A5000880604D51022E0699143216000E001205E
:100A6000A84201DD471B00E000270498A1697A191C
:100A70001018081AA0612078C00602D42046FFF79B
:100A8000A7FF002608E003986268A168805D904790
:100A9000206A401C761C206204988642F3DB207892
:100AA000C0060AD52046FFF793FF06E06268A168FA
:100AB00030209047206A401C206238467F1E002864
:100AC000F4DC07E000986268A168405D9047206A06
:100AD000401C206228466D1E0028F3DC2046FFF7EC
:100AE0008DFF2078000602D5022005B0F0BD012060
:100AF000FBE711680268006A530501D5087009E038
:100B0000D30501D5088005E0130602D5C21705C13B
:100B100000E008600120704701694A1C0261087802
:100B2000704700B58FB002910021059105490193EE
:100B300079440391114604906846FFF7E5FC0FB035
:100B400000BD0000E5FFFFFF0A681070521C0A603C
:100B500070470CC908399A4202D2531C0B601070BE
:100B6000704710B54369002B02D0C046C04601E073
:100B7000FFF76AFC012010BD1278014624310A708B
:100B800000224A700122ECE711680022D243E8E714
:100B9000F7B50446154686B02B487844002703C8AD
:100BA0003E460090019111E007986A467100415A53
:100BB00002A800F0ECFC411C07D02178890603D57F
:100BC000E269391891420ED83F18761C20788006C9
:100BD00002D5E069B84206DDAE42E5DB0798710058
:100BE000405A0028E0D1A069C01BA0612046FFF751
:100BF000EFFE154878445A3803C800900020019150
:100C000016E041006A460798415A02A800F0BFFC6E
:100C10000590401C0AD0002505E0626802A8A16882
:100C2000405D90476D1C05988542F6D30498401CA2
:100C3000B0420490E5DB206AC01920622046FFF72D
:100C4000DDFE09B0F0BD0000025A0000F7B5D21D6C
:100C50000025D20815A6D200F52905CA11D0002A10
:100C600005DA00214042914111A60A4608E00099A8
:100C700009688B0701D50FA602E0490701D50EA62A
:100C800001251146009F0024243704E000F0B2F84B
:100C900030323A55641C02460A43F7D12B4632469D
:100CA00021460098FFF7CDFEFEBD000000000000C9
:100CB0002D0000002B0000002000000070B504464D
:100CC0000021243408E05507D2086D0F30356554F3
:100CD0005D072A43DB08491C15461D43F3D1046810
:100CE000002310A2250708D5A40601D4002904D0AA
:100CF000C46901230CA2641EC461FFF7A2FE70BD8B
:100D000010B5044621461068FFF792FE0023024604
:100D10002046FFF7D3FF10BDD21DD108C9000CC972
:100D2000CCE700000000000030000000F8B50F46DE
:100D30000188090502D5224C7C4402E0204C7C4409
:100D40000E3405460021243508E016071209360F37
:100D5000A65D6E541E0732431B09491C16461E43EE
:100D6000F3D1224604780023240705D5702F06D03E
:100D7000002901D002231132FFF763FEF8BD0123E1
:100D80001032F9E770B504460D4621461068FFF7AA
:100D90004FFE0023024629462046FFF7C7FF70BDDD
:100DA000D21DD308DB000CCBC0E730B4036820248D
:100DB0001268234303600823C36130BC0023B5E7F6
:100DC0006C58000001468008081A02091018020A2F
:100DD0001018020C1018C008820012185200891A4C
:100DE00001E0401C0A390A29FBD2704700487047CD
:100DF000681000200B4670B502468907800808433A
:100E000019469D08141AA941250908070543080930
:100E10002C194841250A01060D43010A2C194141AC
:100E2000200C0D0428430D0C00194D4100214019E0
:100E30004D41C00869070843E908840F8D00254328
:100E4000840024184D4124196D41121BAB4107E069
:100E50000925ED432C11521963410024401C6141C6
:100E60001C460A250026551BB441F1D270BD000076
:100E70007047FFB50C461E468FB003CA0890099113
:100E80004F007D0D00D16D1E002108460020C04698
:100E90000321099A89050840002A03DA8200801894
:100EA00040080840800D01280A9002DD0020C04360
:100EB0000A90089807430DD0F048F1492818484394
:100EC0000714189800281DD07542291E1DDD0A98A8
:100ED00042421BE01898012802D00020302104E093
:100EE0000020F24305E02154401CB042FBDB3046B9
:100EF0000022189B002121540F998B600A604860E2
:100F000013B0F0BDBD1B6D1CDFE70A9A002900DAA3
:100F100069420BA800F004FC0BAB07CB03AB07C383
:100F20000899099800F068FC6B4607C30146D5484C
:100F30000918002D00910BDDD24903980A9A494205
:100F40004018002303A90390684600F0C5FE08E09E
:100F500003990A9A0023081803A90390684600F031
:100F600065FE6B4607C30004000C03D00020C0439D
:100F7000410800E01046189A002A03D0002200928F
:100F800015461EE0751E05D4FFF734FF303262555A
:100F90006D1EF9D501220843079602D000227F1C5E
:100FA00004E02078302801D100227F1E002A069715
:100FB00087D01EE0112D07DAFFF71CFF3032625593
:100FC0006D1C02460A43F5D1084303D0009800285F
:100FD00019D00EE00021681E05E0235C625C6354BA
:100FE0002254401E491C8142F7DBA81B401E079576
:100FF0000690079A18990020A0540F98079B069A0C
:1010000081600CC07CE711260020189059E7D21DA2
:10101000F0B50D460446D10893B0C90003C90C9041
:101020000D9103F069F802460D98C00F01D02D20F4
:1010300007E02068810701D52B2002E04007C00FA0
:101040004001032A0F9001D0072A05DB03462946F9
:10105000204600F021FB0EE12078800601D5E769EB
:1010600000E006272846652D04D0662814D0672D99
:1010700069D12DE00020112F009001DB112300E049
:101080007B1C0CAA03A910A8FFF7F3FE11990026F8
:1010900010987D1C0E9142E001203B460CAAC0072F
:1010A0000B900120009003A910A8FFF7E2FE119D0C
:1010B00012981099002600280E9501D1781C0D1861
:1010C000781B02D446427D1C761EE81B00903AE055
:1010D000012F00DA01270020112F009001DD1123DC
:1010E00000E03B460CAA03A910A8FFF7C2FE119925
:1010F0003D46109800260E91217809070BD40E99D1
:10110000A94200DA0D4603A9012D04DD4A19203A4F
:10111000D27F302A06D0B84201DA011D04DA01215B
:1011200000910FE06D1EEFE7002802DC86192D1AF2
:1011300003E0411CA94200DD0D46801B401C0090CD
:101140000120C0070B902078000705D40098A84222
:1011500002DB0020C043009069460020C8720B9853
:10116000012102AF0337C907884225D00220109021
:101170002B2011900B9800280BDA40420B902D2069
:10118000119006E00B98FFF71DFE30317F1E0B908B
:1011900039701099481E00291090F3DC0B98002834
:1011A000F0D111987F1E38702088000501D54520A8
:1011B00000E065207F1E387001A8C01BC01D0B9089
:1011C0000F98002800D0012041190098C017091875
:1011D0000B980818A169081A401EA0612078C00663
:1011E00002D42046FFF7F4FB0F98002805D0626870
:1011F000A1689047206A401C20622078C00625D54F
:101200002046FFF7E5FB21E0002E07DB0E98B042F9
:1012100004DD03A86268805DA16802E06268A168DD
:1012200030209047206A761C401C20620098401EA7
:10123000002800900AD1FFF7C7FBC0686268016808
:10124000405CA1689047206A401C206228466D1EC1
:101250000028D9DC07E062683878A1687F1C9047D5
:10126000206A401C20620B99481E00290B90F2DC7A
:101270002046FFF7C3FB032042E6000001FCFFFF0E
:10128000104D0000E1DFFFFFD21DF0B504460D4612
:10129000D0088DB0C000466807683146384602F075
:1012A0002BFF0246F00F01D02D2307E020688107B5
:1012B00001D52B2302E04007C00F43016846002BF5
:1012C000037001D0012000E00020032A0A9001D021
:1012D000072A04DB2946204600F0DEF92DE12078BC
:1012E000800601D40D2500E0E5697000400D0D2D4C
:1012F00001904BDA300D00210B9008460020C046CB
:10130000032189050840002E05DA82008018C20FEB
:101310001018401008408015012801DD0020C0434E
:10132000A9000023182906D39C460A460123183A2F
:101330001B07D34003E001221205CA4094460C313A
:10134000202902D33A46203900E032468A4000285C
:1013500002DD002A06D119E0002817D10121C907B2
:101360008A4213D3194663467F185E41002806D18E
:101370000120C007824202D1084687439E430B9852
:10138000310D814202D00198401C01902088000557
:1013900002D57149794402E06F49794419396B46A5
:1013A0000A9830221A540A980A7C401C1A54401C8D
:1013B0000A900198002801DC302000E031201872EA
:1013C000019A0120002A02D0644BD21804E0720076
:1013D0003A4302D0614A521C0192002D02DC22786D
:1013E000120703D56A462E2050720220002286463C
:1013F00094460CE032033601120F6D1E8B5C02AA7C
:1014000013546246521C401C9446052A01DA002DF2
:10141000F0DC002202AE08E03B0F3F01CB5C521C27
:101420006D1E3354401C082A01DA002DF4DC2368B9
:101430009A0601D511E0401E704504DD3218203AAD
:10144000D27F302AF7D0002807DD3218203AD27F29
:101450002E2A02D11A0700D4401E002D03DD3E22A1
:101460003254401C6D1E497C31540199401C0029A6
:1014700006DA2D21471C315401984042019003E0C7
:101480002B21471C315401987D21C900884206DB7D
:10149000FFF7F3F93030F0557F1C019101E064282B
:1014A00008DB01986421FFF7E8F93030F0557F1C24
:1014B000019101E00A2806DB01980A21FFF7DDF916
:1014C0003030F0557F1C01980A21FFF7D6F93031F2
:1014D000F1550A98A1697F1C7A191018081AA061A1
:1014E0002078C00602D42046FFF772FA216A6E46C1
:1014F0000A980818206204E062683078A168761CB7
:1015000090470A98401E0A90401CF5D12078C006EA
:1015100002D52046FFF75CFA02AE09E03078761C6F
:101520003E280DD06268A1689047206A401C206266
:101530007F1EF3D22046FFF761FA0DB00320F0BD05
:10154000206A4019206203E06268A1683020904759
:101550006D1EEDD3F8E700004B52000001FCFFFFC9
:1015600010B54369002B02D0C046C04601E0FFF72A
:101570000FFB012010BD1288014624318284002215
:10158000C2840122ECE711680022D243E8E770B57B
:1015900016460C460546FEF79BFE0368FF20023008
:1015A000C05C012807D0FF2C0ED8185D00280BD096
:1015B00001202C7070BDFF33324621460833186875
:1015C000C3182846984770BD0020C04370BD000076
:1015D000024670B50A4392072AD11E4DEE0104C897
:1015E00008C9541B9443344017D0D0B2D9B2401A22
:1015F0002106014310D190B299B2401A210401434F
:101600000AD110021902000A090A401A21020143F4
:1016100002D1100E190E401A70BD9A42DFD010BAD6
:1016200019BA884201D9012070BD0020C04370BDA5
:1016300002780B78401C491C002A09D09A4207D135
:1016400002780B78401C491C002A01D09A42EFD046
:10165000D01A70BD010101017546FFF7C7FBAE4608
:10166000050069465346C008C000854618B020B53D
:10167000FEF71CFE60BC00274908B6460026C0C520
:10168000C0C5C0C5C0C5C0C5C0C5C0C5C0C5403D3A
:1016900049008D4670470000F8B51F4604460123F7
:1016A0000068DB02032601461840072A05DB0028F4
:1016B00001D017A506E017A504E0002801D016A563
:1016C00000E016A5102081432160A069C01E002FF4
:1016D000A06101D0401EA0612046FFF779F9002FDC
:1016E00009D038466268A1689047206A401C206291
:1016F000C01C206206E0206AFAE762682878A168C8
:101700006D1C9047761EF8D22046FFF777F9F8BD9A
:101710004E414E006E616E00494E4600696E660095
:10172000F7B516468AB0334878446C4603467C3396
:10173000C06F5A689B680DC42E487844763003AC5D
:101740000DC80DC43720C001081837211B30FFF722
:1017500094F805460C46803D1B3C02D564420120AE
:1017600000E000200027099010E0E0070CD00C20DA
:1017700020497843794432464C3941186846012360
:1017800000F054FA6B4607C364107F1C002CECD1A8
:10179000184F7F442E3F16E0E80712D02001C019F1
:1017A0000EC80691089307920068F04201D198197B
:1017B00008903246012306A903A800F037FA03ABCC
:1017C00007C36D10641C002DE6D10998002806D0CF
:1017D00032466946012303A800F07EFA05E00123A2
:1017E0003246694603A800F021FA0A9B07C30DB0F0
:1017F000F0BD0000CC4E0000034640000A4610B584
:10180000400D0BD00121C9070F24A40200191C03AD
:1018100064082143540D2143D20207E00021012036
:10182000F2E7D40F490021435200401E0029F8DAA4
:10183000DB0FDB07184310BDFFB50D46144685B01E
:101840004868516802F032FC00910190A868A168D4
:1018500002F02CFC02910390A868616802F026FC5B
:10186000029A12188242029201D2012000E0002066
:10187000019A0B18D2180028019202D08A4202D98C
:1018800003E08A4201D2012000E0002000990818FC
:1018900000906868A16802F009FC029A121882425E
:1018A000029201D2012000E00020019A0B18D21808
:1018B0000028019202D08A4202D903E08A4201D272
:1018C000012000E000200099081800902868216895
:1018D00040004900400849084018FA49471814E0F8
:1018E00001994000C90F08430090019802994000F7
:1018F000C90F08430190029803994000C90F08439B
:101900000290039840007F1E039000980028E7DAB9
:101910000898002801D0EC4E00E00026B74201DA1A
:10192000012000E00020002804902AD0F71BF806D0
:10193000C00E15D0029B2021091A039A8B401A432E
:101940000392029A019BC2408B401A430292019A71
:10195000009BC2408B4000991A430192C140009104
:101960007B110DD06F460320C11A03D500218200E0
:10197000B95003E08A008100BA587A50401EF3D56E
:10198000374603980299002800D0012001430898A7
:101990000291002808460CD0002800D001200199AF
:1019A000019A490508430121D20AC902D2020192D3
:1019B00000E001210E9B0122D207012B02D0002B57
:1019C00003D013E0002807D120E0904204D89042D1
:1019D0000CD1019B0B4209D0019B5918019105D1F3
:1019E0000099491C009101D17F1C009200280DD064
:1019F000102108460020C0460498002806D00F9801
:101A0000002803D0082108460020C0462868216825
:101A1000019B009A4840C10F0598C90739430EC081
:101A200009B0F0BDFFB587B0099A089808995368C6
:101A30009268406889689646002203931746944648
:101A4000089A12685300099A5B08126852005208FB
:101A50009A1A9E4BD4180A9A002A01D0352200E027
:101A6000402206920022012315460492DB070593CB
:101A700024E0002D05D175460346039E4D1BB3415E
:101A800009D375466646039B491B049D9841059BF7
:101A90007519AC465F4163463B4308D0059B049EE5
:101AA000DD0776082E435B080496059301E0521E7D
:101AB000641EC50FED0749184041521C069B9A420F
:101AC000D7DB002D04D17546039A6B1A824101D2EF
:101AD00003200CE0039A0B466B404240134303D0B3
:101AE000014303D0012002E0022000E00020614613
:101AF00001910021009702910A99002905D06146C1
:101B000040020143704B019102E0800700230290E4
:101B10009C4201DA012000E0002007003AD01A1BA5
:101B2000D006C00E15D0029D2021019C091AC54087
:101B30008C402543029C8C4000D001242543019C0D
:101B40000295009DC4408D4000992C430194C140F2
:101B5000009154111DD06D460221002202290CD1A2
:101B60000320001B07E0002804DB8600AE59002E8E
:101B700000D00122401C0328F5DB081B02D5880099
:101B80002A5004E08000285810438A00A850491EBB
:101B9000E3D51C460A98002802980CD0002800D0F3
:101BA00001200199019A490508430121D20AC9027D
:101BB000D202019200E00121109B0122D207012BE9
:101BC00002D0002B03D013E0002807D11FE0904281
:101BD00004D890420CD1019B0B4209D0019B5918AB
:101BE000019105D10099491C009101D1641C00921A
:101BF00000280CD0102108460020C046002F06D037
:101C00001198002803D0082108460020C0460898F3
:101C10000999019A009B006809684840C10F07981C
:101C2000C907214382600AC00BB0F0BD00B585B082
:101C3000019300920A460146002302A8FFF7FCFD2B
:101C400002A807C805B000BDFFB50A461F4685B00B
:101C50000799019301230091014602A8FFF7ECFDCB
:101C600002990398049ECA0F4900D20700920F22DE
:101C7000490892028C1A0021002800DB0C4645001E
:101C800013486D08844214D3079A002A04DA441ECC
:101C90000026104DF64302E004460D460E46102184
:101CA00008460020C046002F03D00421084600202B
:101CB000C0462005E90A0843009908436905F20A6D
:101CC0001143ADE602C0FFFF013C0000FF3F0000F2
:101CD000FF070000FFFFFF7F00B585B00193009272
:101CE0000A460146002302A8FFF79CFE02A807C887
:101CF000A8E7FFB50A461F4685B00799019301235F
:101D00000091014602A8FFF78DFE02990398049EF8
:101D1000CA0F4900D20700920F22490892028C1A7A
:101D20000021002800DB0C46450011486D08844264
:101D300014D3079A002A04DA441E00260D4DF643F8
:101D400002E004460D460E46102108460020C0461B
:101D5000002F03D0042108460020C0462005E90AD0
:101D60000843009908436905F20A114358E6000048
:101D7000FF070000FFFFFF7F10B50446C046C046C6
:101D80002046FEF767FA10BD01491820ABBEFEE7FA
:101D9000260002007047000003B40148019001BD15
:101DA000F100002010B5194CE0690007C00F0028B1
:101DB00005D017A002F00AFA606A08202062E069E4
:101DC0008007C00F002804D016A002F0FFF90220FF
:101DD0002062E0694007C00F002804D015A002F07F
:101DE000F5F904202062E0698006C00F002800D0C9
:101DF000606A2068C006C00F002806D0E069C006EF
:101E0000C00F002801D01020206210BD0048004003
:101E10004C505541525431204F7665722072756E88
:101E20000D0A00004672616D65206572726F720D59
:101E30000A0000004E6F697365206572726F720D43
:101E40000A00000010B5224C20688006C00F002850
:101E500007D020206060012004F01AFB04F00EFB84
:101E60000EE020680006C00F002809D004F0FEF93B
:101E7000014618A218A002F0DFF9002004F008FBC8
:101E800020684005C00F002805D001208002606056
:101E9000012004F0C1FA20688005C00F002806D098
:101EA000FF2001306060012004F0B6FA10BD206808
:101EB0000005C00F0028F9D004F0D8F9014605A2AA
:101EC00010A002F0B9F9002004F0A6FA10BD00003D
:101ED00000000240000000001B5B323B33316D3CD0
:101EE00025753E205B455D202573203A20555341E2
:101EF00052543120544532206572726F720D0A1BA4
:101F00005B306D001B5B323B33316D3C25753E20F1
:101F10005B455D202573203A2055534152543120B2
:101F20004572726F720D0A1B5B306D0010B5012097
:101F300001F08EF9064C002801D0012060610220DA
:101F400001F086F9002801D00220606110BD000078
:101F50000004014010B5082001F07AF9002802D0F1
:101F600008200149486110BD0004014010B540201F
:101F700001F06EF9002802D040200149486110BDEF
:101F80000004014004F072F9014606A206A002F026
:101F900053F9BFF34F8F0F490D48C860BFF34F8F00
:101FA00000BFFDE7000000001B5B323B33316D3C9E
:101FB00025753E205B455D202573203A20457272D1
:101FC0006F722068616E646C650D0A1B5B306D007A
:101FD0000400FA0500ED00E0F0B5079F059E069DA0
:101FE0000C4614408B431C43A219D219101820220E
:101FF000521BD0414018F0BD10B5084900234B6179
:1020000007494A684C1522434A604A68082422431B
:102010004A60C009C001036010BD00002C0400200C
:102020000020024010B50020204A9169CB052049CC
:1020300004D54869022318434861901593699B05AC
:1020400005D54B69012423434B616302184393690F
:102050005B0505D54B69082423434B61E301184315
:1020600093691B0505D54B69042423434B61630227
:10207000184393699B0405D54B69102423434B6196
:102080006302184393699B0304D54C6920231C43C6
:102090004C6118439369DB0305D54B694024234306
:1020A0004B61A1020843906110BD00000020024076
:1020B0002C04002070B5044600F0BCF80546184E0C
:1020C0000AE0601C08D0002C04D000F0B3F8401BDC
:1020D000A04201D9032070BDB069C007F1D1B06939
:1020E000800701D50220B061B069C00511D4B06984
:1020F00080050ED4B06940050BD4B069000508D442
:10210000B069800405D4B069800302D4B069C0030B
:1021100003D5FFF787FF012070BD002070BD0000D0
:1021200000200240F0B5079F059E069D0C461C400E
:102130009A431443A219D21910182022521BD041DD
:102140004018F0BDF8B505460E46184F387C0128FA
:1021500007D0012038741648FFF7ACFF002802D0E2
:1021600020E00220F8BD0021C94331606C6813E013
:102170002046FFF741FF0E48FFF79CFF0D494A68D4
:1021800008239A434A604A684B159A434A600028DC
:1021900001D0346006E08034A9686A68C9018918F2
:1021A000A142E5D800213974F8BD00002C040020BC
:1021B00050C300000020024005484168022211433C
:1021C00041604168012211434160002070470000D6
:1021D0000020024012484168C9070DD0EFF310817A
:1021E00072B6104AC260104AC26081F3108841681A
:1021F000C90701D001207047416889070DD5EFF369
:10220000108172B6094A0261094A026181F310889D
:102210004068800701D5012070470020704700000A
:1022200000200240EFCDAB8905040302BFAE9D8CB8
:102230001615141301488068704700005C010020E7
:102240000248816802788918816070475C0100202B
:1022500010B50024074801684022114301600020A6
:1022600000F00AF8002801D0012401E000F028F86D
:10227000204610BD0020024070B504460E4D7D2062
:102280002978C000FEF7EFFA01460C480068FEF717
:10229000EAFA00F0F1FE002801D0012070BD042C04
:1022A00007D200222146501E00F022F86C60002068
:1022B00070BD012070BD00005C010020680100209D
:1022C0000448416B012211434163816B02041143B5
:1022D0008163704700100240002805DBC106C90E6B
:1022E00001208840014908607047000000E100E0DB
:1022F00010B501F033FF10BD02480168821511438B
:102300000160704700700040F8B504460026206860
:102310006B4D810601D401057ED569484038806B3C
:10232000C00006D466484038816B020411438163C3
:10233000012664480168C90512D401688215114359
:102340000160FFF777FF074606E0FFF773FFC01B4A
:10235000642801D90320F8BD5A480068C005F4D5A7
:102360005748403800680321090508406268114059
:10237000814205D10323A1681B05194081420AD07F
:102380009003800F032806D14D4840380068800331
:1023900001D50120F8BD286903210904084000285F
:1023A00028D00A40824202D02278920606D4A2683F
:1023B0000A4082421ED0208800051BD52869884328
:1023C0002A690121C9040A432A612A698A432A61C8
:1023D0002861C0050ED5FFF72DFF074607E0FFF780
:1023E00029FFC11B3848814201D90320F8BD286963
:1023F0008005F4D560688103890F032908D1304B2B
:10240000403B1968032212059143104001431960B3
:1024100028690322120400E00BE0616811400843C0
:102420002861012E05D126484038826B01048A4379
:1024300082632078C00705D0E868E16880088000E2
:102440000843E8602078800705D5E8680C218843B8
:1024500021690843E8602078400706D5E868032131
:102460008902884361690843E8602078000706D53F
:10247000E868032109038843A1690843E8602088CC
:10248000C00506D5E868032109048843E1690843CB
:10249000E8602078400606D5E8680121890688436F
:1024A000616A0843E8602078000606D5E8680321E1
:1024B00089048843216A0843E8600020F8BD0000D1
:1024C000401002400070004088130000F8B5044638
:1024D0000E46002C0FD068480068C007C00FB042FD
:1024E00018D2654F38684008400030433860FFF725
:1024F000A1FE054609E00120F8BDFFF79BFE411B48
:102500005E48814201D90320F8BD3868C007C00F7A
:10251000B042F2D120785A4F800705D5F868F021F3
:102520008843A1680843F8602078C00760D06068DD
:10253000022808D003280BD001280ED0396889055D
:1025400010D40120F8BD396889030BD40120F8BDEF
:102550003968890106D40120F8BD3968490701D4DA
:102560000120F8BDF968890889000143F960FFF787
:1025700061FE0546606802280CD0032818D00128A7
:1025800024D031E0FFF756FE411B3C48814201D97F
:102590000320F8BDF8680007800F0228F2D127E079
:1025A000FFF748FE411B3548814201D90320F8BDA1
:1025B000F8680007800F0328F2D119E0FFF73AFE10
:1025C000411B2E48814201D90320F8BDF86800075D
:1025D000800F0128F2D10BE0FFF72CFE411B2748AA
:1025E000814201D90320F8BDF8680007800FF3D1BC
:1025F00021480168C907C90FB14217D901460868C7
:102600004008400030430860FFF714FE054607E02D
:10261000FFF710FE411B1948814201D90320F8BD84
:1026200015480068C007C00FB042F1D120784007BC
:1026300006D5F868072109028843E1680843F86075
:102640002078000707D5F8680721C9028843216967
:10265000C9000843F86000F01BF8F968094A090648
:10266000090F515CC8400849086008480068FFF736
:1026700003FE0028D3D1F8BD0020024088130000DB
:10268000001002406B650008680100206001002016
:1026900070B5214EF2680C21104608401F498B008E
:1026A00004280CD04D00082810D00C2810D07068D9
:1026B0000004410F491C0120C003884070BD3068F0
:1026C000C00601D5084670BD184670BD284670BDCD
:1026D0009002134C000F205C1202940F641CF268ED
:1026E000D20307D5294601F0E1FC22460023FDF77D
:1026F000F7FD70BD3268D20606D501F0D7FC224640
:102700000023FDF7EDFD70BD194601F0CFFC224618
:102710000023FDF7E5FD70BD0010024000093D00FB
:102720007B650008FEB50446002C0FD0F84DEE681E
:102730000C200640EF680120000407402078C00705
:1027400053D0082E08D00C2E02D00DE00120FEBD83
:1027500001200004874207D12868800345D56068BE
:10276000002842D10120FEBD0120616800048142A1
:1027700003D129680143296015E0052301221B04C8
:102780009204994206D129681143296029680143BE
:10279000296008E029688143296029680140009187
:1027A000286890432860606800280FD0FFF742FD3A
:1027B000019007E0FFF73EFD0199401A642801D916
:1027C0000320FEBD28688003F4D50EE0FFF732FD3C
:1027D000019007E0FFF72EFD0199401A642801D906
:1027E0000320FEBD28688003F4D42078800762D5DA
:1027F000E068810604D52A6820210A432A608843BC
:102800000921042E0DD00C2E01D1002F09D0002853
:102810003FD02A688A4302432A60FFF70BFD074630
:102820002BE02A68520701D500281DD06A681F23B3
:102830001B029A4323691B021A436A602A688A436F
:1028400002432A60FFF724FF0146E8680006020FF2
:10285000B048805CC140B0480160B0480068FFF7F4
:102860000BFD0028BDD126E00120FEBDFFF7E2FCF4
:10287000C01B022801D90320FEBD28684007F5D5FA
:1028800068681F21090288432169090208436860BA
:1028900011E02868400840002860FFF7CBFC07469D
:1028A00006E0FFF7C7FCC01B022801D90320FEBDCC
:1028B00028684007F5D42078C00664D5002E0BD0D8
:1028C000E06900284CD02868FF21013108432860C6
:1028D000FFF7B0FC074631E02868800502D5E069C3
:1028E000002822D06868072149038843616A0843A9
:1028F00068606868218C0002000A09060843686065
:10290000606A0121400B401CC9038140E868000651
:10291000020F8048805CC1407F4801607F480068AA
:10292000FFF7AAFC0028C2D12DE00120FEBDFFF771
:1029300081FCC01B022801D90320FEBD2868800548
:10294000F5D56868072149038843616A08436860D0
:102950006868218C0002000A09060843686012E0DA
:102960002868FF21013188432860FFF763FC074690
:1029700006E0FFF75FFCC01B022801D90320FEBD63
:1029800028688005F5D42078654F000729D560694F
:10299000002813D03869012108433861FFF74AFC49
:1029A000019007E0FFF746FC0199401A022801D97F
:1029B0000320FEBD38698007F4D512E0386940086D
:1029C00040003861FFF736FC019007E0FFF732FC6A
:1029D0000199401A022801D90320FEBD38698007F9
:1029E000F4D42078400776D500200090A86BC00072
:1029F00006D4A86B012109070843A86301200090B1
:102A000048480168C90514D402461168801501437D
:102A10001160FFF70FFC019007E0FFF70BFC019935
:102A2000401A642801D90320FEBD3E480068C00555
:102A3000F3D5FF20A2680130824203D139690143F6
:102A400039611BE001218902002A0AD005231B02FB
:102A50009A420DD13A690A433A61396901433961B1
:102A60000CE03A6982433A6138698843386105E08D
:102A70003A6982433A61386988433861A06800281E
:102A800010D0FFF7D7FB019008E0FFF7D3FB0199C7
:102A9000411A2548814201D90320FEBD38698005CD
:102AA000F3D510E0FFF7C6FB019009E0FFF7C2FB8A
:102AB00001460198091A1C48814201D90320FEBD34
:102AC00038698005F2D40098012804D1A86B01214F
:102AD00009078843A8632078800642D51349A06976
:102AE0004B14002828D0AA6801200243AA606A6B10
:102AF00002436A63086A18430862FFF79BFB0746B4
:102B000016E0FFF797FBC01B022811D90320FEBD7A
:102B1000001002406B650008680100206001002081
:102B20004010024000700040881300000000014087
:102B3000A8688007E5D514E0A86840084000A860B0
:102B4000086A98430862FFF775FB074606E0FFF73F
:102B500071FBC01B022801D90320D8E7A8688007B1
:102B6000F5D4A06A00285ED00C2E43D001273F0682
:102B7000022806D02868B8432860FFF75BFB0446AC
:102B800034E02868B8432860FFF754FB064606E0A7
:102B9000FFF750FB801B022801D90320B7E7286804
:102BA0008001F5D4216BE06AEA680843616BFD237C
:102BB0001B049A4311430843E8602868384328609F
:102BC000FFF738FB044606E0FFF734FB001B022842
:102BD00001D903209BE728688001F5D523E0FFF7A2
:102BE00029FB001B022801D9032090E728688001F7
:102BF000F5D418E0012814D0E86801210904E26A3C
:102C0000014091420BD10F218904226B0140914276
:102C100005D1032189050840616B884203D001205A
:102C200075E7012073E7002071E70000F7B504465F
:102C3000254620352878012813D00120287002204D
:102C400068702168CA204862216853204862206861
:102C5000806800274005002817DAFFF7EBFA0646E0
:102C60000FE00220FEBDFFF7E5FA811B7D20C000CA
:102C7000814206D92168FF204862032068702F70C6
:102C8000FEBD2068C0684007EDD42068826801213D
:102C900089028A4382602068C16880221140204AEC
:102CA0008918C160FFF7C6FA06460DE0FFF7C2FAC1
:102CB000811B7D20C000814206D92168FF20486227
:102CC000032068702F70FEBD2068C0684007EDD5F6
:102CD00021680198486120688168C908C90081603D
:102CE00020688168029A114381600E4801680122C0
:102CF0001205114301608168114381602068816879
:102D00009211114381602068816812111143816022
:102D10002168FF204862012068702F700020FEBDEE
:102D20007FFBFFFF000401400248016804221143B9
:102D3000016070470070004010B504462068C0680C
:102D4000400509D52046FFF7EFFF2068C1688022C3
:102D50001140054A8918C1600120044900054861F5
:102D600001202034607010BD7FFBFFFF0004014094
:102D7000F8B50446002C05D0254620356878002893
:102D800002D006E00120F8BD00202870204600F0A7
:102D900055F8022068702168CA20486221685320D3
:102DA0004862204600F0C9FFFF260427002804D00F
:102DB000206846626F700120F8BD206881681E4A55
:102DC00011408160206881686268A36911432269AB
:102DD0001A43114381602168E06808612068016935
:102DE00022891204114301612068C1688022914345
:102DF000C1602068C16C89088900C164E1696069AB
:102E000001432068C26C1143C16420688068800659
:102E10000BD4204600F016F9002806D02068466240
:102E20006F70002028700120F8BD206846620120E4
:102E300068700020F8BD0000BFFF8FFF10B500686C
:102E4000084988420DD108480169012292041143C2
:102E50000161002211460220FFF74AFA0220FFF723
:102E60003BFA10BD0028004040100240F8B504466F
:102E70000B46254620352878012806D001202870E9
:102E800002206870002A02D008E00220F8BD5878BD
:102E9000C10603D5EF2108400A305870002A1DD022
:102EA000D8789E78000406435878197800024903C0
:102EB000084306432168CA204862216853204862BB
:102EC000204600F03AFF0027002818D02168FF2094
:102ED0004862042068702F700120F8BDD87800F097
:102EE00021FF0604587800F01DFF00020643987881
:102EF00000F018FF0643187840030643DAE711484C
:102F00000640206846602068C16880229143C16005
:102F10002068806880060CD4204600F093F80028D2
:102F200007D02168FF204862042068702F700120BC
:102F3000F8BD2168FF204862012068702F700020D2
:102F4000F8BD00003FFFFF00F8B504460D462646D9
:102F500020363078012829D001203070022070708E
:102F60000027002A24D020688068400600D4EF7033
:102F70002978A878090408436978EA7809021204D4
:102F80001143084300902168CA20486221685320F9
:102F90004862204600F0D1FE002820D02168FF20A2
:102FA00048620420707037700120F8BD0220F8BD1F
:102FB00020688068400600D4EF70287800F0B2FEE8
:102FC0000204687800F0AEFE00020243A87800F028
:102FD000A9FE0243E878000402430092D3E71849AF
:102FE00000980840216808602068816801229204E6
:102FF00091438160E9682869014320688268114330
:1030000081602068C16880229143C1602068806827
:1030100080060CD4204600F015F8002807D021685F
:10302000FF2048620420707037700120F8BD2168CD
:10303000FF2048620120707037700020F8BD00004A
:103040007F7F7F0070B505462868C168A022914344
:10305000C160FFF7EFF804467D26F60006E0FFF7B3
:10306000E9F8001BB04201D9032070BD2868C06890
:103070008006F4D5002070BD10B50949401E884275
:1030800001D9012010BD074C60610321081F01F028
:1030900065F80020A06107202061002010BD00001D
:1030A000FFFFFF0000E000E070B5069E049D059C58
:1030B0004A405A405219921910182022121BD0412E
:1030C000401870BD05A001F081F8BFF34F8F07498C
:1030D0000548C860BFF34F8F00BFFDE748617264C9
:1030E0006661756C740D0A000400FA0500ED00E0DD
:1030F00070B5069E049D059CDB430B4353405A1953
:10310000921910182022121BD041401870BD0000E7
:10311000044A51182039C97F425802239A43425029
:103120007047000064650008044A51182039C97FBF
:10313000425808239A4342507047000064650008D3
:10314000044A51182039C97F425802231A43425079
:103150007047000064650008044A51182039C97F8F
:10316000425808231A434250704700006465000823
:1031700010B5054B59182039C97F4358032424033F
:10318000A3431343435010BD6465000810B5054BBD
:1031900059182039C97F4358034C234013434350E7
:1031A00010BD000064650008EFBFFFFF10B5054BC0
:1031B00059182039C97F43588024A34313434350EF
:1031C00010BD00006465000810B5054B5918203982
:1031D000C97F43580324A402A3431343435010BDA3
:1031E0006465000810B5054B59182039C97F43584C
:1031F0002024A3431343435010BD0000646500081E
:1032000010B5054B59182039C97F43584024A343B2
:103210001343435010BD00006465000810B58030B2
:10322000836A491E89000F248C40A3438A401343BC
:10323000836210BD10B5054B59182039C97F43581A
:1032400003242402A3431343435010BD64650008C4
:1032500003494969884301D0002070470120704725
:1032600000040140F0B500234DE001249C402240C1
:10327000002A47D04C68012C01D0022C10D18D6857
:103280001446866864436700E719BE436C432643CF
:103290008660CD680C684668A6436C43264346604A
:1032A0000F691446C668644365006519AC46AE43B1
:1032B00025467D432E43C6604D68022D1BD1FF2A53
:1032C0000CD84F691646056A2246724372431601AE
:1032D000B61AB5437A43154305620CE04E69150AE8
:1032E0002A466A436A436A431501476AAD1AAF43E7
:1032F0007243174347624A6805686646B5435443BC
:10330000254305605B1C0A681446DC40ADD10020F3
:10331000F0BD10B5036849434C000C19A343514359
:103320000B43036010BD10B5C36849434C000C1932
:10333000A34351430B43C36010BD000008B50449CB
:10334000CA6A0243CA62C96A0140009108BD00000E
:103350000010024010B5044600F086FC206000F02A
:1033600059FC606000F064FCA060606800F06EFCD6
:10337000E06010BDF8B50546002401272B4EFF0381
:10338000032D10D1284600F059F8294940180DD0D6
:1033900001280FD0022819D000F066FC00F03AFC9A
:1033A00000F054FC04460C2D16D026E000F05CFC26
:1033B0000446F8E700F04AF80028F4D000F04EF890
:1033C000002801D03446EEE71A4CECE700F04EF846
:1033D0000028E8D03C46E6E7284600F02FF81649DA
:1033E00040180CD004280ED0082818D000F03CFC5F
:1033F00000F010FC00F01CFC04462046F8BD00F074
:1034000033FC0446F9E700F021F80028F5D000F07D
:1034100025F8002801D03446EFE7064CEDE700F030
:1034200025F80028E9D03C46E7E7000000093D0008
:10343000FFFFFCFF0024F400FCFFF3FF0249C96812
:1034400001400004084370474010024002480068F1
:103450004007C00F7047000000100240024800689B
:10346000C006C00F7047000000100240024800690B
:103470008005C00F704700004010024041680E48B0
:10348000014030200A070840120F10430722520360
:103490000A400004D20210430A0A10231A400B0506
:1034A0001B0F1A43120210430A0CF02309031A409F
:1034B000090F0A43104370473FFFFF0010B5016832
:1034C0000B480140080C302210400A03120F104331
:1034D0000A0A70230C051A40240F2243000412022A
:1034E00010430A4609071A40090F0A43104310BD4A
:1034F0007F7F3F0010B50A06930D054A9A1893681E
:10350000090C0F248C40A34388400343936010BDF3
:10351000000001407FB504460D46012600202168C9
:103520003140002953D1EA686968AB6911432A69BF
:103530001A4311432268274B1A4011432160A9689E
:10354000626803231B039A430A4362606969A268A5
:103550001B119A430A43A2601F498C4203D10320E6
:10356000FFF708FF15E01D498C4203D10C20FFF73F
:1035700001FF0EE01A498C4204D16846FFF7EAFECB
:10358000029806E017498C4203D16846FFF7E2FE35
:10359000029800281BD02968002918D00026AA69A3
:1035A0000123DB039A420CD140004A088018FDF742
:1035B0005AF980B20C4901400007420F0A43E26009
:1035C00005E04A081018FDF74EF980B2E060304679
:1035D00004B070BDF369FFEF0038014000440040C3
:1035E000004C004000500040F0FF000008B50948C2
:1035F000016B012211430163006B104000900649EA
:103600000868FF22120490430860012003498002E9
:10361000086008BD0010024008E400E000E100E09E
:10362000F0B587B0182101A8FDF71BF90420FFF7BA
:1036300085FE8020FFF782FE0120FFF77FFE02203B
:10364000FFF77CFE0820FFF779FE0420052109071B
:1036500088620120B34988620420886280028862FF
:103660008000886240000521090788621020AD496A
:103670008862202088628020886280008862102012
:10368000A949886107010520000787617801019039
:1036900000240294059401A9A348FFF7E3FD012645
:1036A000019603250295059401A9A048FFF7DAFDCC
:1036B000022001900295059401A99C48FFF7D2FDD4
:1036C00001960295059401A99748FFF7CBFD0420C8
:1036D00001900296039404940594052001A9000723
:1036E000FFF7C0FD8020019002950594052001A9F7
:1036F0000007FFF7B7FD1020019002960395049490
:10370000059401A98848FFF7ADFD2020019002959E
:10371000059401A98448FFF7A5FD0196029603943C
:103720000494059401A97F48FFF79CFD04200190B3
:10373000029603940494059401A97A48FFF792FD38
:1037400030030190029603940494059401A97548EE
:10375000FFF788FDB003019002960394049405944A
:1037600001A97048FFF77EFDF003019002950594D2
:1037700001A96C48FFF776FD402001900295059461
:1037800001A96948FFF76EFD80200190029505941C
:1037900001A96548FFF766FD01970295059401A907
:1037A0006148FFF75FFD700201900295059401A941
:1037B0005D48FFF757FD0197029603940494059422
:1037C000052001A90007FFF74DFDF00201900295C9
:1037D0000594052001A90007FFF744FD300301907F
:1037E00002950594052001A90007FFF73BFDF003B2
:1037F00001900296039404940594052001A9000702
:10380000FFF730FDB00201900295059401A94648EA
:10381000FFF728FDF00201900295059401A94248A6
:10382000FFF720FD300301900295059401A93E4861
:10383000FFF718FD042001900295059401A93C486A
:10384000FFF710FD082001900295059401A9354865
:10385000FFF708FD1020019002960394049405944C
:1038600001A93048FFF7FEFC202001900296039446
:103870000494059401A92B48FFF7F4FC4020019023
:103880000295059401A92748FFF7ECFC80200190E0
:10389000029603940494059401A92248FFF7E2FCE0
:1038A00001970295059401A91E48FFF7DBFC700201
:1038B00001900296039404940220059001A91948EE
:1038C000FFF7D0FC00210846FFF714FEA9040020F2
:1038D000FFF710FEB1040120FFF70CFE05200022C7
:1038E00001210007FFF71FFD052000220821000726
:1038F000FFF719FD002202210A48FFF714FD0520F9
:10390000002201210007FFF704FD05200022082105
:103910000007FFF7FEFC002202210248FFF7F9FC36
:1039200007B0F0BD0004005000080050001C00501B
:10393000000C00500A49094808600A48086006203F
:10394000486009488860C868400705D00020012801
:10395000F9D10648086070470120F8E7CCCC000098
:103960000030004055550000FF0F0000AAAA0000DB
:1039700010B588B0142103A8FCF773FF002402944B
:1039800028482749016044607F218160FF21C16090
:10399000046144618461C461FFF7EAF9002801D041
:1039A000FEF7F0FA684600F0D9FC002809D00022A2
:1039B00011460220FEF79CFC0220FEF78DFC08B0A9
:1039C00010BD02F053FC014617A218A000F034FC11
:1039D000684604734473847306940794012203A910
:1039E0001048FFF7B1FA002801D0FEF7CBFA01200A
:1039F0006946087248728872CC72012202A909488D
:103A0000FFF734FA002801D0FEF7BCFA0022122199
:103A10000448FFF70BF90028D1D0FEF7B3FACEE740
:103A20000028004008040020000000001B5B323B1F
:103A300033336D3C25753E205B575D202573203A5E
:103A4000205265696E6974205254430D0A1B5B3025
:103A50006D000000F0B58FB01C2108A8FCF701FF35
:103A6000182102A8FCF7FDFE012189036248426B80
:103A70000A434263426B0A4001920121C26A0A432F
:103A8000C262C06A08400190480202900227039770
:103A90000326049600240594069404250795052022
:103AA00002A90007FFF7DEFB2802029003970496A5
:103AB000059406940795052002A90007FFF7D2FB9D
:103AC0004E4E032211463046FFF7A8FB0022032189
:103AD0003046FFF75BFBEF023A4603213046FFF723
:103AE00047FB202203213046FFF77CFB0022032105
:103AF0003046FFF785FB802203213046FFF756FB57
:103B0000002203213046FFF795FB002203213046B7
:103B1000FFF75AFB032202213046FFF77FFB1022FA
:103B200002213046FFF732FB3A4602213046FFF7CA
:103B30001FFB002202213046FFF754FB0022022126
:103B40003046FFF75DFB802202213046FFF72EFB57
:103B5000002202213046FFF76DFB00220221304691
:103B6000FFF732FB264801680902090A01601B20A1
:103B700000F0E8FAE1204002089009940A940B94BE
:103B80000C200C900D940E941E4C08A92046FFF7B3
:103B9000C1FC60680921C90288436060A0682A21CD
:103BA0008843A06020680127384320601648C07F02
:103BB00031582943315003213046FFF7C1FA032120
:103BC0003046FFF7C9FA02213046FFF7B9FA022161
:103BD0003046FFF7C1FAEFF3108087F310882168B1
:103BE00010221143216080F310885101074802F030
:103BF000B7FB0FB0F0BD0000001002400000024013
:103C000018E400E000380140476500080802002081
:103C1000FEE770470449C968F0221140034A0909C8
:103C2000515CC84070470000001002406B650008FE
:103C30000449C968072212021140034A090A515C6B
:103C4000C840704700100240846500080449C968F4
:103C50000722D2021140034AC90A515CC84070478A
:103C6000001002408465000810B5144AD1680C2089
:103C70000140072301205B03C00300290BD0042966
:103C80000FD0082915D00C2915D051681940490BBF
:103C9000491C884010BD51681940490B491C884097
:103CA00010BDFFF7DBFB002801D0054810BD05481B
:103CB00010BD054810BD00F009F810BD001002400D
:103CC00000093D000024F40000127A0010B5104CE9
:103CD000E068012109040840002811D00D4AE0687D
:103CE000032189050840810D491CE0680F239B04CE
:103CF0001840094B800C185C5043FCF7B4FD10BD14
:103D0000FFF7ACFB002801D0044AE8E7044AE6E7E5
:103D10000010024000127A007B65000800093D0097
:103D20000024F400002102E0491C0A38C0B20A282D
:103D3000FAD20907090E0843704770B5054628688E
:103D4000C168490613D40021C943C160FEF772FA65
:103D500004467D26F60006E0FEF76CFA001BB04232
:103D600001D9032070BD2868C0684006F4D5002042
:103D700070BD000010B50248FEF7DEFF10BD000068
:103D800008040020F8B505460E4617460948007895
:103D9000002801D100F0FAF8EFF31084012080F33D
:103DA00010883A463146284600F006F8E1B281F321
:103DB0001088F8BD4404002070B50E461446182142
:103DC00048431649451818356869002806D0012867
:103DD00011D002281BD00024204670BD284600F0D8
:103DE00009F9A04201D20024F6E7224631462846CE
:103DF00000F03DF9F0E7284600F0FCF8A04200D2C0
:103E0000044622463146284600F031F9E4E72246CE
:103E10003146284600F0FAF80446DDE74404002065
:103E20007047704710B5FEF70BFA10BD30B59DB066
:103E300038210FA8FCF715FD14210AA8FCF711FD85
:103E400028216846FCF70DFD224801680324E4029E
:103E5000A143C51449190160FEF74EFA1E480169D5
:103E6000A143491901610E200F90E8101190012023
:103E700012901021139114900220199000241A948A
:103E80001B9480051C900FA8FEF74CFC002801D065
:103E9000FEF778F80F200A9003200B900C940D94F5
:103EA0000E9400210AA8FEF711FB002801D0FEF7AE
:103EB00069F82520009003940594012000040190E6
:103EC0006846FEF721FA002801D0FEF75BF81DB026
:103ED00030BD000000700040401002400120024947
:103EE000C00688607047000000ED00E010B5184C77
:103EF0002068C006C00F002809D0E069C006C00FC6
:103F0000002804D010202062012002F085FAE06928
:103F10000007C00F002805D00EA000F057F9606A16
:103F200008202062E0690007C00F002804D00FA01D
:103F300000F04CF902202062E0694007C00F002821
:103F400004D00EA000F042F90420206210BD000051
:103F50000038014047534D2055415254203A204FDC
:103F60007665722072756E0D0A0000004672616DF2
:103F700065206572726F720D0A0000004E6F6973E2
:103F800065206572726F720D0A00000070B5114CE9
:103F900001202061606110A0A06120464830E061EE
:103FA0000120800220620021A1626162E1620AA018
:103FB00020630C4860632025A5632164E16361648C
:103FC00009A1E01DFCF7A6FB08A12046FCF7A2FB17
:103FD000A57170BD440400205465726D696E616CFA
:103FE000000000008C0800205254540053454747FD
:103FF000455200000169C268914204D88068801A65
:104000004018401E7047881A401E7047F7B582B0AE
:104010000546174600200190EC682869A04202D9A5
:10402000061B761E03E0A968201A0E1A761EA868E1
:10403000001BB04200D80646BE4200D33E46686828
:10404000001932460399FCF7ADFB019880190190E5
:10405000039880190390BF1BA419A868A04200D13F
:104060000024EC60002FD8D1019805B0F0BDF7B561
:1040700004461646E768A068C51BE16860684018FA
:10408000B54206D932460199FCF78CFBB819E060BD
:10409000FEBD2A460199FCF785FB761B60680199F5
:1040A00032464919FCF77EFBE660FEBDF8B5040C0C
:1040B0008BB2264682B25E430D0C1046370C584335
:1040C000360480190021794116466E43370C3604B8
:1040D0008019794126466E438919F8BD30B474467B
:1040E000641E2578641CAB4200D21D46635D5B00F4
:1040F000E31830BC184700004900CA020243100010
:1041000000D004204A0D01D001221043044A490D79
:10411000914201D102210843012800D105207047B6
:10412000FF070000002809DBC106C90E01208840F6
:1041300003490860BFF34F8FBFF36F8F70470000D4
:1041400080E100E0002805DBC106C90E012088409F
:10415000014908607047000000E100E08307FF228A
:10416000DB0E9A408907090E9940002808DB830876
:1041700009489B001818036893430B43036070477A
:104180000007000F0838830804489B001818C3690B
:1041900093430B43C361704700E400E000ED00E08F
:1041A000BFF34F8F04490348C860BFF34F8F00BF70
:1041B000FDE700000400FA0500ED00E030380A28B1
:1041C00001D2012070470020704700000FB4F8B5FD
:1041D000144D0124640202F049F8024612A1284657
:1041E000FCF71CF940192946451A661B07AB0093DA
:1041F0003146069AFCF7F6F80446B44205DD72191A
:1042000008490020FFF7BEFD06E0002C04DD62191E
:1042100004490020FFF7B6FD2046F8BC08BC04B0F6
:1042200018470000AC0800203C25753E3A200000ED
:104230000020C043704700000FB438B50E48012578
:104240006D0205AB00932946049AFCF7CBF80446AF
:10425000AC4205DD2A4608490020FFF793FD06E041
:10426000002C04DD224604490020FFF78BFD204688
:1042700038BC08BC04B01847AC0800207CB5054623
:104280000C46214608221031684601F0CBF9208AFD
:10429000C005820E382A02D23820821A01E0782026
:1042A000821A0949204600F023F808226946204670
:1042B00000F01EF810222146284601F0B3F95821DB
:1042C0002046FCF7CEFA7CBDC801002000214161E8
:1042D000016105490160054941600349C9438160A5
:1042E0000249C943C16070470123456789ABCDEFDF
:1042F000F8B505460F4616462A69D005800EF1002E
:1043000052182A618A4202D26969491C6961696945
:10431000720F8918696140210C1AA64216D3281819
:10432000183022463946FCF73DFA2946183128460E
:1043300001F08EF904E03919284601F089F940347A
:1043400020463F30B042F6D3002000E00024281879
:10435000321B39191830FCF725FAF8BD70B505463F
:10436000224E3046FFF7AAF804463046FFF786F89B
:104370002102090F0A2251432203120F8918E97002
:104380002104090F0A2251432205120F89182971AD
:104390002106090F0A2251432207120F8918697159
:1043A0000102090F0A2251430203120F8918C9B2F0
:1043B000A9700204120F0A235A4303051B0FD218D7
:1043C000D2B26A7003061B0F0A2400076343000F72
:1043D0001818C0B228701538122805D20D2A03D239
:1043E000202901D2012070BD002070BD00280040AE
:1043F0007FB5044601F03AFF014623461BA21CA0EC
:10440000FFF71AFF00F0AAF80025FDF7E3FE02947B
:1044100000200190244EB44209D2301BC009039001
:10442000694601A8FDF78EFE002800D00125002D69
:104430000FD1B44200D2344602941C490298081AA3
:10444000C0090390694601A8FDF77CFE002800D052
:104450000125FDF7B1FE01F009FF01462B4603A23D
:1044600013A0FFF7E9FE284604B070BD000000006D
:104470001B5B323B33326D3C25753E205B495D2032
:104480002573203A20466C617368206572617365FC
:104490002061742061646472203078253038580DB2
:1044A0000A1B5B306D00000000800108FFDF02087E
:1044B0001B5B323B33326D3C25753E205B495D20F2
:1044C0002573203A20457261736520666C617368BC
:1044D000206572726F7220636F64652025750D0A06
:1044E0001B5B306D000000001FB500F037F80024A2
:1044F000FDF770FE0C48029000200190012003900F
:10450000694601A8FDF71EFE002807D001F0AEFEA7
:10451000014606A206A0FFF78FFE0124FDF74CFE20
:10452000204604B010BD000000E0020800000000BA
:104530001B5B323B33316D3C25753E205B455D2076
:104540002573203A204F54412065726173652065C0
:1045500072726F720D0A1B5B306D000010B5FDF7B3
:1045600039FE044902488861FDF726FE10BD0000AF
:10457000002F030000200240F8B506460C461746FF
:104580000025FFF7EBFFFDF725FEB80007192FE028
:1045900020491F48086021463046FDF7FDFB0028F2
:1045A00011D001F063FE01461BA21CA0FFF744FEE0
:1045B0000325002D1CD001F059FE014616A222A0B1
:1045C000FFF73AFE16E000208100725861588A42D7
:1045D00008D001F04BFE01460FA227A0FFF72CFEEA
:1045E000022502E0401C1028EED340364034E0E7BC
:1045F000A742CDD8FDF7E0FD002D07D001F036FE33
:1046000001462B4604A22AA0FFF716FE2846F8BD55
:10461000AAAA000000300040000000001B5B323BF3
:1046200033316D3C25753E205B455D202573203A76
:104630002057726974696E67206572726F720D0A15
:104640001B5B306D000000001B5B323B33316D3C67
:1046500025753E205B455D202573203A2057726901
:10466000746520666C617368206572726F720D0AE2
:104670001B5B306D000000001B5B323B33316D3C37
:1046800025753E205B455D202573203A20464C4130
:1046900053485F49465F57524954494E475F435418
:1046A000524C5F4552524F520D0A1B5B306D000059
:1046B0001B5B323B33326D3C25753E205B495D20F0
:1046C0002573203A20466C6173682077726974659F
:1046D000206572726F722025640D0A1B5B306D00BD
:1046E00070B505460C46FFF7FFFE224629460248F4
:1046F000FFF742FF002070BD00E00208F3B583B071
:104700000446394D394E68780A270300FFF7E6FC66
:10471000065F04172D43555F002C06D001F0A6FD5F
:10472000014633A233A0FFF787FD7D23DB0030A2D3
:104730003CA13EA00097019600F088FD4FE001F0FB
:1047400095FD0146002C0ED03AA329A23BA0FFF70D
:1047500073FD7D23DB0026A232A144A000970196C1
:1047600000F074FD3BE044A3EFE701F07FFD01465C
:10477000002C0ED02FA31EA241A0FFF75DFD7D23CC
:10478000DB001BA227A14AA00097019600F05EFD66
:1047900025E039A3EFE701F069FD014614A246A028
:1047A000049BFFF749FD7D23DB0011A21DA14EA054
:1047B0000097019600F04AFD11E0052000F0B2F8E4
:1047C0000120E8700020687000F0B2F807E001F006
:1047D0004DFD01466B7806A245A0FFF72DFD6878D8
:1047E000401C687005B0F0BD94010020FD46000833
:1047F000000000001B5B323B33316D3C25753E20D1
:104800005B455D202573203A20436F6E6E656374AF
:10481000206D6F64656D20455252210D0A1B5B307F
:104820006D0000004F4B0D0A000000004154453060
:104830000D0A00005B4641494C5D00001B5B323BAA
:1048400033326D3C25753E205B495D202573203A4F
:104850002044697361626C65204154206563686F10
:10486000203A2025730D0A1B5B306D0041542B4309
:104870004D45453D320D0A005B4F4B5D0000000089
:104880001B5B323B33326D3C25753E205B495D201E
:104890002573203A2053657420434D4545207265A9
:1048A000706F72743A2025730D0A1B5B306D000027
:1048B0004154490D0A0000001B5B323B33326D3C12
:1048C00025753E205B495D202573203A204765749D
:1048D000206D6F64756C6520696E666F3A20257374
:1048E0000D0A1B5B306D000041540D0A00000000F2
:1048F0001B5B323B33336D3C25753E205B575D209F
:104900002573203A2047534D20756E68616E646CA4
:10491000656420737465702025750D0A1B5B306D0E
:104920000000000001494861704700006C01002050
:1049300070B50446174D002C01D10220E87001F03B
:1049400095FC014614A215A0FFF776FC002C04D0BC
:10495000012C06D0042C19D113E01CA0FFF76CFC2D
:1049600014E01CA0FFF768FC00F02AFB0120C00344
:104970000521090788624010184988618010886203
:1049800004E017A0FFF758FC00F01AFB2C70002081
:10499000687070BD94010020000000001B5B323B7A
:1049A00033326D3C25753E205B495D202573203AEE
:1049B000204368616E67652047534D2073746174AE
:1049C0006520746F3A201B5B306D00004F4B0D0A61
:1049D0000000000052455345540D0A0000040050E9
:1049E000504F5745524F4E0D0A000000014900201C
:1049F0008870704794010020F3B5A1B0044601F01F
:104A000035FC0146002C12D077A0794E009079A297
:104A100079A0B368FFF710FC002C0AD001F026FC47
:104A2000014674A284A0FFF707FCFFF7B9FB8DA035
:104A3000EBE7B0688D4C0125002809D0002701283C
:104A400035D002285ED003286CD004287ED0AFE099
:104A500087A12298FBF71CFE00281FD001460D31CC
:104A6000002000F0CFFC706001F000FC014661A264
:104A700082A07368FFF7E0FB706801F02DFA7CA25A
:104A80008AA18F48FBF7CAFC7D231B018DA28FA151
:104A90008B480095019400F0D9FB89E001F0E6FB1A
:104AA000014654A28CA0FFF7C7FBFFF779FB5049E2
:104AB00022980C3100F0E2FC01F0D8FB01464DA237
:104AC00090A0229BFFF7B8FBF268501C0ED098A173
:104AD0007B483368FBF7A2FC7D231B0145A279A12B
:104AE00077480095019400F0B1FB61E03760B76052
:104AF00001F0BCFB01463FA292A0F368FFF79CFBCC
:104B0000FFF74EFB80239CA16D48F268FBF786FC03
:104B10007D231B016BA29DA169480095019400F0C3
:104B200095FB45E01FAA20A9229800F085FC01F022
:104B30009DFB01462FA298A01F9BFFF77DFB202025
:104B4000A14B59690A460240120400E035E088434F
:104B500002439A611F99209801F03EFA30681F992C
:104B6000401830607168884211D398A0FFF760FB4D
:104B70009AA15348F268FBF751FC7D231B011DA24B
:104B800050A14F480095019400F060FB10E0022016
:104B9000B060802378A14A48F268FBF73FFC7D2390
:104BA0001B0148A291A146480095019400F04EFBDC
:104BB000B068401CB06023B0F0BD01F057FB014667
:104BC0000CA28CA0FFF738FB01F0FEF8002808D0FB
:104BD00094480190706802900397202101A8FFF784
:104BE0007FFDFFF7DDFA00005B4641494C5D0000A8
:104BF000A4010020000000001B5B323B33326D3CFF
:104C000025753E205B495D202573203A20446F774F
:104C10006E6C6F6164206269672066696C652073E1
:104C20007465702025752C20726573756C74202551
:104C3000730D0A1B5B306D001B5B323B33316D3CE7
:104C400025753E205B455D202573203A204C697315
:104C5000742066696C65206661696C65640D0A1B69
:104C60005B306D005B4F4B5D00000000F9490008B0
:104C70005546533A6F74612E62696E001B5B323B7E
:104C800033326D3C25753E205B495D202573203A0B
:104C900020496D6167652073697A652025752062FA
:104CA000797465730D0A1B5B306D000041542B5104
:104CB000464F50454E3D222573222C320D0A0000EE
:104CC000210F00204F4B0D0A000000002B51464FD2
:104CD00050454E3A000000001B5B323B33316D3CC7
:104CE00025753E205B455D202573203A2046696C82
:104CF00065206E616D65206572726F720D0A1B5BB7
:104D0000306D00001B5B323B33326D3C25753E201D
:104D10005B495D202573203A2046696C65206861F7
:104D20006E646C652025730D0A1B5B306D000000FE
:104D300041542B51465345454B3D25752C25752C2B
:104D4000300D0A001B5B323B33316D3C25753E2034
:104D50005B455D202573203A2046696C65206861BB
:104D60006E646C65206661696C65642025640D0A5B
:104D70001B5B306D0000000041542B5146524541F1
:104D8000443D25752C25750D0A000000434F4E4EFD
:104D900045435420000000001B5B323B33326D3C26
:104DA00025753E205B495D202573203A20446174BF
:104DB000612073697A652025752062797465730DA9
:104DC0000A1B5B306D00000000040050436C6F73E1
:104DD000696E672066696C650D0A000041542B51AD
:104DE00046434C4F53453D25750D0A00434F4E4EEB
:104DF000454354001B5B323B33326D3C25753E20EE
:104E00005B495D202573203A20416C6C20646174FD
:104E1000612072656365697665640D0A1B5B306DA0
:104E200000000000845378191CB5064802217D2338
:104E3000009101909B0104A205A107A000F006FAD1
:104E40001CBD0000F94900084F4B0D0A000000008E
:104E500051464C535400000041542B51464C53547E
:104E60003D222A220D0A0000F8B501F0FFF92E4C70
:104E7000014623782DA22EA0FFF7DEF90127207826
:104E8000FF0379100022374D8E100300FFF726F93B
:104E90000B07111B2A2A2A2D3C4444471000324894
:104EA000C270052000078762A961AE6201202070F0
:104EB000F8BD2D48C270052000078762A961AE6267
:104EC00002202070F8BDA96201F0D0F9014617A2B6
:104ED00026A0FFF7B1F90520000787612078401C64
:104EE0002070F8BD401C2070F8BD012001F0C4F90D
:104EF00001F0BCF901460DA226A0FFF79DF9AE61B5
:104F00002078401C2070F8BDAE62A96216485A2174
:104F1000017108202070F8BD401C2070F8BD22707F
:104F20000420FFF705FDF8BD9C01002000000000F3
:104F30001B5B323B33326D3C25753E205B495D2067
:104F40002573203A2047534D2068617264207265B2
:104F500073657420737465702025640D0A1B5B30C3
:104F60006D00000000040050940100201B5B323BE8
:104F700033326D3C25753E205B495D202573203A18
:104F80002047736D20706F776572206F6E0D0A1B5E
:104F90005B306D001B5B323B33326D3C25753E2030
:104FA0005B495D202573203A2050756C7365207035
:104FB0006F776572206B65790D0A1B5B306D0000A1
:104FC00010B5012189020648FBF749FC054800217C
:104FD000C1820222027602481638017510BD000017
:104FE000D20A0020BC0E0020F8B501F03FF960495C
:104FF0000A694B69821A9A427ED3086101275D488B
:10500000BA02017D054600261635841800296AD0AB
:1050100072B657480078002802D05548067000271D
:1050200062B6002F44D1534841682846FBF730FB55
:1050300000283DD001274F488068002824D0FBF786
:105040008FFB002820D04A48E18A81614948806866
:10505000FBF786FB4649C8618969884213D20B1A5F
:105060004449434A5B18163313620246896818465E
:10507000FBF722FB002807D000273E4881683C4808
:105080004162856000E00027002F2CD0394806756A
:10509000C660E08A4655E269002A02D0294600200F
:1050A0009047E682012189022846FBF7D8FB1AE0E7
:1050B000002F18D130A12846FBF7EAFA0746002F47
:1050C00011D030A13846FBF7E3FA00280BD039465F
:1050D0002DA0FFF7ADF8E269002A02D02946022090
:1050E00090472448C66001F0C1F8224F3969411A3F
:1050F000F868002815D000E039E0884211D8387DE2
:10510000002801D0401E3875387D00280DD001F0F0
:10511000ADF838613868FBF723FB0146386800F0CA
:10512000EDF8387D00280AD01DE0FE60E269002A13
:1051300002D0002101209047E6827655F1E7E08A0F
:10514000022810D90B480FA12030FBF7A1FA002844
:1051500009D001F08BF801462B460CA20CA0FFF7FA
:105160006BF8E682765501F081F801490861F8BDD7
:105170006C010020BC0A0020434D45204552524F8F
:10518000523A20000D0A00002573000000000000C4
:105190001B5B323B33336D3C25753E205B575D20F6
:1051A0002573203A20415443203A20756E68616E81
:1051B000646C65642025730D0A1B5B306D00000074
:1051C000F8B5064600291DD0114801220270114C85
:1051D000E28AC2600020104D16E0E28A335C571C60
:1051E000E78252199375E38A0122920293420AD30D
:1051F00001F03CF8014609A209A0FFF71DF80020C4
:10520000E082A875F8BD401C8842E6D3F8BD0000D6
:105210006C010020BC0E0020BC0A00200000000031
:105220001B5B323B33316D3C25753E205B455D2079
:105230002573203A2047534D205258206F766572CF
:10524000666C6F770D0A1B5B306D0000FFB581B097
:105250000B9D06461F461D4C002F2FD0002D2DD034
:105260003046FBF77DFA402807D200F0FFFF0146E9
:10527000334617A217A0FEF7DFFF26600298606092
:105280000398A0600A98207528461B4DE861E760E6
:1052900000F0ECFF20610D48012189021630FBF778
:1052A000DEFA0020E882022028763046FBF758FA22
:1052B0000146304600F022F805B0F0BD2068FBF74B
:1052C0004FFA0146304600F019F8F5E7BC0A002015
:1052D000000000001B5B323B33326D3C25753E20E5
:1052E0005B495D202573203A204154433A202573C1
:1052F0001B5B306D00000000BC0E002010B501F0FB
:1053000079F810BD10B50120C00305210907886296
:1053100041100948816189108162012000F0ACFFD1
:10532000FFF764FB0120FFF703FB04495A200871D3
:105330000520FFF7F7FA10BD00040050940100208B
:105340001CB500F07DFF194C207800281FD00128E3
:1053500026D004280AD00E2807D000F087FF014687
:10536000237813A213A0FEF767FF1CBD6078002806
:10537000FBD1012060701B481E217D23009101900C
:10538000DB000BA218A11AA0FFF760FF1CBD1A4991
:105390004868401C48600B28F8D1FFF745FD1CBD4C
:1053A0000020E070FFF760FD1CBD000094010020AC
:1053B000000000001B5B323B33316D3C25753E2005
:1053C0005B455D202573203A20556E68616E646CE4
:1053D000656420636173652025750D0A1B5B306D64
:1053E00000000000FD4600084F4B0D0A00000000C1
:1053F000415456310D0A00009C01002010B5FFF702
:105400009FFF10BD70B504460E4600253046FBF7E1
:10541000A7F9014609E00246303A092A0AD80A22C9
:105420005543303D4519641CA4B2305D002801D0BD
:105430008C42F0D3284670BD70B50D4616460BA1C0
:10544000FBF726F900213160296000280CD00446C2
:10545000083421460020FFF7D5FF306006A1204622
:10546000FBF716F9801C286070BD0000434F4E4EBC
:1054700045435420000000000D0A000010B50C4602
:105480000021C943216006A1FBF702F9002805D0DD
:10549000014609310020FFF7B5FF206010BD000074
:1054A0002B51464F50454E3A20000000A2B0FCF769
:1054B000CFFEFEF7BBFC62B6FEF7B2F8FEF796F839
:1054C000FEF738FAFEF754FAFEF7C4FAFF2001306F
:1054D00005210907886101202A4CA06100252020B0
:1054E000A061142000F0B0FE2020A062142000F083
:1054F000ABFE6D1C042DF2D32020A06200F0B6FE9E
:10550000014621A022A20092019024A322A226A05B
:10551000FEF792FE8022314902A8FAF7A1FE304937
:105520000298304D88420FD072B62F4908682F4A32
:1055300010408A03904206D14868A86068600968F4
:1055400081F308888047FEE7FFF7DCFE284E294FED
:10555000FFF74AFD00F08AFE2968411A7D20C0004D
:1055600081420DD300F082FE28600020FFF746FF45
:105570002021606902460A40120481430A43A26165
:105580003E60E5E700040050302E302E330000006E
:1055900030393A35373A3233000000005365702015
:1055A00031382032303231001B5B323B33326D3CBC
:1055B00025753E205B495D202573203A20427569A0
:1055C0006C642025732025732C2076657273696FB7
:1055D0006E2025730D0A1B5B306D000000E0020891
:1055E0007856341248010020008000080000FE2F89
:1055F000AAAA000000300040F0B5002400230EE00D
:10560000CD186F78CE5C3F023E43AF78ED783F0413
:105610002D062F433E43A5004651641C1B1D93429B
:10562000EED3F0BDF0B5002500230EE0AC000E5D1A
:10563000C6540E5B370AC61877700F593F0CB77007
:105640000C59240EF4706D1C1B1D9342EED3F0BD5B
:10565000F0B597B00446266860681590A06814906D
:10566000E768402203A8FFF7C7FF0398FD49072515
:105670000090019502913B463046149A1599FCF72B
:10568000ABFC16900498F8490C2600900196029104
:105690003846149B159A1699FCF79EFC13900598B2
:1056A000F24A11216B4607C3159B169A1399149859
:1056B000FCF792FC14900698ED4916270291009091
:1056C0000197169B139A14991598FCF785FC159071
:1056D0000798E849029100900195139B149A159937
:1056E0001698FCF779FC16900898E349009001960B
:1056F0000291149B159A16991398FCF76DFC139060
:1057000011200999DD4A009101900292159B169A89
:1057100013991498FCF760FC1490D9490A980291E7
:1057200000900197169B139A14991598FCF754FC56
:1057300015900B98D349029100900195139B149AF0
:1057400015991698FCF748FC16900C98CE490090D5
:1057500001960291149B159A16991398FCF73CFC3C
:10576000139011200D99C94A009101900292159B46
:10577000169A13991498FCF72FFC1490C4490E98AC
:10578000029100900197169B139A14991598FCF7B3
:1057900023FC1590BF490F98029100900195139B2F
:1057A000149A15991698FCF717FC16901098BA4998
:1057B000009001960291149B159A16991398FCF784
:1057C0000BFC139011991120B44A009101900292A0
:1057D000159B169A13991498FCF7FEFB1490B04988
:1057E0001298029100900197169B139A149915989C
:1057F000FCF7F2FB1590AB49049805250291009047
:105800000195139B149A15991698FCF78BFC16902A
:105810000998A5490926009001960291149B159AB2
:1058200016991398FCF77EFC13900E200E999F4A50
:10583000009101900292159B169A13991498FCF707
:1058400071FC14909A4903981427029100900197D3
:10585000169B139A14991598FCF764FC15909549BA
:105860000898029100900195139B149A1599169827
:10587000FCF758FC16900D988F4900900196029104
:10588000149B159A16991398FCF74CFC13900E2054
:1058900012998A4A009101900292159B169A1399C7
:1058A0001498FCF73FFC14900798854902910090EA
:1058B0000197169B139A14991598FCF733FC1590D1
:1058C0000C988049029100900195139B149A1599A8
:1058D0001698FCF727FC169011987B4900900196CA
:1058E0000291149B159A16991398FCF71BFC1390C0
:1058F00006990E20754A009101900292159B169A06
:1059000013991498FCF70EFC14900B9870490291AF
:1059100000900197169B139A14991598FCF702FCB6
:10592000159010986B49029100900195139B149A61
:1059300015991698FCF7F6FB054605986649009000
:10594000019602912946149B159A1398FCF7EAFBDD
:1059500006460E200A99614A0091019002922A4659
:105960003146159B1498FCF7DDFB07465C4A142072
:105970000F990292009101902B46324639461598B4
:10598000FCF7D0FB15900420564A0899019002922A
:10599000009133463A4628461599FDF785FB169047
:1059A0000B9851490B250195029100903B463046DA
:1059B000159A1699FDF778FB13904C4910260E980E
:1059C0000291019600903846159B169A1399FDF79F
:1059D0006BFB14901198464917270291009001978C
:1059E000169B139A14991598FDF75EFB1590414A82
:1059F00004200499029200910190139B149A159926
:105A00001698FDF751FB169007983B4900900195B9
:105A10000291149B159A16991398FDF745FB139064
:105A200036490A98029101960090159B169A13998F
:105A30001498FDF739FB149031490D9802910090AC
:105A40000197169B139A14991598FDF72DFB159045
:105A500010992C4A0420009102920190139B149AF1
:105A6000159951E078A46AD756B7C7E8DB702024AF
:105A7000EECEBDC1AF0F7CF52AC68747134630A8CE
:105A8000019546FDD8988069AFF7448BB15BFFFF65
:105A9000BED75C892211906B937198FD8E4379A6D5
:105AA0002108B44962251EF640B340C0515A5E2613
:105AB000AAC7B6E95D102FD65314440281E6A1D8D7
:105AC000C8FBD3E7E6CDE121D60737C3870DD5F470
:105AD000ED145A4505E9E3A9F8A3EFFCD9026F6775
