:020000040800F2
:10000000681500209902000855450008753700085A
:1000100000000000000000000000000000000000E0
:10002000000000000000000000000000DD470008A4
:10003000000000000000000059450008E1470008EA
:10004000AB020008AB02000801470008AB02000841
:10005000AB020008AB020008AB0200084D1E00080E
:10006000AB020008AB020008A91D0008AB020008A3
:10007000AB020008AB020008AB020008AB020008AC
:10008000AB020008AB020008AB0200080000000051
:10009000AB020008AB020008AB020008AB0200088C
:1000A000AB020008AB020008AB020008C54800081C
:1000B000AB020008A51D0008AB020008AB02000857
:1000C00000F002F800F0BDF80CA030C80838241881
:1000D0002D18A246671EAB4654465D46AC4201D180
:1000E00000F0AFF87E460F3E0FCCB64601263342F5
:1000F00000D0FB1AA246AB4633431847D87600001F
:1001000008770000103A02D378C878C1FAD85207AD
:1001100001D330C830C101D504680C6070470000BD
:100120000023002400250026103A01D378C1FBD813
:10013000520700D330C100D50B60704710B56E294F
:1001400002D100F0D6FC10BD702902D100F02DFEC6
:1001500010BD662902D107F033FA10BD652902D11E
:1001600007F02EFA10BD672902D107F029FA10BD59
:10017000612902D107F02CFA10BD03681B0A01D3D4
:1001800080231943692902D100F088F910BD642940
:1001900002D100F083F910BD752902D100F07EF97B
:1001A00010BD6F2902D100F0ABFD10BD782902D13E
:1001B00000F0E8FD10BDE92902D100F047FD10BDB7
:1001C000E42902D100F042FD10BDF52902D100F072
:1001D0003DFD10BDEF2902D100F09EFD10BDF829B4
:1001E00002D100F0DDFD10BD0368DB0901D38023DF
:1001F0001943632902D100F0BFFC10BD732902D15D
:1002000000F0C2FC10BDE32902D101F0B4F910BD29
:10021000F32902D101F0B7F910BD002010BD1FB5C0
:1002200000F0D2FB04000020002107F09DF9401CE3
:1002300060600020002107F0ADF9E0601FBD10B53F
:1002400010BD01F009FA1146FFF7E9FF06F0B8F812
:1002500001F092FD03B4FFF7F2FF03BC01F094FD3F
:1002600070B505460C46164602E00FCC0FC5103E91
:10027000102EFAD2082E02D303CC03C5083E042E5A
:1002800007D301CC01C5361F03E021782970641C17
:100290006D1C761EF9D270BD07488047074800479D
:1002A000FEE7FEE7FEE7FEE7FEE7FEE70448054956
:1002B000054A064B70470000B5480008C100000819
:1002C000680E0020681500206810002068100020CB
:1002D00010B500F079FB001D10BD00BF8D7200004D
:1002E000FEB5054610460C46184373D0AE468C4604
:1002F0000020AD1A01469C4167D3664600270124C1
:100300003D46B61A9D4102D313463A46212465461E
:1003100076462F04360C3E432D0CB61A9D4104D36D
:10032000150C1B042B4312041034654676462F0629
:10033000360A3E432D0AB61A9D4104D3150E1B0200
:100340002B4312020834654676462F0736093E4392
:100350002D09B61A9D4104D3150F1B012B43120121
:10036000241D65467646AF07B6083E43AD08B61A6B
:100370009D4104D3950F9B002B439200A41C65461E
:100380007646EF0776083E436D08B61A9D411AD3AC
:1003900092185B41641C16E0001876466546494198
:1003A000B71A9D410191009009D36046B11A984156
:1003B0008E468446009801990025401C6941DD075E
:1003C00052082A435B08641EE6D57246634603B0B2
:1003D000F0BDFFE700200146C046C0462A4623463E
:1003E000F5E700007CB51D4616460C00009001D0D4
:1003F0000019401E084B7B442A466946019030464E
:1004000000F08FFB002C054603D06946002000F069
:100410009BFB28467CBD0000590700000FB41CB5AB
:10042000084B06AA7B4469460090059800F079FBCA
:1004300004460020694600F087FB20461CBC08BC2F
:1004400004B018472107000070B50C460546012A84
:1004500005D02878800600D5EA69002302E0012350
:1004600005E05B1C934202D2E05C0028F9D1A86948
:10047000E618C01AA861286AC0182862284600F049
:10048000A7FA04E06A682078A968641C9047B4421F
:10049000F8D3284600F0B2FA70BD0000F7B5002589
:1004A00075291068009914A611D000F0B8FA002838
:1004B00002DA404211A608E0009909688A0701D5CE
:1004C0000FA602E0490704D50EA6012501E000F0C1
:1004D000AFFA009F0024243704E000F073FC3031B1
:1004E0003955641C0028F8D12B4632462146009825
:1004F00000F0A7FAFEBD0000000000002D00000083
:100500002B00000020000000F3B50446002081B05D
:1005100020622046E1688847002872D0252802D052
:100520006268A168ABE0594F00267F442046E1682D
:1005300088472028054608DB312D06D27819203857
:100540000078002801D00643F0E7B00701D5042069
:1005500086430020E0610746A0612A2D0AD0284684
:1005600004F024FC002827D0B8000019303D00908A
:10057000856119E00298BA00121902C891610290CF
:100580002046E1688847012F054617D1E069002819
:100590001FDA202086431CE000980A218069484326
:1005A00000994019303888612046E168884705463F
:1005B00004F0FCFB0028EFD1012F0AD02E2D08D12A
:1005C0002046E16888470546202006437F1C022F0D
:1005D000C3DBA069002803DA4042A0610120064382
:1005E000F00701D0102086436C2D0BD0682D09D068
:1005F0004C2D3CD06A2D38D0742D38D07A2D36D081
:1006000016E040E0E1682F4620468847B84205469C
:1006100009D16C2F29D001208002E16806432046D1
:100620008847054604E06C2F1DD0FF2001300643AB
:10063000002D28D028464138192803D80120C002AF
:1006400006432035204626602946029A1646FFF7C3
:1006500075FD002810D001280BD0F61DF008C00051
:100660000830029055E74020E1E78020D5E70020E0
:10067000D3E7361D02964CE762682846A16890478A
:10068000206A401C44E7206AFEBD0000577100004C
:1006900030B505460B462A461C781078521C5B1C68
:1006A000002801D0A042F7D0002C03D0002802D0AF
:1006B0006D1CEFE7284630BD034610B50B439B0782
:1006C0000FD1042A0DD308C810C9121FA342F8D0B5
:1006D00018BA21BA884201D9012010BD0020C043B8
:1006E00010BD002A03D0D30703D0521C07E000201E
:1006F00010BD03780C78401C491C1B1B07D10378E4
:100700000C78401C491C1B1B01D1921EF1D11846CC
:1007100010BD0000034670B502460B439B070FD186
:100720000E4CE60100E008C208C91D1B9D4335427E
:10073000F9D0D9B21170521C00290DD01B0AF8E76C
:100740000B78491C1370521C002B05D00B78491CE8
:100750001370521C002BF3D170BD00000101010188
:1007600030B5441C03E00178401C00290DD08107FE
:10077000F9D10B4BDD0104C8D11A91432940FAD0BD
:10078000001B0A0603D0C01E30BD001B30BD0A048A
:1007900001D0801E30BD0902FCD0401E30BD0000DB
:1007A00001010101F8B5042A2CD3830712D00B787C
:1007B000491C0370401C521E83070BD00B78491C48
:1007C0000370401C521E830704D00B78491C037031
:1007D000401C521E8B079B0F05D0C91ADF00202337
:1007E000DE1B08C90AE0FFF73BFDF8BD1D4608C93E
:1007F000FD401C46B4402C4310C0121F042AF5D201
:10080000F308C91A521EF0D40B78491C0370401C1F
:10081000521EEAD40B78491C0370401C012AE4D410
:1008200009780170F8BD01E004C0091F0429FBD25A
:100830008B0701D50280801CC90700D00270704769
:1008400000290BD0C30702D00270401C491E0229A8
:1008500004D3830702D50280801C891EE3E70022AF
:10086000EEE70022DFE7002203098B422CD3030AC4
:100870008B4211D300239C464EE003460B433CD4ED
:10088000002243088B4231D303098B421CD3030A55
:100890008B4201D394463FE0C3098B4201D3CB0185
:1008A000C01A524183098B4201D38B01C01A5241B5
:1008B00043098B4201D34B01C01A524103098B42B9
:1008C00001D30B01C01A5241C3088B4201D3CB00A4
:1008D000C01A524183088B4201D38B00C01A524187
:1008E00043088B4201D34B00C01A5241411A00D237
:1008F00001465241104670475DE0CA0F00D04942A0
:10090000031000D34042534000229C4603098B420F
:100910002DD3030A8B4212D3FC22890112BA030A97
:100920008B420CD3890192118B4208D38901921119
:100930008B4204D389013AD0921100E08909C3099E
:100940008B4201D3CB01C01A524183098B4201D3A0
:100950008B01C01A524143098B4201D34B01C01A8B
:10096000524103098B4201D30B01C01A5241C30803
:100970008B4201D3CB00C01A524183088B4201D372
:100980008B00C01A5241D9D243088B4201D34B008D
:10099000C01A5241411A00D20146634652415B10CF
:1009A000104601D34042002B00D5494270476346B0
:1009B0005B1000D3404201B50020C046C04602BDD6
:1009C000704770477047000000487047280E0020AD
:1009D00070B5044685690068C10601D5302600E07F
:1009E0002026C00707D070BD62683046A1689047D6
:1009F000206A401C20626D1EF6D570BD70B504469D
:100A000085690078C00707D170BD6268A1682020A1
:100A10009047206A401C20626D1EF6D570BD0968A3
:100A20004A0501D540B27047C905FCD500B27047F0
:100A300009684A0501D5C0B27047C905FCD580B226
:100A40007047FFB504460D4681B024300090216800
:100A5000880604D51022E0699143216000E001205E
:100A6000A84201DD471B00E000270498A1697A191C
:100A70001018081AA0612078C00602D42046FFF79B
:100A8000A7FF002608E003986268A168805D904790
:100A9000206A401C761C206204988642F3DB207892
:100AA000C0060AD52046FFF793FF06E06268A168FA
:100AB00030209047206A401C206238467F1E002864
:100AC000F4DC07E000986268A168405D9047206A06
:100AD000401C206228466D1E0028F3DC2046FFF7EC
:100AE0008DFF2078000602D5022005B0F0BD012060
:100AF000FBE711680268006A530501D5087009E038
:100B0000D30501D5088005E0130602D5C21705C13B
:100B100000E008600120704701694A1C0261087802
:100B2000704700B58FB002910021059105490193EE
:100B300079440391114604906846FFF7E5FC0FB035
:100B400000BD0000E5FFFFFF0A681070521C0A603C
:100B500070470CC908399A4202D2531C0B601070BE
:100B6000704710B54369002B02D0C046C04601E073
:100B7000FFF76AFC012010BD1278014624310A708B
:100B800000224A700122ECE711680022D243E8E714
:100B9000F7B50446154686B02B487844002703C8AD
:100BA0003E460090019111E007986A467100415A53
:100BB00002A800F0ECFC411C07D02178890603D57F
:100BC000E269391891420ED83F18761C20788006C9
:100BD00002D5E069B84206DDAE42E5DB0798710058
:100BE000405A0028E0D1A069C01BA0612046FFF751
:100BF000EFFE154878445A3803C800900020019150
:100C000016E041006A460798415A02A800F0BFFC6E
:100C10000590401C0AD0002505E0626802A8A16882
:100C2000405D90476D1C05988542F6D30498401CA2
:100C3000B0420490E5DB206AC01920622046FFF72D
:100C4000DDFE09B0F0BD0000FA6A0000F7B5D21D64
:100C50000025D20815A6D200F52905CA11D0002A10
:100C600005DA00214042914111A60A4608E00099A8
:100C700009688B0701D50FA602E0490701D50EA62A
:100C800001251146009F0024243704E000F0B2F84B
:100C900030323A55641C02460A43F7D12B4632469D
:100CA00021460098FFF7CDFEFEBD000000000000C9
:100CB0002D0000002B0000002000000070B504464D
:100CC0000021243408E05507D2086D0F30356554F3
:100CD0005D072A43DB08491C15461D43F3D1046810
:100CE000002310A2250708D5A40601D4002904D0AA
:100CF000C46901230CA2641EC461FFF7A2FE70BD8B
:100D000010B5044621461068FFF792FE0023024604
:100D10002046FFF7D3FF10BDD21DD108C9000CC972
:100D2000CCE700000000000030000000F8B50F46DE
:100D30000188090502D5224C7C4402E0204C7C4409
:100D40000E3405460021243508E016071209360F37
:100D5000A65D6E541E0732431B09491C16461E43EE
:100D6000F3D1224604780023240705D5702F06D03E
:100D7000002901D002231132FFF763FEF8BD0123E1
:100D80001032F9E770B504460D4621461068FFF7AA
:100D90004FFE0023024629462046FFF7C7FF70BDDD
:100DA000D21DD308DB000CCBC0E730B4036820248D
:100DB0001268234303600823C36130BC0023B5E7F6
:100DC0006469000001468008081A02091018020A26
:100DD0001018020C1018C008820012185200891A4C
:100DE00001E0401C0A390A29FBD2704700487047CD
:100DF000080E00200B4670B502468907800808439C
:100E000019469D08141AA941250908070543080930
:100E10002C194841250A01060D43010A2C194141AC
:100E2000200C0D0428430D0C00194D4100214019E0
:100E30004D41C00869070843E908840F8D00254328
:100E4000840024184D4124196D41121BAB4107E069
:100E50000925ED432C11521963410024401C6141C6
:100E60001C460A250026551BB441F1D270BD000076
:100E70007047FFB50C461E468FB003CA0890099113
:100E80004F007D0D00D16D1E002108460020C04698
:100E90000321099A89050840002A03DA8200801894
:100EA00040080840800D01280A9002DD0020C04360
:100EB0000A90089807430DD0F048F1492818484394
:100EC0000714189800281DD07542291E1DDD0A98A8
:100ED00042421BE01898012802D00020302104E093
:100EE0000020F24305E02154401CB042FBDB3046B9
:100EF0000022189B002121540F998B600A604860E2
:100F000013B0F0BDBD1B6D1CDFE70A9A002900DAA3
:100F100069420BA800F004FC0BAB07CB03AB07C383
:100F20000899099800F068FC6B4607C30146D5484C
:100F30000918002D00910BDDD24903980A9A494205
:100F40004018002303A90390684600F0C5FE08E09E
:100F500003990A9A0023081803A90390684600F031
:100F600065FE6B4607C30004000C03D00020C0439D
:100F7000410800E01046189A002A03D0002200928F
:100F800015461EE0751E05D4FFF734FF303262555A
:100F90006D1EF9D501220843079602D000227F1C5E
:100FA00004E02078302801D100227F1E002A069715
:100FB00087D01EE0112D07DAFFF71CFF3032625593
:100FC0006D1C02460A43F5D1084303D0009800285F
:100FD00019D00EE00021681E05E0235C625C6354BA
:100FE0002254401E491C8142F7DBA81B401E079576
:100FF0000690079A18990020A0540F98079B069A0C
:1010000081600CC07CE711260020189059E7D21DA2
:10101000F0B50D460446D10893B0C90003C90C9041
:101020000D9103F0B7FD02460D98C00F01D02D20A1
:1010300007E02068810701D52B2002E04007C00FA0
:101040004001032A0F9001D0072A05DB03462946F9
:10105000204600F021FB0EE12078800601D5E769EB
:1010600000E006272846652D04D0662814D0672D99
:1010700069D12DE00020112F009001DB112300E049
:101080007B1C0CAA03A910A8FFF7F3FE11990026F8
:1010900010987D1C0E9142E001203B460CAAC0072F
:1010A0000B900120009003A910A8FFF7E2FE119D0C
:1010B00012981099002600280E9501D1781C0D1861
:1010C000781B02D446427D1C761EE81B00903AE055
:1010D000012F00DA01270020112F009001DD1123DC
:1010E00000E03B460CAA03A910A8FFF7C2FE119925
:1010F0003D46109800260E91217809070BD40E99D1
:10110000A94200DA0D4603A9012D04DD4A19203A4F
:10111000D27F302A06D0B84201DA011D04DA01215B
:1011200000910FE06D1EEFE7002802DC86192D1AF2
:1011300003E0411CA94200DD0D46801B401C0090CD
:101140000120C0070B902078000705D40098A84222
:1011500002DB0020C043009069460020C8720B9853
:10116000012102AF0337C907884225D00220109021
:101170002B2011900B9800280BDA40420B902D2069
:10118000119006E00B98FFF71DFE30317F1E0B908B
:1011900039701099481E00291090F3DC0B98002834
:1011A000F0D111987F1E38702088000501D54520A8
:1011B00000E065207F1E387001A8C01BC01D0B9089
:1011C0000F98002800D0012041190098C017091875
:1011D0000B980818A169081A401EA0612078C00663
:1011E00002D42046FFF7F4FB0F98002805D0626870
:1011F000A1689047206A401C20622078C00625D54F
:101200002046FFF7E5FB21E0002E07DB0E98B042F9
:1012100004DD03A86268805DA16802E06268A168DD
:1012200030209047206A761C401C20620098401EA7
:10123000002800900AD1FFF7C7FBC0686268016808
:10124000405CA1689047206A401C206228466D1EC1
:101250000028D9DC07E062683878A1687F1C9047D5
:10126000206A401C20620B99481E00290B90F2DC7A
:101270002046FFF7C3FB032042E6000001FCFFFF0E
:10128000104D0000E1DFFFFFD21DF0B504460D4612
:10129000D0088DB0C000466807683146384603F074
:1012A00079FC0246F00F01D02D2307E0206881076A
:1012B00001D52B2302E04007C00F43016846002BF5
:1012C000037001D0012000E00020032A0A9001D021
:1012D000072A04DB2946204600F0DEF92DE12078BC
:1012E000800601D40D2500E0E5697000400D0D2D4C
:1012F00001904BDA300D00210B9008460020C046CB
:10130000032189050840002E05DA82008018C20FEB
:101310001018401008408015012801DD0020C0434E
:10132000A9000023182906D39C460A460123183A2F
:101330001B07D34003E001221205CA4094460C313A
:10134000202902D33A46203900E032468A4000285C
:1013500002DD002A06D119E0002817D10121C907B2
:101360008A4213D3194663467F185E41002806D18E
:101370000120C007824202D1084687439E430B9852
:10138000310D814202D00198401C01902088000557
:1013900002D57149794402E06F49794419396B46A5
:1013A0000A9830221A540A980A7C401C1A54401C8D
:1013B0000A900198002801DC302000E031201872EA
:1013C000019A0120002A02D0644BD21804E0720076
:1013D0003A4302D0614A521C0192002D02DC22786D
:1013E000120703D56A462E2050720220002286463C
:1013F00094460CE032033601120F6D1E8B5C02AA7C
:1014000013546246521C401C9446052A01DA002DF2
:10141000F0DC002202AE08E03B0F3F01CB5C521C27
:101420006D1E3354401C082A01DA002DF4DC2368B9
:101430009A0601D511E0401E704504DD3218203AAD
:10144000D27F302AF7D0002807DD3218203AD27F29
:101450002E2A02D11A0700D4401E002D03DD3E22A1
:101460003254401C6D1E497C31540199401C0029A6
:1014700006DA2D21471C315401984042019003E0C7
:101480002B21471C315401987D21C900884206DB7D
:10149000FFF7F3F93030F0557F1C019101E064282B
:1014A00008DB01986421FFF7E8F93030F0557F1C24
:1014B000019101E00A2806DB01980A21FFF7DDF916
:1014C0003030F0557F1C01980A21FFF7D6F93031F2
:1014D000F1550A98A1697F1C7A191018081AA061A1
:1014E0002078C00602D42046FFF772FA216A6E46C1
:1014F0000A980818206204E062683078A168761CB7
:1015000090470A98401E0A90401CF5D12078C006EA
:1015100002D52046FFF75CFA02AE09E03078761C6F
:101520003E280DD06268A1689047206A401C206266
:101530007F1EF3D22046FFF761FA0DB00320F0BD05
:10154000206A4019206203E06268A1683020904759
:101550006D1EEDD3F8E700004363000001FCFFFFC0
:1015600010B54369002B02D0C046C04601E0FFF72A
:101570000FFB012010BD1288014624318284002215
:10158000C2840122ECE711680022D243E8E770B57B
:1015900016460C460546FEF79BFE0368FF20023008
:1015A000C05C012807D0FF2C0ED8185D00280BD096
:1015B00001202C7070BDFF33324621460833186875
:1015C000C3182846984770BD0020C04370BD000076
:1015D000024670B50A4392072AD11E4DEE0104C897
:1015E00008C9541B9443344017D0D0B2D9B2401A22
:1015F0002106014310D190B299B2401A210401434F
:101600000AD110021902000A090A401A21020143F4
:1016100002D1100E190E401A70BD9A42DFD010BAD6
:1016200019BA884201D9012070BD0020C04370BDA5
:1016300002780B78401C491C002A09D09A4207D135
:1016400002780B78401C491C002A01D09A42EFD046
:10165000D01A70BD010101017546FFF7C7FBAE4608
:10166000050069465346C008C000854618B020B53D
:10167000FEF71CFE60BC00274908B6460026C0C520
:10168000C0C5C0C5C0C5C0C5C0C5C0C5C0C5403D3A
:1016900049008D4670470000F8B51F4604460123F7
:1016A0000068DB02032601461840072A05DB0028F4
:1016B00001D017A506E017A504E0002801D016A563
:1016C00000E016A5102081432160A069C01E002FF4
:1016D000A06101D0401EA0612046FFF779F9002FDC
:1016E00009D038466268A1689047206A401C206291
:1016F000C01C206206E0206AFAE762682878A168C8
:101700006D1C9047761EF8D22046FFF777F9F8BD9A
:101710004E414E006E616E00494E4600696E660095
:10172000F7B516468AB0334878446C4603467C3396
:10173000C06F5A689B680DC42E487844763003AC5D
:101740000DC80DC43720C001081837211B30FFF722
:1017500094F805460C46803D1B3C02D564420120AE
:1017600000E000200027099010E0E0070CD00C20DA
:1017700020497843794432464C3941186846012360
:1017800000F054FA6B4607C364107F1C002CECD1A8
:10179000184F7F442E3F16E0E80712D02001C019F1
:1017A0000EC80691089307920068F04201D198197B
:1017B00008903246012306A903A800F037FA03ABCC
:1017C00007C36D10641C002DE6D10998002806D0CF
:1017D00032466946012303A800F07EFA05E00123A2
:1017E0003246694603A800F021FA0A9B07C30DB0F0
:1017F000F0BD0000C45F0000034640000A4610B57B
:10180000400D0BD00121C9070F24A40200191C03AD
:1018100064082143540D2143D20207E00021012036
:10182000F2E7D40F490021435200401E0029F8DAA4
:10183000DB0FDB07184310BDFFB50D46144685B01E
:101840004868516803F080F900910190A868A16888
:1018500003F07AF902910390A868616803F074F9C3
:10186000029A12188242029201D2012000E0002066
:10187000019A0B18D2180028019202D08A4202D98C
:1018800003E08A4201D2012000E0002000990818FC
:1018900000906868A16803F057F9029A1218824212
:1018A000029201D2012000E00020019A0B18D21808
:1018B0000028019202D08A4202D903E08A4201D272
:1018C000012000E000200099081800902868216895
:1018D00040004900400849084018FA49471814E0F8
:1018E00001994000C90F08430090019802994000F7
:1018F000C90F08430190029803994000C90F08439B
:101900000290039840007F1E039000980028E7DAB9
:101910000898002801D0EC4E00E00026B74201DA1A
:10192000012000E00020002804902AD0F71BF806D0
:10193000C00E15D0029B2021091A039A8B401A432E
:101940000392029A019BC2408B401A430292019A71
:10195000009BC2408B4000991A430192C140009104
:101960007B110DD06F460320C11A03D500218200E0
:10197000B95003E08A008100BA587A50401EF3D56E
:10198000374603980299002800D0012001430898A7
:101990000291002808460CD0002800D001200199AF
:1019A000019A490508430121D20AC902D2020192D3
:1019B00000E001210E9B0122D207012B02D0002B57
:1019C00003D013E0002807D120E0904204D89042D1
:1019D0000CD1019B0B4209D0019B5918019105D1F3
:1019E0000099491C009101D17F1C009200280DD064
:1019F000102108460020C0460498002806D00F9801
:101A0000002803D0082108460020C0462868216825
:101A1000019B009A4840C10F0598C90739430EC081
:101A200009B0F0BDFFB587B0099A089808995368C6
:101A30009268406889689646002203931746944648
:101A4000089A12685300099A5B08126852005208FB
:101A50009A1A9E4BD4180A9A002A01D0352200E027
:101A6000402206920022012315460492DB070593CB
:101A700024E0002D05D175460346039E4D1BB3415E
:101A800009D375466646039B491B049D9841059BF7
:101A90007519AC465F4163463B4308D0059B049EE5
:101AA000DD0776082E435B080496059301E0521E7D
:101AB000641EC50FED0749184041521C069B9A420F
:101AC000D7DB002D04D17546039A6B1A824101D2EF
:101AD00003200CE0039A0B466B404240134303D0B3
:101AE000014303D0012002E0022000E00020614613
:101AF00001910021009702910A99002905D06146C1
:101B000040020143704B019102E0800700230290E4
:101B10009C4201DA012000E0002007003AD01A1BA5
:101B2000D006C00E15D0029D2021019C091AC54087
:101B30008C402543029C8C4000D001242543019C0D
:101B40000295009DC4408D4000992C430194C140F2
:101B5000009154111DD06D460221002202290CD1A2
:101B60000320001B07E0002804DB8600AE59002E8E
:101B700000D00122401C0328F5DB081B02D5880099
:101B80002A5004E08000285810438A00A850491EBB
:101B9000E3D51C460A98002802980CD0002800D0F3
:101BA00001200199019A490508430121D20AC9027D
:101BB000D202019200E00121109B0122D207012BE9
:101BC00002D0002B03D013E0002807D11FE0904281
:101BD00004D890420CD1019B0B4209D0019B5918AB
:101BE000019105D10099491C009101D1641C00921A
:101BF00000280CD0102108460020C046002F06D037
:101C00001198002803D0082108460020C0460898F3
:101C10000999019A009B006809684840C10F07981C
:101C2000C907214382600AC00BB0F0BD00B585B082
:101C3000019300920A460146002302A8FFF7FCFD2B
:101C400002A807C805B000BDFFB50A461F4685B00B
:101C50000799019301230091014602A8FFF7ECFDCB
:101C600002990398049ECA0F4900D20700920F22DE
:101C7000490892028C1A0021002800DB0C4645001E
:101C800013486D08844214D3079A002A04DA441ECC
:101C90000026104DF64302E004460D460E46102184
:101CA00008460020C046002F03D00421084600202B
:101CB000C0462005E90A0843009908436905F20A6D
:101CC0001143ADE602C0FFFF013C0000FF3F0000F2
:101CD000FF070000FFFFFF7F00B585B00193009272
:101CE0000A460146002302A8FFF79CFE02A807C887
:101CF000A8E7FFB50A461F4685B00799019301235F
:101D00000091014602A8FFF78DFE02990398049EF8
:101D1000CA0F4900D20700920F22490892028C1A7A
:101D20000021002800DB0C46450011486D08844264
:101D300014D3079A002A04DA441E00260D4DF643F8
:101D400002E004460D460E46102108460020C0461B
:101D5000002F03D0042108460020C0462005E90AD0
:101D60000843009908436905F20A114358E6000048
:101D7000FF070000FFFFFF7F10B50446C046C046C6
:101D80002046FEF767FA10BD01491820ABBEFEE7FA
:101D9000260002007047000003B40148019001BD15
:101DA000890100207047000010B500BF2648006878
:101DB00020210840400900280AD000BF20202249E5
:101DC000486000BF012005F09FFB05F093FB0AE08F
:101DD00000BF1D48006880210840C009002802D0CB
:101DE000002005F091FB00BF17480068012189021F
:101DF0000840800A002807D000BF08461249486002
:101E000000BF012005F034FB00BF0F48006801212E
:101E100049020840400A002808D000BF48100A497B
:101E2000486000BF012005F023FB0BE000BF06481F
:101E300000680121C9020840C00A002802D0002021
:101E400005F016FB10BD00000000024010B5802018
:101E500001F08AFD002802D0802001F07FFDFF20E4
:101E6000013001F081FD002803D0FF20013001F096
:101E700075FD0120400201F077FD002803D001200C
:101E8000400201F06BFD0120800301F06DFD002890
:101E900003D00120800301F061FD102001F064FDFA
:101EA000002802D0102001F059FD10BD05F0BCF94A
:101EB00004460FA221460FA002F0BCFF72B600BF7D
:101EC00000BF00BF00BF00BFBFF34F8F00BF00BF08
:101ED00000BF12481249C86000BF00BF00BFBFF377
:101EE0004F8F00BF00BF00BF00BF00BFFDE7000075
:101EF000000000001B5B323B33316D3C25753E20FA
:101F00005B455D202573203A204572726F72206810
:101F1000616E646C650D0A1B5B306D000400FA0590
:101F200000ED00E0F0B5069C0D4615401E468E43C0
:101F30003543059EAE19079D751928180546A5401D
:101F40002026361B0746F7403D4328464018F0BD83
:101F500000210A4A51610A4949680122520211438B
:101F6000074A51601146496808221143044A5160EA
:101F70000021C209D201116070470000E80300206F
:101F800000200240002039498969FF2201321140B6
:101F9000914208D13649496902221143344A5161BC
:101FA000FF21013108433149896901225202114060
:101FB000914208D12E494969012211432C4A5161AD
:101FC00001214902084329498969012292021140ED
:101FD000914208D12649496908221143244A516196
:101FE000012189020843214989690122D202114055
:101FF000914208D11E494969042211431C4A51618A
:102000000121C9020843194989690122520311407B
:10201000914208D11649496910221143144A51616D
:1020200001214903084311498969012252041140E1
:10203000914207D10E494969202211430C4A51614E
:102040002021084309498969012212041140914263
:1020500008D10749496940221143054A51610121CC
:1020600009040843014988617047000000200240CC
:10207000E803002070B5044600F002F905460BE0C5
:10208000601C002808D0002C04D000F0F9F8401B98
:10209000A04201D9032070BD1F488069C007C00F4E
:1020A0000028EDD11C48806902210840022801D196
:1020B0001949886118488069FF2101310840884228
:1020C00023D0154880694900084088421DD0124835
:1020D000806949000840884217D00F48806949004C
:1020E0000840884211D00C48806989000840884225
:1020F0000BD00948806909010840884205D006488C
:10210000806949100840884203D1FFF73BFF012056
:10211000C1E70020BFE7000000200240F0B5069CA8
:102120000D461D4016469E433543059EAE19079D3C
:10213000751928180546A5402026361B0746F74086
:102140003D4328464018F0BDF8B504460E46012729
:10215000002500BF1C48007C012801D10220F8BDE9
:1021600001201949087400BF1848FFF783FF07468C
:10217000002F22D1401E3060656817E02846FFF727
:10218000E7FE1248FFF776FF07461148406808212E
:1021900088430F49486008464068491588430C4900
:1021A0004860002F01D0356006E08035A068C0018E
:1021B00061684018A842E1D800BF00BF0020024972
:1021C000087400BF3846CAE7E803002050C3000087
:1021D0000020024006484068022108430449486044
:1021E00008464068012108430149486000207047C3
:1021F000002002401D484068C007C00F002816D0CC
:1022000000BFEFF31080014600BF72B61848174AAE
:10221000D0601848D06000BF81F3108800BF10461E
:102220004068C007C00F002801D0012070470F4848
:10223000406802221040022815D100BFEFF3108041
:10224000014672B60C48094A10610C4810610846F4
:1022500080F3108800BF1046406802221040022818
:1022600001D10120E2E70020E0E700000020024069
:10227000EFCDAB8905040302BFAE9D8C1615141378
:1022800001480068704700001402002010B50024C7
:10229000084800684021084306490860002000F013
:1022A0000BF8002801D0012401E000F02FF82046AF
:1022B00010BD00000020024070B5044610480178AF
:1022C0007D20C000FEF7CFFA064631460D48006873
:1022D000FEF7C9FA054601F01DFA002801D00120D9
:1022E00070BD042C07D200222146501E00F02CF8AD
:1022F0000548046001E00120F2E70020F0E700005B
:102300001C02002020020020180200200648406B1A
:1023100001210843044948630846806B09040843C7
:1023200001498863704700000010024001460029FF
:1023300005DBCB06DB0E01229A40024B1A6000BF80
:102340007047000000E100E070B504460D461646F7
:102350002946204602F0D4FC70BD00000348006806
:10236000FF210131084301490860704700700040B7
:10237000F8B504460027202120680840202804D012
:1023800089012068084088427ED1202120680840C9
:10239000202800D100BF0121C902206808408842DE
:1023A00000D100BF9948806B01210907084000282F
:1023B00005D19648806B0843944988630127944867
:1023C0000068FF2101310840002816D190480068BC
:1023D00008438F490860FFF753FF064606E0FFF702
:1023E0004FFF801B642801D90320F8BD884800688E
:1023F000FF21013108400028F1D0844805680321FD
:1024000009050D4060680840A84203D1A068084053
:10241000A8420ED00321090460680840884208D110
:102420007A480068012149040840884201D101200E
:10243000DBE776484030006903210904084005467F
:10244000002D4AD060680840A84204D020212068AE
:10245000084020280BD003210904A0680840A842A6
:102460003BD00121C90220680840884235D1674825
:102470004030006903210904884305466348403021
:1024800000690121C90400E04FE008435F49403181
:102490000861084600690121C90488435B4940314D
:1024A000086108460561801528408915884214D1C5
:1024B000FFF7E6FE064607E0FFF7E2FE801B554900
:1024C000884201D9032090E750484030006901213B
:1024D00049020840400A0028EED000BF00BF032197
:1024E00009046068084088420AD148480068090128
:1024F000884303221205616811400843434908607C
:1025000000BF424840300069032212046168114054
:1025100008433E494031086100BF012F05D13B48C7
:10252000806B89058843394988632078C007C00FCC
:10253000002809D035484030C06880088000E16834
:10254000084332494031C86002212068084002280F
:1025500009D12E484030C0680C21884321690843C6
:102560002A494031C86004212068084004280AD163
:1025700026484030C06803218902884361690843C6
:1025800022494031C86008212068084008280AD143
:102590001E484030C068032109038843A1690843ED
:1025A0001A494031C860FF21013120680840884243
:1025B0000AD116484030C068032109048843E16904
:1025C000084312494031C860402120680840402833
:1025D00009D10E484030C06809058843616A084344
:1025E0000A494031C86080212068084080280AD10B
:1025F00006484030C068032189048843216A0843A3
:1026000002494031C8600020EFE60000001002409F
:102610000070004088130000F8B504460E46002CF8
:1026200001D10120F8BD83480068C007C00FB04247
:1026300018D2804800684008400030437D49086057
:10264000FFF71EFE054607E0FFF71AFE401B7A491A
:10265000884201D90320E5E776480068C007C00F2B
:10266000B042F1D1022120680840022807D1734806
:10267000C068F0218843A16808437049C860207889
:10268000C007C00F00284CD06068022809D16B48F1
:102690000068012149040840400C002824D1012091
:1026A000C0E76068032809D1644800680121490631
:1026B0000840400E002817D10120B3E760680128C8
:1026C00008D15E48006804210840800800280BD12A
:1026D0000120A7E759480068012149020840400A43
:1026E000002801D101209DE75448C068800880007F
:1026F000616808435149C860FFF7C2FD054660683C
:1027000002280FD107E0FFF7BBFD401B4A49884272
:1027100001D9032086E74948C0680C2108400828F1
:10272000F1D134E0606803280FD107E0FFF7A8FD7E
:10273000401B4149884201D9032073E73F48C068E4
:102740000C2108400C28F1D121E0606801280FD14C
:1027500007E0FFF795FD401B3749884201D9032068
:1027600060E73648C0680C2108400428F1D10EE02B
:1027700007E0FFF785FD401B2F49884201D9032060
:1027800050E72E48C0680C2108400028F1D12948A4
:102790000068C007C00FB04218D92648006840083A
:1027A0004000304323490860FFF76AFD054607E013
:1027B000FFF766FD401B2049884201D9032031E71D
:1027C0001C480068C007C00FB042F1D10421206846
:1027D0000840042808D11948C06807210902884325
:1027E000E16808431549C8600821206808400828A6
:1027F00009D11248C0680721C90288432169C9006C
:1028000008430E49C86000F021F80C49C968F0225D
:10281000114009090A4A515CC8400A4908600A483F
:102820000068FFF749FD0746002F01D03846F9E65A
:102830000020F7E60020024088130000001002404C
:10284000647600082002002018020020F0B585B050
:102850003548C06803900C2103980840002852D0E6
:10286000042804D008280CD00C284BD10BE02E48AB
:10287000006810210840002801D02C4D00E02C4DAC
:102880004EE02C4D4CE00F21890403980840800C49
:1028900029490F5C0321890503980840800D441CD9
:1028A0002148C06801210904084000280BD02148B4
:1028B000394602F049F92246002301910090FDF7C4
:1028C0000FFD06461CE0184800681021084000284B
:1028D0000BD01648394602F037F922460023019101
:1028E0000090FDF7FDFC06460AE01148394602F06B
:1028F0002BF92246002301910090FDF7F1FC0646DA
:1029000035460DE000BF08484068072149030840EC
:10291000400B02900298401C01218140CD0300BF72
:1029200000BF284605B0F0BD0010024000093D0080
:102930000024F40000127A007C760008FEB50446FC
:10294000002C01D10120FEBDFB48C7680C210F40BF
:10295000C06801210904084001902078C007C00F19
:10296000002872D0082F04D00C2F0FD10198884274
:102970000CD1F1480068012149040840400C0028AE
:1029800063D06068002860D10120DCE700BF01212E
:1029900009046068884205D1E74800680843E649B1
:1029A000086027E005210904606888420ED1E248EA
:1029B0000068012189040843DF490860084600686F
:1029C000012109040843DC49086013E0DA48006883
:1029D000012109048843D84908600846006801219C
:1029E00009040840009000BFD3480068890088436C
:1029F000D149086000BF6068002813D0FFF740FC91
:102A0000054606E0FFF73CFC401B642801D9032083
:102A100099E7C9480068012149040840400C002892
:102A2000F0D012E0FFF72CFC054606E0FFF728FC8B
:102A3000401B642801D9032085E7BF4800680121B5
:102A400049040840400C0028F0D1022120680840C9
:102A500002286CD1E66820203040002809D0B64812
:102A6000006820210843B44908602021304688438B
:102A70000646042F04D00C2F34D10198002831D100
:102A8000AD480068042108408008002803D0002ECB
:102A900001D1012057E7A84840681F210902884357
:102AA000216909020843A4494860084600680921D1
:102AB00088433043A0490860FFF7C8FE9E49C968B3
:102AC000F022114009099D4A515CC8409C490860A8
:102AD0009C480068FFF7F0FB0290029800283FD066
:102AE000029830E7002E23D09348006809218843DC
:102AF000304391490860FFF7C3FB054606E0FFF746
:102B0000BFFB401B022801D903201CE78A4800684C
:102B10000421084080080028F1D0874840681F2120
:102B2000090288432169090208438349486017E084
:102B300081480068400840007F490860FFF7A0FB1B
:102B4000054606E0FFF79CFB401B022801D9032045
:102B5000F9E6794800680421084080080028F1D18E
:102B6000102120680840102868D1002F37D1724802
:102B7000006849010840400A002804D0E0690028A4
:102B800001D10120DFE66C484068072149038843F2
:102B9000616A084368494860084640680002000AC4
:102BA000218C0906084364494860606A400B401C58
:102BB00001218140C8036049C968F0221140090918
:102BC0005E4A515CC8405E4908605E480068FFF795
:102BD00073FB0290029800284BD00298B3E6E0699C
:102BE00000282CD054480068FF2101310843524985
:102BF0000860FFF745FB054606E0FFF741FB401B79
:102C0000022801D903209EE64B48006801214902B1
:102C10000840400A0028F0D047484068072149038F
:102C20008843616A08434449486008464068000296
:102C3000000A218C090608433F49486019E03E48D4
:102C40000068FF21013188433B490860FFF718FB0A
:102C5000054606E0FFF714FB401B022801D90320BC
:102C600071E635480068012149020840400A002801
:102C7000F0D1082120680840082839D1606900286F
:102C80001BD02D4840300069012108432A494031BA
:102C90000861FFF7F5FA054606E0FFF7F1FA401B79
:102CA000022801D903204EE6234840300069022162
:102CB000084040080028F0D01AE01F484030006962
:102CC000400840001C4940310861FFF7D9FA054629
:102CD00006E0FFF7D5FA401B022801D9032032E6AF
:102CE0001548403000690221084040080028F0D112
:102CF00004212068084004287BD1002000900E4861
:102D0000806B89060840002806D10B48806B084379
:102D100009498863012000900B480068FF210131B8
:102D20000840002820D10848006808430649086088
:102D3000FFF7A6FA054610E000100240647600088E
:102D4000200200201802002000700040FFF798FACF
:102D5000401B642801D90320F5E5B3480068FF2132
:102D6000013108400028F1D000BFFF210131A068E7
:102D7000884205D1AD4800690843AC49086130E09C
:102D8000A06800280DD1A9480069FF2101318843BE
:102D9000A64908610846006909158843A3490861E6
:102DA0001FE005210902A06888420DD19F480069F3
:102DB0000121890208439D49086108460069891577
:102DC00008439A4908610CE098480069FF210131E5
:102DD0008843964908610846006909158843934964
:102DE000086100BFA068002815D0FFF749FA054622
:102DF00008E031E0FFF744FA401B8D49884201D9D1
:102E00000320A0E589480069012149020840400AE1
:102E10000028EFD013E0FFF733FA054607E0FFF78D
:102E20002FFA401B8249884201D903208BE57F4855
:102E30000069012149020840400A0028EFD10098AA
:102E4000012808D179484038806B0121090788435F
:102E500076494039886300BF202120680840202837
:102E600052D1A06900282BD000BF7048403880683C
:102E7000012108436D49403988600846406B0121B3
:102E800008436A49403948636A48006A0121490396
:102E900008436849086200BFFFF7F2F9054606E0FB
:102EA000FFF7EEF9401B022801D903204BE55F48EC
:102EB000403880680221084040080028F0D023E014
:102EC00000BF5A48403880684008400057494039A0
:102ED00088605848006A01214903884355490862BF
:102EE00000BFFFF7CDF9054606E0FFF7C9F9401B23
:102EF000022801D9032026E54C4840388068022189
:102F0000084040080028F0D1A06A00284CD00C2FBF
:102F100069D0A06A022848D144484038006801219D
:102F200009068843414940390860FFF7A9F9054679
:102F300006E0FFF7A5F9401B022801D9032002E5AE
:102F40003A4840380068012149060840400E0028F0
:102F5000EFD1216BE06A0843616B08433349403984
:102F6000C968FD2212049143084330494039C860C2
:102F7000084600680121090608432C4940390860C9
:102F8000FFF77EF9054606E0FFF77AF9401B0228B5
:102F900001D90320D7E425484038006801214906BB
:102FA0000840400E0028EFD03CE020484038006840
:102FB0000121090688431D4940390860FFF760F97F
:102FC000054606E0FFF75CF9401B022801D9032003
:102FD000B9E4164840380068012149060840400E0F
:102FE0000028EFD11EE0A06A012800D1ABE40F4811
:102FF0004038C06801900121090401980840E16A45
:1030000088420DD10F21890401980840216B884224
:1030100006D10321890501980840616B884201D0DF
:10302000012090E400208EE4007000404010024037
:103030008813000000000140024600BF2020805C91
:10304000012801D10220704701232020835400BFB2
:103050000223212083541068006C8843136818648D
:10306000C807C00F002805D01068006C104B18402E
:103070001368186408200840002805D01068006C08
:103080000C4B18401368186420200840002805D015
:103090001068006C084B1840136818640123212045
:1030A000835400BF00232020835400BF0020CAE7C0
:1030B000FBFFFEFFFBFFF7FFFBFFBFFF70B5044602
:1030C00000BF2020005D012801D1022070BD012138
:1030D0002020015500BF02212120015500BFCA2038
:1030E0002168486253202168486200BF20688068D8
:1030F0000121890288432168886020688068012155
:103100008903884321688860FFF7BAF8054615E00F
:10311000FFF7B6F8401B7D21C90088420ED900BFD9
:10312000FF202168486200BF03212120015500BF14
:1031300000212020015500BF0320C7E72068C06898
:103140000421084080080028E2D000BFFF20216849
:10315000486200BF01212120015500BF002120202D
:10316000015500BF0020B1E7F8B504460E461746EA
:1031700000BF2020005D012801D10220F8BD0121FF
:103180002020015500BF02212120015500BFCA2087
:103190002168486253202168486200BF2068806827
:1031A000012189020840002820D0FFF769F8054670
:1031B00015E0FFF765F8401B7D21C90088420ED954
:1031C00000BFFF202168486200BF03212120015574
:1031D00000BF00212020015500BF0320CEE720685A
:1031E000C0680421084080080028E2D12068806877
:1031F000012189028843216888602068C068802195
:1032000008402E4908432168C860FFF739F8054691
:1032100015E0FFF735F8401B7D21C90088420ED923
:1032200000BFFF202168486200BF03212120015513
:1032300000BF00212020015500BF03209EE7206829
:10324000C0680421084080080028E2D02068466158
:1032500020688068C008C000216888602068806895
:103260003843216888601648006801210905084331
:103270001349086008468068012109050843104980
:10328000886020688068012189030843216888607C
:10329000206880680121890208432168886000BF96
:1032A000FF202168486200BF01212120015500BF95
:1032B00000212020015500BF00205FE77FFBFFFFBA
:1032C0000004014010B504462046FFF7F7FE03480E
:1032D0000068042108430149086010BD00700040E7
:1032E00010B504462068C068012189020840800AA0
:1032F00000280AD02046FFF7E5FF2068C06880213B
:103300000840064908432168C860012000050449B7
:10331000486101212120015510BD00007FFBFFFF06
:103320000004014010B50446002C01D1012010BD5D
:103330002120005D002805D10021202001552046D4
:1033400000F06EF802212120015500BFCA2021683B
:10335000486253202168486200BF204601F0B0F95E
:10336000002809D000BFFF202168486200BF042167
:10337000212001550120DAE72068806827490840AC
:1033800021688860216960680843A1690843216851
:1033900089680843216888602168E06808612068BE
:1033A0000069218909040843216808612068C06810
:1033B000802188432168C8602068C06C8008800034
:1033C0002168C8646169E06908432168C96C0843E1
:1033D0002168C8642068806820210840002813D133
:1033E000204600F079F900280ED000BFFF202168A8
:1033F000486200BF04212120015500BF0021202088
:10340000015500BF012092E700BFFF2021684862FC
:1034100000BF012121200155002088E7BFFF8FFF59
:1034200010B504460F492068884219D10E48806BB8
:103430000121090708430C498863FEF78FFF0A48FA
:10344000403000690121890408430749403108617F
:10345000002211460220FEF777FF0220FEF766FFEA
:1034600010BD00000028004000100240F7B50446DF
:103470000D4600BF2020005D012801D10220FEBDC5
:1034800001212020015500BF022121200155029871
:10349000002809D1687810210840102804D16878E4
:1034A000EF2108400A3068700298002811D1E878AE
:1034B00001F0F8F80704687801F0F4F80002074317
:1034C000A87801F0EFF80743287840033E4606430A
:1034D0000AE0E8780004697809020843A9780843FB
:1034E000297849030843064600BFCA20216848627C
:1034F00053202168486200BF204601F0E1F800280F
:103500000ED000BFFF202168486200BF04212120A7
:10351000015500BF00212020015500BF0120AEE76A
:1035200019483040216848602068C068802188437D
:103530002168C8602068806820210840002813D1D5
:10354000204600F0C9F800280ED000BFFF202168F7
:10355000486200BF04212120015500BF0021202026
:10356000015500BF01208AE700BFFF2021684862A3
:1035700000BF01212120015500BF0021202001555D
:1035800000BF00207BE700003FFFFF00F7B50446C7
:103590000D4600BF2020005D012801D10220FEBDA4
:1035A00001212020015500BF022121200155029850
:1035B00000281BD12068806840210840002800D0E6
:1035C00002E00020E87000BF287801F06BF80704E3
:1035D000687801F067F800020743A87801F062F804
:1035E0000743E87800043E46064314E020688068FC
:1035F00040210840002800D002E00020E87000BF11
:1036000028780004697809020843A9780843E97812
:1036100009040843064600BFCA20216848625320B7
:103620002168486200BF204601F04AF800280ED009
:1036300000BFFF202168486200BF042121200155FE
:1036400000BF00212020015500BF0120A7E721482D
:10365000304021680860206880680121890488431F
:10366000216888602969E8680843216889680843F7
:10367000216888602068C068802188432168C8600C
:103680002068806820210840002813D1204600F0DF
:1036900023F800280ED000BFFF202168486200BF39
:1036A00004212120015500BF00212020015500BF29
:1036B000012074E700BFFF202168486200BF01219C
:1036C0002120015500BF00212020015500BF00200E
:1036D00065E700007F7F7F0070B504462068C06802
:1036E000A02188432168C860FEF7CAFD054608E0AE
:1036F000FEF7C6FD401B7D21C900884201D9032089
:1037000070BD2068C068202108400028F0D000204B
:10371000F6E7000070B504462546681E0949884250
:1037200001D901200CE0681E074948610321081FE8
:1037300001F0E6FA002004498861072008610020B2
:1037400070BD0000FFFFFF0000E000E0F0B5069C48
:103750000D4655405D40059EAE19079D7519281808
:103760000546A5402026361B0746F7403D43284620
:103770004018F0BD0DA001F021FB00BF00BF00BF4D
:1037800000BF00BFBFF34F8F00BF00BF00BF0A489C
:103790000A49C86000BF00BF00BFBFF34F8F00BF22
:1037A00000BF00BF00BF00BFFDE7000048617264BA
:1037B0006661756C740D0A000400FA0500ED00E006
:1037C000F0B5069CDD430D435540059EAE19079D9F
:1037D000751928180546A5402026361B0746F740D0
:1037E0003D4328464018F0BD10B54A1E044B9A5C74
:1037F000825802239A434B1E014CE35CC25010BD19
:10380000FC75000810B54A1E044B9A5C82580823C8
:103810009A434B1E014CE35CC25010BDFC7500087E
:1038200010B54A1E044B9A5C825802231A434B1E61
:10383000014CE35CC25010BDFC75000810B54A1E77
:10384000044B9A5C825808231A434B1E014CE35CDC
:10385000C25010BDFC75000830B54B1E054CE35C32
:10386000C35803242403A34313434C1E014D2C5D72
:10387000035130BDFC75000830B54B1E054CE35CB0
:10388000C358054C234013434C1E024D2C5D03517D
:1038900030BD0000FC750008EFBFFFFF30B54B1EC8
:1038A000054CE35CC3588024A34313434C1E024DD4
:1038B0002C5D035130BD0000FC75000830B54B1E77
:1038C000054CE35CC3580324A402A34313434C1EDA
:1038D000014D2C5D035130BDFC75000830B54B1E09
:1038E000054CE35CC3582024A34313434C1E024DF4
:1038F0002C5D035130BD0000FC75000830B54B1E37
:10390000054CE35CC3584024A34313434C1E024DB3
:103910002C5D035130BD0000FC75000830B5A823B4
:103920001B584C1EA5000F24AC40A3434C1EA50001
:103930001446AC402343A824235030BD30B54B1E61
:10394000054CE35CC35803242402A34313434C1ED9
:10395000014D2C5D035130BDFC75000801494861E3
:1039600070470000000401400146044840690840D7
:10397000884201D1012070470020FCE7000401408B
:10398000F0B502460B46002600216CE00124B4404D
:10399000186820400146002964D05868012802D0E8
:1039A0005868022816D1986894680D464D436F00F8
:1039B000ED19AC430D464D4345432C43946000BF85
:1039C000DC68186855688543074667433D43556082
:1039D00000BF00BF1869D4680D464D436F00ED1954
:1039E000AC430D464D4345432C43D46000BF58685B
:1039F000022829D1FF2911D85869146A0D464D4370
:103A00004D434D432F017D1BAC430D464D434D436C
:103A10004D4345432C43146200BF15E05F69080A1B
:103A200040430C0A60430C0A60430401241A506AA4
:103A3000A0430C0A64430D0A6C430D0A6C437C439B
:103A40002043506200BF00BF586814680D464D43C4
:103A50006F00ED19AC430D464D4345432C431460B4
:103A600000BF00BF761C1868F04000288ED1F0BD62
:103A700081627047816270478162704781617047DF
:103A80008161704730B503680C464C43650064198A
:103A9000A3430C464C4354432343036030BD30B52D
:103AA000C3680C464C4365006419A3430C464C4361
:103AB00054432343C36030BD08B50549C96A014377
:103AC000034AD1621146C96A0140009100BF08BD96
:103AD0000010024010B5044600F076FD206020681A
:103AE00000F03CFD6060606800F04AFDA060606826
:103AF00000F058FDE06010BDF8B504460025032C29
:103B00002FD1204600F066F82104401A1ED001286B
:103B100004D0022806D0032817D10FE000F054FD8E
:103B200005461DE000F060F8002806D000F064F8BB
:103B3000002801D0254D00E0254D11E000F064F88B
:103B4000002801D00125ED030AE000BF00F03CFD94
:103B5000074600F003FD064600F024FD054600BFC1
:103B600000BF0C2C2FD1204600F034F82104401A5D
:103B70001ED0042804D0082806D00C2817D10FE046
:103B800000F022FD05461DE000F02EF8002806D0CA
:103B900000F032F8002801D00C4D00E00C4D11E08F
:103BA00000F032F8002801D00125ED030AE000BF43
:103BB00000F00AFD074600F0D1FC064600F0E0FCEC
:103BC000054600BF00BF2846F8BD000000093D00C3
:103BD0000024F40001460348C06808400A0410436A
:103BE000704700004010024002480068042108406D
:103BF0008008704700100240024800681021084009
:103C00000009704700100240034800690121490281
:103C10000840400A704700004010024002484068D7
:103C200007214903084070470010024010B50246C2
:103C30005068144B1840014630200840000900012C
:103C40000B071B0F1843000407235B030B405B0BA0
:103C50001B06184301231B030B401B0B1B010F24E6
:103C600024020C40240A23431B0218430F231B0584
:103C70000B401B0D1B010F2424040C40240C234378
:103C8000184310BD3FFFFF0010B502461068114BEE
:103C900018400146032000050840000D00010F23D5
:103CA0001B040B401B0C1843000407231B030B4091
:103CB0001B0B1B010F2424020C40240A23431B026C
:103CC000184370230B401B091B010C07240F2343CF
:103CD000184310BD7F7F3F0010B5084A0B069B0DAF
:103CE000D2580C0C0F23A3409A430C0C0346A3405C
:103CF0001A43024B0C06A40D1A5110BD08000140D6
:103D0000016849084900016070470000F0B589B0BA
:103D100004460D460120089000200790204600F040
:103D200083F800286AD1E96868680843296908436C
:103D3000A96908432168334A114008432060A868F4
:103D400061680322120391430143616000BF686907
:103D5000A168121191430143A16000BF2A48844227
:103D600004D10320FFF7C8FE079018E027488442DB
:103D700004D10C20FFF7C0FE079010E024488442D5
:103D800005D103A8FFF7A6FE0598079007E0214894
:103D9000844204D103A8FFF79DFE05980790079879
:103DA00000282BD02868002828D000200890079FE2
:103DB000A86902902E680121C9030298884214D193
:103DC0007900720888183146FCF74DFD80B20190E9
:103DD000114901980840009001980007400F009990
:103DE000084300900098E06006E07108C819314669
:103DF000FCF739FD80B2E06000BF00BF089809B051
:103E0000F0BD0000F369FFEF0038014000440040BE
:103E1000004C004000500040F0FF00000146C8691F
:103E200008221040C008704701460868C007C00F4C
:103E3000012250405040704708B500BF0D48006B4C
:103E4000012108430B4908630846006BC007C00FF7
:103E5000009000BF00BF00210A2000F0D9FE0A2018
:103E6000002805DBC206D20E01219140024A1160F2
:103E700000BF08BD0010024000E100E000B587B0BF
:103E8000182101A8FCF7EDFC0420FFF715FE8020A7
:103E9000FFF712FE0120FFF70FFE0220FFF70CFED6
:103EA0000820FFF709FE01214903E148FFF7E0FD83
:103EB0000121DF48FFF7DCFD0821DD48FFF7D8FDD1
:103EC0001021DB48FFF7D4FD01210903D948FFF792
:103ED000CFFD0121C90305200007FFF7C9FD01211E
:103EE0008902D348FFF7C4FD0121C902D048FFF77A
:103EF000BFFD01210903CE48FFF7BAFD0421CE48DA
:103F0000FFF7B6FD2021CB48FFF7B2FD4021C9489D
:103F1000FFF7AEFD8021C748FFF7AAFDFF21013161
:103F2000C448FFF7A5FD01214902C248FFF7A0FDE3
:103F30000120400301900120029000200390049092
:103F4000059001A9BA48FFF71BFD01200190002050
:103F50000290059001A9B948FFF712FD02200190D7
:103F600000200290059001A9B448FFF709FD012047
:103F700001900290002003900490059001A9AC48A4
:103F8000FFF7FEFC08200190012002900020039022
:103F90000490059001A9A648FFF7F2FC04200190C7
:103FA00000200290059001A905200007FFF7E8FC1A
:103FB0001020019000200290059001A90520000723
:103FC000FFF7DEFC102001900120029000200390FA
:103FD0000490059001A99648FFF7D2FC01200190BA
:103FE000032002900020059001A99248FFF7C8FC29
:103FF00002200190032002900020059001A98D4825
:10400000FFF7BEFC0420019000200290059001A95A
:104010008848FFF7B5FC01200003019001200290C1
:10402000002003900490059001A98248FFF7A8FCA6
:1040300040200190032002900020059001A97C48B7
:10404000FFF79EFCFF20013001900320029000202A
:10405000059001A905200007FFF792FC0120C0028E
:104060000190032002900020059001A9052000077F
:10407000FFF786FC0120000301900320029000203E
:10408000059001A905200007FFF77AFC0120C00375
:10409000019001200290002003900490059001A956
:1040A00005200007FFF76CFC012080020190012031
:1040B0000290002003900490059001A95C48FFF74E
:1040C0005FFC0120C00201900120029000200390BB
:1040D0000490059001A95648FFF752FC0120000307
:1040E000019001200290002003900490059001A906
:1040F0004F48FFF745FC042001900120029000206A
:1041000003900490059001A94B48FFF739FC082063
:104110000190032002900020059001A94548FFF777
:104120002FFC1020019000200290059001A9414829
:10413000FFF726FC20200190012002900020039030
:104140000490059001A93B48FFF71AFC402001901C
:1041500001200290002003900490059001A93548A9
:10416000FFF70EFC802001900120029000200390B8
:104170000490059001A92F48FFF702FCFF200130B1
:10418000019001200290002003900490059001A965
:104190002848FFF7F5FB0120400201900120029022
:1041A000002003900490059001A92248FFF7E8FB46
:1041B00023490120FFF790FD22490220FFF78CFDE3
:1041C00002210846FFF788FD1F490220FFF784FD02
:1041D0000022012189031748FFF761FC002280219A
:1041E0001348FFF75CFC0022FF2101311048FFF764
:1041F00056FC0022012149020D48FFF750FC002225
:10420000012189030B48FFF73DFC0022802108486B
:10421000FFF738FC0022FF2101310548FFF732FC8F
:104220000022012149020248FFF72CFC07B000BD23
:104230000008005000040050000C0050001C00500A
:104240000300080001000C000200040000BF104839
:104250001049086000BF00BF0F48086000BF06207B
:10426000486000BF0D48886000BF00BF00BF09481C
:10427000C0684007400F002801D1012000E0002065
:104280000128F3D100BF06480249086000BF70470B
:10429000CCCC00000030004055550000FF0F00005E
:1042A000AAAA000000B589B0142104A8FCF7D9FA25
:1042B000002003902A482B490860002048607F2195
:1042C00028488160FF21C160002101614161816155
:1042D000C161FFF727F8002801D0FDF7E7FD0121B4
:1042E0002048FEF7A9FE1F480068C06880210840EA
:1042F0001D4908431B490968C86001A800F040FE39
:10430000002801D009B000BD002168460174417445
:104310008174002007900890012204A91148FFF73A
:1043200035F9002801D0FDF7C1FD01216846017370
:10433000417381730021C173012203A90948FFF76A
:1043400095F8002801D0FDF7B1FD002212210548A3
:10435000FEF70AFF002801D0FDF7A8FD00BFD1E756
:1043600000280040C40300207FDFFFFF10B58EB09F
:104370001C2107A8FCF775FA182101A8FCF771FAAF
:10438000012080036E49496B01436D4A5163114618
:10439000496B0140009100BF00BF01201146C96A6E
:1043A0000143D1621146C96A0140009100BF00BFBC
:1043B000400201900220029003200390002004900C
:1043C00005900420069001A905200007FFF7D8FA00
:1043D000012080020190022002900320039000201F
:1043E000049005900420069001A905200007FFF71E
:1043F000C7FA032211465348FFF790FA002203211F
:104400005048FFF739FA002203214E48FFF724FAFB
:10441000202203214B48FFF761FA0022032149487B
:10442000FFF76CFA802203214648FFF737FA002293
:1044300003214448FFF782FA002203214148FFF795
:104440003DFA032202213F48FFF768FA10220221B9
:104450003C48FFF711FA002202213A48FFF7FCF925
:10446000002202213748FFF739FA0022022135489D
:10447000FFF744FA802202213248FFF70FFA0022A8
:1044800002213048FFF75AFA002202212D48FFF797
:1044900015FA00211B2000F0F7FB1B2000F0ACFBFD
:1044A000E120400207900020089009900A900C201B
:1044B0000B9000200C900D9007A92348FFF726FCD5
:1044C00000BF214840680921C90288431E4948604D
:1044D000084680682A2188431B49886000BF00BFC6
:1044E00008460068012108431749086000BF1548C5
:1044F00003214A1E154B9A5C825804231A434B1E13
:10450000124CE35CC25000BFFFF78AF903210D484B
:10451000FFF794F902210B48FFF782F902210948BD
:10452000FFF78CF900BF08480068102108430649CE
:10453000086000BF8915064802F014FF0EB010BDD8
:10454000001002400000024000380140FC750008E5
:10455000C402002000BFFEE770470000014600BF14
:104560000548C068F022104010400009034A125C60
:104570000846D040704700000010024064760008F2
:10458000014600BF0548C068072212021040000A19
:10459000034A125C0846D0407047000000100240F9
:1045A00074760008014600BF0548C0680722D202A1
:1045B0001040C00A034A125C0846D0407047000011
:1045C000001002407476000810B500BF1648C0689D
:1045D0000C210840002806D004280CD0082812D04E
:1045E0000C2816D111E0FFF719FB400B401C0121EC
:1045F0008140CC0315E0FFF7FFFA002801D00B4CF7
:1046000000E00B4C0DE00B4C0BE000F015F80446FD
:1046100007E0FFF703FB400B401C01218140CC0366
:1046200000BF00BF204610BD0010024000093D0041
:104630000024F40000127A00F8B500BF1448C068E6
:104640000121090408400546002D07D1FFF7D4FADF
:10465000002801D00F4C00E00F4C01E00F4C00BFD0
:1046600000BF00BF0A48C068032189050840800DCB
:10467000461C0748C0680F2189040840800C08497F
:10468000085C604307463146FCF7EDF8F8BD0000D2
:104690000010024000093D000024F40000127A00DE
:1046A0007C76000802460023114603E05B1C0846A6
:1046B0000A38C1B20A29F9D21807000E0843704718
:1046C00070B504462068C06840210840002815D114
:1046D000401E2168C860FDF7D3FD054608E0FDF7E0
:1046E000CFFD401B7D21C900884201D9032070BD48
:1046F0002068C068402108400028F0D00020F6E77C
:1047000010B50248FEF7ECFD10BD0000C403002008
:10471000F8B504460D4616460E4F00BF38780028FF
:1047200001D100F061F900BFEFF3108007460120CE
:1047300080F3108800BF00BF32462946204600F0B3
:104740000BF80090F8B280F3108800BF00BF00980B
:10475000F8BD000000040020F7B582B007461646F9
:1047600003980190182078431B4940180090009846
:104770004069002804D0012811D0022826D11EE06B
:10478000009800F069F90546B54201D2002405E021
:10479000344632460199009800F0ABF918E00098D1
:1047A00000F05AF90546B54201D2284600E03046ED
:1047B000044622460199009800F09BF908E0324631
:1047C0000199009800F056F9044601E0002400BF6A
:1047D00000BF204605B0F0BD18040020704700005F
:1047E00002480068401C014908607047140200201C
:1047F00000B59DB038210FA8FCF733F814210AA8A2
:10480000FCF72FF828216846FCF72BF827480068AA
:104810000321C90288430121C902401823490860C5
:10482000FDF79CFD224800690321C902884301214C
:10483000C90240181E4908610E200F90881511907A
:104840000120129010201390012014900220199042
:1048500000211A911B9181051C910FA8FEF76EF89B
:10486000002801D0FDF722FB0F200A9003200B90B7
:1048700000200C900D900E9000210AA8FDF7CCFEB0
:10488000002801D0FDF712FB2520009000200390A6
:1048900005900120000401906846FDF769FD00289D
:1048A00001D0FDF703FB1DB000BD0000007000400B
:1048B000401002400120C006014988607047000096
:1048C00000ED00E070B500BF2A48006810210840E4
:1048D000000900280ED000BF2648C0690840000922
:1048E000002807D000BF10202249086200BF012025
:1048F00002F0BEFD1F48FFF791FA00280FD002F02A
:1049000093FC05461CA229461CA000F093FA194806
:10491000446A00BF08201749086200BF00BF15485D
:10492000FFF77CFA00280DD002F07EFC044612A2AC
:1049300021461BA000F07EFA00BF02200D4908624C
:1049400000BF00BF00BF0B48C069042108408008B9
:1049500000280DD002F068FC044607A2214618A0EA
:1049600000F068FA00BF04200249086200BF00BFDF
:1049700070BD000000380140000000001B5B323BAE
:1049800033316D3C25753E205B455D202573203A13
:104990002047534D204F56520D0A1B5B306D0000CF
:1049A0001B5B323B33316D3C25753E205B455D2002
:1049B0002573203A2046450D0A1B5B306D00000030
:1049C0001B5B323B33316D3C25753E205B455D20E2
:1049D0002573203A204E6F697365206572726F727D
:1049E0000D0A1B5B306D000010B5124C01202061D8
:1049F000606111A0A0611349E161012149022162B6
:104A00000021A1626162E1620BA020630E49616333
:104A10002021A16300212164E16361640BA1E01DF9
:104A2000FBF778FE0AA12046FBF774FE2020A07158
:104A300010BD0000000400205465726D696E616C49
:104A40000000000048040020480600205254540092
:104A5000534547474552000010B501460A69CB68E7
:104A60009A4204D88C68641EE41AA01801E0D41A93
:104A7000601E10BDF7B584B00446174600200390B1
:104A8000E56800BF206902900298A84203D9029805
:104A9000401B461E04E0A1680298281A401C0E1A0A
:104AA000A068401BB04201D9304601E0A068401B1D
:104AB0000646BE4201D2304600E0384606466068EF
:104AC00040190190324605990198FBF76BFE039857
:104AD00080190390059880190590BF1BAD19A06837
:104AE000A84200D10025E560002FCBD1039807B084
:104AF000F0BDF7B582B004461546E668A068871B8E
:104B0000AF420AD96068801900902A46039900983C
:104B1000FBF748FE7019E06014E0019760688019A7
:104B20000090019A03990098FBF73CFEE81B019066
:104B3000606800900398C119019A0098FBF732FE53
:104B40000198E06005B0F0BDF8B582B28BB2040CFC
:104B50000D0C10465843002126465E43370C3604A0
:104B60008019794116466E43370C36048019794115
:104B700026466E438919F8BD30B47446641E257804
:104B8000641CAB4204D3635D5B00E31830BC184780
:104B90001D46F8E74900CA020243100000D0042075
:104BA0004A0D01D001221043044A490D914201D11E
:104BB00002210843012800D105207047FF070000AB
:104BC000002815DBC206D20E01219140094A11606E
:104BD00000BF00BF00BFBFF34F8F00BF00BF00BFCB
:104BE00000BF00BF00BFBFF36F8F00BF00BF00BF9B
:104BF0007047000080E100E0002805DBC206D20E0D
:104C000001219140014A11607047000000E100E07D
:104C100010B5002819DB1A4A03231B02D218830897
:104C20009B00D2588307DC0EFF23A3409A438B07D7
:104C30001B0E8407E40EA3401A43114B03242402E5
:104C40001B198408A4001A5118E00E4A03071B0F11
:104C5000083B9B089B00D2588307DC0EFF23A34030
:104C60009A438B071B0E8407E40EA3401A43054B9F
:104C70000407240F083CA408A4001A5110BD00002A
:104C800000E100E01CED00E010B5002819DB1A4A35
:104C900003231B02D21883089B00D2588307DC0E23
:104CA000FF23A3409A438B071B0E8407E40EA34007
:104CB0001A43114B032424021B198408A4001A511F
:104CC00018E00E4A03071B0F083B9B089B00D258B5
:104CD0008307DC0EFF23A3409A438B071B0E840738
:104CE000E40EA3401A43054B0407240F083CA40814
:104CF000A4001A5110BD000000E100E01CED00E02E
:104D000010B5002819DB1A4A03231B02D2188308A6
:104D10009B00D2588307DC0EFF23A3409A438B07E6
:104D20001B0E8407E40EA3401A43114B03242402F4
:104D30001B198408A4001A5118E00E4A03071B0F20
:104D4000083B9B089B00D2588307DC0EFF23A3403F
:104D50009A438B071B0E8407E40EA3401A43054BAE
:104D60000407240F083CA408A4001A5110BD000039
:104D700000E100E01CED00E000BF00BF00BFBFF39A
:104D80004F8F00BF00BF00BF06480749C86000BF83
:104D900000BF00BFBFF34F8F00BF00BF00BF00BF09
:104DA00000BFFDE70400FA0500ED00E030380A28F6
:104DB00001D2012070470020704700000FB4FEB5FB
:104DC000164EFF25013502F02FFA024614A100907D
:104DD0003046FBF723FB86191048371AED1B09A84C
:104DE000019029463046019B089AFBF7FBFA0446DE
:104DF000AC4205DDEA1909490020FFF789FC06E00D
:104E0000002C04DDE21905490020FFF781FC002099
:104E100001902046FEBC08BC04B01847680600207C
:104E20003C25753E3A20000010B504460020C043E2
:104E300010BD00000FB4F8B5104EFF25013507A8CE
:104E4000009029463046009B069AFBF7CBFA0446B1
:104E5000AC4205DD2A4631460020FFF759FC06E04A
:104E6000002C04DD224605490020FFF751FC0020FC
:104E700000902046F8BC08BC04B018476806002023
:104E8000FEB506460C46082221461031684601F060
:104E900032FB208AC005850E382D02D23820401BF7
:104EA00001E07820401B07463A460949204600F0B9
:104EB00023F808226946204600F01EF810222146F9
:104EC000304601F018FB58212046FBF7CAFCFEBD16
:104ED0008402002000224261026105490160054907
:104EE00041600349C94381600249C943C1607047B9
:104EF0000123456789ABCDEFF7B582B0044615466F
:104F0000208AC005800E0190E90020694018E90060
:104F10002061884202D26069401C6061690F60694B
:104F200041186161402101980F1ABD421BD32146EF
:104F30001831019A88183A460399FBF733FC214649
:104F40001831204601F0F6FA3E4605E00398811933
:104F5000204601F0EFFA403630463F30A842F5D304
:104F60000020019000E00026AA1B0398811920462A
:104F70001830019BC0180090FBF714FC05B0F0BD81
:104F800070B504463448FEF77FFE06463248FEF709
:104F90004DFE0546FF2000043040000CF021084083
:104FA00000110A214843FF21090431400903090F78
:104FB0004018E070FF2000023040000AF021084055
:104FC00000110A214843FF21090231400905090F58
:104FD00040182071F020304000110A214843310769
:104FE000090F40186071FF2000042840000CF021D8
:104FF000084000110A214843FF2109042940090300
:10500000090F4018A070FF2000022840000AF0217C
:10501000084000110A214843FF21090229400905DF
:10502000090F40186070F020284000110A21484301
:105030002907090F40182070207814280ADD2078ED
:10504000272807DA60780D2804DAA078202801DA0A
:10505000012070BD0020FCE7002800407FB5044619
:1050600002F0E2F8064623461DA231461DA0FFF7D6
:10507000E1FE00F0ADF80025FDF7BCF80294002039
:1050800001902648844209D2001BC009039069465A
:1050900001A8FDF759F8002800D00125002D11D1F5
:1050A0001E48844200D200E0204602901C4902982B
:1050B000081AC0090390694601A8FDF745F80028C1
:1050C00000D00125FDF786F802F0AEF806462B4623
:1050D00003A2314613A0FFF7ADFE284604B070BD11
:1050E000000000001B5B323B33326D3C25753E20D7
:1050F0005B495D202573203A20466C61736820650A
:105100007261736520617420616464722030782557
:105110003038580D0A1B5B306D000000008001081C
:10512000FFDF02081B5B323B33326D3C25753E20AE
:105130005B495D202573203A2045726173652066C6
:105140006C617368206572726F7220636F64652092
:1051500025750D0A1B5B306D000000007FB500F067
:1051600037F80024FDF746F80C4802900020019023
:1051700001200390694601A8FCF7E6FF002808D04B
:1051800002F052F8054606A2294606A0FFF752FE95
:105190000124FDF71FF8204604B070BD00E00208AE
:1051A000000000001B5B323B33316D3C25753E2017
:1051B0005B455D202573203A204F54412065726184
:1051C0007365206572726F720D0A1B5B306D000093
:1051D00010B5FDF70FF8034803498861FCF7FAFFA3
:1051E00010BD0000002F030000200240F7B582B080
:1051F00007460024039D0026FFF7EAFFFCF7FAFFAD
:1052000037E000BF26482749086000BF29463846D6
:10521000FCF7C2FD002818D1002610E0B000385875
:10522000B1006958884209D001F0FEFF1EA2014674
:1052300001901EA0FFF7FEFD022402E0761C102E56
:10524000ECD300BF4037403508E001F0EDFF16A277
:105250000146019023A0FFF7EDFD0324002C08D0A8
:1052600001F0E2FF10A20146019029A0FFF7E2FD44
:1052700005E00498810003980818A842C1D800BF2F
:10528000FCF7A8FF002C08D001F0CEFF234606A2B1
:10529000014601902AA0FFF7CDFD204605B0F0BDE4
:1052A000AAAA000000300040000000001B5B323B57
:1052B00033316D3C25753E205B455D202573203ADA
:1052C00020464C4153485F49465F57524954494E26
:1052D000475F4354524C5F4552524F520D0A1B5B7D
:1052E000306D00001B5B323B33316D3C25753E2039
:1052F0005B455D202573203A2057726974696E679B
:10530000206572726F720D0A1B5B306D0000000029
:105310001B5B323B33316D3C25753E205B455D2088
:105320002573203A20577269746520666C61736832
:10533000206572726F720D0A1B5B306D00000000F9
:105340001B5B323B33326D3C25753E205B495D2053
:105350002573203A20466C61736820777269746502
:10536000206572726F722025640D0A1B5B306D0020
:1053700070B504460D46FFF7F1FE2A462146024865
:10538000FFF734FF002070BD00E002087CB5044642
:105390000D46424840780300FFF7EEFB066E041A04
:1053A000344E636E002C07D001F03EFF06463CA24F
:1053B00031463CA0FFF73EFD46480A217D23DB0035
:1053C00037A20091019044A145A000F09DFE5EE04F
:1053D00001F02AFF0646002C01D143A000E044A0C2
:1053E00003462FA2314644A0FFF724FD39480A2185
:1053F0007D23DB002AA20091019037A14AA000F092
:1054000083FE44E001F010FF0646002C01D136A0D7
:1054100000E037A0034622A2314646A0FFF70AFD6E
:105420002C480A217D23DB001DA2009101902AA1B6
:105430004CA000F069FE2AE001F0F6FE06462B467D
:1054400017A2314649A0FFF7F5FC22480A217D2327
:10545000DB0013A2009101901FA150A000F054FEA8
:1054600015E0052000F0B8F801200C49C8700020B4
:10547000487000F0B7F80AE001F0D6FE064607488B
:10548000437807A2314647A0FFF7D4FC00BF00BF16
:1054900002484078401C014948707CBD240200202D
:1054A000000000001B5B323B33316D3C25753E2014
:1054B0005B455D202573203A20436F6E6E656374F3
:1054C000206D6F64656D20455252210D0A1B5B30C3
:1054D0006D0000008D5300084F4B0D0A00000000C6
:1054E000415445300D0A00005B4F4B5D0000000049
:1054F0005B4641494C5D00001B5B323B33326D3CE7
:1055000025753E205B495D202573203A2044697350
:1055100061626C65204154206563686F203A2025E4
:10552000730D0A1B5B306D0041542B434D45453DC7
:10553000320D0A001B5B323B33326D3C25753E2039
:105540005B495D202573203A2053657420434D4507
:1055500045207265706F72743A2025730D0A1B5BCB
:10556000306D00004154490D0A0000001B5B323BC6
:1055700033326D3C25753E205B495D202573203A12
:1055800020476574206D6F64756C6520696E666F69
:105590003A2025730D0A1B5B306D000041540D0A43
:1055A000000000001B5B323B33336D3C25753E2011
:1055B0005B575D202573203A2047534D20756E6858
:1055C000616E646C656420737465702025750D0AC6
:1055D0001B5B306D0000000001490860704700004F
:1055E0003002002070B50446002C02D10220204970
:1055F000C87001F019FE05461EA229461EA0FFF73D
:1056000019FC2300FFF7B8FA0504081E22262C0017
:1056100025A0FFF70FFC24E025A0FFF70BFC00F00E
:10562000CBFB0121C90305200007FEF725FA012164
:1056300049022148FEF724FA012109031E48FEF71A
:105640001BFA0EE01DA0FFF7F5FB0AE01EA0FFF716
:10565000F1FB06E01FA0FFF7EDFB00F0ADFB00E063
:1056600000BF00BF0248047000200149487070BDAF
:1056700024020020000000001B5B323B33326D3CF3
:1056800025753E205B495D202573203A20436861E3
:105690006E67652047534D20737461746520746F85
:1056A0003A201B5B306D00004F4B0D0A00000000DC
:1056B00052455345540D0A000004005053454E44D2
:1056C00020534D530D0A00005245414420534D5381
:1056D0000D0A0000504F5745524F4E0D0A00000072
:1056E000002001498870704724020020F0B5A1B065
:1056F00004460D4601F098FD0646002C01D194A009
:1057000000E095A00090964892A23146036895A0CB
:10571000FFF790FB002C09D001F086FD06468DA214
:105720003146A0A0FFF786FBFFF726FB8C480068F8
:10573000002837D1A6A12846FAF7AAFF0646002E70
:1057400009D101F071FD074682A23946A3A0FFF7F7
:1057500071FBFFF711FB0D2036183146002000F0D9
:10576000CEFDA949086001F05FFD0746A64879A271
:1057700039460368A5A0FFF75DFBA348006801F068
:105780005FFB93A2ADA1B248FAF748FEB1480121F0
:105790007D231B01B0A200910190B1A1AC4800F0A3
:1057A000B3FCCDE06E48006801283AD1AF492846E5
:1057B00000F0ECFD01F038FD06462B4665A23146AF
:1057C000ABA0FFF737FBA9480068401C002813D0A6
:1057D000B2480368A548B2A102689D48FAF71EFEC8
:1057E0009C4801217D231B015AA2009101909AA19E
:1057F000974800F089FC13E00020A8490860584948
:105800000860401E9949086001F00EFD0646974861
:1058100050A231460368A7A0FFF70CFBFFF7ACFAD4
:105820008EE04F480068022812D180238F48AEA135
:1058300002688748FAF7F2FD864801217D231B01A3
:1058400085A200910190ADA1814800F05DFC77E058
:1058500043480068032854D11FAA20A9284600F015
:1058600071FD01F0E1FC06463AA23146A6A01F9B5D
:10587000FFF7E0FA2020B04A51690A4602401204BC
:1058800003468B431A43AC4B9A6100BF1F99209883
:1058900001F068FB814800681F9940187F49086043
:1058A0000846006858490968884214D3A3A0FFF746
:1058B000BBFA6E48A5A102686548FAF7AFFD6548D6
:1058C00001217D231B0123A20091019062A1604868
:1058D00000F01AFC14E0022021490860802363488C
:1058E00081A102685A48FAF799FD5A4801217D239F
:1058F0001B0159A20091019098A1554800F004FCA9
:105900001EE017480068042819D101F08DFC0646F6
:1059100010A2314693A0FFF78DFA01F0FDF900289F
:105920000BD09C48019038480068029000200390FA
:10593000202101A8FFF71CFD00BFFFF71DFA00BFE3
:1059400007480068401C0649086021B0F0BD00000F
:105950005B4F4B5D000000005B4641494C5D000021
:10596000680200201B5B323B33326D3C25753E20C4
:105970005B495D202573203A20446F776E6C6F6120
:1059800064206269672066696C65207374657020A5
:1059900025752C20726573756C742025730D0A1B98
:1059A0005B306D001B5B323B33316D3C25753E2017
:1059B0005B455D202573203A204C6973742066692D
:1059C0006C65206661696C65640D0A1B5B306D0057
:1059D0005546533A6F74612E62696E001B5B323B11
:1059E00033316D3C25753E205B455D202573203AA3
:1059F0002046696C65206E616D65206572726F72FC
:105A00000D0A1B5B306D0000640200201B5B323B03
:105A100033326D3C25753E205B495D202573203A6D
:105A200020496D6167652073697A6520257520625C
:105A3000797465730D0A1B5B306D000041542B5166
:105A4000464F50454E3D222573222C320D0A000050
:105A5000DD0B0020ED5600084F4B0D0A0000000042
:105A60002B51464F50454E3A000000006C0200207A
:105A70001B5B323B33326D3C25753E205B495D201C
:105A80002573203A2046696C652068616E646C65F8
:105A90002025730D0A1B5B306D00000060020020A2
:105AA00041542B51465345454B3D25752C25752CAE
:105AB000300D0A001B5B323B33316D3C25753E20B7
:105AC0005B455D202573203A2046696C652068613E
:105AD0006E646C65206661696C65642025640D0ADE
